{
	"visibility.sol": {
		"C": {
			"abi": [
				{
					"inputs": [],
					"name": "a",
					"outputs": [
						{
							"internalType": "uint256",
							"name": "",
							"type": "uint256"
						}
					],
					"stateMutability": "view",
					"type": "function"
				},
				{
					"inputs": [],
					"name": "anothercaller",
					"outputs": [
						{
							"internalType": "string",
							"name": "",
							"type": "string"
						}
					],
					"stateMutability": "view",
					"type": "function"
				}
			],
			"devdoc": {
				"kind": "dev",
				"methods": {},
				"version": 1
			},
			"evm": {
				"assembly": "    /* \"visibility.sol\":1191:1376  contract C{\r... */\n  mstore(0x40, 0x80)\n    /* \"visibility.sol\":1223:1239  new visibility() */\n  mload(0x40)\n  tag_1\n  swap1\n  tag_2\n  jump\t// in\ntag_1:\n  mload(0x40)\n  dup1\n  swap2\n  sub\n  swap1\n  0x00\n  create\n  dup1\n  iszero\n  dup1\n  iszero\n  tag_3\n  jumpi\n  returndatasize\n  0x00\n  dup1\n  returndatacopy\n  revert(0x00, returndatasize)\ntag_3:\n  pop\n    /* \"visibility.sol\":1208:1239  visibility obj=new visibility() */\n  0x00\n  dup1\n  0x0100\n  exp\n  dup2\n  sload\n  dup2\n  0xffffffffffffffffffffffffffffffffffffffff\n  mul\n  not\n  and\n  swap1\n  dup4\n  0xffffffffffffffffffffffffffffffffffffffff\n  and\n  mul\n  or\n  swap1\n  sstore\n  pop\n    /* \"visibility.sol\":1260:1263  obj */\n  0x00\n  dup1\n  sload\n  swap1\n  0x0100\n  exp\n  swap1\n  div\n  0xffffffffffffffffffffffffffffffffffffffff\n  and\n    /* \"visibility.sol\":1260:1265  obj.z */\n  0xffffffffffffffffffffffffffffffffffffffff\n  and\n  0xc5d7802e\n    /* \"visibility.sol\":1260:1267  obj.z() */\n  mload(0x40)\n  dup2\n  0xffffffff\n  and\n  0xe0\n  shl\n  dup2\n  mstore\n  0x04\n  add\n  0x20\n  mload(0x40)\n  dup1\n  dup4\n  sub\n  dup2\n  dup7\n  dup1\n  extcodesize\n  iszero\n  dup1\n  iszero\n  tag_4\n  jumpi\n  0x00\n  dup1\n  revert\ntag_4:\n  pop\n  gas\n  staticcall\n  iszero\n  dup1\n  iszero\n  tag_6\n  jumpi\n  returndatasize\n  0x00\n  dup1\n  returndatacopy\n  revert(0x00, returndatasize)\ntag_6:\n  pop\n  pop\n  pop\n  pop\n  mload(0x40)\n  returndatasize\n  not(0x1f)\n  0x1f\n  dup3\n  add\n  and\n  dup3\n  add\n  dup1\n  0x40\n  mstore\n  pop\n  dup2\n  add\n  swap1\n  tag_7\n  swap2\n  swap1\n  tag_8\n  jump\t// in\ntag_7:\n    /* \"visibility.sol\":1246:1267  uint public a=obj.z() */\n  0x01\n  sstore\n    /* \"visibility.sol\":1191:1376  contract C{\r... */\n  callvalue\n  dup1\n  iszero\n  tag_9\n  jumpi\n  0x00\n  dup1\n  revert\ntag_9:\n  pop\n  jump(tag_10)\ntag_2:\n  dataSize(sub_1)\n  dup1\n  dataOffset(sub_1)\n  dup4\n  codecopy\n  add\n  swap1\n  jump\t// out\n    /* \"#utility.yul\":7:150   */\ntag_12:\n    /* \"#utility.yul\":64:69   */\n  0x00\n    /* \"#utility.yul\":95:101   */\n  dup2\n    /* \"#utility.yul\":89:102   */\n  mload\n    /* \"#utility.yul\":80:102   */\n  swap1\n  pop\n    /* \"#utility.yul\":111:144   */\n  tag_14\n    /* \"#utility.yul\":138:143   */\n  dup2\n    /* \"#utility.yul\":111:144   */\n  tag_15\n  jump\t// in\ntag_14:\n    /* \"#utility.yul\":7:150   */\n  swap3\n  swap2\n  pop\n  pop\n  jump\t// out\n    /* \"#utility.yul\":156:507   */\ntag_8:\n    /* \"#utility.yul\":226:232   */\n  0x00\n    /* \"#utility.yul\":275:277   */\n  0x20\n    /* \"#utility.yul\":263:272   */\n  dup3\n    /* \"#utility.yul\":254:261   */\n  dup5\n    /* \"#utility.yul\":250:273   */\n  sub\n    /* \"#utility.yul\":246:278   */\n  slt\n    /* \"#utility.yul\":243:362   */\n  iszero\n  tag_17\n  jumpi\n    /* \"#utility.yul\":281:360   */\n  tag_18\n  tag_19\n  jump\t// in\ntag_18:\n    /* \"#utility.yul\":243:362   */\ntag_17:\n    /* \"#utility.yul\":401:402   */\n  0x00\n    /* \"#utility.yul\":426:490   */\n  tag_20\n    /* \"#utility.yul\":482:489   */\n  dup5\n    /* \"#utility.yul\":473:479   */\n  dup3\n    /* \"#utility.yul\":462:471   */\n  dup6\n    /* \"#utility.yul\":458:480   */\n  add\n    /* \"#utility.yul\":426:490   */\n  tag_12\n  jump\t// in\ntag_20:\n    /* \"#utility.yul\":416:490   */\n  swap2\n  pop\n    /* \"#utility.yul\":372:500   */\n  pop\n    /* \"#utility.yul\":156:507   */\n  swap3\n  swap2\n  pop\n  pop\n  jump\t// out\n    /* \"#utility.yul\":594:671   */\ntag_23:\n    /* \"#utility.yul\":631:638   */\n  0x00\n    /* \"#utility.yul\":660:665   */\n  dup2\n    /* \"#utility.yul\":649:665   */\n  swap1\n  pop\n    /* \"#utility.yul\":594:671   */\n  swap2\n  swap1\n  pop\n  jump\t// out\n    /* \"#utility.yul\":800:917   */\ntag_19:\n    /* \"#utility.yul\":909:910   */\n  0x00\n    /* \"#utility.yul\":906:907   */\n  dup1\n    /* \"#utility.yul\":899:911   */\n  revert\n    /* \"#utility.yul\":923:1045   */\ntag_15:\n    /* \"#utility.yul\":996:1020   */\n  tag_29\n    /* \"#utility.yul\":1014:1019   */\n  dup2\n    /* \"#utility.yul\":996:1020   */\n  tag_23\n  jump\t// in\ntag_29:\n    /* \"#utility.yul\":989:994   */\n  dup2\n    /* \"#utility.yul\":986:1021   */\n  eq\n    /* \"#utility.yul\":976:1039   */\n  tag_30\n  jumpi\n    /* \"#utility.yul\":1035:1036   */\n  0x00\n    /* \"#utility.yul\":1032:1033   */\n  dup1\n    /* \"#utility.yul\":1025:1037   */\n  revert\n    /* \"#utility.yul\":976:1039   */\ntag_30:\n    /* \"#utility.yul\":923:1045   */\n  pop\n  jump\t// out\n    /* \"visibility.sol\":1191:1376  contract C{\r... */\ntag_10:\n  dataSize(sub_0)\n  dup1\n  dataOffset(sub_0)\n  0x00\n  codecopy\n  0x00\n  return\nstop\n\nsub_0: assembly {\n        /* \"visibility.sol\":1191:1376  contract C{\r... */\n      mstore(0x40, 0x80)\n      callvalue\n      dup1\n      iszero\n      tag_1\n      jumpi\n      0x00\n      dup1\n      revert\n    tag_1:\n      pop\n      jumpi(tag_2, lt(calldatasize, 0x04))\n      shr(0xe0, calldataload(0x00))\n      dup1\n      0x0dbe671f\n      eq\n      tag_3\n      jumpi\n      dup1\n      0x6f746501\n      eq\n      tag_4\n      jumpi\n    tag_2:\n      0x00\n      dup1\n      revert\n        /* \"visibility.sol\":1246:1267  uint public a=obj.z() */\n    tag_3:\n      tag_5\n      tag_6\n      jump\t// in\n    tag_5:\n      mload(0x40)\n      tag_7\n      swap2\n      swap1\n      tag_8\n      jump\t// in\n    tag_7:\n      mload(0x40)\n      dup1\n      swap2\n      sub\n      swap1\n      return\n        /* \"visibility.sol\":1276:1373  function anothercaller() public view returns(string memory){\r... */\n    tag_4:\n      tag_9\n      tag_10\n      jump\t// in\n    tag_9:\n      mload(0x40)\n      tag_11\n      swap2\n      swap1\n      tag_12\n      jump\t// in\n    tag_11:\n      mload(0x40)\n      dup1\n      swap2\n      sub\n      swap1\n      return\n        /* \"visibility.sol\":1246:1267  uint public a=obj.z() */\n    tag_6:\n      sload(0x01)\n      dup2\n      jump\t// out\n        /* \"visibility.sol\":1276:1373  function anothercaller() public view returns(string memory){\r... */\n    tag_10:\n        /* \"visibility.sol\":1321:1334  string memory */\n      0x60\n        /* \"visibility.sol\":1353:1356  obj */\n      0x00\n      dup1\n      sload\n      swap1\n      0x0100\n      exp\n      swap1\n      div\n      0xffffffffffffffffffffffffffffffffffffffff\n      and\n        /* \"visibility.sol\":1353:1363  obj.check3 */\n      0xffffffffffffffffffffffffffffffffffffffff\n      and\n      0x89ac3851\n        /* \"visibility.sol\":1353:1365  obj.check3() */\n      mload(0x40)\n      dup2\n      0xffffffff\n      and\n      0xe0\n      shl\n      dup2\n      mstore\n      0x04\n      add\n      0x00\n      mload(0x40)\n      dup1\n      dup4\n      sub\n      dup2\n      dup7\n      dup1\n      extcodesize\n      iszero\n      dup1\n      iszero\n      tag_14\n      jumpi\n      0x00\n      dup1\n      revert\n    tag_14:\n      pop\n      gas\n      staticcall\n      iszero\n      dup1\n      iszero\n      tag_16\n      jumpi\n      returndatasize\n      0x00\n      dup1\n      returndatacopy\n      revert(0x00, returndatasize)\n    tag_16:\n      pop\n      pop\n      pop\n      pop\n      mload(0x40)\n      returndatasize\n      0x00\n      dup3\n      returndatacopy\n      returndatasize\n      not(0x1f)\n      0x1f\n      dup3\n      add\n      and\n      dup3\n      add\n      dup1\n      0x40\n      mstore\n      pop\n      dup2\n      add\n      swap1\n      tag_17\n      swap2\n      swap1\n      tag_18\n      jump\t// in\n    tag_17:\n        /* \"visibility.sol\":1346:1365  return obj.check3() */\n      swap1\n      pop\n        /* \"visibility.sol\":1276:1373  function anothercaller() public view returns(string memory){\r... */\n      swap1\n      jump\t// out\n        /* \"#utility.yul\":7:428   */\n    tag_20:\n        /* \"#utility.yul\":96:101   */\n      0x00\n        /* \"#utility.yul\":121:187   */\n      tag_22\n        /* \"#utility.yul\":137:186   */\n      tag_23\n        /* \"#utility.yul\":179:185   */\n      dup5\n        /* \"#utility.yul\":137:186   */\n      tag_24\n      jump\t// in\n    tag_23:\n        /* \"#utility.yul\":121:187   */\n      tag_25\n      jump\t// in\n    tag_22:\n        /* \"#utility.yul\":112:187   */\n      swap1\n      pop\n        /* \"#utility.yul\":210:216   */\n      dup3\n        /* \"#utility.yul\":203:208   */\n      dup2\n        /* \"#utility.yul\":196:217   */\n      mstore\n        /* \"#utility.yul\":248:252   */\n      0x20\n        /* \"#utility.yul\":241:246   */\n      dup2\n        /* \"#utility.yul\":237:253   */\n      add\n        /* \"#utility.yul\":286:289   */\n      dup5\n        /* \"#utility.yul\":277:283   */\n      dup5\n        /* \"#utility.yul\":272:275   */\n      dup5\n        /* \"#utility.yul\":268:284   */\n      add\n        /* \"#utility.yul\":265:290   */\n      gt\n        /* \"#utility.yul\":262:374   */\n      iszero\n      tag_26\n      jumpi\n        /* \"#utility.yul\":293:372   */\n      tag_27\n      tag_28\n      jump\t// in\n    tag_27:\n        /* \"#utility.yul\":262:374   */\n    tag_26:\n        /* \"#utility.yul\":383:422   */\n      tag_29\n        /* \"#utility.yul\":415:421   */\n      dup5\n        /* \"#utility.yul\":410:413   */\n      dup3\n        /* \"#utility.yul\":405:408   */\n      dup6\n        /* \"#utility.yul\":383:422   */\n      tag_30\n      jump\t// in\n    tag_29:\n        /* \"#utility.yul\":102:428   */\n      pop\n        /* \"#utility.yul\":7:428   */\n      swap4\n      swap3\n      pop\n      pop\n      pop\n      jump\t// out\n        /* \"#utility.yul\":448:803   */\n    tag_31:\n        /* \"#utility.yul\":515:520   */\n      0x00\n        /* \"#utility.yul\":564:567   */\n      dup3\n        /* \"#utility.yul\":557:561   */\n      0x1f\n        /* \"#utility.yul\":549:555   */\n      dup4\n        /* \"#utility.yul\":545:562   */\n      add\n        /* \"#utility.yul\":541:568   */\n      slt\n        /* \"#utility.yul\":531:653   */\n      tag_33\n      jumpi\n        /* \"#utility.yul\":572:651   */\n      tag_34\n      tag_35\n      jump\t// in\n    tag_34:\n        /* \"#utility.yul\":531:653   */\n    tag_33:\n        /* \"#utility.yul\":682:688   */\n      dup2\n        /* \"#utility.yul\":676:689   */\n      mload\n        /* \"#utility.yul\":707:797   */\n      tag_36\n        /* \"#utility.yul\":793:796   */\n      dup5\n        /* \"#utility.yul\":785:791   */\n      dup3\n        /* \"#utility.yul\":778:782   */\n      0x20\n        /* \"#utility.yul\":770:776   */\n      dup7\n        /* \"#utility.yul\":766:783   */\n      add\n        /* \"#utility.yul\":707:797   */\n      tag_20\n      jump\t// in\n    tag_36:\n        /* \"#utility.yul\":698:797   */\n      swap2\n      pop\n        /* \"#utility.yul\":521:803   */\n      pop\n        /* \"#utility.yul\":448:803   */\n      swap3\n      swap2\n      pop\n      pop\n      jump\t// out\n        /* \"#utility.yul\":809:1333   */\n    tag_18:\n        /* \"#utility.yul\":889:895   */\n      0x00\n        /* \"#utility.yul\":938:940   */\n      0x20\n        /* \"#utility.yul\":926:935   */\n      dup3\n        /* \"#utility.yul\":917:924   */\n      dup5\n        /* \"#utility.yul\":913:936   */\n      sub\n        /* \"#utility.yul\":909:941   */\n      slt\n        /* \"#utility.yul\":906:1025   */\n      iszero\n      tag_38\n      jumpi\n        /* \"#utility.yul\":944:1023   */\n      tag_39\n      tag_40\n      jump\t// in\n    tag_39:\n        /* \"#utility.yul\":906:1025   */\n    tag_38:\n        /* \"#utility.yul\":1085:1086   */\n      0x00\n        /* \"#utility.yul\":1074:1083   */\n      dup3\n        /* \"#utility.yul\":1070:1087   */\n      add\n        /* \"#utility.yul\":1064:1088   */\n      mload\n        /* \"#utility.yul\":1115:1133   */\n      0xffffffffffffffff\n        /* \"#utility.yul\":1107:1113   */\n      dup2\n        /* \"#utility.yul\":1104:1134   */\n      gt\n        /* \"#utility.yul\":1101:1218   */\n      iszero\n      tag_41\n      jumpi\n        /* \"#utility.yul\":1137:1216   */\n      tag_42\n      tag_43\n      jump\t// in\n    tag_42:\n        /* \"#utility.yul\":1101:1218   */\n    tag_41:\n        /* \"#utility.yul\":1242:1316   */\n      tag_44\n        /* \"#utility.yul\":1308:1315   */\n      dup5\n        /* \"#utility.yul\":1299:1305   */\n      dup3\n        /* \"#utility.yul\":1288:1297   */\n      dup6\n        /* \"#utility.yul\":1284:1306   */\n      add\n        /* \"#utility.yul\":1242:1316   */\n      tag_31\n      jump\t// in\n    tag_44:\n        /* \"#utility.yul\":1232:1316   */\n      swap2\n      pop\n        /* \"#utility.yul\":1035:1326   */\n      pop\n        /* \"#utility.yul\":809:1333   */\n      swap3\n      swap2\n      pop\n      pop\n      jump\t// out\n        /* \"#utility.yul\":1339:1703   */\n    tag_45:\n        /* \"#utility.yul\":1427:1430   */\n      0x00\n        /* \"#utility.yul\":1455:1494   */\n      tag_47\n        /* \"#utility.yul\":1488:1493   */\n      dup3\n        /* \"#utility.yul\":1455:1494   */\n      tag_48\n      jump\t// in\n    tag_47:\n        /* \"#utility.yul\":1510:1581   */\n      tag_49\n        /* \"#utility.yul\":1574:1580   */\n      dup2\n        /* \"#utility.yul\":1569:1572   */\n      dup6\n        /* \"#utility.yul\":1510:1581   */\n      tag_50\n      jump\t// in\n    tag_49:\n        /* \"#utility.yul\":1503:1581   */\n      swap4\n      pop\n        /* \"#utility.yul\":1590:1642   */\n      tag_51\n        /* \"#utility.yul\":1635:1641   */\n      dup2\n        /* \"#utility.yul\":1630:1633   */\n      dup6\n        /* \"#utility.yul\":1623:1627   */\n      0x20\n        /* \"#utility.yul\":1616:1621   */\n      dup7\n        /* \"#utility.yul\":1612:1628   */\n      add\n        /* \"#utility.yul\":1590:1642   */\n      tag_30\n      jump\t// in\n    tag_51:\n        /* \"#utility.yul\":1667:1696   */\n      tag_52\n        /* \"#utility.yul\":1689:1695   */\n      dup2\n        /* \"#utility.yul\":1667:1696   */\n      tag_53\n      jump\t// in\n    tag_52:\n        /* \"#utility.yul\":1662:1665   */\n      dup5\n        /* \"#utility.yul\":1658:1697   */\n      add\n        /* \"#utility.yul\":1651:1697   */\n      swap2\n      pop\n        /* \"#utility.yul\":1431:1703   */\n      pop\n        /* \"#utility.yul\":1339:1703   */\n      swap3\n      swap2\n      pop\n      pop\n      jump\t// out\n        /* \"#utility.yul\":1709:1827   */\n    tag_54:\n        /* \"#utility.yul\":1796:1820   */\n      tag_56\n        /* \"#utility.yul\":1814:1819   */\n      dup2\n        /* \"#utility.yul\":1796:1820   */\n      tag_57\n      jump\t// in\n    tag_56:\n        /* \"#utility.yul\":1791:1794   */\n      dup3\n        /* \"#utility.yul\":1784:1821   */\n      mstore\n        /* \"#utility.yul\":1709:1827   */\n      pop\n      pop\n      jump\t// out\n        /* \"#utility.yul\":1833:2146   */\n    tag_12:\n        /* \"#utility.yul\":1946:1950   */\n      0x00\n        /* \"#utility.yul\":1984:1986   */\n      0x20\n        /* \"#utility.yul\":1973:1982   */\n      dup3\n        /* \"#utility.yul\":1969:1987   */\n      add\n        /* \"#utility.yul\":1961:1987   */\n      swap1\n      pop\n        /* \"#utility.yul\":2033:2042   */\n      dup2\n        /* \"#utility.yul\":2027:2031   */\n      dup2\n        /* \"#utility.yul\":2023:2043   */\n      sub\n        /* \"#utility.yul\":2019:2020   */\n      0x00\n        /* \"#utility.yul\":2008:2017   */\n      dup4\n        /* \"#utility.yul\":2004:2021   */\n      add\n        /* \"#utility.yul\":1997:2044   */\n      mstore\n        /* \"#utility.yul\":2061:2139   */\n      tag_59\n        /* \"#utility.yul\":2134:2138   */\n      dup2\n        /* \"#utility.yul\":2125:2131   */\n      dup5\n        /* \"#utility.yul\":2061:2139   */\n      tag_45\n      jump\t// in\n    tag_59:\n        /* \"#utility.yul\":2053:2139   */\n      swap1\n      pop\n        /* \"#utility.yul\":1833:2146   */\n      swap3\n      swap2\n      pop\n      pop\n      jump\t// out\n        /* \"#utility.yul\":2152:2374   */\n    tag_8:\n        /* \"#utility.yul\":2245:2249   */\n      0x00\n        /* \"#utility.yul\":2283:2285   */\n      0x20\n        /* \"#utility.yul\":2272:2281   */\n      dup3\n        /* \"#utility.yul\":2268:2286   */\n      add\n        /* \"#utility.yul\":2260:2286   */\n      swap1\n      pop\n        /* \"#utility.yul\":2296:2367   */\n      tag_61\n        /* \"#utility.yul\":2364:2365   */\n      0x00\n        /* \"#utility.yul\":2353:2362   */\n      dup4\n        /* \"#utility.yul\":2349:2366   */\n      add\n        /* \"#utility.yul\":2340:2346   */\n      dup5\n        /* \"#utility.yul\":2296:2367   */\n      tag_54\n      jump\t// in\n    tag_61:\n        /* \"#utility.yul\":2152:2374   */\n      swap3\n      swap2\n      pop\n      pop\n      jump\t// out\n        /* \"#utility.yul\":2380:2509   */\n    tag_25:\n        /* \"#utility.yul\":2414:2420   */\n      0x00\n        /* \"#utility.yul\":2441:2461   */\n      tag_63\n      tag_64\n      jump\t// in\n    tag_63:\n        /* \"#utility.yul\":2431:2461   */\n      swap1\n      pop\n        /* \"#utility.yul\":2470:2503   */\n      tag_65\n        /* \"#utility.yul\":2498:2502   */\n      dup3\n        /* \"#utility.yul\":2490:2496   */\n      dup3\n        /* \"#utility.yul\":2470:2503   */\n      tag_66\n      jump\t// in\n    tag_65:\n        /* \"#utility.yul\":2380:2509   */\n      swap2\n      swap1\n      pop\n      jump\t// out\n        /* \"#utility.yul\":2515:2590   */\n    tag_64:\n        /* \"#utility.yul\":2548:2554   */\n      0x00\n        /* \"#utility.yul\":2581:2583   */\n      0x40\n        /* \"#utility.yul\":2575:2584   */\n      mload\n        /* \"#utility.yul\":2565:2584   */\n      swap1\n      pop\n        /* \"#utility.yul\":2515:2590   */\n      swap1\n      jump\t// out\n        /* \"#utility.yul\":2596:2904   */\n    tag_24:\n        /* \"#utility.yul\":2658:2662   */\n      0x00\n        /* \"#utility.yul\":2748:2766   */\n      0xffffffffffffffff\n        /* \"#utility.yul\":2740:2746   */\n      dup3\n        /* \"#utility.yul\":2737:2767   */\n      gt\n        /* \"#utility.yul\":2734:2790   */\n      iszero\n      tag_69\n      jumpi\n        /* \"#utility.yul\":2770:2788   */\n      tag_70\n      tag_71\n      jump\t// in\n    tag_70:\n        /* \"#utility.yul\":2734:2790   */\n    tag_69:\n        /* \"#utility.yul\":2808:2837   */\n      tag_72\n        /* \"#utility.yul\":2830:2836   */\n      dup3\n        /* \"#utility.yul\":2808:2837   */\n      tag_53\n      jump\t// in\n    tag_72:\n        /* \"#utility.yul\":2800:2837   */\n      swap1\n      pop\n        /* \"#utility.yul\":2892:2896   */\n      0x20\n        /* \"#utility.yul\":2886:2890   */\n      dup2\n        /* \"#utility.yul\":2882:2897   */\n      add\n        /* \"#utility.yul\":2874:2897   */\n      swap1\n      pop\n        /* \"#utility.yul\":2596:2904   */\n      swap2\n      swap1\n      pop\n      jump\t// out\n        /* \"#utility.yul\":2910:3009   */\n    tag_48:\n        /* \"#utility.yul\":2962:2968   */\n      0x00\n        /* \"#utility.yul\":2996:3001   */\n      dup2\n        /* \"#utility.yul\":2990:3002   */\n      mload\n        /* \"#utility.yul\":2980:3002   */\n      swap1\n      pop\n        /* \"#utility.yul\":2910:3009   */\n      swap2\n      swap1\n      pop\n      jump\t// out\n        /* \"#utility.yul\":3015:3184   */\n    tag_50:\n        /* \"#utility.yul\":3099:3110   */\n      0x00\n        /* \"#utility.yul\":3133:3139   */\n      dup3\n        /* \"#utility.yul\":3128:3131   */\n      dup3\n        /* \"#utility.yul\":3121:3140   */\n      mstore\n        /* \"#utility.yul\":3173:3177   */\n      0x20\n        /* \"#utility.yul\":3168:3171   */\n      dup3\n        /* \"#utility.yul\":3164:3178   */\n      add\n        /* \"#utility.yul\":3149:3178   */\n      swap1\n      pop\n        /* \"#utility.yul\":3015:3184   */\n      swap3\n      swap2\n      pop\n      pop\n      jump\t// out\n        /* \"#utility.yul\":3190:3267   */\n    tag_57:\n        /* \"#utility.yul\":3227:3234   */\n      0x00\n        /* \"#utility.yul\":3256:3261   */\n      dup2\n        /* \"#utility.yul\":3245:3261   */\n      swap1\n      pop\n        /* \"#utility.yul\":3190:3267   */\n      swap2\n      swap1\n      pop\n      jump\t// out\n        /* \"#utility.yul\":3273:3580   */\n    tag_30:\n        /* \"#utility.yul\":3341:3342   */\n      0x00\n        /* \"#utility.yul\":3351:3464   */\n    tag_77:\n        /* \"#utility.yul\":3365:3371   */\n      dup4\n        /* \"#utility.yul\":3362:3363   */\n      dup2\n        /* \"#utility.yul\":3359:3372   */\n      lt\n        /* \"#utility.yul\":3351:3464   */\n      iszero\n      tag_79\n      jumpi\n        /* \"#utility.yul\":3450:3451   */\n      dup1\n        /* \"#utility.yul\":3445:3448   */\n      dup3\n        /* \"#utility.yul\":3441:3452   */\n      add\n        /* \"#utility.yul\":3435:3453   */\n      mload\n        /* \"#utility.yul\":3431:3432   */\n      dup2\n        /* \"#utility.yul\":3426:3429   */\n      dup5\n        /* \"#utility.yul\":3422:3433   */\n      add\n        /* \"#utility.yul\":3415:3454   */\n      mstore\n        /* \"#utility.yul\":3387:3389   */\n      0x20\n        /* \"#utility.yul\":3384:3385   */\n      dup2\n        /* \"#utility.yul\":3380:3390   */\n      add\n        /* \"#utility.yul\":3375:3390   */\n      swap1\n      pop\n        /* \"#utility.yul\":3351:3464   */\n      jump(tag_77)\n    tag_79:\n        /* \"#utility.yul\":3482:3488   */\n      dup4\n        /* \"#utility.yul\":3479:3480   */\n      dup2\n        /* \"#utility.yul\":3476:3489   */\n      gt\n        /* \"#utility.yul\":3473:3574   */\n      iszero\n      tag_80\n      jumpi\n        /* \"#utility.yul\":3562:3563   */\n      0x00\n        /* \"#utility.yul\":3553:3559   */\n      dup5\n        /* \"#utility.yul\":3548:3551   */\n      dup5\n        /* \"#utility.yul\":3544:3560   */\n      add\n        /* \"#utility.yul\":3537:3564   */\n      mstore\n        /* \"#utility.yul\":3473:3574   */\n    tag_80:\n        /* \"#utility.yul\":3322:3580   */\n      pop\n        /* \"#utility.yul\":3273:3580   */\n      pop\n      pop\n      pop\n      jump\t// out\n        /* \"#utility.yul\":3586:3867   */\n    tag_66:\n        /* \"#utility.yul\":3669:3696   */\n      tag_82\n        /* \"#utility.yul\":3691:3695   */\n      dup3\n        /* \"#utility.yul\":3669:3696   */\n      tag_53\n      jump\t// in\n    tag_82:\n        /* \"#utility.yul\":3661:3667   */\n      dup2\n        /* \"#utility.yul\":3657:3697   */\n      add\n        /* \"#utility.yul\":3799:3805   */\n      dup2\n        /* \"#utility.yul\":3787:3797   */\n      dup2\n        /* \"#utility.yul\":3784:3806   */\n      lt\n        /* \"#utility.yul\":3763:3781   */\n      0xffffffffffffffff\n        /* \"#utility.yul\":3751:3761   */\n      dup3\n        /* \"#utility.yul\":3748:3782   */\n      gt\n        /* \"#utility.yul\":3745:3807   */\n      or\n        /* \"#utility.yul\":3742:3830   */\n      iszero\n      tag_83\n      jumpi\n        /* \"#utility.yul\":3810:3828   */\n      tag_84\n      tag_71\n      jump\t// in\n    tag_84:\n        /* \"#utility.yul\":3742:3830   */\n    tag_83:\n        /* \"#utility.yul\":3850:3860   */\n      dup1\n        /* \"#utility.yul\":3846:3848   */\n      0x40\n        /* \"#utility.yul\":3839:3861   */\n      mstore\n        /* \"#utility.yul\":3629:3867   */\n      pop\n        /* \"#utility.yul\":3586:3867   */\n      pop\n      pop\n      jump\t// out\n        /* \"#utility.yul\":3873:4053   */\n    tag_71:\n        /* \"#utility.yul\":3921:3998   */\n      0x4e487b7100000000000000000000000000000000000000000000000000000000\n        /* \"#utility.yul\":3918:3919   */\n      0x00\n        /* \"#utility.yul\":3911:3999   */\n      mstore\n        /* \"#utility.yul\":4018:4022   */\n      0x41\n        /* \"#utility.yul\":4015:4016   */\n      0x04\n        /* \"#utility.yul\":4008:4023   */\n      mstore\n        /* \"#utility.yul\":4042:4046   */\n      0x24\n        /* \"#utility.yul\":4039:4040   */\n      0x00\n        /* \"#utility.yul\":4032:4047   */\n      revert\n        /* \"#utility.yul\":4059:4176   */\n    tag_35:\n        /* \"#utility.yul\":4168:4169   */\n      0x00\n        /* \"#utility.yul\":4165:4166   */\n      dup1\n        /* \"#utility.yul\":4158:4170   */\n      revert\n        /* \"#utility.yul\":4182:4299   */\n    tag_28:\n        /* \"#utility.yul\":4291:4292   */\n      0x00\n        /* \"#utility.yul\":4288:4289   */\n      dup1\n        /* \"#utility.yul\":4281:4293   */\n      revert\n        /* \"#utility.yul\":4305:4422   */\n    tag_43:\n        /* \"#utility.yul\":4414:4415   */\n      0x00\n        /* \"#utility.yul\":4411:4412   */\n      dup1\n        /* \"#utility.yul\":4404:4416   */\n      revert\n        /* \"#utility.yul\":4428:4545   */\n    tag_40:\n        /* \"#utility.yul\":4537:4538   */\n      0x00\n        /* \"#utility.yul\":4534:4535   */\n      dup1\n        /* \"#utility.yul\":4527:4539   */\n      revert\n        /* \"#utility.yul\":4551:4653   */\n    tag_53:\n        /* \"#utility.yul\":4592:4598   */\n      0x00\n        /* \"#utility.yul\":4643:4645   */\n      0x1f\n        /* \"#utility.yul\":4639:4646   */\n      not\n        /* \"#utility.yul\":4634:4636   */\n      0x1f\n        /* \"#utility.yul\":4627:4632   */\n      dup4\n        /* \"#utility.yul\":4623:4637   */\n      add\n        /* \"#utility.yul\":4619:4647   */\n      and\n        /* \"#utility.yul\":4609:4647   */\n      swap1\n      pop\n        /* \"#utility.yul\":4551:4653   */\n      swap2\n      swap1\n      pop\n      jump\t// out\n\n    auxdata: 0xa2646970667358221220d693cba3eafc1684ab3949714f88128ca3820b5a4f4f6f298e3954911474eabe64736f6c63430008070033\n}\n\nsub_1: assembly {\n        /* \"visibility.sol\":526:1113  contract visibility{\r... */\n      mstore(0x40, 0x80)\n        /* \"visibility.sol\":567:569  10 */\n      0x0a\n        /* \"visibility.sol\":552:569  uint private x=10 */\n      0x00\n      sstore\n        /* \"visibility.sol\":592:595  100 */\n      0x64\n        /* \"visibility.sol\":576:595  uint internal y=100 */\n      0x01\n      sstore\n        /* \"visibility.sol\":616:620  1000 */\n      0x03e8\n        /* \"visibility.sol\":602:620  uint public z=1000 */\n      0x02\n      sstore\n        /* \"visibility.sol\":526:1113  contract visibility{\r... */\n      callvalue\n      dup1\n      iszero\n      tag_1\n      jumpi\n      0x00\n      dup1\n      revert\n    tag_1:\n      pop\n      dataSize(sub_0)\n      dup1\n      dataOffset(sub_0)\n      0x00\n      codecopy\n      0x00\n      return\n    stop\n\n    sub_0: assembly {\n            /* \"visibility.sol\":526:1113  contract visibility{\r... */\n          mstore(0x40, 0x80)\n          callvalue\n          dup1\n          iszero\n          tag_1\n          jumpi\n          0x00\n          dup1\n          revert\n        tag_1:\n          pop\n          jumpi(tag_2, lt(calldatasize, 0x04))\n          shr(0xe0, calldataload(0x00))\n          dup1\n          0x89ac3851\n          eq\n          tag_3\n          jumpi\n          dup1\n          0xc5d7802e\n          eq\n          tag_4\n          jumpi\n          dup1\n          0xcfe65550\n          eq\n          tag_5\n          jumpi\n        tag_2:\n          0x00\n          dup1\n          revert\n            /* \"visibility.sol\":823:913  function check3() external pure returns(string memory){\r... */\n        tag_3:\n          tag_6\n          tag_7\n          jump\t// in\n        tag_6:\n          mload(0x40)\n          tag_8\n          swap2\n          swap1\n          tag_9\n          jump\t// in\n        tag_8:\n          mload(0x40)\n          dup1\n          swap2\n          sub\n          swap1\n          return\n            /* \"visibility.sol\":602:620  uint public z=1000 */\n        tag_4:\n          tag_10\n          tag_11\n          jump\t// in\n        tag_10:\n          mload(0x40)\n          tag_12\n          swap2\n          swap1\n          tag_13\n          jump\t// in\n        tag_12:\n          mload(0x40)\n          dup1\n          swap2\n          sub\n          swap1\n          return\n            /* \"visibility.sol\":919:1005  function check4() public pure returns(string memory){\r... */\n        tag_5:\n          tag_14\n          tag_15\n          jump\t// in\n        tag_14:\n          mload(0x40)\n          tag_16\n          swap2\n          swap1\n          tag_9\n          jump\t// in\n        tag_16:\n          mload(0x40)\n          dup1\n          swap2\n          sub\n          swap1\n          return\n            /* \"visibility.sol\":823:913  function check3() external pure returns(string memory){\r... */\n        tag_7:\n            /* \"visibility.sol\":863:876  string memory */\n          0x60\n            /* \"visibility.sol\":888:905  return \"external\" */\n          mload(0x40)\n          dup1\n          0x40\n          add\n          0x40\n          mstore\n          dup1\n          0x08\n          dup2\n          mstore\n          0x20\n          add\n          0x65787465726e616c000000000000000000000000000000000000000000000000\n          dup2\n          mstore\n          pop\n          swap1\n          pop\n            /* \"visibility.sol\":823:913  function check3() external pure returns(string memory){\r... */\n          swap1\n          jump\t// out\n            /* \"visibility.sol\":602:620  uint public z=1000 */\n        tag_11:\n          sload(0x02)\n          dup2\n          jump\t// out\n            /* \"visibility.sol\":919:1005  function check4() public pure returns(string memory){\r... */\n        tag_15:\n            /* \"visibility.sol\":957:970  string memory */\n          0x60\n            /* \"visibility.sol\":982:997  return \"public\" */\n          mload(0x40)\n          dup1\n          0x40\n          add\n          0x40\n          mstore\n          dup1\n          0x06\n          dup2\n          mstore\n          0x20\n          add\n          0x7075626c69630000000000000000000000000000000000000000000000000000\n          dup2\n          mstore\n          pop\n          swap1\n          pop\n            /* \"visibility.sol\":919:1005  function check4() public pure returns(string memory){\r... */\n          swap1\n          jump\t// out\n            /* \"#utility.yul\":7:371   */\n        tag_20:\n            /* \"#utility.yul\":95:98   */\n          0x00\n            /* \"#utility.yul\":123:162   */\n          tag_22\n            /* \"#utility.yul\":156:161   */\n          dup3\n            /* \"#utility.yul\":123:162   */\n          tag_23\n          jump\t// in\n        tag_22:\n            /* \"#utility.yul\":178:249   */\n          tag_24\n            /* \"#utility.yul\":242:248   */\n          dup2\n            /* \"#utility.yul\":237:240   */\n          dup6\n            /* \"#utility.yul\":178:249   */\n          tag_25\n          jump\t// in\n        tag_24:\n            /* \"#utility.yul\":171:249   */\n          swap4\n          pop\n            /* \"#utility.yul\":258:310   */\n          tag_26\n            /* \"#utility.yul\":303:309   */\n          dup2\n            /* \"#utility.yul\":298:301   */\n          dup6\n            /* \"#utility.yul\":291:295   */\n          0x20\n            /* \"#utility.yul\":284:289   */\n          dup7\n            /* \"#utility.yul\":280:296   */\n          add\n            /* \"#utility.yul\":258:310   */\n          tag_27\n          jump\t// in\n        tag_26:\n            /* \"#utility.yul\":335:364   */\n          tag_28\n            /* \"#utility.yul\":357:363   */\n          dup2\n            /* \"#utility.yul\":335:364   */\n          tag_29\n          jump\t// in\n        tag_28:\n            /* \"#utility.yul\":330:333   */\n          dup5\n            /* \"#utility.yul\":326:365   */\n          add\n            /* \"#utility.yul\":319:365   */\n          swap2\n          pop\n            /* \"#utility.yul\":99:371   */\n          pop\n            /* \"#utility.yul\":7:371   */\n          swap3\n          swap2\n          pop\n          pop\n          jump\t// out\n            /* \"#utility.yul\":377:495   */\n        tag_30:\n            /* \"#utility.yul\":464:488   */\n          tag_32\n            /* \"#utility.yul\":482:487   */\n          dup2\n            /* \"#utility.yul\":464:488   */\n          tag_33\n          jump\t// in\n        tag_32:\n            /* \"#utility.yul\":459:462   */\n          dup3\n            /* \"#utility.yul\":452:489   */\n          mstore\n            /* \"#utility.yul\":377:495   */\n          pop\n          pop\n          jump\t// out\n            /* \"#utility.yul\":501:814   */\n        tag_9:\n            /* \"#utility.yul\":614:618   */\n          0x00\n            /* \"#utility.yul\":652:654   */\n          0x20\n            /* \"#utility.yul\":641:650   */\n          dup3\n            /* \"#utility.yul\":637:655   */\n          add\n            /* \"#utility.yul\":629:655   */\n          swap1\n          pop\n            /* \"#utility.yul\":701:710   */\n          dup2\n            /* \"#utility.yul\":695:699   */\n          dup2\n            /* \"#utility.yul\":691:711   */\n          sub\n            /* \"#utility.yul\":687:688   */\n          0x00\n            /* \"#utility.yul\":676:685   */\n          dup4\n            /* \"#utility.yul\":672:689   */\n          add\n            /* \"#utility.yul\":665:712   */\n          mstore\n            /* \"#utility.yul\":729:807   */\n          tag_35\n            /* \"#utility.yul\":802:806   */\n          dup2\n            /* \"#utility.yul\":793:799   */\n          dup5\n            /* \"#utility.yul\":729:807   */\n          tag_20\n          jump\t// in\n        tag_35:\n            /* \"#utility.yul\":721:807   */\n          swap1\n          pop\n            /* \"#utility.yul\":501:814   */\n          swap3\n          swap2\n          pop\n          pop\n          jump\t// out\n            /* \"#utility.yul\":820:1042   */\n        tag_13:\n            /* \"#utility.yul\":913:917   */\n          0x00\n            /* \"#utility.yul\":951:953   */\n          0x20\n            /* \"#utility.yul\":940:949   */\n          dup3\n            /* \"#utility.yul\":936:954   */\n          add\n            /* \"#utility.yul\":928:954   */\n          swap1\n          pop\n            /* \"#utility.yul\":964:1035   */\n          tag_37\n            /* \"#utility.yul\":1032:1033   */\n          0x00\n            /* \"#utility.yul\":1021:1030   */\n          dup4\n            /* \"#utility.yul\":1017:1034   */\n          add\n            /* \"#utility.yul\":1008:1014   */\n          dup5\n            /* \"#utility.yul\":964:1035   */\n          tag_30\n          jump\t// in\n        tag_37:\n            /* \"#utility.yul\":820:1042   */\n          swap3\n          swap2\n          pop\n          pop\n          jump\t// out\n            /* \"#utility.yul\":1048:1147   */\n        tag_23:\n            /* \"#utility.yul\":1100:1106   */\n          0x00\n            /* \"#utility.yul\":1134:1139   */\n          dup2\n            /* \"#utility.yul\":1128:1140   */\n          mload\n            /* \"#utility.yul\":1118:1140   */\n          swap1\n          pop\n            /* \"#utility.yul\":1048:1147   */\n          swap2\n          swap1\n          pop\n          jump\t// out\n            /* \"#utility.yul\":1153:1322   */\n        tag_25:\n            /* \"#utility.yul\":1237:1248   */\n          0x00\n            /* \"#utility.yul\":1271:1277   */\n          dup3\n            /* \"#utility.yul\":1266:1269   */\n          dup3\n            /* \"#utility.yul\":1259:1278   */\n          mstore\n            /* \"#utility.yul\":1311:1315   */\n          0x20\n            /* \"#utility.yul\":1306:1309   */\n          dup3\n            /* \"#utility.yul\":1302:1316   */\n          add\n            /* \"#utility.yul\":1287:1316   */\n          swap1\n          pop\n            /* \"#utility.yul\":1153:1322   */\n          swap3\n          swap2\n          pop\n          pop\n          jump\t// out\n            /* \"#utility.yul\":1328:1405   */\n        tag_33:\n            /* \"#utility.yul\":1365:1372   */\n          0x00\n            /* \"#utility.yul\":1394:1399   */\n          dup2\n            /* \"#utility.yul\":1383:1399   */\n          swap1\n          pop\n            /* \"#utility.yul\":1328:1405   */\n          swap2\n          swap1\n          pop\n          jump\t// out\n            /* \"#utility.yul\":1411:1718   */\n        tag_27:\n            /* \"#utility.yul\":1479:1480   */\n          0x00\n            /* \"#utility.yul\":1489:1602   */\n        tag_42:\n            /* \"#utility.yul\":1503:1509   */\n          dup4\n            /* \"#utility.yul\":1500:1501   */\n          dup2\n            /* \"#utility.yul\":1497:1510   */\n          lt\n            /* \"#utility.yul\":1489:1602   */\n          iszero\n          tag_44\n          jumpi\n            /* \"#utility.yul\":1588:1589   */\n          dup1\n            /* \"#utility.yul\":1583:1586   */\n          dup3\n            /* \"#utility.yul\":1579:1590   */\n          add\n            /* \"#utility.yul\":1573:1591   */\n          mload\n            /* \"#utility.yul\":1569:1570   */\n          dup2\n            /* \"#utility.yul\":1564:1567   */\n          dup5\n            /* \"#utility.yul\":1560:1571   */\n          add\n            /* \"#utility.yul\":1553:1592   */\n          mstore\n            /* \"#utility.yul\":1525:1527   */\n          0x20\n            /* \"#utility.yul\":1522:1523   */\n          dup2\n            /* \"#utility.yul\":1518:1528   */\n          add\n            /* \"#utility.yul\":1513:1528   */\n          swap1\n          pop\n            /* \"#utility.yul\":1489:1602   */\n          jump(tag_42)\n        tag_44:\n            /* \"#utility.yul\":1620:1626   */\n          dup4\n            /* \"#utility.yul\":1617:1618   */\n          dup2\n            /* \"#utility.yul\":1614:1627   */\n          gt\n            /* \"#utility.yul\":1611:1712   */\n          iszero\n          tag_45\n          jumpi\n            /* \"#utility.yul\":1700:1701   */\n          0x00\n            /* \"#utility.yul\":1691:1697   */\n          dup5\n            /* \"#utility.yul\":1686:1689   */\n          dup5\n            /* \"#utility.yul\":1682:1698   */\n          add\n            /* \"#utility.yul\":1675:1702   */\n          mstore\n            /* \"#utility.yul\":1611:1712   */\n        tag_45:\n            /* \"#utility.yul\":1460:1718   */\n          pop\n            /* \"#utility.yul\":1411:1718   */\n          pop\n          pop\n          pop\n          jump\t// out\n            /* \"#utility.yul\":1724:1826   */\n        tag_29:\n            /* \"#utility.yul\":1765:1771   */\n          0x00\n            /* \"#utility.yul\":1816:1818   */\n          0x1f\n            /* \"#utility.yul\":1812:1819   */\n          not\n            /* \"#utility.yul\":1807:1809   */\n          0x1f\n            /* \"#utility.yul\":1800:1805   */\n          dup4\n            /* \"#utility.yul\":1796:1810   */\n          add\n            /* \"#utility.yul\":1792:1820   */\n          and\n            /* \"#utility.yul\":1782:1820   */\n          swap1\n          pop\n            /* \"#utility.yul\":1724:1826   */\n          swap2\n          swap1\n          pop\n          jump\t// out\n\n        auxdata: 0xa26469706673582212204c381fb5550a00825afc6dd10b44ed26a808dfb5d6354e93283456737746887364736f6c63430008070033\n    }\n}\n",
				"bytecode": {
					"linkReferences": {},
					"object": "60806040526040516100109061011f565b604051809103906000f08015801561002c573d6000803e3d6000fd5b506000806101000a81548173ffffffffffffffffffffffffffffffffffffffff021916908373ffffffffffffffffffffffffffffffffffffffff16021790555060008054906101000a900473ffffffffffffffffffffffffffffffffffffffff1673ffffffffffffffffffffffffffffffffffffffff1663c5d7802e6040518163ffffffff1660e01b815260040160206040518083038186803b1580156100d257600080fd5b505afa1580156100e6573d6000803e3d6000fd5b505050506040513d601f19601f8201168201806040525081019061010a9190610141565b60015534801561011957600080fd5b50610194565b6102758061057283390190565b60008151905061013b8161017d565b92915050565b60006020828403121561015757610156610178565b5b60006101658482850161012c565b91505092915050565b6000819050919050565b600080fd5b6101868161016e565b811461019157600080fd5b50565b6103cf806101a36000396000f3fe608060405234801561001057600080fd5b50600436106100365760003560e01c80630dbe671f1461003b5780636f74650114610059575b600080fd5b610043610077565b604051610050919061024a565b60405180910390f35b61006161007d565b60405161006e9190610228565b60405180910390f35b60015481565b606060008054906101000a900473ffffffffffffffffffffffffffffffffffffffff1673ffffffffffffffffffffffffffffffffffffffff166389ac38516040518163ffffffff1660e01b815260040160006040518083038186803b1580156100e557600080fd5b505afa1580156100f9573d6000803e3d6000fd5b505050506040513d6000823e3d601f19601f820116820180604052508101906101229190610197565b905090565b600061013a6101358461028a565b610265565b90508281526020810184848401111561015657610155610379565b5b6101618482856102e1565b509392505050565b600082601f83011261017e5761017d610374565b5b815161018e848260208601610127565b91505092915050565b6000602082840312156101ad576101ac610383565b5b600082015167ffffffffffffffff8111156101cb576101ca61037e565b5b6101d784828501610169565b91505092915050565b60006101eb826102bb565b6101f581856102c6565b93506102058185602086016102e1565b61020e81610388565b840191505092915050565b610222816102d7565b82525050565b6000602082019050818103600083015261024281846101e0565b905092915050565b600060208201905061025f6000830184610219565b92915050565b600061026f610280565b905061027b8282610314565b919050565b6000604051905090565b600067ffffffffffffffff8211156102a5576102a4610345565b5b6102ae82610388565b9050602081019050919050565b600081519050919050565b600082825260208201905092915050565b6000819050919050565b60005b838110156102ff5780820151818401526020810190506102e4565b8381111561030e576000848401525b50505050565b61031d82610388565b810181811067ffffffffffffffff8211171561033c5761033b610345565b5b80604052505050565b7f4e487b7100000000000000000000000000000000000000000000000000000000600052604160045260246000fd5b600080fd5b600080fd5b600080fd5b600080fd5b6000601f19601f830116905091905056fea2646970667358221220d693cba3eafc1684ab3949714f88128ca3820b5a4f4f6f298e3954911474eabe64736f6c634300080700336080604052600a60005560646001556103e860025534801561002057600080fd5b50610245806100306000396000f3fe608060405234801561001057600080fd5b50600436106100415760003560e01c806389ac385114610046578063c5d7802e14610064578063cfe6555014610082575b600080fd5b61004e6100a0565b60405161005b9190610168565b60405180910390f35b61006c6100dd565b604051610079919061018a565b60405180910390f35b61008a6100e3565b6040516100979190610168565b60405180910390f35b60606040518060400160405280600881526020017f65787465726e616c000000000000000000000000000000000000000000000000815250905090565b60025481565b60606040518060400160405280600681526020017f7075626c69630000000000000000000000000000000000000000000000000000815250905090565b600061012b826101a5565b61013581856101b0565b93506101458185602086016101cb565b61014e816101fe565b840191505092915050565b610162816101c1565b82525050565b600060208201905081810360008301526101828184610120565b905092915050565b600060208201905061019f6000830184610159565b92915050565b600081519050919050565b600082825260208201905092915050565b6000819050919050565b60005b838110156101e95780820151818401526020810190506101ce565b838111156101f8576000848401525b50505050565b6000601f19601f830116905091905056fea26469706673582212204c381fb5550a00825afc6dd10b44ed26a808dfb5d6354e93283456737746887364736f6c63430008070033",
					"opcodes": "PUSH1 0x80 PUSH1 0x40 MSTORE PUSH1 0x40 MLOAD PUSH2 0x10 SWAP1 PUSH2 0x11F JUMP JUMPDEST PUSH1 0x40 MLOAD DUP1 SWAP2 SUB SWAP1 PUSH1 0x0 CREATE DUP1 ISZERO DUP1 ISZERO PUSH2 0x2C JUMPI RETURNDATASIZE PUSH1 0x0 DUP1 RETURNDATACOPY RETURNDATASIZE PUSH1 0x0 REVERT JUMPDEST POP PUSH1 0x0 DUP1 PUSH2 0x100 EXP DUP2 SLOAD DUP2 PUSH20 0xFFFFFFFFFFFFFFFFFFFFFFFFFFFFFFFFFFFFFFFF MUL NOT AND SWAP1 DUP4 PUSH20 0xFFFFFFFFFFFFFFFFFFFFFFFFFFFFFFFFFFFFFFFF AND MUL OR SWAP1 SSTORE POP PUSH1 0x0 DUP1 SLOAD SWAP1 PUSH2 0x100 EXP SWAP1 DIV PUSH20 0xFFFFFFFFFFFFFFFFFFFFFFFFFFFFFFFFFFFFFFFF AND PUSH20 0xFFFFFFFFFFFFFFFFFFFFFFFFFFFFFFFFFFFFFFFF AND PUSH4 0xC5D7802E PUSH1 0x40 MLOAD DUP2 PUSH4 0xFFFFFFFF AND PUSH1 0xE0 SHL DUP2 MSTORE PUSH1 0x4 ADD PUSH1 0x20 PUSH1 0x40 MLOAD DUP1 DUP4 SUB DUP2 DUP7 DUP1 EXTCODESIZE ISZERO DUP1 ISZERO PUSH2 0xD2 JUMPI PUSH1 0x0 DUP1 REVERT JUMPDEST POP GAS STATICCALL ISZERO DUP1 ISZERO PUSH2 0xE6 JUMPI RETURNDATASIZE PUSH1 0x0 DUP1 RETURNDATACOPY RETURNDATASIZE PUSH1 0x0 REVERT JUMPDEST POP POP POP POP PUSH1 0x40 MLOAD RETURNDATASIZE PUSH1 0x1F NOT PUSH1 0x1F DUP3 ADD AND DUP3 ADD DUP1 PUSH1 0x40 MSTORE POP DUP2 ADD SWAP1 PUSH2 0x10A SWAP2 SWAP1 PUSH2 0x141 JUMP JUMPDEST PUSH1 0x1 SSTORE CALLVALUE DUP1 ISZERO PUSH2 0x119 JUMPI PUSH1 0x0 DUP1 REVERT JUMPDEST POP PUSH2 0x194 JUMP JUMPDEST PUSH2 0x275 DUP1 PUSH2 0x572 DUP4 CODECOPY ADD SWAP1 JUMP JUMPDEST PUSH1 0x0 DUP2 MLOAD SWAP1 POP PUSH2 0x13B DUP2 PUSH2 0x17D JUMP JUMPDEST SWAP3 SWAP2 POP POP JUMP JUMPDEST PUSH1 0x0 PUSH1 0x20 DUP3 DUP5 SUB SLT ISZERO PUSH2 0x157 JUMPI PUSH2 0x156 PUSH2 0x178 JUMP JUMPDEST JUMPDEST PUSH1 0x0 PUSH2 0x165 DUP5 DUP3 DUP6 ADD PUSH2 0x12C JUMP JUMPDEST SWAP2 POP POP SWAP3 SWAP2 POP POP JUMP JUMPDEST PUSH1 0x0 DUP2 SWAP1 POP SWAP2 SWAP1 POP JUMP JUMPDEST PUSH1 0x0 DUP1 REVERT JUMPDEST PUSH2 0x186 DUP2 PUSH2 0x16E JUMP JUMPDEST DUP2 EQ PUSH2 0x191 JUMPI PUSH1 0x0 DUP1 REVERT JUMPDEST POP JUMP JUMPDEST PUSH2 0x3CF DUP1 PUSH2 0x1A3 PUSH1 0x0 CODECOPY PUSH1 0x0 RETURN INVALID PUSH1 0x80 PUSH1 0x40 MSTORE CALLVALUE DUP1 ISZERO PUSH2 0x10 JUMPI PUSH1 0x0 DUP1 REVERT JUMPDEST POP PUSH1 0x4 CALLDATASIZE LT PUSH2 0x36 JUMPI PUSH1 0x0 CALLDATALOAD PUSH1 0xE0 SHR DUP1 PUSH4 0xDBE671F EQ PUSH2 0x3B JUMPI DUP1 PUSH4 0x6F746501 EQ PUSH2 0x59 JUMPI JUMPDEST PUSH1 0x0 DUP1 REVERT JUMPDEST PUSH2 0x43 PUSH2 0x77 JUMP JUMPDEST PUSH1 0x40 MLOAD PUSH2 0x50 SWAP2 SWAP1 PUSH2 0x24A JUMP JUMPDEST PUSH1 0x40 MLOAD DUP1 SWAP2 SUB SWAP1 RETURN JUMPDEST PUSH2 0x61 PUSH2 0x7D JUMP JUMPDEST PUSH1 0x40 MLOAD PUSH2 0x6E SWAP2 SWAP1 PUSH2 0x228 JUMP JUMPDEST PUSH1 0x40 MLOAD DUP1 SWAP2 SUB SWAP1 RETURN JUMPDEST PUSH1 0x1 SLOAD DUP2 JUMP JUMPDEST PUSH1 0x60 PUSH1 0x0 DUP1 SLOAD SWAP1 PUSH2 0x100 EXP SWAP1 DIV PUSH20 0xFFFFFFFFFFFFFFFFFFFFFFFFFFFFFFFFFFFFFFFF AND PUSH20 0xFFFFFFFFFFFFFFFFFFFFFFFFFFFFFFFFFFFFFFFF AND PUSH4 0x89AC3851 PUSH1 0x40 MLOAD DUP2 PUSH4 0xFFFFFFFF AND PUSH1 0xE0 SHL DUP2 MSTORE PUSH1 0x4 ADD PUSH1 0x0 PUSH1 0x40 MLOAD DUP1 DUP4 SUB DUP2 DUP7 DUP1 EXTCODESIZE ISZERO DUP1 ISZERO PUSH2 0xE5 JUMPI PUSH1 0x0 DUP1 REVERT JUMPDEST POP GAS STATICCALL ISZERO DUP1 ISZERO PUSH2 0xF9 JUMPI RETURNDATASIZE PUSH1 0x0 DUP1 RETURNDATACOPY RETURNDATASIZE PUSH1 0x0 REVERT JUMPDEST POP POP POP POP PUSH1 0x40 MLOAD RETURNDATASIZE PUSH1 0x0 DUP3 RETURNDATACOPY RETURNDATASIZE PUSH1 0x1F NOT PUSH1 0x1F DUP3 ADD AND DUP3 ADD DUP1 PUSH1 0x40 MSTORE POP DUP2 ADD SWAP1 PUSH2 0x122 SWAP2 SWAP1 PUSH2 0x197 JUMP JUMPDEST SWAP1 POP SWAP1 JUMP JUMPDEST PUSH1 0x0 PUSH2 0x13A PUSH2 0x135 DUP5 PUSH2 0x28A JUMP JUMPDEST PUSH2 0x265 JUMP JUMPDEST SWAP1 POP DUP3 DUP2 MSTORE PUSH1 0x20 DUP2 ADD DUP5 DUP5 DUP5 ADD GT ISZERO PUSH2 0x156 JUMPI PUSH2 0x155 PUSH2 0x379 JUMP JUMPDEST JUMPDEST PUSH2 0x161 DUP5 DUP3 DUP6 PUSH2 0x2E1 JUMP JUMPDEST POP SWAP4 SWAP3 POP POP POP JUMP JUMPDEST PUSH1 0x0 DUP3 PUSH1 0x1F DUP4 ADD SLT PUSH2 0x17E JUMPI PUSH2 0x17D PUSH2 0x374 JUMP JUMPDEST JUMPDEST DUP2 MLOAD PUSH2 0x18E DUP5 DUP3 PUSH1 0x20 DUP7 ADD PUSH2 0x127 JUMP JUMPDEST SWAP2 POP POP SWAP3 SWAP2 POP POP JUMP JUMPDEST PUSH1 0x0 PUSH1 0x20 DUP3 DUP5 SUB SLT ISZERO PUSH2 0x1AD JUMPI PUSH2 0x1AC PUSH2 0x383 JUMP JUMPDEST JUMPDEST PUSH1 0x0 DUP3 ADD MLOAD PUSH8 0xFFFFFFFFFFFFFFFF DUP2 GT ISZERO PUSH2 0x1CB JUMPI PUSH2 0x1CA PUSH2 0x37E JUMP JUMPDEST JUMPDEST PUSH2 0x1D7 DUP5 DUP3 DUP6 ADD PUSH2 0x169 JUMP JUMPDEST SWAP2 POP POP SWAP3 SWAP2 POP POP JUMP JUMPDEST PUSH1 0x0 PUSH2 0x1EB DUP3 PUSH2 0x2BB JUMP JUMPDEST PUSH2 0x1F5 DUP2 DUP6 PUSH2 0x2C6 JUMP JUMPDEST SWAP4 POP PUSH2 0x205 DUP2 DUP6 PUSH1 0x20 DUP7 ADD PUSH2 0x2E1 JUMP JUMPDEST PUSH2 0x20E DUP2 PUSH2 0x388 JUMP JUMPDEST DUP5 ADD SWAP2 POP POP SWAP3 SWAP2 POP POP JUMP JUMPDEST PUSH2 0x222 DUP2 PUSH2 0x2D7 JUMP JUMPDEST DUP3 MSTORE POP POP JUMP JUMPDEST PUSH1 0x0 PUSH1 0x20 DUP3 ADD SWAP1 POP DUP2 DUP2 SUB PUSH1 0x0 DUP4 ADD MSTORE PUSH2 0x242 DUP2 DUP5 PUSH2 0x1E0 JUMP JUMPDEST SWAP1 POP SWAP3 SWAP2 POP POP JUMP JUMPDEST PUSH1 0x0 PUSH1 0x20 DUP3 ADD SWAP1 POP PUSH2 0x25F PUSH1 0x0 DUP4 ADD DUP5 PUSH2 0x219 JUMP JUMPDEST SWAP3 SWAP2 POP POP JUMP JUMPDEST PUSH1 0x0 PUSH2 0x26F PUSH2 0x280 JUMP JUMPDEST SWAP1 POP PUSH2 0x27B DUP3 DUP3 PUSH2 0x314 JUMP JUMPDEST SWAP2 SWAP1 POP JUMP JUMPDEST PUSH1 0x0 PUSH1 0x40 MLOAD SWAP1 POP SWAP1 JUMP JUMPDEST PUSH1 0x0 PUSH8 0xFFFFFFFFFFFFFFFF DUP3 GT ISZERO PUSH2 0x2A5 JUMPI PUSH2 0x2A4 PUSH2 0x345 JUMP JUMPDEST JUMPDEST PUSH2 0x2AE DUP3 PUSH2 0x388 JUMP JUMPDEST SWAP1 POP PUSH1 0x20 DUP2 ADD SWAP1 POP SWAP2 SWAP1 POP JUMP JUMPDEST PUSH1 0x0 DUP2 MLOAD SWAP1 POP SWAP2 SWAP1 POP JUMP JUMPDEST PUSH1 0x0 DUP3 DUP3 MSTORE PUSH1 0x20 DUP3 ADD SWAP1 POP SWAP3 SWAP2 POP POP JUMP JUMPDEST PUSH1 0x0 DUP2 SWAP1 POP SWAP2 SWAP1 POP JUMP JUMPDEST PUSH1 0x0 JUMPDEST DUP4 DUP2 LT ISZERO PUSH2 0x2FF JUMPI DUP1 DUP3 ADD MLOAD DUP2 DUP5 ADD MSTORE PUSH1 0x20 DUP2 ADD SWAP1 POP PUSH2 0x2E4 JUMP JUMPDEST DUP4 DUP2 GT ISZERO PUSH2 0x30E JUMPI PUSH1 0x0 DUP5 DUP5 ADD MSTORE JUMPDEST POP POP POP POP JUMP JUMPDEST PUSH2 0x31D DUP3 PUSH2 0x388 JUMP JUMPDEST DUP2 ADD DUP2 DUP2 LT PUSH8 0xFFFFFFFFFFFFFFFF DUP3 GT OR ISZERO PUSH2 0x33C JUMPI PUSH2 0x33B PUSH2 0x345 JUMP JUMPDEST JUMPDEST DUP1 PUSH1 0x40 MSTORE POP POP POP JUMP JUMPDEST PUSH32 0x4E487B7100000000000000000000000000000000000000000000000000000000 PUSH1 0x0 MSTORE PUSH1 0x41 PUSH1 0x4 MSTORE PUSH1 0x24 PUSH1 0x0 REVERT JUMPDEST PUSH1 0x0 DUP1 REVERT JUMPDEST PUSH1 0x0 DUP1 REVERT JUMPDEST PUSH1 0x0 DUP1 REVERT JUMPDEST PUSH1 0x0 DUP1 REVERT JUMPDEST PUSH1 0x0 PUSH1 0x1F NOT PUSH1 0x1F DUP4 ADD AND SWAP1 POP SWAP2 SWAP1 POP JUMP INVALID LOG2 PUSH5 0x6970667358 0x22 SLT KECCAK256 0xD6 SWAP4 0xCB LOG3 0xEA 0xFC AND DUP5 0xAB CODECOPY 0x49 PUSH18 0x4F88128CA3820B5A4F4F6F298E3954911474 0xEA 0xBE PUSH5 0x736F6C6343 STOP ADDMOD SMOD STOP CALLER PUSH1 0x80 PUSH1 0x40 MSTORE PUSH1 0xA PUSH1 0x0 SSTORE PUSH1 0x64 PUSH1 0x1 SSTORE PUSH2 0x3E8 PUSH1 0x2 SSTORE CALLVALUE DUP1 ISZERO PUSH2 0x20 JUMPI PUSH1 0x0 DUP1 REVERT JUMPDEST POP PUSH2 0x245 DUP1 PUSH2 0x30 PUSH1 0x0 CODECOPY PUSH1 0x0 RETURN INVALID PUSH1 0x80 PUSH1 0x40 MSTORE CALLVALUE DUP1 ISZERO PUSH2 0x10 JUMPI PUSH1 0x0 DUP1 REVERT JUMPDEST POP PUSH1 0x4 CALLDATASIZE LT PUSH2 0x41 JUMPI PUSH1 0x0 CALLDATALOAD PUSH1 0xE0 SHR DUP1 PUSH4 0x89AC3851 EQ PUSH2 0x46 JUMPI DUP1 PUSH4 0xC5D7802E EQ PUSH2 0x64 JUMPI DUP1 PUSH4 0xCFE65550 EQ PUSH2 0x82 JUMPI JUMPDEST PUSH1 0x0 DUP1 REVERT JUMPDEST PUSH2 0x4E PUSH2 0xA0 JUMP JUMPDEST PUSH1 0x40 MLOAD PUSH2 0x5B SWAP2 SWAP1 PUSH2 0x168 JUMP JUMPDEST PUSH1 0x40 MLOAD DUP1 SWAP2 SUB SWAP1 RETURN JUMPDEST PUSH2 0x6C PUSH2 0xDD JUMP JUMPDEST PUSH1 0x40 MLOAD PUSH2 0x79 SWAP2 SWAP1 PUSH2 0x18A JUMP JUMPDEST PUSH1 0x40 MLOAD DUP1 SWAP2 SUB SWAP1 RETURN JUMPDEST PUSH2 0x8A PUSH2 0xE3 JUMP JUMPDEST PUSH1 0x40 MLOAD PUSH2 0x97 SWAP2 SWAP1 PUSH2 0x168 JUMP JUMPDEST PUSH1 0x40 MLOAD DUP1 SWAP2 SUB SWAP1 RETURN JUMPDEST PUSH1 0x60 PUSH1 0x40 MLOAD DUP1 PUSH1 0x40 ADD PUSH1 0x40 MSTORE DUP1 PUSH1 0x8 DUP2 MSTORE PUSH1 0x20 ADD PUSH32 0x65787465726E616C000000000000000000000000000000000000000000000000 DUP2 MSTORE POP SWAP1 POP SWAP1 JUMP JUMPDEST PUSH1 0x2 SLOAD DUP2 JUMP JUMPDEST PUSH1 0x60 PUSH1 0x40 MLOAD DUP1 PUSH1 0x40 ADD PUSH1 0x40 MSTORE DUP1 PUSH1 0x6 DUP2 MSTORE PUSH1 0x20 ADD PUSH32 0x7075626C69630000000000000000000000000000000000000000000000000000 DUP2 MSTORE POP SWAP1 POP SWAP1 JUMP JUMPDEST PUSH1 0x0 PUSH2 0x12B DUP3 PUSH2 0x1A5 JUMP JUMPDEST PUSH2 0x135 DUP2 DUP6 PUSH2 0x1B0 JUMP JUMPDEST SWAP4 POP PUSH2 0x145 DUP2 DUP6 PUSH1 0x20 DUP7 ADD PUSH2 0x1CB JUMP JUMPDEST PUSH2 0x14E DUP2 PUSH2 0x1FE JUMP JUMPDEST DUP5 ADD SWAP2 POP POP SWAP3 SWAP2 POP POP JUMP JUMPDEST PUSH2 0x162 DUP2 PUSH2 0x1C1 JUMP JUMPDEST DUP3 MSTORE POP POP JUMP JUMPDEST PUSH1 0x0 PUSH1 0x20 DUP3 ADD SWAP1 POP DUP2 DUP2 SUB PUSH1 0x0 DUP4 ADD MSTORE PUSH2 0x182 DUP2 DUP5 PUSH2 0x120 JUMP JUMPDEST SWAP1 POP SWAP3 SWAP2 POP POP JUMP JUMPDEST PUSH1 0x0 PUSH1 0x20 DUP3 ADD SWAP1 POP PUSH2 0x19F PUSH1 0x0 DUP4 ADD DUP5 PUSH2 0x159 JUMP JUMPDEST SWAP3 SWAP2 POP POP JUMP JUMPDEST PUSH1 0x0 DUP2 MLOAD SWAP1 POP SWAP2 SWAP1 POP JUMP JUMPDEST PUSH1 0x0 DUP3 DUP3 MSTORE PUSH1 0x20 DUP3 ADD SWAP1 POP SWAP3 SWAP2 POP POP JUMP JUMPDEST PUSH1 0x0 DUP2 SWAP1 POP SWAP2 SWAP1 POP JUMP JUMPDEST PUSH1 0x0 JUMPDEST DUP4 DUP2 LT ISZERO PUSH2 0x1E9 JUMPI DUP1 DUP3 ADD MLOAD DUP2 DUP5 ADD MSTORE PUSH1 0x20 DUP2 ADD SWAP1 POP PUSH2 0x1CE JUMP JUMPDEST DUP4 DUP2 GT ISZERO PUSH2 0x1F8 JUMPI PUSH1 0x0 DUP5 DUP5 ADD MSTORE JUMPDEST POP POP POP POP JUMP JUMPDEST PUSH1 0x0 PUSH1 0x1F NOT PUSH1 0x1F DUP4 ADD AND SWAP1 POP SWAP2 SWAP1 POP JUMP INVALID LOG2 PUSH5 0x6970667358 0x22 SLT KECCAK256 0x4C CODESIZE 0x1F 0xB5 SSTORE EXP STOP DUP3 GAS 0xFC PUSH14 0xD10B44ED26A808DFB5D6354E9328 CALLVALUE JUMP PUSH20 0x7746887364736F6C634300080700330000000000 "
				},
				"gasEstimates": {
					"creation": {
						"codeDepositCost": "195000",
						"executionCost": "infinite",
						"totalCost": "infinite"
					},
					"external": {
						"a()": "2407",
						"anothercaller()": "infinite"
					}
				},
				"methodIdentifiers": {
					"a()": "0dbe671f",
					"anothercaller()": "6f746501"
				}
			},
			"storageLayout": {
				"storage": [
					{
						"astId": 57,
						"contract": "visibility.sol:C",
						"label": "obj",
						"offset": 0,
						"slot": "0",
						"type": "t_contract(visibility)43"
					},
					{
						"astId": 62,
						"contract": "visibility.sol:C",
						"label": "a",
						"offset": 0,
						"slot": "1",
						"type": "t_uint256"
					}
				],
				"types": {
					"t_contract(visibility)43": {
						"encoding": "inplace",
						"label": "contract visibility",
						"numberOfBytes": "20"
					},
					"t_uint256": {
						"encoding": "inplace",
						"label": "uint256",
						"numberOfBytes": "32"
					}
				}
			},
			"userdoc": {
				"kind": "user",
				"methods": {},
				"version": 1
			}
		}
	}
}