{
	"events.sol": {
		"chatApp": {
			"abi": [
				{
					"anonymous": false,
					"inputs": [
						{
							"indexed": true,
							"internalType": "address",
							"name": "from",
							"type": "address"
						},
						{
							"indexed": false,
							"internalType": "address",
							"name": "to",
							"type": "address"
						},
						{
							"indexed": false,
							"internalType": "string",
							"name": "message",
							"type": "string"
						}
					],
					"name": "chat",
					"type": "event"
				},
				{
					"inputs": [
						{
							"internalType": "address",
							"name": "_to",
							"type": "address"
						},
						{
							"internalType": "string",
							"name": "_message",
							"type": "string"
						}
					],
					"name": "set",
					"outputs": [],
					"stateMutability": "nonpayable",
					"type": "function"
				}
			],
			"devdoc": {
				"kind": "dev",
				"methods": {},
				"version": 1
			},
			"evm": {
				"assembly": "    /* \"events.sol\":274:532  contract chatApp{\r... */\n  mstore(0x40, 0x80)\n  callvalue\n  dup1\n  iszero\n  tag_1\n  jumpi\n  0x00\n  dup1\n  revert\ntag_1:\n  pop\n  dataSize(sub_0)\n  dup1\n  dataOffset(sub_0)\n  0x00\n  codecopy\n  0x00\n  return\nstop\n\nsub_0: assembly {\n        /* \"events.sol\":274:532  contract chatApp{\r... */\n      mstore(0x40, 0x80)\n      callvalue\n      dup1\n      iszero\n      tag_1\n      jumpi\n      0x00\n      dup1\n      revert\n    tag_1:\n      pop\n      jumpi(tag_2, lt(calldatasize, 0x04))\n      shr(0xe0, calldataload(0x00))\n      dup1\n      0x5a82d100\n      eq\n      tag_3\n      jumpi\n    tag_2:\n      0x00\n      dup1\n      revert\n        /* \"events.sol\":417:529  function set(address _to,string memory _message) public{\r... */\n    tag_3:\n      tag_4\n      0x04\n      dup1\n      calldatasize\n      sub\n      dup2\n      add\n      swap1\n      tag_5\n      swap2\n      swap1\n      tag_6\n      jump\t// in\n    tag_5:\n      tag_7\n      jump\t// in\n    tag_4:\n      stop\n    tag_7:\n        /* \"events.sol\":497:507  msg.sender */\n      caller\n        /* \"events.sol\":492:521  chat(msg.sender,_to,_message) */\n      0xffffffffffffffffffffffffffffffffffffffff\n      and\n      0x2f6ff1dea5e6d5466e44de328c6f4518b6da78f98b2b55273306901a3f0b346c\n        /* \"events.sol\":508:511  _to */\n      dup4\n        /* \"events.sol\":512:520  _message */\n      dup4\n        /* \"events.sol\":492:521  chat(msg.sender,_to,_message) */\n      mload(0x40)\n      tag_9\n      swap3\n      swap2\n      swap1\n      tag_10\n      jump\t// in\n    tag_9:\n      mload(0x40)\n      dup1\n      swap2\n      sub\n      swap1\n      log2\n        /* \"events.sol\":417:529  function set(address _to,string memory _message) public{\r... */\n      pop\n      pop\n      jump\t// out\n        /* \"#utility.yul\":7:419   */\n    tag_12:\n        /* \"#utility.yul\":85:90   */\n      0x00\n        /* \"#utility.yul\":110:176   */\n      tag_14\n        /* \"#utility.yul\":126:175   */\n      tag_15\n        /* \"#utility.yul\":168:174   */\n      dup5\n        /* \"#utility.yul\":126:175   */\n      tag_16\n      jump\t// in\n    tag_15:\n        /* \"#utility.yul\":110:176   */\n      tag_17\n      jump\t// in\n    tag_14:\n        /* \"#utility.yul\":101:176   */\n      swap1\n      pop\n        /* \"#utility.yul\":199:205   */\n      dup3\n        /* \"#utility.yul\":192:197   */\n      dup2\n        /* \"#utility.yul\":185:206   */\n      mstore\n        /* \"#utility.yul\":237:241   */\n      0x20\n        /* \"#utility.yul\":230:235   */\n      dup2\n        /* \"#utility.yul\":226:242   */\n      add\n        /* \"#utility.yul\":275:278   */\n      dup5\n        /* \"#utility.yul\":266:272   */\n      dup5\n        /* \"#utility.yul\":261:264   */\n      dup5\n        /* \"#utility.yul\":257:273   */\n      add\n        /* \"#utility.yul\":254:279   */\n      gt\n        /* \"#utility.yul\":251:363   */\n      iszero\n      tag_18\n      jumpi\n        /* \"#utility.yul\":282:361   */\n      tag_19\n      tag_20\n      jump\t// in\n    tag_19:\n        /* \"#utility.yul\":251:363   */\n    tag_18:\n        /* \"#utility.yul\":372:413   */\n      tag_21\n        /* \"#utility.yul\":406:412   */\n      dup5\n        /* \"#utility.yul\":401:404   */\n      dup3\n        /* \"#utility.yul\":396:399   */\n      dup6\n        /* \"#utility.yul\":372:413   */\n      tag_22\n      jump\t// in\n    tag_21:\n        /* \"#utility.yul\":91:419   */\n      pop\n        /* \"#utility.yul\":7:419   */\n      swap4\n      swap3\n      pop\n      pop\n      pop\n      jump\t// out\n        /* \"#utility.yul\":425:564   */\n    tag_23:\n        /* \"#utility.yul\":471:476   */\n      0x00\n        /* \"#utility.yul\":509:515   */\n      dup2\n        /* \"#utility.yul\":496:516   */\n      calldataload\n        /* \"#utility.yul\":487:516   */\n      swap1\n      pop\n        /* \"#utility.yul\":525:558   */\n      tag_25\n        /* \"#utility.yul\":552:557   */\n      dup2\n        /* \"#utility.yul\":525:558   */\n      tag_26\n      jump\t// in\n    tag_25:\n        /* \"#utility.yul\":425:564   */\n      swap3\n      swap2\n      pop\n      pop\n      jump\t// out\n        /* \"#utility.yul\":584:924   */\n    tag_27:\n        /* \"#utility.yul\":640:645   */\n      0x00\n        /* \"#utility.yul\":689:692   */\n      dup3\n        /* \"#utility.yul\":682:686   */\n      0x1f\n        /* \"#utility.yul\":674:680   */\n      dup4\n        /* \"#utility.yul\":670:687   */\n      add\n        /* \"#utility.yul\":666:693   */\n      slt\n        /* \"#utility.yul\":656:778   */\n      tag_29\n      jumpi\n        /* \"#utility.yul\":697:776   */\n      tag_30\n      tag_31\n      jump\t// in\n    tag_30:\n        /* \"#utility.yul\":656:778   */\n    tag_29:\n        /* \"#utility.yul\":814:820   */\n      dup2\n        /* \"#utility.yul\":801:821   */\n      calldataload\n        /* \"#utility.yul\":839:918   */\n      tag_32\n        /* \"#utility.yul\":914:917   */\n      dup5\n        /* \"#utility.yul\":906:912   */\n      dup3\n        /* \"#utility.yul\":899:903   */\n      0x20\n        /* \"#utility.yul\":891:897   */\n      dup7\n        /* \"#utility.yul\":887:904   */\n      add\n        /* \"#utility.yul\":839:918   */\n      tag_12\n      jump\t// in\n    tag_32:\n        /* \"#utility.yul\":830:918   */\n      swap2\n      pop\n        /* \"#utility.yul\":646:924   */\n      pop\n        /* \"#utility.yul\":584:924   */\n      swap3\n      swap2\n      pop\n      pop\n      jump\t// out\n        /* \"#utility.yul\":930:1584   */\n    tag_6:\n        /* \"#utility.yul\":1008:1014   */\n      0x00\n        /* \"#utility.yul\":1016:1022   */\n      dup1\n        /* \"#utility.yul\":1065:1067   */\n      0x40\n        /* \"#utility.yul\":1053:1062   */\n      dup4\n        /* \"#utility.yul\":1044:1051   */\n      dup6\n        /* \"#utility.yul\":1040:1063   */\n      sub\n        /* \"#utility.yul\":1036:1068   */\n      slt\n        /* \"#utility.yul\":1033:1152   */\n      iszero\n      tag_34\n      jumpi\n        /* \"#utility.yul\":1071:1150   */\n      tag_35\n      tag_36\n      jump\t// in\n    tag_35:\n        /* \"#utility.yul\":1033:1152   */\n    tag_34:\n        /* \"#utility.yul\":1191:1192   */\n      0x00\n        /* \"#utility.yul\":1216:1269   */\n      tag_37\n        /* \"#utility.yul\":1261:1268   */\n      dup6\n        /* \"#utility.yul\":1252:1258   */\n      dup3\n        /* \"#utility.yul\":1241:1250   */\n      dup7\n        /* \"#utility.yul\":1237:1259   */\n      add\n        /* \"#utility.yul\":1216:1269   */\n      tag_23\n      jump\t// in\n    tag_37:\n        /* \"#utility.yul\":1206:1269   */\n      swap3\n      pop\n        /* \"#utility.yul\":1162:1279   */\n      pop\n        /* \"#utility.yul\":1346:1348   */\n      0x20\n        /* \"#utility.yul\":1335:1344   */\n      dup4\n        /* \"#utility.yul\":1331:1349   */\n      add\n        /* \"#utility.yul\":1318:1350   */\n      calldataload\n        /* \"#utility.yul\":1377:1395   */\n      0xffffffffffffffff\n        /* \"#utility.yul\":1369:1375   */\n      dup2\n        /* \"#utility.yul\":1366:1396   */\n      gt\n        /* \"#utility.yul\":1363:1480   */\n      iszero\n      tag_38\n      jumpi\n        /* \"#utility.yul\":1399:1478   */\n      tag_39\n      tag_40\n      jump\t// in\n    tag_39:\n        /* \"#utility.yul\":1363:1480   */\n    tag_38:\n        /* \"#utility.yul\":1504:1567   */\n      tag_41\n        /* \"#utility.yul\":1559:1566   */\n      dup6\n        /* \"#utility.yul\":1550:1556   */\n      dup3\n        /* \"#utility.yul\":1539:1548   */\n      dup7\n        /* \"#utility.yul\":1535:1557   */\n      add\n        /* \"#utility.yul\":1504:1567   */\n      tag_27\n      jump\t// in\n    tag_41:\n        /* \"#utility.yul\":1494:1567   */\n      swap2\n      pop\n        /* \"#utility.yul\":1289:1577   */\n      pop\n        /* \"#utility.yul\":930:1584   */\n      swap3\n      pop\n      swap3\n      swap1\n      pop\n      jump\t// out\n        /* \"#utility.yul\":1590:1708   */\n    tag_42:\n        /* \"#utility.yul\":1677:1701   */\n      tag_44\n        /* \"#utility.yul\":1695:1700   */\n      dup2\n        /* \"#utility.yul\":1677:1701   */\n      tag_45\n      jump\t// in\n    tag_44:\n        /* \"#utility.yul\":1672:1675   */\n      dup3\n        /* \"#utility.yul\":1665:1702   */\n      mstore\n        /* \"#utility.yul\":1590:1708   */\n      pop\n      pop\n      jump\t// out\n        /* \"#utility.yul\":1714:2078   */\n    tag_46:\n        /* \"#utility.yul\":1802:1805   */\n      0x00\n        /* \"#utility.yul\":1830:1869   */\n      tag_48\n        /* \"#utility.yul\":1863:1868   */\n      dup3\n        /* \"#utility.yul\":1830:1869   */\n      tag_49\n      jump\t// in\n    tag_48:\n        /* \"#utility.yul\":1885:1956   */\n      tag_50\n        /* \"#utility.yul\":1949:1955   */\n      dup2\n        /* \"#utility.yul\":1944:1947   */\n      dup6\n        /* \"#utility.yul\":1885:1956   */\n      tag_51\n      jump\t// in\n    tag_50:\n        /* \"#utility.yul\":1878:1956   */\n      swap4\n      pop\n        /* \"#utility.yul\":1965:2017   */\n      tag_52\n        /* \"#utility.yul\":2010:2016   */\n      dup2\n        /* \"#utility.yul\":2005:2008   */\n      dup6\n        /* \"#utility.yul\":1998:2002   */\n      0x20\n        /* \"#utility.yul\":1991:1996   */\n      dup7\n        /* \"#utility.yul\":1987:2003   */\n      add\n        /* \"#utility.yul\":1965:2017   */\n      tag_53\n      jump\t// in\n    tag_52:\n        /* \"#utility.yul\":2042:2071   */\n      tag_54\n        /* \"#utility.yul\":2064:2070   */\n      dup2\n        /* \"#utility.yul\":2042:2071   */\n      tag_55\n      jump\t// in\n    tag_54:\n        /* \"#utility.yul\":2037:2040   */\n      dup5\n        /* \"#utility.yul\":2033:2072   */\n      add\n        /* \"#utility.yul\":2026:2072   */\n      swap2\n      pop\n        /* \"#utility.yul\":1806:2078   */\n      pop\n        /* \"#utility.yul\":1714:2078   */\n      swap3\n      swap2\n      pop\n      pop\n      jump\t// out\n        /* \"#utility.yul\":2084:2507   */\n    tag_10:\n        /* \"#utility.yul\":2225:2229   */\n      0x00\n        /* \"#utility.yul\":2263:2265   */\n      0x40\n        /* \"#utility.yul\":2252:2261   */\n      dup3\n        /* \"#utility.yul\":2248:2266   */\n      add\n        /* \"#utility.yul\":2240:2266   */\n      swap1\n      pop\n        /* \"#utility.yul\":2276:2347   */\n      tag_57\n        /* \"#utility.yul\":2344:2345   */\n      0x00\n        /* \"#utility.yul\":2333:2342   */\n      dup4\n        /* \"#utility.yul\":2329:2346   */\n      add\n        /* \"#utility.yul\":2320:2326   */\n      dup6\n        /* \"#utility.yul\":2276:2347   */\n      tag_42\n      jump\t// in\n    tag_57:\n        /* \"#utility.yul\":2394:2403   */\n      dup2\n        /* \"#utility.yul\":2388:2392   */\n      dup2\n        /* \"#utility.yul\":2384:2404   */\n      sub\n        /* \"#utility.yul\":2379:2381   */\n      0x20\n        /* \"#utility.yul\":2368:2377   */\n      dup4\n        /* \"#utility.yul\":2364:2382   */\n      add\n        /* \"#utility.yul\":2357:2405   */\n      mstore\n        /* \"#utility.yul\":2422:2500   */\n      tag_58\n        /* \"#utility.yul\":2495:2499   */\n      dup2\n        /* \"#utility.yul\":2486:2492   */\n      dup5\n        /* \"#utility.yul\":2422:2500   */\n      tag_46\n      jump\t// in\n    tag_58:\n        /* \"#utility.yul\":2414:2500   */\n      swap1\n      pop\n        /* \"#utility.yul\":2084:2507   */\n      swap4\n      swap3\n      pop\n      pop\n      pop\n      jump\t// out\n        /* \"#utility.yul\":2513:2642   */\n    tag_17:\n        /* \"#utility.yul\":2547:2553   */\n      0x00\n        /* \"#utility.yul\":2574:2594   */\n      tag_60\n      tag_61\n      jump\t// in\n    tag_60:\n        /* \"#utility.yul\":2564:2594   */\n      swap1\n      pop\n        /* \"#utility.yul\":2603:2636   */\n      tag_62\n        /* \"#utility.yul\":2631:2635   */\n      dup3\n        /* \"#utility.yul\":2623:2629   */\n      dup3\n        /* \"#utility.yul\":2603:2636   */\n      tag_63\n      jump\t// in\n    tag_62:\n        /* \"#utility.yul\":2513:2642   */\n      swap2\n      swap1\n      pop\n      jump\t// out\n        /* \"#utility.yul\":2648:2723   */\n    tag_61:\n        /* \"#utility.yul\":2681:2687   */\n      0x00\n        /* \"#utility.yul\":2714:2716   */\n      0x40\n        /* \"#utility.yul\":2708:2717   */\n      mload\n        /* \"#utility.yul\":2698:2717   */\n      swap1\n      pop\n        /* \"#utility.yul\":2648:2723   */\n      swap1\n      jump\t// out\n        /* \"#utility.yul\":2729:3037   */\n    tag_16:\n        /* \"#utility.yul\":2791:2795   */\n      0x00\n        /* \"#utility.yul\":2881:2899   */\n      0xffffffffffffffff\n        /* \"#utility.yul\":2873:2879   */\n      dup3\n        /* \"#utility.yul\":2870:2900   */\n      gt\n        /* \"#utility.yul\":2867:2923   */\n      iszero\n      tag_66\n      jumpi\n        /* \"#utility.yul\":2903:2921   */\n      tag_67\n      tag_68\n      jump\t// in\n    tag_67:\n        /* \"#utility.yul\":2867:2923   */\n    tag_66:\n        /* \"#utility.yul\":2941:2970   */\n      tag_69\n        /* \"#utility.yul\":2963:2969   */\n      dup3\n        /* \"#utility.yul\":2941:2970   */\n      tag_55\n      jump\t// in\n    tag_69:\n        /* \"#utility.yul\":2933:2970   */\n      swap1\n      pop\n        /* \"#utility.yul\":3025:3029   */\n      0x20\n        /* \"#utility.yul\":3019:3023   */\n      dup2\n        /* \"#utility.yul\":3015:3030   */\n      add\n        /* \"#utility.yul\":3007:3030   */\n      swap1\n      pop\n        /* \"#utility.yul\":2729:3037   */\n      swap2\n      swap1\n      pop\n      jump\t// out\n        /* \"#utility.yul\":3043:3142   */\n    tag_49:\n        /* \"#utility.yul\":3095:3101   */\n      0x00\n        /* \"#utility.yul\":3129:3134   */\n      dup2\n        /* \"#utility.yul\":3123:3135   */\n      mload\n        /* \"#utility.yul\":3113:3135   */\n      swap1\n      pop\n        /* \"#utility.yul\":3043:3142   */\n      swap2\n      swap1\n      pop\n      jump\t// out\n        /* \"#utility.yul\":3148:3317   */\n    tag_51:\n        /* \"#utility.yul\":3232:3243   */\n      0x00\n        /* \"#utility.yul\":3266:3272   */\n      dup3\n        /* \"#utility.yul\":3261:3264   */\n      dup3\n        /* \"#utility.yul\":3254:3273   */\n      mstore\n        /* \"#utility.yul\":3306:3310   */\n      0x20\n        /* \"#utility.yul\":3301:3304   */\n      dup3\n        /* \"#utility.yul\":3297:3311   */\n      add\n        /* \"#utility.yul\":3282:3311   */\n      swap1\n      pop\n        /* \"#utility.yul\":3148:3317   */\n      swap3\n      swap2\n      pop\n      pop\n      jump\t// out\n        /* \"#utility.yul\":3323:3419   */\n    tag_45:\n        /* \"#utility.yul\":3360:3367   */\n      0x00\n        /* \"#utility.yul\":3389:3413   */\n      tag_73\n        /* \"#utility.yul\":3407:3412   */\n      dup3\n        /* \"#utility.yul\":3389:3413   */\n      tag_74\n      jump\t// in\n    tag_73:\n        /* \"#utility.yul\":3378:3413   */\n      swap1\n      pop\n        /* \"#utility.yul\":3323:3419   */\n      swap2\n      swap1\n      pop\n      jump\t// out\n        /* \"#utility.yul\":3425:3551   */\n    tag_74:\n        /* \"#utility.yul\":3462:3469   */\n      0x00\n        /* \"#utility.yul\":3502:3544   */\n      0xffffffffffffffffffffffffffffffffffffffff\n        /* \"#utility.yul\":3495:3500   */\n      dup3\n        /* \"#utility.yul\":3491:3545   */\n      and\n        /* \"#utility.yul\":3480:3545   */\n      swap1\n      pop\n        /* \"#utility.yul\":3425:3551   */\n      swap2\n      swap1\n      pop\n      jump\t// out\n        /* \"#utility.yul\":3557:3711   */\n    tag_22:\n        /* \"#utility.yul\":3641:3647   */\n      dup3\n        /* \"#utility.yul\":3636:3639   */\n      dup2\n        /* \"#utility.yul\":3631:3634   */\n      dup4\n        /* \"#utility.yul\":3618:3648   */\n      calldatacopy\n        /* \"#utility.yul\":3703:3704   */\n      0x00\n        /* \"#utility.yul\":3694:3700   */\n      dup4\n        /* \"#utility.yul\":3689:3692   */\n      dup4\n        /* \"#utility.yul\":3685:3701   */\n      add\n        /* \"#utility.yul\":3678:3705   */\n      mstore\n        /* \"#utility.yul\":3557:3711   */\n      pop\n      pop\n      pop\n      jump\t// out\n        /* \"#utility.yul\":3717:4024   */\n    tag_53:\n        /* \"#utility.yul\":3785:3786   */\n      0x00\n        /* \"#utility.yul\":3795:3908   */\n    tag_78:\n        /* \"#utility.yul\":3809:3815   */\n      dup4\n        /* \"#utility.yul\":3806:3807   */\n      dup2\n        /* \"#utility.yul\":3803:3816   */\n      lt\n        /* \"#utility.yul\":3795:3908   */\n      iszero\n      tag_80\n      jumpi\n        /* \"#utility.yul\":3894:3895   */\n      dup1\n        /* \"#utility.yul\":3889:3892   */\n      dup3\n        /* \"#utility.yul\":3885:3896   */\n      add\n        /* \"#utility.yul\":3879:3897   */\n      mload\n        /* \"#utility.yul\":3875:3876   */\n      dup2\n        /* \"#utility.yul\":3870:3873   */\n      dup5\n        /* \"#utility.yul\":3866:3877   */\n      add\n        /* \"#utility.yul\":3859:3898   */\n      mstore\n        /* \"#utility.yul\":3831:3833   */\n      0x20\n        /* \"#utility.yul\":3828:3829   */\n      dup2\n        /* \"#utility.yul\":3824:3834   */\n      add\n        /* \"#utility.yul\":3819:3834   */\n      swap1\n      pop\n        /* \"#utility.yul\":3795:3908   */\n      jump(tag_78)\n    tag_80:\n        /* \"#utility.yul\":3926:3932   */\n      dup4\n        /* \"#utility.yul\":3923:3924   */\n      dup2\n        /* \"#utility.yul\":3920:3933   */\n      gt\n        /* \"#utility.yul\":3917:4018   */\n      iszero\n      tag_81\n      jumpi\n        /* \"#utility.yul\":4006:4007   */\n      0x00\n        /* \"#utility.yul\":3997:4003   */\n      dup5\n        /* \"#utility.yul\":3992:3995   */\n      dup5\n        /* \"#utility.yul\":3988:4004   */\n      add\n        /* \"#utility.yul\":3981:4008   */\n      mstore\n        /* \"#utility.yul\":3917:4018   */\n    tag_81:\n        /* \"#utility.yul\":3766:4024   */\n      pop\n        /* \"#utility.yul\":3717:4024   */\n      pop\n      pop\n      pop\n      jump\t// out\n        /* \"#utility.yul\":4030:4311   */\n    tag_63:\n        /* \"#utility.yul\":4113:4140   */\n      tag_83\n        /* \"#utility.yul\":4135:4139   */\n      dup3\n        /* \"#utility.yul\":4113:4140   */\n      tag_55\n      jump\t// in\n    tag_83:\n        /* \"#utility.yul\":4105:4111   */\n      dup2\n        /* \"#utility.yul\":4101:4141   */\n      add\n        /* \"#utility.yul\":4243:4249   */\n      dup2\n        /* \"#utility.yul\":4231:4241   */\n      dup2\n        /* \"#utility.yul\":4228:4250   */\n      lt\n        /* \"#utility.yul\":4207:4225   */\n      0xffffffffffffffff\n        /* \"#utility.yul\":4195:4205   */\n      dup3\n        /* \"#utility.yul\":4192:4226   */\n      gt\n        /* \"#utility.yul\":4189:4251   */\n      or\n        /* \"#utility.yul\":4186:4274   */\n      iszero\n      tag_84\n      jumpi\n        /* \"#utility.yul\":4254:4272   */\n      tag_85\n      tag_68\n      jump\t// in\n    tag_85:\n        /* \"#utility.yul\":4186:4274   */\n    tag_84:\n        /* \"#utility.yul\":4294:4304   */\n      dup1\n        /* \"#utility.yul\":4290:4292   */\n      0x40\n        /* \"#utility.yul\":4283:4305   */\n      mstore\n        /* \"#utility.yul\":4073:4311   */\n      pop\n        /* \"#utility.yul\":4030:4311   */\n      pop\n      pop\n      jump\t// out\n        /* \"#utility.yul\":4317:4497   */\n    tag_68:\n        /* \"#utility.yul\":4365:4442   */\n      0x4e487b7100000000000000000000000000000000000000000000000000000000\n        /* \"#utility.yul\":4362:4363   */\n      0x00\n        /* \"#utility.yul\":4355:4443   */\n      mstore\n        /* \"#utility.yul\":4462:4466   */\n      0x41\n        /* \"#utility.yul\":4459:4460   */\n      0x04\n        /* \"#utility.yul\":4452:4467   */\n      mstore\n        /* \"#utility.yul\":4486:4490   */\n      0x24\n        /* \"#utility.yul\":4483:4484   */\n      0x00\n        /* \"#utility.yul\":4476:4491   */\n      revert\n        /* \"#utility.yul\":4503:4620   */\n    tag_31:\n        /* \"#utility.yul\":4612:4613   */\n      0x00\n        /* \"#utility.yul\":4609:4610   */\n      dup1\n        /* \"#utility.yul\":4602:4614   */\n      revert\n        /* \"#utility.yul\":4626:4743   */\n    tag_20:\n        /* \"#utility.yul\":4735:4736   */\n      0x00\n        /* \"#utility.yul\":4732:4733   */\n      dup1\n        /* \"#utility.yul\":4725:4737   */\n      revert\n        /* \"#utility.yul\":4749:4866   */\n    tag_40:\n        /* \"#utility.yul\":4858:4859   */\n      0x00\n        /* \"#utility.yul\":4855:4856   */\n      dup1\n        /* \"#utility.yul\":4848:4860   */\n      revert\n        /* \"#utility.yul\":4872:4989   */\n    tag_36:\n        /* \"#utility.yul\":4981:4982   */\n      0x00\n        /* \"#utility.yul\":4978:4979   */\n      dup1\n        /* \"#utility.yul\":4971:4983   */\n      revert\n        /* \"#utility.yul\":4995:5097   */\n    tag_55:\n        /* \"#utility.yul\":5036:5042   */\n      0x00\n        /* \"#utility.yul\":5087:5089   */\n      0x1f\n        /* \"#utility.yul\":5083:5090   */\n      not\n        /* \"#utility.yul\":5078:5080   */\n      0x1f\n        /* \"#utility.yul\":5071:5076   */\n      dup4\n        /* \"#utility.yul\":5067:5081   */\n      add\n        /* \"#utility.yul\":5063:5091   */\n      and\n        /* \"#utility.yul\":5053:5091   */\n      swap1\n      pop\n        /* \"#utility.yul\":4995:5097   */\n      swap2\n      swap1\n      pop\n      jump\t// out\n        /* \"#utility.yul\":5103:5225   */\n    tag_26:\n        /* \"#utility.yul\":5176:5200   */\n      tag_93\n        /* \"#utility.yul\":5194:5199   */\n      dup2\n        /* \"#utility.yul\":5176:5200   */\n      tag_45\n      jump\t// in\n    tag_93:\n        /* \"#utility.yul\":5169:5174   */\n      dup2\n        /* \"#utility.yul\":5166:5201   */\n      eq\n        /* \"#utility.yul\":5156:5219   */\n      tag_94\n      jumpi\n        /* \"#utility.yul\":5215:5216   */\n      0x00\n        /* \"#utility.yul\":5212:5213   */\n      dup1\n        /* \"#utility.yul\":5205:5217   */\n      revert\n        /* \"#utility.yul\":5156:5219   */\n    tag_94:\n        /* \"#utility.yul\":5103:5225   */\n      pop\n      jump\t// out\n\n    auxdata: 0xa26469706673582212209b34b6235acaab6e9340e001e000259feecfcf06ee984b5cffc26213f84eb3ff64736f6c63430008070033\n}\n",
				"bytecode": {
					"linkReferences": {},
					"object": "608060405234801561001057600080fd5b506103b1806100206000396000f3fe608060405234801561001057600080fd5b506004361061002b5760003560e01c80635a82d10014610030575b600080fd5b61004a60048036038101906100459190610125565b61004c565b005b3373ffffffffffffffffffffffffffffffffffffffff167f2f6ff1dea5e6d5466e44de328c6f4518b6da78f98b2b55273306901a3f0b346c83836040516100949291906101c9565b60405180910390a25050565b60006100b36100ae8461021e565b6101f9565b9050828152602081018484840111156100cf576100ce610344565b5b6100da84828561029d565b509392505050565b6000813590506100f181610364565b92915050565b600082601f83011261010c5761010b61033f565b5b813561011c8482602086016100a0565b91505092915050565b6000806040838503121561013c5761013b61034e565b5b600061014a858286016100e2565b925050602083013567ffffffffffffffff81111561016b5761016a610349565b5b610177858286016100f7565b9150509250929050565b61018a8161026b565b82525050565b600061019b8261024f565b6101a5818561025a565b93506101b58185602086016102ac565b6101be81610353565b840191505092915050565b60006040820190506101de6000830185610181565b81810360208301526101f08184610190565b90509392505050565b6000610203610214565b905061020f82826102df565b919050565b6000604051905090565b600067ffffffffffffffff82111561023957610238610310565b5b61024282610353565b9050602081019050919050565b600081519050919050565b600082825260208201905092915050565b60006102768261027d565b9050919050565b600073ffffffffffffffffffffffffffffffffffffffff82169050919050565b82818337600083830152505050565b60005b838110156102ca5780820151818401526020810190506102af565b838111156102d9576000848401525b50505050565b6102e882610353565b810181811067ffffffffffffffff8211171561030757610306610310565b5b80604052505050565b7f4e487b7100000000000000000000000000000000000000000000000000000000600052604160045260246000fd5b600080fd5b600080fd5b600080fd5b600080fd5b6000601f19601f8301169050919050565b61036d8161026b565b811461037857600080fd5b5056fea26469706673582212209b34b6235acaab6e9340e001e000259feecfcf06ee984b5cffc26213f84eb3ff64736f6c63430008070033",
					"opcodes": "PUSH1 0x80 PUSH1 0x40 MSTORE CALLVALUE DUP1 ISZERO PUSH2 0x10 JUMPI PUSH1 0x0 DUP1 REVERT JUMPDEST POP PUSH2 0x3B1 DUP1 PUSH2 0x20 PUSH1 0x0 CODECOPY PUSH1 0x0 RETURN INVALID PUSH1 0x80 PUSH1 0x40 MSTORE CALLVALUE DUP1 ISZERO PUSH2 0x10 JUMPI PUSH1 0x0 DUP1 REVERT JUMPDEST POP PUSH1 0x4 CALLDATASIZE LT PUSH2 0x2B JUMPI PUSH1 0x0 CALLDATALOAD PUSH1 0xE0 SHR DUP1 PUSH4 0x5A82D100 EQ PUSH2 0x30 JUMPI JUMPDEST PUSH1 0x0 DUP1 REVERT JUMPDEST PUSH2 0x4A PUSH1 0x4 DUP1 CALLDATASIZE SUB DUP2 ADD SWAP1 PUSH2 0x45 SWAP2 SWAP1 PUSH2 0x125 JUMP JUMPDEST PUSH2 0x4C JUMP JUMPDEST STOP JUMPDEST CALLER PUSH20 0xFFFFFFFFFFFFFFFFFFFFFFFFFFFFFFFFFFFFFFFF AND PUSH32 0x2F6FF1DEA5E6D5466E44DE328C6F4518B6DA78F98B2B55273306901A3F0B346C DUP4 DUP4 PUSH1 0x40 MLOAD PUSH2 0x94 SWAP3 SWAP2 SWAP1 PUSH2 0x1C9 JUMP JUMPDEST PUSH1 0x40 MLOAD DUP1 SWAP2 SUB SWAP1 LOG2 POP POP JUMP JUMPDEST PUSH1 0x0 PUSH2 0xB3 PUSH2 0xAE DUP5 PUSH2 0x21E JUMP JUMPDEST PUSH2 0x1F9 JUMP JUMPDEST SWAP1 POP DUP3 DUP2 MSTORE PUSH1 0x20 DUP2 ADD DUP5 DUP5 DUP5 ADD GT ISZERO PUSH2 0xCF JUMPI PUSH2 0xCE PUSH2 0x344 JUMP JUMPDEST JUMPDEST PUSH2 0xDA DUP5 DUP3 DUP6 PUSH2 0x29D JUMP JUMPDEST POP SWAP4 SWAP3 POP POP POP JUMP JUMPDEST PUSH1 0x0 DUP2 CALLDATALOAD SWAP1 POP PUSH2 0xF1 DUP2 PUSH2 0x364 JUMP JUMPDEST SWAP3 SWAP2 POP POP JUMP JUMPDEST PUSH1 0x0 DUP3 PUSH1 0x1F DUP4 ADD SLT PUSH2 0x10C JUMPI PUSH2 0x10B PUSH2 0x33F JUMP JUMPDEST JUMPDEST DUP2 CALLDATALOAD PUSH2 0x11C DUP5 DUP3 PUSH1 0x20 DUP7 ADD PUSH2 0xA0 JUMP JUMPDEST SWAP2 POP POP SWAP3 SWAP2 POP POP JUMP JUMPDEST PUSH1 0x0 DUP1 PUSH1 0x40 DUP4 DUP6 SUB SLT ISZERO PUSH2 0x13C JUMPI PUSH2 0x13B PUSH2 0x34E JUMP JUMPDEST JUMPDEST PUSH1 0x0 PUSH2 0x14A DUP6 DUP3 DUP7 ADD PUSH2 0xE2 JUMP JUMPDEST SWAP3 POP POP PUSH1 0x20 DUP4 ADD CALLDATALOAD PUSH8 0xFFFFFFFFFFFFFFFF DUP2 GT ISZERO PUSH2 0x16B JUMPI PUSH2 0x16A PUSH2 0x349 JUMP JUMPDEST JUMPDEST PUSH2 0x177 DUP6 DUP3 DUP7 ADD PUSH2 0xF7 JUMP JUMPDEST SWAP2 POP POP SWAP3 POP SWAP3 SWAP1 POP JUMP JUMPDEST PUSH2 0x18A DUP2 PUSH2 0x26B JUMP JUMPDEST DUP3 MSTORE POP POP JUMP JUMPDEST PUSH1 0x0 PUSH2 0x19B DUP3 PUSH2 0x24F JUMP JUMPDEST PUSH2 0x1A5 DUP2 DUP6 PUSH2 0x25A JUMP JUMPDEST SWAP4 POP PUSH2 0x1B5 DUP2 DUP6 PUSH1 0x20 DUP7 ADD PUSH2 0x2AC JUMP JUMPDEST PUSH2 0x1BE DUP2 PUSH2 0x353 JUMP JUMPDEST DUP5 ADD SWAP2 POP POP SWAP3 SWAP2 POP POP JUMP JUMPDEST PUSH1 0x0 PUSH1 0x40 DUP3 ADD SWAP1 POP PUSH2 0x1DE PUSH1 0x0 DUP4 ADD DUP6 PUSH2 0x181 JUMP JUMPDEST DUP2 DUP2 SUB PUSH1 0x20 DUP4 ADD MSTORE PUSH2 0x1F0 DUP2 DUP5 PUSH2 0x190 JUMP JUMPDEST SWAP1 POP SWAP4 SWAP3 POP POP POP JUMP JUMPDEST PUSH1 0x0 PUSH2 0x203 PUSH2 0x214 JUMP JUMPDEST SWAP1 POP PUSH2 0x20F DUP3 DUP3 PUSH2 0x2DF JUMP JUMPDEST SWAP2 SWAP1 POP JUMP JUMPDEST PUSH1 0x0 PUSH1 0x40 MLOAD SWAP1 POP SWAP1 JUMP JUMPDEST PUSH1 0x0 PUSH8 0xFFFFFFFFFFFFFFFF DUP3 GT ISZERO PUSH2 0x239 JUMPI PUSH2 0x238 PUSH2 0x310 JUMP JUMPDEST JUMPDEST PUSH2 0x242 DUP3 PUSH2 0x353 JUMP JUMPDEST SWAP1 POP PUSH1 0x20 DUP2 ADD SWAP1 POP SWAP2 SWAP1 POP JUMP JUMPDEST PUSH1 0x0 DUP2 MLOAD SWAP1 POP SWAP2 SWAP1 POP JUMP JUMPDEST PUSH1 0x0 DUP3 DUP3 MSTORE PUSH1 0x20 DUP3 ADD SWAP1 POP SWAP3 SWAP2 POP POP JUMP JUMPDEST PUSH1 0x0 PUSH2 0x276 DUP3 PUSH2 0x27D JUMP JUMPDEST SWAP1 POP SWAP2 SWAP1 POP JUMP JUMPDEST PUSH1 0x0 PUSH20 0xFFFFFFFFFFFFFFFFFFFFFFFFFFFFFFFFFFFFFFFF DUP3 AND SWAP1 POP SWAP2 SWAP1 POP JUMP JUMPDEST DUP3 DUP2 DUP4 CALLDATACOPY PUSH1 0x0 DUP4 DUP4 ADD MSTORE POP POP POP JUMP JUMPDEST PUSH1 0x0 JUMPDEST DUP4 DUP2 LT ISZERO PUSH2 0x2CA JUMPI DUP1 DUP3 ADD MLOAD DUP2 DUP5 ADD MSTORE PUSH1 0x20 DUP2 ADD SWAP1 POP PUSH2 0x2AF JUMP JUMPDEST DUP4 DUP2 GT ISZERO PUSH2 0x2D9 JUMPI PUSH1 0x0 DUP5 DUP5 ADD MSTORE JUMPDEST POP POP POP POP JUMP JUMPDEST PUSH2 0x2E8 DUP3 PUSH2 0x353 JUMP JUMPDEST DUP2 ADD DUP2 DUP2 LT PUSH8 0xFFFFFFFFFFFFFFFF DUP3 GT OR ISZERO PUSH2 0x307 JUMPI PUSH2 0x306 PUSH2 0x310 JUMP JUMPDEST JUMPDEST DUP1 PUSH1 0x40 MSTORE POP POP POP JUMP JUMPDEST PUSH32 0x4E487B7100000000000000000000000000000000000000000000000000000000 PUSH1 0x0 MSTORE PUSH1 0x41 PUSH1 0x4 MSTORE PUSH1 0x24 PUSH1 0x0 REVERT JUMPDEST PUSH1 0x0 DUP1 REVERT JUMPDEST PUSH1 0x0 DUP1 REVERT JUMPDEST PUSH1 0x0 DUP1 REVERT JUMPDEST PUSH1 0x0 DUP1 REVERT JUMPDEST PUSH1 0x0 PUSH1 0x1F NOT PUSH1 0x1F DUP4 ADD AND SWAP1 POP SWAP2 SWAP1 POP JUMP JUMPDEST PUSH2 0x36D DUP2 PUSH2 0x26B JUMP JUMPDEST DUP2 EQ PUSH2 0x378 JUMPI PUSH1 0x0 DUP1 REVERT JUMPDEST POP JUMP INVALID LOG2 PUSH5 0x6970667358 0x22 SLT KECCAK256 SWAP12 CALLVALUE 0xB6 0x23 GAS 0xCA 0xAB PUSH15 0x9340E001E000259FEECFCF06EE984B 0x5C SELFDESTRUCT 0xC2 PUSH3 0x13F84E 0xB3 SELFDESTRUCT PUSH5 0x736F6C6343 STOP ADDMOD SMOD STOP CALLER "
				},
				"gasEstimates": {
					"creation": {
						"codeDepositCost": "189000",
						"executionCost": "232",
						"totalCost": "189232"
					},
					"external": {
						"set(address,string)": "infinite"
					}
				},
				"methodIdentifiers": {
					"set(address,string)": "5a82d100"
				}
			},
			"storageLayout": {
				"storage": [],
				"types": null
			},
			"userdoc": {
				"kind": "user",
				"methods": {},
				"version": 1
			}
		}
	}
}