{
	"multiple.sol": {
		"B": {
			"abi": [
				{
					"inputs": [],
					"stateMutability": "nonpayable",
					"type": "constructor"
				},
				{
					"inputs": [],
					"name": "a",
					"outputs": [
						{
							"internalType": "uint256",
							"name": "",
							"type": "uint256"
						}
					],
					"stateMutability": "view",
					"type": "function"
				},
				{
					"inputs": [],
					"name": "b",
					"outputs": [
						{
							"internalType": "uint256",
							"name": "",
							"type": "uint256"
						}
					],
					"stateMutability": "view",
					"type": "function"
				},
				{
					"inputs": [],
					"name": "funA",
					"outputs": [],
					"stateMutability": "nonpayable",
					"type": "function"
				},
				{
					"inputs": [],
					"name": "funB",
					"outputs": [],
					"stateMutability": "nonpayable",
					"type": "function"
				}
			],
			"devdoc": {
				"kind": "dev",
				"methods": {},
				"version": 1
			},
			"evm": {
				"assembly": "    /* \"multiple.sol\":198:350  contract B is A{\r... */\n  mstore(0x40, 0x80)\n    /* \"multiple.sol\":242:294  constructor(){\r... */\n  callvalue\n  dup1\n  iszero\n  tag_1\n  jumpi\n  0x00\n  dup1\n  revert\ntag_1:\n  pop\n    /* \"multiple.sol\":127:130  100 */\n  0x64\n    /* \"multiple.sol\":125:126  a */\n  0x00\n    /* \"multiple.sol\":125:130  a=100 */\n  dup2\n  swap1\n  sstore\n  pop\n    /* \"multiple.sol\":268:271  200 */\n  0xc8\n    /* \"multiple.sol\":266:267  b */\n  0x01\n    /* \"multiple.sol\":266:271  b=200 */\n  dup2\n  swap1\n  sstore\n  pop\n    /* \"multiple.sol\":284:286  50 */\n  0x32\n    /* \"multiple.sol\":282:283  a */\n  0x00\n    /* \"multiple.sol\":282:286  a=50 */\n  dup2\n  swap1\n  sstore\n  pop\n    /* \"multiple.sol\":198:350  contract B is A{\r... */\n  dataSize(sub_0)\n  dup1\n  dataOffset(sub_0)\n  0x00\n  codecopy\n  0x00\n  return\nstop\n\nsub_0: assembly {\n        /* \"multiple.sol\":198:350  contract B is A{\r... */\n      mstore(0x40, 0x80)\n      callvalue\n      dup1\n      iszero\n      tag_1\n      jumpi\n      0x00\n      dup1\n      revert\n    tag_1:\n      pop\n      jumpi(tag_2, lt(calldatasize, 0x04))\n      shr(0xe0, calldataload(0x00))\n      dup1\n      0x09ebbbdb\n      eq\n      tag_3\n      jumpi\n      dup1\n      0x0dbe671f\n      eq\n      tag_4\n      jumpi\n      dup1\n      0x4df7e3d0\n      eq\n      tag_5\n      jumpi\n      dup1\n      0x8e5159b0\n      eq\n      tag_6\n      jumpi\n    tag_2:\n      0x00\n      dup1\n      revert\n        /* \"multiple.sol\":302:347  function funB() public{\r... */\n    tag_3:\n      tag_7\n      tag_8\n      jump\t// in\n    tag_7:\n      stop\n        /* \"multiple.sol\":79:92  uint public a */\n    tag_4:\n      tag_9\n      tag_10\n      jump\t// in\n    tag_9:\n      mload(0x40)\n      tag_11\n      swap2\n      swap1\n      tag_12\n      jump\t// in\n    tag_11:\n      mload(0x40)\n      dup1\n      swap2\n      sub\n      swap1\n      return\n        /* \"multiple.sol\":220:233  uint public b */\n    tag_5:\n      tag_13\n      tag_14\n      jump\t// in\n    tag_13:\n      mload(0x40)\n      tag_15\n      swap2\n      swap1\n      tag_12\n      jump\t// in\n    tag_15:\n      mload(0x40)\n      dup1\n      swap2\n      sub\n      swap1\n      return\n        /* \"multiple.sol\":146:191  function funA() public{\r... */\n    tag_6:\n      tag_16\n      tag_17\n      jump\t// in\n    tag_16:\n      stop\n        /* \"multiple.sol\":302:347  function funB() public{\r... */\n    tag_8:\n        /* \"multiple.sol\":337:339  20 */\n      0x14\n        /* \"multiple.sol\":335:336  b */\n      0x01\n        /* \"multiple.sol\":335:339  b=20 */\n      dup2\n      swap1\n      sstore\n      pop\n        /* \"multiple.sol\":302:347  function funB() public{\r... */\n      jump\t// out\n        /* \"multiple.sol\":79:92  uint public a */\n    tag_10:\n      sload(0x00)\n      dup2\n      jump\t// out\n        /* \"multiple.sol\":220:233  uint public b */\n    tag_14:\n      sload(0x01)\n      dup2\n      jump\t// out\n        /* \"multiple.sol\":146:191  function funA() public{\r... */\n    tag_17:\n        /* \"multiple.sol\":181:183  10 */\n      0x0a\n        /* \"multiple.sol\":179:180  a */\n      0x00\n        /* \"multiple.sol\":179:183  a=10 */\n      dup2\n      swap1\n      sstore\n      pop\n        /* \"multiple.sol\":146:191  function funA() public{\r... */\n      jump\t// out\n        /* \"#utility.yul\":7:125   */\n    tag_21:\n        /* \"#utility.yul\":94:118   */\n      tag_23\n        /* \"#utility.yul\":112:117   */\n      dup2\n        /* \"#utility.yul\":94:118   */\n      tag_24\n      jump\t// in\n    tag_23:\n        /* \"#utility.yul\":89:92   */\n      dup3\n        /* \"#utility.yul\":82:119   */\n      mstore\n        /* \"#utility.yul\":7:125   */\n      pop\n      pop\n      jump\t// out\n        /* \"#utility.yul\":131:353   */\n    tag_12:\n        /* \"#utility.yul\":224:228   */\n      0x00\n        /* \"#utility.yul\":262:264   */\n      0x20\n        /* \"#utility.yul\":251:260   */\n      dup3\n        /* \"#utility.yul\":247:265   */\n      add\n        /* \"#utility.yul\":239:265   */\n      swap1\n      pop\n        /* \"#utility.yul\":275:346   */\n      tag_26\n        /* \"#utility.yul\":343:344   */\n      0x00\n        /* \"#utility.yul\":332:341   */\n      dup4\n        /* \"#utility.yul\":328:345   */\n      add\n        /* \"#utility.yul\":319:325   */\n      dup5\n        /* \"#utility.yul\":275:346   */\n      tag_21\n      jump\t// in\n    tag_26:\n        /* \"#utility.yul\":131:353   */\n      swap3\n      swap2\n      pop\n      pop\n      jump\t// out\n        /* \"#utility.yul\":359:436   */\n    tag_24:\n        /* \"#utility.yul\":396:403   */\n      0x00\n        /* \"#utility.yul\":425:430   */\n      dup2\n        /* \"#utility.yul\":414:430   */\n      swap1\n      pop\n        /* \"#utility.yul\":359:436   */\n      swap2\n      swap1\n      pop\n      jump\t// out\n\n    auxdata: 0xa26469706673582212207bd72524ca4960f6c8c149d7264b8a6ec8e284af9ab089a6af6c3463db4261f064736f6c63430008070033\n}\n",
				"bytecode": {
					"linkReferences": {},
					"object": "608060405234801561001057600080fd5b50606460008190555060c86001819055506032600081905550610115806100386000396000f3fe6080604052348015600f57600080fd5b506004361060465760003560e01c806309ebbbdb14604b5780630dbe671f1460535780634df7e3d014606d5780638e5159b0146087575b600080fd5b6051608f565b005b60596099565b6040516064919060bc565b60405180910390f35b6073609f565b604051607e919060bc565b60405180910390f35b608d60a5565b005b6014600181905550565b60005481565b60015481565b600a600081905550565b60b68160d5565b82525050565b600060208201905060cf600083018460af565b92915050565b600081905091905056fea26469706673582212207bd72524ca4960f6c8c149d7264b8a6ec8e284af9ab089a6af6c3463db4261f064736f6c63430008070033",
					"opcodes": "PUSH1 0x80 PUSH1 0x40 MSTORE CALLVALUE DUP1 ISZERO PUSH2 0x10 JUMPI PUSH1 0x0 DUP1 REVERT JUMPDEST POP PUSH1 0x64 PUSH1 0x0 DUP2 SWAP1 SSTORE POP PUSH1 0xC8 PUSH1 0x1 DUP2 SWAP1 SSTORE POP PUSH1 0x32 PUSH1 0x0 DUP2 SWAP1 SSTORE POP PUSH2 0x115 DUP1 PUSH2 0x38 PUSH1 0x0 CODECOPY PUSH1 0x0 RETURN INVALID PUSH1 0x80 PUSH1 0x40 MSTORE CALLVALUE DUP1 ISZERO PUSH1 0xF JUMPI PUSH1 0x0 DUP1 REVERT JUMPDEST POP PUSH1 0x4 CALLDATASIZE LT PUSH1 0x46 JUMPI PUSH1 0x0 CALLDATALOAD PUSH1 0xE0 SHR DUP1 PUSH4 0x9EBBBDB EQ PUSH1 0x4B JUMPI DUP1 PUSH4 0xDBE671F EQ PUSH1 0x53 JUMPI DUP1 PUSH4 0x4DF7E3D0 EQ PUSH1 0x6D JUMPI DUP1 PUSH4 0x8E5159B0 EQ PUSH1 0x87 JUMPI JUMPDEST PUSH1 0x0 DUP1 REVERT JUMPDEST PUSH1 0x51 PUSH1 0x8F JUMP JUMPDEST STOP JUMPDEST PUSH1 0x59 PUSH1 0x99 JUMP JUMPDEST PUSH1 0x40 MLOAD PUSH1 0x64 SWAP2 SWAP1 PUSH1 0xBC JUMP JUMPDEST PUSH1 0x40 MLOAD DUP1 SWAP2 SUB SWAP1 RETURN JUMPDEST PUSH1 0x73 PUSH1 0x9F JUMP JUMPDEST PUSH1 0x40 MLOAD PUSH1 0x7E SWAP2 SWAP1 PUSH1 0xBC JUMP JUMPDEST PUSH1 0x40 MLOAD DUP1 SWAP2 SUB SWAP1 RETURN JUMPDEST PUSH1 0x8D PUSH1 0xA5 JUMP JUMPDEST STOP JUMPDEST PUSH1 0x14 PUSH1 0x1 DUP2 SWAP1 SSTORE POP JUMP JUMPDEST PUSH1 0x0 SLOAD DUP2 JUMP JUMPDEST PUSH1 0x1 SLOAD DUP2 JUMP JUMPDEST PUSH1 0xA PUSH1 0x0 DUP2 SWAP1 SSTORE POP JUMP JUMPDEST PUSH1 0xB6 DUP2 PUSH1 0xD5 JUMP JUMPDEST DUP3 MSTORE POP POP JUMP JUMPDEST PUSH1 0x0 PUSH1 0x20 DUP3 ADD SWAP1 POP PUSH1 0xCF PUSH1 0x0 DUP4 ADD DUP5 PUSH1 0xAF JUMP JUMPDEST SWAP3 SWAP2 POP POP JUMP JUMPDEST PUSH1 0x0 DUP2 SWAP1 POP SWAP2 SWAP1 POP JUMP INVALID LOG2 PUSH5 0x6970667358 0x22 SLT KECCAK256 PUSH28 0xD72524CA4960F6C8C149D7264B8A6EC8E284AF9AB089A6AF6C3463DB TIMESTAMP PUSH2 0xF064 PUSH20 0x6F6C634300080700330000000000000000000000 "
				},
				"gasEstimates": {
					"creation": {
						"codeDepositCost": "55400",
						"executionCost": "49347",
						"totalCost": "104747"
					},
					"external": {
						"a()": "2429",
						"b()": "2451",
						"funA()": "22302",
						"funB()": "22236"
					}
				},
				"methodIdentifiers": {
					"a()": "0dbe671f",
					"b()": "4df7e3d0",
					"funA()": "8e5159b0",
					"funB()": "09ebbbdb"
				}
			},
			"storageLayout": {
				"storage": [
					{
						"astId": 3,
						"contract": "multiple.sol:B",
						"label": "a",
						"offset": 0,
						"slot": "0",
						"type": "t_uint256"
					},
					{
						"astId": 24,
						"contract": "multiple.sol:B",
						"label": "b",
						"offset": 0,
						"slot": "1",
						"type": "t_uint256"
					}
				],
				"types": {
					"t_uint256": {
						"encoding": "inplace",
						"label": "uint256",
						"numberOfBytes": "32"
					}
				}
			},
			"userdoc": {
				"kind": "user",
				"methods": {},
				"version": 1
			}
		}
	}
}