{
	"contracts/SeverityData.sol": {
		"DisasterData": {
			"abi": [
				{
					"inputs": [],
					"stateMutability": "nonpayable",
					"type": "constructor"
				},
				{
					"inputs": [],
					"name": "admin",
					"outputs": [
						{
							"internalType": "address",
							"name": "",
							"type": "address"
						}
					],
					"stateMutability": "view",
					"type": "function"
				},
				{
					"inputs": [
						{
							"internalType": "string",
							"name": "district",
							"type": "string"
						}
					],
					"name": "getAccumulatedSeverity",
					"outputs": [
						{
							"internalType": "uint256",
							"name": "",
							"type": "uint256"
						}
					],
					"stateMutability": "view",
					"type": "function"
				},
				{
					"inputs": [],
					"name": "getDistricts",
					"outputs": [
						{
							"internalType": "string",
							"name": "",
							"type": "string"
						}
					],
					"stateMutability": "pure",
					"type": "function"
				},
				{
					"inputs": [
						{
							"internalType": "string",
							"name": "district",
							"type": "string"
						},
						{
							"internalType": "uint256",
							"name": "day",
							"type": "uint256"
						}
					],
					"name": "getSeverityData",
					"outputs": [
						{
							"internalType": "uint256",
							"name": "",
							"type": "uint256"
						}
					],
					"stateMutability": "view",
					"type": "function"
				},
				{
					"inputs": [
						{
							"internalType": "string",
							"name": "district",
							"type": "string"
						},
						{
							"internalType": "uint256",
							"name": "newSeverity",
							"type": "uint256"
						}
					],
					"name": "setSeverity",
					"outputs": [],
					"stateMutability": "nonpayable",
					"type": "function"
				},
				{
					"inputs": [
						{
							"internalType": "string",
							"name": "",
							"type": "string"
						}
					],
					"name": "severity",
					"outputs": [
						{
							"internalType": "uint256",
							"name": "lastUpdatedDay",
							"type": "uint256"
						}
					],
					"stateMutability": "view",
					"type": "function"
				},
				{
					"inputs": [],
					"name": "startDay",
					"outputs": [
						{
							"internalType": "uint256",
							"name": "",
							"type": "uint256"
						}
					],
					"stateMutability": "view",
					"type": "function"
				}
			],
			"devdoc": {
				"kind": "dev",
				"methods": {},
				"version": 1
			},
			"evm": {
				"assembly": "    /* \"contracts/SeverityData.sol\":64:2834  contract DisasterData {\r... */\n  mstore(0x40, 0x80)\n    /* \"contracts/SeverityData.sol\":334:434  constructor() {\r... */\n  callvalue\n  dup1\n  iszero\n  tag_1\n  jumpi\n  0x00\n  dup1\n  revert\ntag_1:\n  pop\n    /* \"contracts/SeverityData.sol\":367:377  msg.sender */\n  caller\n    /* \"contracts/SeverityData.sol\":359:364  admin */\n  0x00\n  dup1\n    /* \"contracts/SeverityData.sol\":359:377  admin = msg.sender */\n  0x0100\n  exp\n  dup2\n  sload\n  dup2\n  0xffffffffffffffffffffffffffffffffffffffff\n  mul\n  not\n  and\n  swap1\n  dup4\n  0xffffffffffffffffffffffffffffffffffffffff\n  and\n  mul\n  or\n  swap1\n  sstore\n  pop\n    /* \"contracts/SeverityData.sol\":417:426  5 minutes */\n  0x012c\n    /* \"contracts/SeverityData.sol\":399:414  block.timestamp */\n  timestamp\n    /* \"contracts/SeverityData.sol\":399:426  block.timestamp / 5 minutes */\n  tag_4\n  swap2\n  swap1\n  tag_5\n  jump\t// in\ntag_4:\n    /* \"contracts/SeverityData.sol\":388:396  startDay */\n  0x01\n    /* \"contracts/SeverityData.sol\":388:426  startDay = block.timestamp / 5 minutes */\n  dup2\n  swap1\n  sstore\n  pop\n    /* \"contracts/SeverityData.sol\":64:2834  contract DisasterData {\r... */\n  jump(tag_6)\n    /* \"#utility.yul\":7:192   */\ntag_5:\n    /* \"#utility.yul\":47:48   */\n  0x00\n    /* \"#utility.yul\":64:84   */\n  tag_9\n    /* \"#utility.yul\":82:83   */\n  dup3\n    /* \"#utility.yul\":64:84   */\n  tag_10\n  jump\t// in\ntag_9:\n    /* \"#utility.yul\":59:84   */\n  swap2\n  pop\n    /* \"#utility.yul\":98:118   */\n  tag_11\n    /* \"#utility.yul\":116:117   */\n  dup4\n    /* \"#utility.yul\":98:118   */\n  tag_10\n  jump\t// in\ntag_11:\n    /* \"#utility.yul\":93:118   */\n  swap3\n  pop\n    /* \"#utility.yul\":137:138   */\n  dup3\n    /* \"#utility.yul\":127:162   */\n  tag_12\n  jumpi\n    /* \"#utility.yul\":142:160   */\n  tag_13\n  tag_14\n  jump\t// in\ntag_13:\n    /* \"#utility.yul\":127:162   */\ntag_12:\n    /* \"#utility.yul\":184:185   */\n  dup3\n    /* \"#utility.yul\":181:182   */\n  dup3\n    /* \"#utility.yul\":177:186   */\n  div\n    /* \"#utility.yul\":172:186   */\n  swap1\n  pop\n    /* \"#utility.yul\":7:192   */\n  swap3\n  swap2\n  pop\n  pop\n  jump\t// out\n    /* \"#utility.yul\":198:275   */\ntag_10:\n    /* \"#utility.yul\":235:242   */\n  0x00\n    /* \"#utility.yul\":264:269   */\n  dup2\n    /* \"#utility.yul\":253:269   */\n  swap1\n  pop\n    /* \"#utility.yul\":198:275   */\n  swap2\n  swap1\n  pop\n  jump\t// out\n    /* \"#utility.yul\":467:647   */\ntag_14:\n    /* \"#utility.yul\":515:592   */\n  0x4e487b7100000000000000000000000000000000000000000000000000000000\n    /* \"#utility.yul\":512:513   */\n  0x00\n    /* \"#utility.yul\":505:593   */\n  mstore\n    /* \"#utility.yul\":612:616   */\n  0x12\n    /* \"#utility.yul\":609:610   */\n  0x04\n    /* \"#utility.yul\":602:617   */\n  mstore\n    /* \"#utility.yul\":636:640   */\n  0x24\n    /* \"#utility.yul\":633:634   */\n  0x00\n    /* \"#utility.yul\":626:641   */\n  revert\n    /* \"contracts/SeverityData.sol\":64:2834  contract DisasterData {\r... */\ntag_6:\n  dataSize(sub_0)\n  dup1\n  dataOffset(sub_0)\n  0x00\n  codecopy\n  0x00\n  return\nstop\n\nsub_0: assembly {\n        /* \"contracts/SeverityData.sol\":64:2834  contract DisasterData {\r... */\n      mstore(0x40, 0x80)\n      callvalue\n      dup1\n      iszero\n      tag_1\n      jumpi\n      0x00\n      dup1\n      revert\n    tag_1:\n      pop\n      jumpi(tag_2, lt(calldatasize, 0x04))\n      shr(0xe0, calldataload(0x00))\n      dup1\n      0xa92563ed\n      gt\n      tag_10\n      jumpi\n      dup1\n      0xa92563ed\n      eq\n      tag_6\n      jumpi\n      dup1\n      0xa9f5dec6\n      eq\n      tag_7\n      jumpi\n      dup1\n      0xad6781d4\n      eq\n      tag_8\n      jumpi\n      dup1\n      0xf851a440\n      eq\n      tag_9\n      jumpi\n      jump(tag_2)\n    tag_10:\n      dup1\n      0x0539272a\n      eq\n      tag_3\n      jumpi\n      dup1\n      0x3a79af38\n      eq\n      tag_4\n      jumpi\n      dup1\n      0x830f15b4\n      eq\n      tag_5\n      jumpi\n    tag_2:\n      0x00\n      dup1\n      revert\n        /* \"contracts/SeverityData.sol\":122:142  uint public startDay */\n    tag_3:\n      tag_11\n      tag_12\n      jump\t// in\n    tag_11:\n      mload(0x40)\n      tag_13\n      swap2\n      swap1\n      tag_14\n      jump\t// in\n    tag_13:\n      mload(0x40)\n      dup1\n      swap2\n      sub\n      swap1\n      return\n        /* \"contracts/SeverityData.sol\":278:325  mapping(string => SeverityData) public severity */\n    tag_4:\n      tag_15\n      0x04\n      dup1\n      calldatasize\n      sub\n      dup2\n      add\n      swap1\n      tag_16\n      swap2\n      swap1\n      tag_17\n      jump\t// in\n    tag_16:\n      tag_18\n      jump\t// in\n    tag_15:\n      mload(0x40)\n      tag_19\n      swap2\n      swap1\n      tag_14\n      jump\t// in\n    tag_19:\n      mload(0x40)\n      dup1\n      swap2\n      sub\n      swap1\n      return\n        /* \"contracts/SeverityData.sol\":442:1352  function setSeverity(string memory district, uint newSeverity) public {\r... */\n    tag_5:\n      tag_20\n      0x04\n      dup1\n      calldatasize\n      sub\n      dup2\n      add\n      swap1\n      tag_21\n      swap2\n      swap1\n      tag_22\n      jump\t// in\n    tag_21:\n      tag_23\n      jump\t// in\n    tag_20:\n      stop\n        /* \"contracts/SeverityData.sol\":1811:2235  function getDistricts() public pure returns (string memory) {\r... */\n    tag_6:\n      tag_24\n      tag_25\n      jump\t// in\n    tag_24:\n      mload(0x40)\n      tag_26\n      swap2\n      swap1\n      tag_27\n      jump\t// in\n    tag_26:\n      mload(0x40)\n      dup1\n      swap2\n      sub\n      swap1\n      return\n        /* \"contracts/SeverityData.sol\":1360:1803  function getSeverityData(string memory district, uint day) public view returns (uint){\r... */\n    tag_7:\n      tag_28\n      0x04\n      dup1\n      calldatasize\n      sub\n      dup2\n      add\n      swap1\n      tag_29\n      swap2\n      swap1\n      tag_22\n      jump\t// in\n    tag_29:\n      tag_30\n      jump\t// in\n    tag_28:\n      mload(0x40)\n      tag_31\n      swap2\n      swap1\n      tag_14\n      jump\t// in\n    tag_31:\n      mload(0x40)\n      dup1\n      swap2\n      sub\n      swap1\n      return\n        /* \"contracts/SeverityData.sol\":2243:2829  function getAccumulatedSeverity(string memory district) public view returns (uint) {\r... */\n    tag_8:\n      tag_32\n      0x04\n      dup1\n      calldatasize\n      sub\n      dup2\n      add\n      swap1\n      tag_33\n      swap2\n      swap1\n      tag_17\n      jump\t// in\n    tag_33:\n      tag_34\n      jump\t// in\n    tag_32:\n      mload(0x40)\n      tag_35\n      swap2\n      swap1\n      tag_14\n      jump\t// in\n    tag_35:\n      mload(0x40)\n      dup1\n      swap2\n      sub\n      swap1\n      return\n        /* \"contracts/SeverityData.sol\":95:115  address public admin */\n    tag_9:\n      tag_36\n      tag_37\n      jump\t// in\n    tag_36:\n      mload(0x40)\n      tag_38\n      swap2\n      swap1\n      tag_39\n      jump\t// in\n    tag_38:\n      mload(0x40)\n      dup1\n      swap2\n      sub\n      swap1\n      return\n        /* \"contracts/SeverityData.sol\":122:142  uint public startDay */\n    tag_12:\n      sload(0x01)\n      dup2\n      jump\t// out\n        /* \"contracts/SeverityData.sol\":278:325  mapping(string => SeverityData) public severity */\n    tag_18:\n      0x02\n      dup2\n      dup1\n      mload\n      0x20\n      dup2\n      add\n      dup3\n      add\n      dup1\n      mload\n      dup5\n      dup3\n      mstore\n      0x20\n      dup4\n      add\n      0x20\n      dup6\n      add\n      keccak256\n      dup2\n      dup4\n      mstore\n      dup1\n      swap6\n      pop\n      pop\n      pop\n      pop\n      pop\n      pop\n      0x00\n      swap2\n      pop\n      swap1\n      pop\n      dup1\n      0x00\n      add\n      sload\n      swap1\n      pop\n      dup2\n      jump\t// out\n        /* \"contracts/SeverityData.sol\":442:1352  function setSeverity(string memory district, uint newSeverity) public {\r... */\n    tag_23:\n        /* \"contracts/SeverityData.sol\":545:550  admin */\n      0x00\n      dup1\n      sload\n      swap1\n      0x0100\n      exp\n      swap1\n      div\n      0xffffffffffffffffffffffffffffffffffffffff\n      and\n        /* \"contracts/SeverityData.sol\":531:550  msg.sender == admin */\n      0xffffffffffffffffffffffffffffffffffffffff\n      and\n        /* \"contracts/SeverityData.sol\":531:541  msg.sender */\n      caller\n        /* \"contracts/SeverityData.sol\":531:550  msg.sender == admin */\n      0xffffffffffffffffffffffffffffffffffffffff\n      and\n      eq\n        /* \"contracts/SeverityData.sol\":523:578  require(msg.sender == admin, \"Only admin can set data\") */\n      tag_41\n      jumpi\n      mload(0x40)\n      0x08c379a000000000000000000000000000000000000000000000000000000000\n      dup2\n      mstore\n      0x04\n      add\n      tag_42\n      swap1\n      tag_43\n      jump\t// in\n    tag_42:\n      mload(0x40)\n      dup1\n      swap2\n      sub\n      swap1\n      revert\n    tag_41:\n        /* \"contracts/SeverityData.sol\":610:613  100 */\n      0x64\n        /* \"contracts/SeverityData.sol\":597:608  newSeverity */\n      dup2\n        /* \"contracts/SeverityData.sol\":597:613  newSeverity<=100 */\n      gt\n      iszero\n        /* \"contracts/SeverityData.sol\":589:651  require(newSeverity<=100, \"Severity exceeds max value of 100\") */\n      tag_44\n      jumpi\n      mload(0x40)\n      0x08c379a000000000000000000000000000000000000000000000000000000000\n      dup2\n      mstore\n      0x04\n      add\n      tag_45\n      swap1\n      tag_46\n      jump\t// in\n    tag_45:\n      mload(0x40)\n      dup1\n      swap2\n      sub\n      swap1\n      revert\n    tag_44:\n        /* \"contracts/SeverityData.sol\":662:677  uint currentDay */\n      0x00\n        /* \"contracts/SeverityData.sol\":698:707  5 minutes */\n      0x012c\n        /* \"contracts/SeverityData.sol\":680:695  block.timestamp */\n      timestamp\n        /* \"contracts/SeverityData.sol\":680:707  block.timestamp / 5 minutes */\n      tag_47\n      swap2\n      swap1\n      tag_48\n      jump\t// in\n    tag_47:\n        /* \"contracts/SeverityData.sol\":662:707  uint currentDay = block.timestamp / 5 minutes */\n      swap1\n      pop\n        /* \"contracts/SeverityData.sol\":728:745  uint currentValue */\n      0x00\n        /* \"contracts/SeverityData.sol\":796:797  0 */\n      dup1\n        /* \"contracts/SeverityData.sol\":759:767  severity */\n      0x02\n        /* \"contracts/SeverityData.sol\":768:776  district */\n      dup6\n        /* \"contracts/SeverityData.sol\":759:777  severity[district] */\n      mload(0x40)\n      tag_49\n      swap2\n      swap1\n      tag_50\n      jump\t// in\n    tag_49:\n      swap1\n      dup2\n      mstore\n      0x20\n      add\n      mload(0x40)\n      dup1\n      swap2\n      sub\n      swap1\n      keccak256\n        /* \"contracts/SeverityData.sol\":759:792  severity[district].lastUpdatedDay */\n      0x00\n      add\n      sload\n        /* \"contracts/SeverityData.sol\":759:797  severity[district].lastUpdatedDay != 0 */\n      eq\n        /* \"contracts/SeverityData.sol\":756:1086  if(severity[district].lastUpdatedDay != 0) {\r... */\n      tag_51\n      jumpi\n        /* \"contracts/SeverityData.sol\":829:837  severity */\n      0x02\n        /* \"contracts/SeverityData.sol\":838:846  district */\n      dup5\n        /* \"contracts/SeverityData.sol\":829:847  severity[district] */\n      mload(0x40)\n      tag_52\n      swap2\n      swap1\n      tag_50\n      jump\t// in\n    tag_52:\n      swap1\n      dup2\n      mstore\n      0x20\n      add\n      mload(0x40)\n      dup1\n      swap2\n      sub\n      swap1\n      keccak256\n        /* \"contracts/SeverityData.sol\":829:854  severity[district].values */\n      0x01\n      add\n        /* \"contracts/SeverityData.sol\":888:889  1 */\n      0x01\n        /* \"contracts/SeverityData.sol\":855:863  severity */\n      0x02\n        /* \"contracts/SeverityData.sol\":864:872  district */\n      dup7\n        /* \"contracts/SeverityData.sol\":855:873  severity[district] */\n      mload(0x40)\n      tag_53\n      swap2\n      swap1\n      tag_50\n      jump\t// in\n    tag_53:\n      swap1\n      dup2\n      mstore\n      0x20\n      add\n      mload(0x40)\n      dup1\n      swap2\n      sub\n      swap1\n      keccak256\n        /* \"contracts/SeverityData.sol\":855:880  severity[district].values */\n      0x01\n      add\n        /* \"contracts/SeverityData.sol\":855:887  severity[district].values.length */\n      dup1\n      sload\n      swap1\n      pop\n        /* \"contracts/SeverityData.sol\":855:889  severity[district].values.length-1 */\n      tag_54\n      swap2\n      swap1\n      tag_55\n      jump\t// in\n    tag_54:\n        /* \"contracts/SeverityData.sol\":829:890  severity[district].values[severity[district].values.length-1] */\n      dup2\n      sload\n      dup2\n      lt\n      tag_56\n      jumpi\n      tag_57\n      tag_58\n      jump\t// in\n    tag_57:\n    tag_56:\n      swap1\n      0x00\n      mstore\n      keccak256(0x00, 0x20)\n      add\n      sload\n        /* \"contracts/SeverityData.sol\":814:890  currentValue = severity[district].values[severity[district].values.length-1] */\n      swap1\n      pop\n        /* \"contracts/SeverityData.sol\":756:1086  if(severity[district].lastUpdatedDay != 0) {\r... */\n      jump(tag_60)\n    tag_51:\n        /* \"contracts/SeverityData.sol\":932:956  SeverityData memory data */\n      tag_61\n      tag_62\n      jump\t// in\n    tag_61:\n        /* \"contracts/SeverityData.sol\":1002:1003  1 */\n      0x01\n        /* \"contracts/SeverityData.sol\":993:1001  startDay */\n      dup1\n      sload\n        /* \"contracts/SeverityData.sol\":993:1003  startDay-1 */\n      tag_63\n      swap2\n      swap1\n      tag_55\n      jump\t// in\n    tag_63:\n        /* \"contracts/SeverityData.sol\":971:975  data */\n      dup2\n        /* \"contracts/SeverityData.sol\":971:990  data.lastUpdatedDay */\n      0x00\n      add\n        /* \"contracts/SeverityData.sol\":971:1003  data.lastUpdatedDay = startDay-1 */\n      dup2\n      dup2\n      mstore\n      pop\n      pop\n        /* \"contracts/SeverityData.sol\":1039:1043  data */\n      dup1\n        /* \"contracts/SeverityData.sol\":1018:1026  severity */\n      0x02\n        /* \"contracts/SeverityData.sol\":1027:1035  district */\n      dup7\n        /* \"contracts/SeverityData.sol\":1018:1036  severity[district] */\n      mload(0x40)\n      tag_64\n      swap2\n      swap1\n      tag_50\n      jump\t// in\n    tag_64:\n      swap1\n      dup2\n      mstore\n      0x20\n      add\n      mload(0x40)\n      dup1\n      swap2\n      sub\n      swap1\n      keccak256\n        /* \"contracts/SeverityData.sol\":1018:1043  severity[district] = data */\n      0x00\n      dup3\n      add\n      mload\n      dup2\n      0x00\n      add\n      sstore\n      0x20\n      dup3\n      add\n      mload\n      dup2\n      0x01\n      add\n      swap1\n      dup1\n      mload\n      swap1\n      0x20\n      add\n      swap1\n      tag_65\n      swap3\n      swap2\n      swap1\n      tag_66\n      jump\t// in\n    tag_65:\n      pop\n      swap1\n      pop\n      pop\n        /* \"contracts/SeverityData.sol\":1073:1074  0 */\n      0x00\n        /* \"contracts/SeverityData.sol\":1058:1074  currentValue = 0 */\n      swap2\n      pop\n        /* \"contracts/SeverityData.sol\":917:1086  {\r... */\n      pop\n        /* \"contracts/SeverityData.sol\":756:1086  if(severity[district].lastUpdatedDay != 0) {\r... */\n    tag_60:\n        /* \"contracts/SeverityData.sol\":1100:1106  uint i */\n      0x00\n        /* \"contracts/SeverityData.sol\":1141:1142  1 */\n      0x01\n        /* \"contracts/SeverityData.sol\":1107:1115  severity */\n      0x02\n        /* \"contracts/SeverityData.sol\":1116:1124  district */\n      dup7\n        /* \"contracts/SeverityData.sol\":1107:1125  severity[district] */\n      mload(0x40)\n      tag_70\n      swap2\n      swap1\n      tag_50\n      jump\t// in\n    tag_70:\n      swap1\n      dup2\n      mstore\n      0x20\n      add\n      mload(0x40)\n      dup1\n      swap2\n      sub\n      swap1\n      keccak256\n        /* \"contracts/SeverityData.sol\":1107:1140  severity[district].lastUpdatedDay */\n      0x00\n      add\n      sload\n        /* \"contracts/SeverityData.sol\":1107:1142  severity[district].lastUpdatedDay+1 */\n      tag_71\n      swap2\n      swap1\n      tag_72\n      jump\t// in\n    tag_71:\n        /* \"contracts/SeverityData.sol\":1100:1142  uint i=severity[district].lastUpdatedDay+1 */\n      swap1\n      pop\n        /* \"contracts/SeverityData.sol\":1096:1234  for(uint i=severity[district].lastUpdatedDay+1; i<currentDay; i++) {\r... */\n    tag_67:\n        /* \"contracts/SeverityData.sol\":1146:1156  currentDay */\n      dup3\n        /* \"contracts/SeverityData.sol\":1144:1145  i */\n      dup2\n        /* \"contracts/SeverityData.sol\":1144:1156  i<currentDay */\n      lt\n        /* \"contracts/SeverityData.sol\":1096:1234  for(uint i=severity[district].lastUpdatedDay+1; i<currentDay; i++) {\r... */\n      iszero\n      tag_68\n      jumpi\n        /* \"contracts/SeverityData.sol\":1178:1186  severity */\n      0x02\n        /* \"contracts/SeverityData.sol\":1187:1195  district */\n      dup6\n        /* \"contracts/SeverityData.sol\":1178:1196  severity[district] */\n      mload(0x40)\n      tag_73\n      swap2\n      swap1\n      tag_50\n      jump\t// in\n    tag_73:\n      swap1\n      dup2\n      mstore\n      0x20\n      add\n      mload(0x40)\n      dup1\n      swap2\n      sub\n      swap1\n      keccak256\n        /* \"contracts/SeverityData.sol\":1178:1203  severity[district].values */\n      0x01\n      add\n        /* \"contracts/SeverityData.sol\":1209:1221  currentValue */\n      dup3\n        /* \"contracts/SeverityData.sol\":1178:1222  severity[district].values.push(currentValue) */\n      swap1\n      dup1\n      0x01\n      dup2\n      sload\n      add\n      dup1\n      dup3\n      sstore\n      dup1\n      swap2\n      pop\n      pop\n      0x01\n      swap1\n      sub\n      swap1\n      0x00\n      mstore\n      keccak256(0x00, 0x20)\n      add\n      0x00\n      swap1\n      swap2\n      swap1\n      swap2\n      swap1\n      swap2\n      pop\n      sstore\n        /* \"contracts/SeverityData.sol\":1158:1161  i++ */\n      dup1\n      dup1\n      tag_75\n      swap1\n      tag_76\n      jump\t// in\n    tag_75:\n      swap2\n      pop\n      pop\n        /* \"contracts/SeverityData.sol\":1096:1234  for(uint i=severity[district].lastUpdatedDay+1; i<currentDay; i++) {\r... */\n      jump(tag_67)\n    tag_68:\n      pop\n        /* \"contracts/SeverityData.sol\":1244:1252  severity */\n      0x02\n        /* \"contracts/SeverityData.sol\":1253:1261  district */\n      dup5\n        /* \"contracts/SeverityData.sol\":1244:1262  severity[district] */\n      mload(0x40)\n      tag_77\n      swap2\n      swap1\n      tag_50\n      jump\t// in\n    tag_77:\n      swap1\n      dup2\n      mstore\n      0x20\n      add\n      mload(0x40)\n      dup1\n      swap2\n      sub\n      swap1\n      keccak256\n        /* \"contracts/SeverityData.sol\":1244:1269  severity[district].values */\n      0x01\n      add\n        /* \"contracts/SeverityData.sol\":1275:1286  newSeverity */\n      dup4\n        /* \"contracts/SeverityData.sol\":1244:1287  severity[district].values.push(newSeverity) */\n      swap1\n      dup1\n      0x01\n      dup2\n      sload\n      add\n      dup1\n      dup3\n      sstore\n      dup1\n      swap2\n      pop\n      pop\n      0x01\n      swap1\n      sub\n      swap1\n      0x00\n      mstore\n      keccak256(0x00, 0x20)\n      add\n      0x00\n      swap1\n      swap2\n      swap1\n      swap2\n      swap1\n      swap2\n      pop\n      sstore\n        /* \"contracts/SeverityData.sol\":1334:1344  currentDay */\n      dup2\n        /* \"contracts/SeverityData.sol\":1298:1306  severity */\n      0x02\n        /* \"contracts/SeverityData.sol\":1307:1315  district */\n      dup6\n        /* \"contracts/SeverityData.sol\":1298:1316  severity[district] */\n      mload(0x40)\n      tag_79\n      swap2\n      swap1\n      tag_50\n      jump\t// in\n    tag_79:\n      swap1\n      dup2\n      mstore\n      0x20\n      add\n      mload(0x40)\n      dup1\n      swap2\n      sub\n      swap1\n      keccak256\n        /* \"contracts/SeverityData.sol\":1298:1331  severity[district].lastUpdatedDay */\n      0x00\n      add\n        /* \"contracts/SeverityData.sol\":1298:1344  severity[district].lastUpdatedDay = currentDay */\n      dup2\n      swap1\n      sstore\n      pop\n        /* \"contracts/SeverityData.sol\":512:1352  {\r... */\n      pop\n      pop\n        /* \"contracts/SeverityData.sol\":442:1352  function setSeverity(string memory district, uint newSeverity) public {\r... */\n      pop\n      pop\n      jump\t// out\n        /* \"contracts/SeverityData.sol\":1811:2235  function getDistricts() public pure returns (string memory) {\r... */\n    tag_25:\n        /* \"contracts/SeverityData.sol\":1856:1869  string memory */\n      0x60\n        /* \"contracts/SeverityData.sol\":1882:2227  return \"Ahmednagar, Akola, Amravati, Aurangabad, Beed, Bhandara, Buldhana, Chandrapur, Dhule, Gadchiroli, Gondia, Hingoli, Jalgaon, Jalna, Kolhapur, Latur, Mumbai City, Mumbai Suburban, Nagpur, Nanded, Nandurbar, Nashik, Osmanabad, Palghar, Parbhani, Pune, Raigad, Ratnagiri, Sangli, Satara, Sindhudurg, Solapur, Thane, Wardha, Washim, Yavatmal\" */\n      mload(0x40)\n      dup1\n      0x0180\n      add\n      0x40\n      mstore\n      dup1\n      0x0150\n      dup2\n      mstore\n      0x20\n      add\n      data_5919e3cd15dc26af631ef3349b06b63c5323aa12a598d003ad7324d9ad86117a\n      0x0150\n      swap2\n      codecopy\n      swap1\n      pop\n        /* \"contracts/SeverityData.sol\":1811:2235  function getDistricts() public pure returns (string memory) {\r... */\n      swap1\n      jump\t// out\n        /* \"contracts/SeverityData.sol\":1360:1803  function getSeverityData(string memory district, uint day) public view returns (uint){\r... */\n    tag_30:\n        /* \"contracts/SeverityData.sol\":1440:1444  uint */\n      0x00\n        /* \"contracts/SeverityData.sol\":1501:1502  0 */\n      dup1\n        /* \"contracts/SeverityData.sol\":1464:1472  severity */\n      0x02\n        /* \"contracts/SeverityData.sol\":1473:1481  district */\n      dup5\n        /* \"contracts/SeverityData.sol\":1464:1482  severity[district] */\n      mload(0x40)\n      tag_82\n      swap2\n      swap1\n      tag_50\n      jump\t// in\n    tag_82:\n      swap1\n      dup2\n      mstore\n      0x20\n      add\n      mload(0x40)\n      dup1\n      swap2\n      sub\n      swap1\n      keccak256\n        /* \"contracts/SeverityData.sol\":1464:1497  severity[district].lastUpdatedDay */\n      0x00\n      add\n      sload\n        /* \"contracts/SeverityData.sol\":1464:1502  severity[district].lastUpdatedDay != 0 */\n      eq\n      iszero\n        /* \"contracts/SeverityData.sol\":1456:1536  require(severity[district].lastUpdatedDay != 0, \"Data not present for location\") */\n      tag_83\n      jumpi\n      mload(0x40)\n      0x08c379a000000000000000000000000000000000000000000000000000000000\n      dup2\n      mstore\n      0x04\n      add\n      tag_84\n      swap1\n      tag_85\n      jump\t// in\n    tag_84:\n      mload(0x40)\n      dup1\n      swap2\n      sub\n      swap1\n      revert\n    tag_83:\n        /* \"contracts/SeverityData.sol\":1567:1570  day */\n      dup2\n        /* \"contracts/SeverityData.sol\":1555:1563  startDay */\n      sload(0x01)\n        /* \"contracts/SeverityData.sol\":1555:1570  startDay <= day */\n      gt\n      iszero\n        /* \"contracts/SeverityData.sol\":1547:1610  require(startDay <= day, \"Day should be greater than startDay\") */\n      tag_86\n      jumpi\n      mload(0x40)\n      0x08c379a000000000000000000000000000000000000000000000000000000000\n      dup2\n      mstore\n      0x04\n      add\n      tag_87\n      swap1\n      tag_88\n      jump\t// in\n    tag_87:\n      mload(0x40)\n      dup1\n      swap2\n      sub\n      swap1\n      revert\n    tag_86:\n        /* \"contracts/SeverityData.sol\":1660:1663  day */\n      dup2\n        /* \"contracts/SeverityData.sol\":1624:1632  severity */\n      0x02\n        /* \"contracts/SeverityData.sol\":1633:1641  district */\n      dup5\n        /* \"contracts/SeverityData.sol\":1624:1642  severity[district] */\n      mload(0x40)\n      tag_89\n      swap2\n      swap1\n      tag_50\n      jump\t// in\n    tag_89:\n      swap1\n      dup2\n      mstore\n      0x20\n      add\n      mload(0x40)\n      dup1\n      swap2\n      sub\n      swap1\n      keccak256\n        /* \"contracts/SeverityData.sol\":1624:1657  severity[district].lastUpdatedDay */\n      0x00\n      add\n      sload\n        /* \"contracts/SeverityData.sol\":1624:1663  severity[district].lastUpdatedDay > day */\n      gt\n        /* \"contracts/SeverityData.sol\":1621:1795  if(severity[district].lastUpdatedDay > day) return severity[district].values[day-startDay];\r... */\n      iszero\n      tag_90\n      jumpi\n        /* \"contracts/SeverityData.sol\":1672:1680  severity */\n      0x02\n        /* \"contracts/SeverityData.sol\":1681:1689  district */\n      dup4\n        /* \"contracts/SeverityData.sol\":1672:1690  severity[district] */\n      mload(0x40)\n      tag_91\n      swap2\n      swap1\n      tag_50\n      jump\t// in\n    tag_91:\n      swap1\n      dup2\n      mstore\n      0x20\n      add\n      mload(0x40)\n      dup1\n      swap2\n      sub\n      swap1\n      keccak256\n        /* \"contracts/SeverityData.sol\":1672:1697  severity[district].values */\n      0x01\n      add\n        /* \"contracts/SeverityData.sol\":1702:1710  startDay */\n      sload(0x01)\n        /* \"contracts/SeverityData.sol\":1698:1701  day */\n      dup4\n        /* \"contracts/SeverityData.sol\":1698:1710  day-startDay */\n      tag_92\n      swap2\n      swap1\n      tag_55\n      jump\t// in\n    tag_92:\n        /* \"contracts/SeverityData.sol\":1672:1711  severity[district].values[day-startDay] */\n      dup2\n      sload\n      dup2\n      lt\n      tag_93\n      jumpi\n      tag_94\n      tag_58\n      jump\t// in\n    tag_94:\n    tag_93:\n      swap1\n      0x00\n      mstore\n      keccak256(0x00, 0x20)\n      add\n      sload\n        /* \"contracts/SeverityData.sol\":1665:1711  return severity[district].values[day-startDay] */\n      swap1\n      pop\n      jump(tag_81)\n        /* \"contracts/SeverityData.sol\":1621:1795  if(severity[district].lastUpdatedDay > day) return severity[district].values[day-startDay];\r... */\n    tag_90:\n        /* \"contracts/SeverityData.sol\":1734:1742  severity */\n      0x02\n        /* \"contracts/SeverityData.sol\":1743:1751  district */\n      dup4\n        /* \"contracts/SeverityData.sol\":1734:1752  severity[district] */\n      mload(0x40)\n      tag_97\n      swap2\n      swap1\n      tag_50\n      jump\t// in\n    tag_97:\n      swap1\n      dup2\n      mstore\n      0x20\n      add\n      mload(0x40)\n      dup1\n      swap2\n      sub\n      swap1\n      keccak256\n        /* \"contracts/SeverityData.sol\":1734:1759  severity[district].values */\n      0x01\n      add\n        /* \"contracts/SeverityData.sol\":1793:1794  1 */\n      0x01\n        /* \"contracts/SeverityData.sol\":1760:1768  severity */\n      0x02\n        /* \"contracts/SeverityData.sol\":1769:1777  district */\n      dup6\n        /* \"contracts/SeverityData.sol\":1760:1778  severity[district] */\n      mload(0x40)\n      tag_98\n      swap2\n      swap1\n      tag_50\n      jump\t// in\n    tag_98:\n      swap1\n      dup2\n      mstore\n      0x20\n      add\n      mload(0x40)\n      dup1\n      swap2\n      sub\n      swap1\n      keccak256\n        /* \"contracts/SeverityData.sol\":1760:1785  severity[district].values */\n      0x01\n      add\n        /* \"contracts/SeverityData.sol\":1760:1792  severity[district].values.length */\n      dup1\n      sload\n      swap1\n      pop\n        /* \"contracts/SeverityData.sol\":1760:1794  severity[district].values.length-1 */\n      tag_99\n      swap2\n      swap1\n      tag_55\n      jump\t// in\n    tag_99:\n        /* \"contracts/SeverityData.sol\":1734:1795  severity[district].values[severity[district].values.length-1] */\n      dup2\n      sload\n      dup2\n      lt\n      tag_100\n      jumpi\n      tag_101\n      tag_58\n      jump\t// in\n    tag_101:\n    tag_100:\n      swap1\n      0x00\n      mstore\n      keccak256(0x00, 0x20)\n      add\n      sload\n        /* \"contracts/SeverityData.sol\":1727:1795  return severity[district].values[severity[district].values.length-1] */\n      swap1\n      pop\n        /* \"contracts/SeverityData.sol\":1360:1803  function getSeverityData(string memory district, uint day) public view returns (uint){\r... */\n    tag_81:\n      swap3\n      swap2\n      pop\n      pop\n      jump\t// out\n        /* \"contracts/SeverityData.sol\":2243:2829  function getAccumulatedSeverity(string memory district) public view returns (uint) {\r... */\n    tag_34:\n        /* \"contracts/SeverityData.sol\":2320:2324  uint */\n      0x00\n        /* \"contracts/SeverityData.sol\":2382:2383  0 */\n      dup1\n        /* \"contracts/SeverityData.sol\":2345:2353  severity */\n      0x02\n        /* \"contracts/SeverityData.sol\":2354:2362  district */\n      dup4\n        /* \"contracts/SeverityData.sol\":2345:2363  severity[district] */\n      mload(0x40)\n      tag_104\n      swap2\n      swap1\n      tag_50\n      jump\t// in\n    tag_104:\n      swap1\n      dup2\n      mstore\n      0x20\n      add\n      mload(0x40)\n      dup1\n      swap2\n      sub\n      swap1\n      keccak256\n        /* \"contracts/SeverityData.sol\":2345:2378  severity[district].lastUpdatedDay */\n      0x00\n      add\n      sload\n        /* \"contracts/SeverityData.sol\":2345:2383  severity[district].lastUpdatedDay != 0 */\n      eq\n      iszero\n        /* \"contracts/SeverityData.sol\":2337:2417  require(severity[district].lastUpdatedDay != 0, \"Data not present for location\") */\n      tag_105\n      jumpi\n      mload(0x40)\n      0x08c379a000000000000000000000000000000000000000000000000000000000\n      dup2\n      mstore\n      0x04\n      add\n      tag_106\n      swap1\n      tag_85\n      jump\t// in\n    tag_106:\n      mload(0x40)\n      dup1\n      swap2\n      sub\n      swap1\n      revert\n    tag_105:\n        /* \"contracts/SeverityData.sol\":2469:2470  0 */\n      0x00\n        /* \"contracts/SeverityData.sol\":2433:2441  severity */\n      0x02\n        /* \"contracts/SeverityData.sol\":2442:2450  district */\n      dup4\n        /* \"contracts/SeverityData.sol\":2433:2451  severity[district] */\n      mload(0x40)\n      tag_107\n      swap2\n      swap1\n      tag_50\n      jump\t// in\n    tag_107:\n      swap1\n      dup2\n      mstore\n      0x20\n      add\n      mload(0x40)\n      dup1\n      swap2\n      sub\n      swap1\n      keccak256\n        /* \"contracts/SeverityData.sol\":2433:2458  severity[district].values */\n      0x01\n      add\n        /* \"contracts/SeverityData.sol\":2433:2465  severity[district].values.length */\n      dup1\n      sload\n      swap1\n      pop\n        /* \"contracts/SeverityData.sol\":2433:2470  severity[district].values.length == 0 */\n      eq\n        /* \"contracts/SeverityData.sol\":2430:2480  if(severity[district].values.length == 0) return 0 */\n      iszero\n      tag_108\n      jumpi\n        /* \"contracts/SeverityData.sol\":2479:2480  0 */\n      0x00\n        /* \"contracts/SeverityData.sol\":2472:2480  return 0 */\n      swap1\n      pop\n      jump(tag_103)\n        /* \"contracts/SeverityData.sol\":2430:2480  if(severity[district].values.length == 0) return 0 */\n    tag_108:\n        /* \"contracts/SeverityData.sol\":2491:2507  uint sumSeverity */\n      0x00\n        /* \"contracts/SeverityData.sol\":2522:2536  uint totalDays */\n      dup1\n        /* \"contracts/SeverityData.sol\":2574:2576  10 */\n      0x0a\n        /* \"contracts/SeverityData.sol\":2539:2547  severity */\n      0x02\n        /* \"contracts/SeverityData.sol\":2548:2556  district */\n      dup6\n        /* \"contracts/SeverityData.sol\":2539:2557  severity[district] */\n      mload(0x40)\n      tag_109\n      swap2\n      swap1\n      tag_50\n      jump\t// in\n    tag_109:\n      swap1\n      dup2\n      mstore\n      0x20\n      add\n      mload(0x40)\n      dup1\n      swap2\n      sub\n      swap1\n      keccak256\n        /* \"contracts/SeverityData.sol\":2539:2564  severity[district].values */\n      0x01\n      add\n        /* \"contracts/SeverityData.sol\":2539:2571  severity[district].values.length */\n      dup1\n      sload\n      swap1\n      pop\n        /* \"contracts/SeverityData.sol\":2539:2576  severity[district].values.length < 10 */\n      lt\n        /* \"contracts/SeverityData.sol\":2539:2616  severity[district].values.length < 10 ? severity[district].values.length : 10 */\n      tag_110\n      jumpi\n        /* \"contracts/SeverityData.sol\":2614:2616  10 */\n      0x0a\n        /* \"contracts/SeverityData.sol\":2539:2616  severity[district].values.length < 10 ? severity[district].values.length : 10 */\n      jump(tag_111)\n    tag_110:\n        /* \"contracts/SeverityData.sol\":2579:2587  severity */\n      0x02\n        /* \"contracts/SeverityData.sol\":2588:2596  district */\n      dup5\n        /* \"contracts/SeverityData.sol\":2579:2597  severity[district] */\n      mload(0x40)\n      tag_112\n      swap2\n      swap1\n      tag_50\n      jump\t// in\n    tag_112:\n      swap1\n      dup2\n      mstore\n      0x20\n      add\n      mload(0x40)\n      dup1\n      swap2\n      sub\n      swap1\n      keccak256\n        /* \"contracts/SeverityData.sol\":2579:2604  severity[district].values */\n      0x01\n      add\n        /* \"contracts/SeverityData.sol\":2579:2611  severity[district].values.length */\n      dup1\n      sload\n      swap1\n      pop\n        /* \"contracts/SeverityData.sol\":2539:2616  severity[district].values.length < 10 ? severity[district].values.length : 10 */\n    tag_111:\n        /* \"contracts/SeverityData.sol\":2522:2616  uint totalDays = severity[district].values.length < 10 ? severity[district].values.length : 10 */\n      swap1\n      pop\n        /* \"contracts/SeverityData.sol\":2631:2637  uint i */\n      0x00\n        /* \"contracts/SeverityData.sol\":2671:2680  totalDays */\n      dup2\n        /* \"contracts/SeverityData.sol\":2638:2646  severity */\n      0x02\n        /* \"contracts/SeverityData.sol\":2647:2655  district */\n      dup7\n        /* \"contracts/SeverityData.sol\":2638:2656  severity[district] */\n      mload(0x40)\n      tag_116\n      swap2\n      swap1\n      tag_50\n      jump\t// in\n    tag_116:\n      swap1\n      dup2\n      mstore\n      0x20\n      add\n      mload(0x40)\n      dup1\n      swap2\n      sub\n      swap1\n      keccak256\n        /* \"contracts/SeverityData.sol\":2638:2663  severity[district].values */\n      0x01\n      add\n        /* \"contracts/SeverityData.sol\":2638:2670  severity[district].values.length */\n      dup1\n      sload\n      swap1\n      pop\n        /* \"contracts/SeverityData.sol\":2638:2680  severity[district].values.length-totalDays */\n      tag_117\n      swap2\n      swap1\n      tag_55\n      jump\t// in\n    tag_117:\n        /* \"contracts/SeverityData.sol\":2631:2680  uint i=severity[district].values.length-totalDays */\n      swap1\n      pop\n        /* \"contracts/SeverityData.sol\":2627:2793  for(uint i=severity[district].values.length-totalDays; i<severity[district].values.length; i++) {\r... */\n    tag_113:\n        /* \"contracts/SeverityData.sol\":2684:2692  severity */\n      0x02\n        /* \"contracts/SeverityData.sol\":2693:2701  district */\n      dup6\n        /* \"contracts/SeverityData.sol\":2684:2702  severity[district] */\n      mload(0x40)\n      tag_118\n      swap2\n      swap1\n      tag_50\n      jump\t// in\n    tag_118:\n      swap1\n      dup2\n      mstore\n      0x20\n      add\n      mload(0x40)\n      dup1\n      swap2\n      sub\n      swap1\n      keccak256\n        /* \"contracts/SeverityData.sol\":2684:2709  severity[district].values */\n      0x01\n      add\n        /* \"contracts/SeverityData.sol\":2684:2716  severity[district].values.length */\n      dup1\n      sload\n      swap1\n      pop\n        /* \"contracts/SeverityData.sol\":2682:2683  i */\n      dup2\n        /* \"contracts/SeverityData.sol\":2682:2716  i<severity[district].values.length */\n      lt\n        /* \"contracts/SeverityData.sol\":2627:2793  for(uint i=severity[district].values.length-totalDays; i<severity[district].values.length; i++) {\r... */\n      iszero\n      tag_114\n      jumpi\n        /* \"contracts/SeverityData.sol\":2753:2761  severity */\n      0x02\n        /* \"contracts/SeverityData.sol\":2762:2770  district */\n      dup6\n        /* \"contracts/SeverityData.sol\":2753:2771  severity[district] */\n      mload(0x40)\n      tag_119\n      swap2\n      swap1\n      tag_50\n      jump\t// in\n    tag_119:\n      swap1\n      dup2\n      mstore\n      0x20\n      add\n      mload(0x40)\n      dup1\n      swap2\n      sub\n      swap1\n      keccak256\n        /* \"contracts/SeverityData.sol\":2753:2778  severity[district].values */\n      0x01\n      add\n        /* \"contracts/SeverityData.sol\":2779:2780  i */\n      dup2\n        /* \"contracts/SeverityData.sol\":2753:2781  severity[district].values[i] */\n      dup2\n      sload\n      dup2\n      lt\n      tag_120\n      jumpi\n      tag_121\n      tag_58\n      jump\t// in\n    tag_121:\n    tag_120:\n      swap1\n      0x00\n      mstore\n      keccak256(0x00, 0x20)\n      add\n      sload\n        /* \"contracts/SeverityData.sol\":2738:2781  sumSeverity += severity[district].values[i] */\n      dup4\n      tag_123\n      swap2\n      swap1\n      tag_72\n      jump\t// in\n    tag_123:\n      swap3\n      pop\n        /* \"contracts/SeverityData.sol\":2718:2721  i++ */\n      dup1\n      dup1\n      tag_124\n      swap1\n      tag_76\n      jump\t// in\n    tag_124:\n      swap2\n      pop\n      pop\n        /* \"contracts/SeverityData.sol\":2627:2793  for(uint i=severity[district].values.length-totalDays; i<severity[district].values.length; i++) {\r... */\n      jump(tag_113)\n    tag_114:\n      pop\n        /* \"contracts/SeverityData.sol\":2810:2821  sumSeverity */\n      dup2\n        /* \"contracts/SeverityData.sol\":2803:2821  return sumSeverity */\n      swap3\n      pop\n      pop\n      pop\n        /* \"contracts/SeverityData.sol\":2243:2829  function getAccumulatedSeverity(string memory district) public view returns (uint) {\r... */\n    tag_103:\n      swap2\n      swap1\n      pop\n      jump\t// out\n        /* \"contracts/SeverityData.sol\":95:115  address public admin */\n    tag_37:\n      0x00\n      dup1\n      sload\n      swap1\n      0x0100\n      exp\n      swap1\n      div\n      0xffffffffffffffffffffffffffffffffffffffff\n      and\n      dup2\n      jump\t// out\n    tag_62:\n      mload(0x40)\n      dup1\n      0x40\n      add\n      0x40\n      mstore\n      dup1\n      0x00\n      dup2\n      mstore\n      0x20\n      add\n      0x60\n      dup2\n      mstore\n      pop\n      swap1\n      jump\t// out\n    tag_66:\n      dup3\n      dup1\n      sload\n      dup3\n      dup3\n      sstore\n      swap1\n      0x00\n      mstore\n      keccak256(0x00, 0x20)\n      swap1\n      dup2\n      add\n      swap3\n      dup3\n      iszero\n      tag_125\n      jumpi\n      swap2\n      0x20\n      mul\n      dup3\n      add\n    tag_126:\n      dup3\n      dup2\n      gt\n      iszero\n      tag_127\n      jumpi\n      dup3\n      mload\n      dup3\n      sstore\n      swap2\n      0x20\n      add\n      swap2\n      swap1\n      0x01\n      add\n      swap1\n      jump(tag_126)\n    tag_127:\n    tag_125:\n      pop\n      swap1\n      pop\n      tag_128\n      swap2\n      swap1\n      tag_129\n      jump\t// in\n    tag_128:\n      pop\n      swap1\n      jump\t// out\n    tag_129:\n    tag_130:\n      dup1\n      dup3\n      gt\n      iszero\n      tag_131\n      jumpi\n      0x00\n      dup2\n      0x00\n      swap1\n      sstore\n      pop\n      0x01\n      add\n      jump(tag_130)\n    tag_131:\n      pop\n      swap1\n      jump\t// out\n        /* \"#utility.yul\":7:419   */\n    tag_133:\n        /* \"#utility.yul\":85:90   */\n      0x00\n        /* \"#utility.yul\":110:176   */\n      tag_135\n        /* \"#utility.yul\":126:175   */\n      tag_136\n        /* \"#utility.yul\":168:174   */\n      dup5\n        /* \"#utility.yul\":126:175   */\n      tag_137\n      jump\t// in\n    tag_136:\n        /* \"#utility.yul\":110:176   */\n      tag_138\n      jump\t// in\n    tag_135:\n        /* \"#utility.yul\":101:176   */\n      swap1\n      pop\n        /* \"#utility.yul\":199:205   */\n      dup3\n        /* \"#utility.yul\":192:197   */\n      dup2\n        /* \"#utility.yul\":185:206   */\n      mstore\n        /* \"#utility.yul\":237:241   */\n      0x20\n        /* \"#utility.yul\":230:235   */\n      dup2\n        /* \"#utility.yul\":226:242   */\n      add\n        /* \"#utility.yul\":275:278   */\n      dup5\n        /* \"#utility.yul\":266:272   */\n      dup5\n        /* \"#utility.yul\":261:264   */\n      dup5\n        /* \"#utility.yul\":257:273   */\n      add\n        /* \"#utility.yul\":254:279   */\n      gt\n        /* \"#utility.yul\":251:363   */\n      iszero\n      tag_139\n      jumpi\n        /* \"#utility.yul\":282:361   */\n      tag_140\n      tag_141\n      jump\t// in\n    tag_140:\n        /* \"#utility.yul\":251:363   */\n    tag_139:\n        /* \"#utility.yul\":372:413   */\n      tag_142\n        /* \"#utility.yul\":406:412   */\n      dup5\n        /* \"#utility.yul\":401:404   */\n      dup3\n        /* \"#utility.yul\":396:399   */\n      dup6\n        /* \"#utility.yul\":372:413   */\n      tag_143\n      jump\t// in\n    tag_142:\n        /* \"#utility.yul\":91:419   */\n      pop\n        /* \"#utility.yul\":7:419   */\n      swap4\n      swap3\n      pop\n      pop\n      pop\n      jump\t// out\n        /* \"#utility.yul\":439:779   */\n    tag_144:\n        /* \"#utility.yul\":495:500   */\n      0x00\n        /* \"#utility.yul\":544:547   */\n      dup3\n        /* \"#utility.yul\":537:541   */\n      0x1f\n        /* \"#utility.yul\":529:535   */\n      dup4\n        /* \"#utility.yul\":525:542   */\n      add\n        /* \"#utility.yul\":521:548   */\n      slt\n        /* \"#utility.yul\":511:633   */\n      tag_146\n      jumpi\n        /* \"#utility.yul\":552:631   */\n      tag_147\n      tag_148\n      jump\t// in\n    tag_147:\n        /* \"#utility.yul\":511:633   */\n    tag_146:\n        /* \"#utility.yul\":669:675   */\n      dup2\n        /* \"#utility.yul\":656:676   */\n      calldataload\n        /* \"#utility.yul\":694:773   */\n      tag_149\n        /* \"#utility.yul\":769:772   */\n      dup5\n        /* \"#utility.yul\":761:767   */\n      dup3\n        /* \"#utility.yul\":754:758   */\n      0x20\n        /* \"#utility.yul\":746:752   */\n      dup7\n        /* \"#utility.yul\":742:759   */\n      add\n        /* \"#utility.yul\":694:773   */\n      tag_133\n      jump\t// in\n    tag_149:\n        /* \"#utility.yul\":685:773   */\n      swap2\n      pop\n        /* \"#utility.yul\":501:779   */\n      pop\n        /* \"#utility.yul\":439:779   */\n      swap3\n      swap2\n      pop\n      pop\n      jump\t// out\n        /* \"#utility.yul\":785:924   */\n    tag_150:\n        /* \"#utility.yul\":831:836   */\n      0x00\n        /* \"#utility.yul\":869:875   */\n      dup2\n        /* \"#utility.yul\":856:876   */\n      calldataload\n        /* \"#utility.yul\":847:876   */\n      swap1\n      pop\n        /* \"#utility.yul\":885:918   */\n      tag_152\n        /* \"#utility.yul\":912:917   */\n      dup2\n        /* \"#utility.yul\":885:918   */\n      tag_153\n      jump\t// in\n    tag_152:\n        /* \"#utility.yul\":785:924   */\n      swap3\n      swap2\n      pop\n      pop\n      jump\t// out\n        /* \"#utility.yul\":930:1439   */\n    tag_17:\n        /* \"#utility.yul\":999:1005   */\n      0x00\n        /* \"#utility.yul\":1048:1050   */\n      0x20\n        /* \"#utility.yul\":1036:1045   */\n      dup3\n        /* \"#utility.yul\":1027:1034   */\n      dup5\n        /* \"#utility.yul\":1023:1046   */\n      sub\n        /* \"#utility.yul\":1019:1051   */\n      slt\n        /* \"#utility.yul\":1016:1135   */\n      iszero\n      tag_155\n      jumpi\n        /* \"#utility.yul\":1054:1133   */\n      tag_156\n      tag_157\n      jump\t// in\n    tag_156:\n        /* \"#utility.yul\":1016:1135   */\n    tag_155:\n        /* \"#utility.yul\":1202:1203   */\n      0x00\n        /* \"#utility.yul\":1191:1200   */\n      dup3\n        /* \"#utility.yul\":1187:1204   */\n      add\n        /* \"#utility.yul\":1174:1205   */\n      calldataload\n        /* \"#utility.yul\":1232:1250   */\n      0xffffffffffffffff\n        /* \"#utility.yul\":1224:1230   */\n      dup2\n        /* \"#utility.yul\":1221:1251   */\n      gt\n        /* \"#utility.yul\":1218:1335   */\n      iszero\n      tag_158\n      jumpi\n        /* \"#utility.yul\":1254:1333   */\n      tag_159\n      tag_160\n      jump\t// in\n    tag_159:\n        /* \"#utility.yul\":1218:1335   */\n    tag_158:\n        /* \"#utility.yul\":1359:1422   */\n      tag_161\n        /* \"#utility.yul\":1414:1421   */\n      dup5\n        /* \"#utility.yul\":1405:1411   */\n      dup3\n        /* \"#utility.yul\":1394:1403   */\n      dup6\n        /* \"#utility.yul\":1390:1412   */\n      add\n        /* \"#utility.yul\":1359:1422   */\n      tag_144\n      jump\t// in\n    tag_161:\n        /* \"#utility.yul\":1349:1422   */\n      swap2\n      pop\n        /* \"#utility.yul\":1145:1432   */\n      pop\n        /* \"#utility.yul\":930:1439   */\n      swap3\n      swap2\n      pop\n      pop\n      jump\t// out\n        /* \"#utility.yul\":1445:2099   */\n    tag_22:\n        /* \"#utility.yul\":1523:1529   */\n      0x00\n        /* \"#utility.yul\":1531:1537   */\n      dup1\n        /* \"#utility.yul\":1580:1582   */\n      0x40\n        /* \"#utility.yul\":1568:1577   */\n      dup4\n        /* \"#utility.yul\":1559:1566   */\n      dup6\n        /* \"#utility.yul\":1555:1578   */\n      sub\n        /* \"#utility.yul\":1551:1583   */\n      slt\n        /* \"#utility.yul\":1548:1667   */\n      iszero\n      tag_163\n      jumpi\n        /* \"#utility.yul\":1586:1665   */\n      tag_164\n      tag_157\n      jump\t// in\n    tag_164:\n        /* \"#utility.yul\":1548:1667   */\n    tag_163:\n        /* \"#utility.yul\":1734:1735   */\n      0x00\n        /* \"#utility.yul\":1723:1732   */\n      dup4\n        /* \"#utility.yul\":1719:1736   */\n      add\n        /* \"#utility.yul\":1706:1737   */\n      calldataload\n        /* \"#utility.yul\":1764:1782   */\n      0xffffffffffffffff\n        /* \"#utility.yul\":1756:1762   */\n      dup2\n        /* \"#utility.yul\":1753:1783   */\n      gt\n        /* \"#utility.yul\":1750:1867   */\n      iszero\n      tag_165\n      jumpi\n        /* \"#utility.yul\":1786:1865   */\n      tag_166\n      tag_160\n      jump\t// in\n    tag_166:\n        /* \"#utility.yul\":1750:1867   */\n    tag_165:\n        /* \"#utility.yul\":1891:1954   */\n      tag_167\n        /* \"#utility.yul\":1946:1953   */\n      dup6\n        /* \"#utility.yul\":1937:1943   */\n      dup3\n        /* \"#utility.yul\":1926:1935   */\n      dup7\n        /* \"#utility.yul\":1922:1944   */\n      add\n        /* \"#utility.yul\":1891:1954   */\n      tag_144\n      jump\t// in\n    tag_167:\n        /* \"#utility.yul\":1881:1954   */\n      swap3\n      pop\n        /* \"#utility.yul\":1677:1964   */\n      pop\n        /* \"#utility.yul\":2003:2005   */\n      0x20\n        /* \"#utility.yul\":2029:2082   */\n      tag_168\n        /* \"#utility.yul\":2074:2081   */\n      dup6\n        /* \"#utility.yul\":2065:2071   */\n      dup3\n        /* \"#utility.yul\":2054:2063   */\n      dup7\n        /* \"#utility.yul\":2050:2072   */\n      add\n        /* \"#utility.yul\":2029:2082   */\n      tag_150\n      jump\t// in\n    tag_168:\n        /* \"#utility.yul\":2019:2082   */\n      swap2\n      pop\n        /* \"#utility.yul\":1974:2092   */\n      pop\n        /* \"#utility.yul\":1445:2099   */\n      swap3\n      pop\n      swap3\n      swap1\n      pop\n      jump\t// out\n        /* \"#utility.yul\":2105:2223   */\n    tag_169:\n        /* \"#utility.yul\":2192:2216   */\n      tag_171\n        /* \"#utility.yul\":2210:2215   */\n      dup2\n        /* \"#utility.yul\":2192:2216   */\n      tag_172\n      jump\t// in\n    tag_171:\n        /* \"#utility.yul\":2187:2190   */\n      dup3\n        /* \"#utility.yul\":2180:2217   */\n      mstore\n        /* \"#utility.yul\":2105:2223   */\n      pop\n      pop\n      jump\t// out\n        /* \"#utility.yul\":2229:2593   */\n    tag_173:\n        /* \"#utility.yul\":2317:2320   */\n      0x00\n        /* \"#utility.yul\":2345:2384   */\n      tag_175\n        /* \"#utility.yul\":2378:2383   */\n      dup3\n        /* \"#utility.yul\":2345:2384   */\n      tag_176\n      jump\t// in\n    tag_175:\n        /* \"#utility.yul\":2400:2471   */\n      tag_177\n        /* \"#utility.yul\":2464:2470   */\n      dup2\n        /* \"#utility.yul\":2459:2462   */\n      dup6\n        /* \"#utility.yul\":2400:2471   */\n      tag_178\n      jump\t// in\n    tag_177:\n        /* \"#utility.yul\":2393:2471   */\n      swap4\n      pop\n        /* \"#utility.yul\":2480:2532   */\n      tag_179\n        /* \"#utility.yul\":2525:2531   */\n      dup2\n        /* \"#utility.yul\":2520:2523   */\n      dup6\n        /* \"#utility.yul\":2513:2517   */\n      0x20\n        /* \"#utility.yul\":2506:2511   */\n      dup7\n        /* \"#utility.yul\":2502:2518   */\n      add\n        /* \"#utility.yul\":2480:2532   */\n      tag_180\n      jump\t// in\n    tag_179:\n        /* \"#utility.yul\":2557:2586   */\n      tag_181\n        /* \"#utility.yul\":2579:2585   */\n      dup2\n        /* \"#utility.yul\":2557:2586   */\n      tag_182\n      jump\t// in\n    tag_181:\n        /* \"#utility.yul\":2552:2555   */\n      dup5\n        /* \"#utility.yul\":2548:2587   */\n      add\n        /* \"#utility.yul\":2541:2587   */\n      swap2\n      pop\n        /* \"#utility.yul\":2321:2593   */\n      pop\n        /* \"#utility.yul\":2229:2593   */\n      swap3\n      swap2\n      pop\n      pop\n      jump\t// out\n        /* \"#utility.yul\":2599:2976   */\n    tag_183:\n        /* \"#utility.yul\":2705:2708   */\n      0x00\n        /* \"#utility.yul\":2733:2772   */\n      tag_185\n        /* \"#utility.yul\":2766:2771   */\n      dup3\n        /* \"#utility.yul\":2733:2772   */\n      tag_176\n      jump\t// in\n    tag_185:\n        /* \"#utility.yul\":2788:2877   */\n      tag_186\n        /* \"#utility.yul\":2870:2876   */\n      dup2\n        /* \"#utility.yul\":2865:2868   */\n      dup6\n        /* \"#utility.yul\":2788:2877   */\n      tag_187\n      jump\t// in\n    tag_186:\n        /* \"#utility.yul\":2781:2877   */\n      swap4\n      pop\n        /* \"#utility.yul\":2886:2938   */\n      tag_188\n        /* \"#utility.yul\":2931:2937   */\n      dup2\n        /* \"#utility.yul\":2926:2929   */\n      dup6\n        /* \"#utility.yul\":2919:2923   */\n      0x20\n        /* \"#utility.yul\":2912:2917   */\n      dup7\n        /* \"#utility.yul\":2908:2924   */\n      add\n        /* \"#utility.yul\":2886:2938   */\n      tag_180\n      jump\t// in\n    tag_188:\n        /* \"#utility.yul\":2963:2969   */\n      dup1\n        /* \"#utility.yul\":2958:2961   */\n      dup5\n        /* \"#utility.yul\":2954:2970   */\n      add\n        /* \"#utility.yul\":2947:2970   */\n      swap2\n      pop\n        /* \"#utility.yul\":2709:2976   */\n      pop\n        /* \"#utility.yul\":2599:2976   */\n      swap3\n      swap2\n      pop\n      pop\n      jump\t// out\n        /* \"#utility.yul\":2982:3348   */\n    tag_189:\n        /* \"#utility.yul\":3124:3127   */\n      0x00\n        /* \"#utility.yul\":3145:3212   */\n      tag_191\n        /* \"#utility.yul\":3209:3211   */\n      0x23\n        /* \"#utility.yul\":3204:3207   */\n      dup4\n        /* \"#utility.yul\":3145:3212   */\n      tag_178\n      jump\t// in\n    tag_191:\n        /* \"#utility.yul\":3138:3212   */\n      swap2\n      pop\n        /* \"#utility.yul\":3221:3314   */\n      tag_192\n        /* \"#utility.yul\":3310:3313   */\n      dup3\n        /* \"#utility.yul\":3221:3314   */\n      tag_193\n      jump\t// in\n    tag_192:\n        /* \"#utility.yul\":3339:3341   */\n      0x40\n        /* \"#utility.yul\":3334:3337   */\n      dup3\n        /* \"#utility.yul\":3330:3342   */\n      add\n        /* \"#utility.yul\":3323:3342   */\n      swap1\n      pop\n        /* \"#utility.yul\":2982:3348   */\n      swap2\n      swap1\n      pop\n      jump\t// out\n        /* \"#utility.yul\":3354:3720   */\n    tag_194:\n        /* \"#utility.yul\":3496:3499   */\n      0x00\n        /* \"#utility.yul\":3517:3584   */\n      tag_196\n        /* \"#utility.yul\":3581:3583   */\n      0x1d\n        /* \"#utility.yul\":3576:3579   */\n      dup4\n        /* \"#utility.yul\":3517:3584   */\n      tag_178\n      jump\t// in\n    tag_196:\n        /* \"#utility.yul\":3510:3584   */\n      swap2\n      pop\n        /* \"#utility.yul\":3593:3686   */\n      tag_197\n        /* \"#utility.yul\":3682:3685   */\n      dup3\n        /* \"#utility.yul\":3593:3686   */\n      tag_198\n      jump\t// in\n    tag_197:\n        /* \"#utility.yul\":3711:3713   */\n      0x20\n        /* \"#utility.yul\":3706:3709   */\n      dup3\n        /* \"#utility.yul\":3702:3714   */\n      add\n        /* \"#utility.yul\":3695:3714   */\n      swap1\n      pop\n        /* \"#utility.yul\":3354:3720   */\n      swap2\n      swap1\n      pop\n      jump\t// out\n        /* \"#utility.yul\":3726:4092   */\n    tag_199:\n        /* \"#utility.yul\":3868:3871   */\n      0x00\n        /* \"#utility.yul\":3889:3956   */\n      tag_201\n        /* \"#utility.yul\":3953:3955   */\n      0x17\n        /* \"#utility.yul\":3948:3951   */\n      dup4\n        /* \"#utility.yul\":3889:3956   */\n      tag_178\n      jump\t// in\n    tag_201:\n        /* \"#utility.yul\":3882:3956   */\n      swap2\n      pop\n        /* \"#utility.yul\":3965:4058   */\n      tag_202\n        /* \"#utility.yul\":4054:4057   */\n      dup3\n        /* \"#utility.yul\":3965:4058   */\n      tag_203\n      jump\t// in\n    tag_202:\n        /* \"#utility.yul\":4083:4085   */\n      0x20\n        /* \"#utility.yul\":4078:4081   */\n      dup3\n        /* \"#utility.yul\":4074:4086   */\n      add\n        /* \"#utility.yul\":4067:4086   */\n      swap1\n      pop\n        /* \"#utility.yul\":3726:4092   */\n      swap2\n      swap1\n      pop\n      jump\t// out\n        /* \"#utility.yul\":4098:4464   */\n    tag_204:\n        /* \"#utility.yul\":4240:4243   */\n      0x00\n        /* \"#utility.yul\":4261:4328   */\n      tag_206\n        /* \"#utility.yul\":4325:4327   */\n      0x21\n        /* \"#utility.yul\":4320:4323   */\n      dup4\n        /* \"#utility.yul\":4261:4328   */\n      tag_178\n      jump\t// in\n    tag_206:\n        /* \"#utility.yul\":4254:4328   */\n      swap2\n      pop\n        /* \"#utility.yul\":4337:4430   */\n      tag_207\n        /* \"#utility.yul\":4426:4429   */\n      dup3\n        /* \"#utility.yul\":4337:4430   */\n      tag_208\n      jump\t// in\n    tag_207:\n        /* \"#utility.yul\":4455:4457   */\n      0x40\n        /* \"#utility.yul\":4450:4453   */\n      dup3\n        /* \"#utility.yul\":4446:4458   */\n      add\n        /* \"#utility.yul\":4439:4458   */\n      swap1\n      pop\n        /* \"#utility.yul\":4098:4464   */\n      swap2\n      swap1\n      pop\n      jump\t// out\n        /* \"#utility.yul\":4470:4588   */\n    tag_209:\n        /* \"#utility.yul\":4557:4581   */\n      tag_211\n        /* \"#utility.yul\":4575:4580   */\n      dup2\n        /* \"#utility.yul\":4557:4581   */\n      tag_212\n      jump\t// in\n    tag_211:\n        /* \"#utility.yul\":4552:4555   */\n      dup3\n        /* \"#utility.yul\":4545:4582   */\n      mstore\n        /* \"#utility.yul\":4470:4588   */\n      pop\n      pop\n      jump\t// out\n        /* \"#utility.yul\":4594:4869   */\n    tag_50:\n        /* \"#utility.yul\":4726:4729   */\n      0x00\n        /* \"#utility.yul\":4748:4843   */\n      tag_214\n        /* \"#utility.yul\":4839:4842   */\n      dup3\n        /* \"#utility.yul\":4830:4836   */\n      dup5\n        /* \"#utility.yul\":4748:4843   */\n      tag_183\n      jump\t// in\n    tag_214:\n        /* \"#utility.yul\":4741:4843   */\n      swap2\n      pop\n        /* \"#utility.yul\":4860:4863   */\n      dup2\n        /* \"#utility.yul\":4853:4863   */\n      swap1\n      pop\n        /* \"#utility.yul\":4594:4869   */\n      swap3\n      swap2\n      pop\n      pop\n      jump\t// out\n        /* \"#utility.yul\":4875:5097   */\n    tag_39:\n        /* \"#utility.yul\":4968:4972   */\n      0x00\n        /* \"#utility.yul\":5006:5008   */\n      0x20\n        /* \"#utility.yul\":4995:5004   */\n      dup3\n        /* \"#utility.yul\":4991:5009   */\n      add\n        /* \"#utility.yul\":4983:5009   */\n      swap1\n      pop\n        /* \"#utility.yul\":5019:5090   */\n      tag_216\n        /* \"#utility.yul\":5087:5088   */\n      0x00\n        /* \"#utility.yul\":5076:5085   */\n      dup4\n        /* \"#utility.yul\":5072:5089   */\n      add\n        /* \"#utility.yul\":5063:5069   */\n      dup5\n        /* \"#utility.yul\":5019:5090   */\n      tag_169\n      jump\t// in\n    tag_216:\n        /* \"#utility.yul\":4875:5097   */\n      swap3\n      swap2\n      pop\n      pop\n      jump\t// out\n        /* \"#utility.yul\":5103:5416   */\n    tag_27:\n        /* \"#utility.yul\":5216:5220   */\n      0x00\n        /* \"#utility.yul\":5254:5256   */\n      0x20\n        /* \"#utility.yul\":5243:5252   */\n      dup3\n        /* \"#utility.yul\":5239:5257   */\n      add\n        /* \"#utility.yul\":5231:5257   */\n      swap1\n      pop\n        /* \"#utility.yul\":5303:5312   */\n      dup2\n        /* \"#utility.yul\":5297:5301   */\n      dup2\n        /* \"#utility.yul\":5293:5313   */\n      sub\n        /* \"#utility.yul\":5289:5290   */\n      0x00\n        /* \"#utility.yul\":5278:5287   */\n      dup4\n        /* \"#utility.yul\":5274:5291   */\n      add\n        /* \"#utility.yul\":5267:5314   */\n      mstore\n        /* \"#utility.yul\":5331:5409   */\n      tag_218\n        /* \"#utility.yul\":5404:5408   */\n      dup2\n        /* \"#utility.yul\":5395:5401   */\n      dup5\n        /* \"#utility.yul\":5331:5409   */\n      tag_173\n      jump\t// in\n    tag_218:\n        /* \"#utility.yul\":5323:5409   */\n      swap1\n      pop\n        /* \"#utility.yul\":5103:5416   */\n      swap3\n      swap2\n      pop\n      pop\n      jump\t// out\n        /* \"#utility.yul\":5422:5841   */\n    tag_88:\n        /* \"#utility.yul\":5588:5592   */\n      0x00\n        /* \"#utility.yul\":5626:5628   */\n      0x20\n        /* \"#utility.yul\":5615:5624   */\n      dup3\n        /* \"#utility.yul\":5611:5629   */\n      add\n        /* \"#utility.yul\":5603:5629   */\n      swap1\n      pop\n        /* \"#utility.yul\":5675:5684   */\n      dup2\n        /* \"#utility.yul\":5669:5673   */\n      dup2\n        /* \"#utility.yul\":5665:5685   */\n      sub\n        /* \"#utility.yul\":5661:5662   */\n      0x00\n        /* \"#utility.yul\":5650:5659   */\n      dup4\n        /* \"#utility.yul\":5646:5663   */\n      add\n        /* \"#utility.yul\":5639:5686   */\n      mstore\n        /* \"#utility.yul\":5703:5834   */\n      tag_220\n        /* \"#utility.yul\":5829:5833   */\n      dup2\n        /* \"#utility.yul\":5703:5834   */\n      tag_189\n      jump\t// in\n    tag_220:\n        /* \"#utility.yul\":5695:5834   */\n      swap1\n      pop\n        /* \"#utility.yul\":5422:5841   */\n      swap2\n      swap1\n      pop\n      jump\t// out\n        /* \"#utility.yul\":5847:6266   */\n    tag_85:\n        /* \"#utility.yul\":6013:6017   */\n      0x00\n        /* \"#utility.yul\":6051:6053   */\n      0x20\n        /* \"#utility.yul\":6040:6049   */\n      dup3\n        /* \"#utility.yul\":6036:6054   */\n      add\n        /* \"#utility.yul\":6028:6054   */\n      swap1\n      pop\n        /* \"#utility.yul\":6100:6109   */\n      dup2\n        /* \"#utility.yul\":6094:6098   */\n      dup2\n        /* \"#utility.yul\":6090:6110   */\n      sub\n        /* \"#utility.yul\":6086:6087   */\n      0x00\n        /* \"#utility.yul\":6075:6084   */\n      dup4\n        /* \"#utility.yul\":6071:6088   */\n      add\n        /* \"#utility.yul\":6064:6111   */\n      mstore\n        /* \"#utility.yul\":6128:6259   */\n      tag_222\n        /* \"#utility.yul\":6254:6258   */\n      dup2\n        /* \"#utility.yul\":6128:6259   */\n      tag_194\n      jump\t// in\n    tag_222:\n        /* \"#utility.yul\":6120:6259   */\n      swap1\n      pop\n        /* \"#utility.yul\":5847:6266   */\n      swap2\n      swap1\n      pop\n      jump\t// out\n        /* \"#utility.yul\":6272:6691   */\n    tag_43:\n        /* \"#utility.yul\":6438:6442   */\n      0x00\n        /* \"#utility.yul\":6476:6478   */\n      0x20\n        /* \"#utility.yul\":6465:6474   */\n      dup3\n        /* \"#utility.yul\":6461:6479   */\n      add\n        /* \"#utility.yul\":6453:6479   */\n      swap1\n      pop\n        /* \"#utility.yul\":6525:6534   */\n      dup2\n        /* \"#utility.yul\":6519:6523   */\n      dup2\n        /* \"#utility.yul\":6515:6535   */\n      sub\n        /* \"#utility.yul\":6511:6512   */\n      0x00\n        /* \"#utility.yul\":6500:6509   */\n      dup4\n        /* \"#utility.yul\":6496:6513   */\n      add\n        /* \"#utility.yul\":6489:6536   */\n      mstore\n        /* \"#utility.yul\":6553:6684   */\n      tag_224\n        /* \"#utility.yul\":6679:6683   */\n      dup2\n        /* \"#utility.yul\":6553:6684   */\n      tag_199\n      jump\t// in\n    tag_224:\n        /* \"#utility.yul\":6545:6684   */\n      swap1\n      pop\n        /* \"#utility.yul\":6272:6691   */\n      swap2\n      swap1\n      pop\n      jump\t// out\n        /* \"#utility.yul\":6697:7116   */\n    tag_46:\n        /* \"#utility.yul\":6863:6867   */\n      0x00\n        /* \"#utility.yul\":6901:6903   */\n      0x20\n        /* \"#utility.yul\":6890:6899   */\n      dup3\n        /* \"#utility.yul\":6886:6904   */\n      add\n        /* \"#utility.yul\":6878:6904   */\n      swap1\n      pop\n        /* \"#utility.yul\":6950:6959   */\n      dup2\n        /* \"#utility.yul\":6944:6948   */\n      dup2\n        /* \"#utility.yul\":6940:6960   */\n      sub\n        /* \"#utility.yul\":6936:6937   */\n      0x00\n        /* \"#utility.yul\":6925:6934   */\n      dup4\n        /* \"#utility.yul\":6921:6938   */\n      add\n        /* \"#utility.yul\":6914:6961   */\n      mstore\n        /* \"#utility.yul\":6978:7109   */\n      tag_226\n        /* \"#utility.yul\":7104:7108   */\n      dup2\n        /* \"#utility.yul\":6978:7109   */\n      tag_204\n      jump\t// in\n    tag_226:\n        /* \"#utility.yul\":6970:7109   */\n      swap1\n      pop\n        /* \"#utility.yul\":6697:7116   */\n      swap2\n      swap1\n      pop\n      jump\t// out\n        /* \"#utility.yul\":7122:7344   */\n    tag_14:\n        /* \"#utility.yul\":7215:7219   */\n      0x00\n        /* \"#utility.yul\":7253:7255   */\n      0x20\n        /* \"#utility.yul\":7242:7251   */\n      dup3\n        /* \"#utility.yul\":7238:7256   */\n      add\n        /* \"#utility.yul\":7230:7256   */\n      swap1\n      pop\n        /* \"#utility.yul\":7266:7337   */\n      tag_228\n        /* \"#utility.yul\":7334:7335   */\n      0x00\n        /* \"#utility.yul\":7323:7332   */\n      dup4\n        /* \"#utility.yul\":7319:7336   */\n      add\n        /* \"#utility.yul\":7310:7316   */\n      dup5\n        /* \"#utility.yul\":7266:7337   */\n      tag_209\n      jump\t// in\n    tag_228:\n        /* \"#utility.yul\":7122:7344   */\n      swap3\n      swap2\n      pop\n      pop\n      jump\t// out\n        /* \"#utility.yul\":7350:7479   */\n    tag_138:\n        /* \"#utility.yul\":7384:7390   */\n      0x00\n        /* \"#utility.yul\":7411:7431   */\n      tag_230\n      tag_231\n      jump\t// in\n    tag_230:\n        /* \"#utility.yul\":7401:7431   */\n      swap1\n      pop\n        /* \"#utility.yul\":7440:7473   */\n      tag_232\n        /* \"#utility.yul\":7468:7472   */\n      dup3\n        /* \"#utility.yul\":7460:7466   */\n      dup3\n        /* \"#utility.yul\":7440:7473   */\n      tag_233\n      jump\t// in\n    tag_232:\n        /* \"#utility.yul\":7350:7479   */\n      swap2\n      swap1\n      pop\n      jump\t// out\n        /* \"#utility.yul\":7485:7560   */\n    tag_231:\n        /* \"#utility.yul\":7518:7524   */\n      0x00\n        /* \"#utility.yul\":7551:7553   */\n      0x40\n        /* \"#utility.yul\":7545:7554   */\n      mload\n        /* \"#utility.yul\":7535:7554   */\n      swap1\n      pop\n        /* \"#utility.yul\":7485:7560   */\n      swap1\n      jump\t// out\n        /* \"#utility.yul\":7566:7874   */\n    tag_137:\n        /* \"#utility.yul\":7628:7632   */\n      0x00\n        /* \"#utility.yul\":7718:7736   */\n      0xffffffffffffffff\n        /* \"#utility.yul\":7710:7716   */\n      dup3\n        /* \"#utility.yul\":7707:7737   */\n      gt\n        /* \"#utility.yul\":7704:7760   */\n      iszero\n      tag_236\n      jumpi\n        /* \"#utility.yul\":7740:7758   */\n      tag_237\n      tag_238\n      jump\t// in\n    tag_237:\n        /* \"#utility.yul\":7704:7760   */\n    tag_236:\n        /* \"#utility.yul\":7778:7807   */\n      tag_239\n        /* \"#utility.yul\":7800:7806   */\n      dup3\n        /* \"#utility.yul\":7778:7807   */\n      tag_182\n      jump\t// in\n    tag_239:\n        /* \"#utility.yul\":7770:7807   */\n      swap1\n      pop\n        /* \"#utility.yul\":7862:7866   */\n      0x20\n        /* \"#utility.yul\":7856:7860   */\n      dup2\n        /* \"#utility.yul\":7852:7867   */\n      add\n        /* \"#utility.yul\":7844:7867   */\n      swap1\n      pop\n        /* \"#utility.yul\":7566:7874   */\n      swap2\n      swap1\n      pop\n      jump\t// out\n        /* \"#utility.yul\":7880:7979   */\n    tag_176:\n        /* \"#utility.yul\":7932:7938   */\n      0x00\n        /* \"#utility.yul\":7966:7971   */\n      dup2\n        /* \"#utility.yul\":7960:7972   */\n      mload\n        /* \"#utility.yul\":7950:7972   */\n      swap1\n      pop\n        /* \"#utility.yul\":7880:7979   */\n      swap2\n      swap1\n      pop\n      jump\t// out\n        /* \"#utility.yul\":7985:8154   */\n    tag_178:\n        /* \"#utility.yul\":8069:8080   */\n      0x00\n        /* \"#utility.yul\":8103:8109   */\n      dup3\n        /* \"#utility.yul\":8098:8101   */\n      dup3\n        /* \"#utility.yul\":8091:8110   */\n      mstore\n        /* \"#utility.yul\":8143:8147   */\n      0x20\n        /* \"#utility.yul\":8138:8141   */\n      dup3\n        /* \"#utility.yul\":8134:8148   */\n      add\n        /* \"#utility.yul\":8119:8148   */\n      swap1\n      pop\n        /* \"#utility.yul\":7985:8154   */\n      swap3\n      swap2\n      pop\n      pop\n      jump\t// out\n        /* \"#utility.yul\":8160:8308   */\n    tag_187:\n        /* \"#utility.yul\":8262:8273   */\n      0x00\n        /* \"#utility.yul\":8299:8302   */\n      dup2\n        /* \"#utility.yul\":8284:8302   */\n      swap1\n      pop\n        /* \"#utility.yul\":8160:8308   */\n      swap3\n      swap2\n      pop\n      pop\n      jump\t// out\n        /* \"#utility.yul\":8314:8619   */\n    tag_72:\n        /* \"#utility.yul\":8354:8357   */\n      0x00\n        /* \"#utility.yul\":8373:8393   */\n      tag_244\n        /* \"#utility.yul\":8391:8392   */\n      dup3\n        /* \"#utility.yul\":8373:8393   */\n      tag_212\n      jump\t// in\n    tag_244:\n        /* \"#utility.yul\":8368:8393   */\n      swap2\n      pop\n        /* \"#utility.yul\":8407:8427   */\n      tag_245\n        /* \"#utility.yul\":8425:8426   */\n      dup4\n        /* \"#utility.yul\":8407:8427   */\n      tag_212\n      jump\t// in\n    tag_245:\n        /* \"#utility.yul\":8402:8427   */\n      swap3\n      pop\n        /* \"#utility.yul\":8561:8562   */\n      dup3\n        /* \"#utility.yul\":8493:8559   */\n      0xffffffffffffffffffffffffffffffffffffffffffffffffffffffffffffffff\n        /* \"#utility.yul\":8489:8563   */\n      sub\n        /* \"#utility.yul\":8486:8487   */\n      dup3\n        /* \"#utility.yul\":8483:8564   */\n      gt\n        /* \"#utility.yul\":8480:8587   */\n      iszero\n      tag_246\n      jumpi\n        /* \"#utility.yul\":8567:8585   */\n      tag_247\n      tag_248\n      jump\t// in\n    tag_247:\n        /* \"#utility.yul\":8480:8587   */\n    tag_246:\n        /* \"#utility.yul\":8611:8612   */\n      dup3\n        /* \"#utility.yul\":8608:8609   */\n      dup3\n        /* \"#utility.yul\":8604:8613   */\n      add\n        /* \"#utility.yul\":8597:8613   */\n      swap1\n      pop\n        /* \"#utility.yul\":8314:8619   */\n      swap3\n      swap2\n      pop\n      pop\n      jump\t// out\n        /* \"#utility.yul\":8625:8810   */\n    tag_48:\n        /* \"#utility.yul\":8665:8666   */\n      0x00\n        /* \"#utility.yul\":8682:8702   */\n      tag_250\n        /* \"#utility.yul\":8700:8701   */\n      dup3\n        /* \"#utility.yul\":8682:8702   */\n      tag_212\n      jump\t// in\n    tag_250:\n        /* \"#utility.yul\":8677:8702   */\n      swap2\n      pop\n        /* \"#utility.yul\":8716:8736   */\n      tag_251\n        /* \"#utility.yul\":8734:8735   */\n      dup4\n        /* \"#utility.yul\":8716:8736   */\n      tag_212\n      jump\t// in\n    tag_251:\n        /* \"#utility.yul\":8711:8736   */\n      swap3\n      pop\n        /* \"#utility.yul\":8755:8756   */\n      dup3\n        /* \"#utility.yul\":8745:8780   */\n      tag_252\n      jumpi\n        /* \"#utility.yul\":8760:8778   */\n      tag_253\n      tag_254\n      jump\t// in\n    tag_253:\n        /* \"#utility.yul\":8745:8780   */\n    tag_252:\n        /* \"#utility.yul\":8802:8803   */\n      dup3\n        /* \"#utility.yul\":8799:8800   */\n      dup3\n        /* \"#utility.yul\":8795:8804   */\n      div\n        /* \"#utility.yul\":8790:8804   */\n      swap1\n      pop\n        /* \"#utility.yul\":8625:8810   */\n      swap3\n      swap2\n      pop\n      pop\n      jump\t// out\n        /* \"#utility.yul\":8816:9007   */\n    tag_55:\n        /* \"#utility.yul\":8856:8860   */\n      0x00\n        /* \"#utility.yul\":8876:8896   */\n      tag_256\n        /* \"#utility.yul\":8894:8895   */\n      dup3\n        /* \"#utility.yul\":8876:8896   */\n      tag_212\n      jump\t// in\n    tag_256:\n        /* \"#utility.yul\":8871:8896   */\n      swap2\n      pop\n        /* \"#utility.yul\":8910:8930   */\n      tag_257\n        /* \"#utility.yul\":8928:8929   */\n      dup4\n        /* \"#utility.yul\":8910:8930   */\n      tag_212\n      jump\t// in\n    tag_257:\n        /* \"#utility.yul\":8905:8930   */\n      swap3\n      pop\n        /* \"#utility.yul\":8949:8950   */\n      dup3\n        /* \"#utility.yul\":8946:8947   */\n      dup3\n        /* \"#utility.yul\":8943:8951   */\n      lt\n        /* \"#utility.yul\":8940:8974   */\n      iszero\n      tag_258\n      jumpi\n        /* \"#utility.yul\":8954:8972   */\n      tag_259\n      tag_248\n      jump\t// in\n    tag_259:\n        /* \"#utility.yul\":8940:8974   */\n    tag_258:\n        /* \"#utility.yul\":8999:9000   */\n      dup3\n        /* \"#utility.yul\":8996:8997   */\n      dup3\n        /* \"#utility.yul\":8992:9001   */\n      sub\n        /* \"#utility.yul\":8984:9001   */\n      swap1\n      pop\n        /* \"#utility.yul\":8816:9007   */\n      swap3\n      swap2\n      pop\n      pop\n      jump\t// out\n        /* \"#utility.yul\":9013:9109   */\n    tag_172:\n        /* \"#utility.yul\":9050:9057   */\n      0x00\n        /* \"#utility.yul\":9079:9103   */\n      tag_261\n        /* \"#utility.yul\":9097:9102   */\n      dup3\n        /* \"#utility.yul\":9079:9103   */\n      tag_262\n      jump\t// in\n    tag_261:\n        /* \"#utility.yul\":9068:9103   */\n      swap1\n      pop\n        /* \"#utility.yul\":9013:9109   */\n      swap2\n      swap1\n      pop\n      jump\t// out\n        /* \"#utility.yul\":9115:9241   */\n    tag_262:\n        /* \"#utility.yul\":9152:9159   */\n      0x00\n        /* \"#utility.yul\":9192:9234   */\n      0xffffffffffffffffffffffffffffffffffffffff\n        /* \"#utility.yul\":9185:9190   */\n      dup3\n        /* \"#utility.yul\":9181:9235   */\n      and\n        /* \"#utility.yul\":9170:9235   */\n      swap1\n      pop\n        /* \"#utility.yul\":9115:9241   */\n      swap2\n      swap1\n      pop\n      jump\t// out\n        /* \"#utility.yul\":9247:9324   */\n    tag_212:\n        /* \"#utility.yul\":9284:9291   */\n      0x00\n        /* \"#utility.yul\":9313:9318   */\n      dup2\n        /* \"#utility.yul\":9302:9318   */\n      swap1\n      pop\n        /* \"#utility.yul\":9247:9324   */\n      swap2\n      swap1\n      pop\n      jump\t// out\n        /* \"#utility.yul\":9330:9484   */\n    tag_143:\n        /* \"#utility.yul\":9414:9420   */\n      dup3\n        /* \"#utility.yul\":9409:9412   */\n      dup2\n        /* \"#utility.yul\":9404:9407   */\n      dup4\n        /* \"#utility.yul\":9391:9421   */\n      calldatacopy\n        /* \"#utility.yul\":9476:9477   */\n      0x00\n        /* \"#utility.yul\":9467:9473   */\n      dup4\n        /* \"#utility.yul\":9462:9465   */\n      dup4\n        /* \"#utility.yul\":9458:9474   */\n      add\n        /* \"#utility.yul\":9451:9478   */\n      mstore\n        /* \"#utility.yul\":9330:9484   */\n      pop\n      pop\n      pop\n      jump\t// out\n        /* \"#utility.yul\":9490:9797   */\n    tag_180:\n        /* \"#utility.yul\":9558:9559   */\n      0x00\n        /* \"#utility.yul\":9568:9681   */\n    tag_267:\n        /* \"#utility.yul\":9582:9588   */\n      dup4\n        /* \"#utility.yul\":9579:9580   */\n      dup2\n        /* \"#utility.yul\":9576:9589   */\n      lt\n        /* \"#utility.yul\":9568:9681   */\n      iszero\n      tag_269\n      jumpi\n        /* \"#utility.yul\":9667:9668   */\n      dup1\n        /* \"#utility.yul\":9662:9665   */\n      dup3\n        /* \"#utility.yul\":9658:9669   */\n      add\n        /* \"#utility.yul\":9652:9670   */\n      mload\n        /* \"#utility.yul\":9648:9649   */\n      dup2\n        /* \"#utility.yul\":9643:9646   */\n      dup5\n        /* \"#utility.yul\":9639:9650   */\n      add\n        /* \"#utility.yul\":9632:9671   */\n      mstore\n        /* \"#utility.yul\":9604:9606   */\n      0x20\n        /* \"#utility.yul\":9601:9602   */\n      dup2\n        /* \"#utility.yul\":9597:9607   */\n      add\n        /* \"#utility.yul\":9592:9607   */\n      swap1\n      pop\n        /* \"#utility.yul\":9568:9681   */\n      jump(tag_267)\n    tag_269:\n        /* \"#utility.yul\":9699:9705   */\n      dup4\n        /* \"#utility.yul\":9696:9697   */\n      dup2\n        /* \"#utility.yul\":9693:9706   */\n      gt\n        /* \"#utility.yul\":9690:9791   */\n      iszero\n      tag_270\n      jumpi\n        /* \"#utility.yul\":9779:9780   */\n      0x00\n        /* \"#utility.yul\":9770:9776   */\n      dup5\n        /* \"#utility.yul\":9765:9768   */\n      dup5\n        /* \"#utility.yul\":9761:9777   */\n      add\n        /* \"#utility.yul\":9754:9781   */\n      mstore\n        /* \"#utility.yul\":9690:9791   */\n    tag_270:\n        /* \"#utility.yul\":9539:9797   */\n      pop\n        /* \"#utility.yul\":9490:9797   */\n      pop\n      pop\n      pop\n      jump\t// out\n        /* \"#utility.yul\":9803:10084   */\n    tag_233:\n        /* \"#utility.yul\":9886:9913   */\n      tag_272\n        /* \"#utility.yul\":9908:9912   */\n      dup3\n        /* \"#utility.yul\":9886:9913   */\n      tag_182\n      jump\t// in\n    tag_272:\n        /* \"#utility.yul\":9878:9884   */\n      dup2\n        /* \"#utility.yul\":9874:9914   */\n      add\n        /* \"#utility.yul\":10016:10022   */\n      dup2\n        /* \"#utility.yul\":10004:10014   */\n      dup2\n        /* \"#utility.yul\":10001:10023   */\n      lt\n        /* \"#utility.yul\":9980:9998   */\n      0xffffffffffffffff\n        /* \"#utility.yul\":9968:9978   */\n      dup3\n        /* \"#utility.yul\":9965:9999   */\n      gt\n        /* \"#utility.yul\":9962:10024   */\n      or\n        /* \"#utility.yul\":9959:10047   */\n      iszero\n      tag_273\n      jumpi\n        /* \"#utility.yul\":10027:10045   */\n      tag_274\n      tag_238\n      jump\t// in\n    tag_274:\n        /* \"#utility.yul\":9959:10047   */\n    tag_273:\n        /* \"#utility.yul\":10067:10077   */\n      dup1\n        /* \"#utility.yul\":10063:10065   */\n      0x40\n        /* \"#utility.yul\":10056:10078   */\n      mstore\n        /* \"#utility.yul\":9846:10084   */\n      pop\n        /* \"#utility.yul\":9803:10084   */\n      pop\n      pop\n      jump\t// out\n        /* \"#utility.yul\":10090:10323   */\n    tag_76:\n        /* \"#utility.yul\":10129:10132   */\n      0x00\n        /* \"#utility.yul\":10152:10176   */\n      tag_276\n        /* \"#utility.yul\":10170:10175   */\n      dup3\n        /* \"#utility.yul\":10152:10176   */\n      tag_212\n      jump\t// in\n    tag_276:\n        /* \"#utility.yul\":10143:10176   */\n      swap2\n      pop\n        /* \"#utility.yul\":10198:10264   */\n      0xffffffffffffffffffffffffffffffffffffffffffffffffffffffffffffffff\n        /* \"#utility.yul\":10191:10196   */\n      dup3\n        /* \"#utility.yul\":10188:10265   */\n      eq\n        /* \"#utility.yul\":10185:10288   */\n      iszero\n      tag_277\n      jumpi\n        /* \"#utility.yul\":10268:10286   */\n      tag_278\n      tag_248\n      jump\t// in\n    tag_278:\n        /* \"#utility.yul\":10185:10288   */\n    tag_277:\n        /* \"#utility.yul\":10315:10316   */\n      0x01\n        /* \"#utility.yul\":10308:10313   */\n      dup3\n        /* \"#utility.yul\":10304:10317   */\n      add\n        /* \"#utility.yul\":10297:10317   */\n      swap1\n      pop\n        /* \"#utility.yul\":10090:10323   */\n      swap2\n      swap1\n      pop\n      jump\t// out\n        /* \"#utility.yul\":10329:10509   */\n    tag_248:\n        /* \"#utility.yul\":10377:10454   */\n      0x4e487b7100000000000000000000000000000000000000000000000000000000\n        /* \"#utility.yul\":10374:10375   */\n      0x00\n        /* \"#utility.yul\":10367:10455   */\n      mstore\n        /* \"#utility.yul\":10474:10478   */\n      0x11\n        /* \"#utility.yul\":10471:10472   */\n      0x04\n        /* \"#utility.yul\":10464:10479   */\n      mstore\n        /* \"#utility.yul\":10498:10502   */\n      0x24\n        /* \"#utility.yul\":10495:10496   */\n      0x00\n        /* \"#utility.yul\":10488:10503   */\n      revert\n        /* \"#utility.yul\":10515:10695   */\n    tag_254:\n        /* \"#utility.yul\":10563:10640   */\n      0x4e487b7100000000000000000000000000000000000000000000000000000000\n        /* \"#utility.yul\":10560:10561   */\n      0x00\n        /* \"#utility.yul\":10553:10641   */\n      mstore\n        /* \"#utility.yul\":10660:10664   */\n      0x12\n        /* \"#utility.yul\":10657:10658   */\n      0x04\n        /* \"#utility.yul\":10650:10665   */\n      mstore\n        /* \"#utility.yul\":10684:10688   */\n      0x24\n        /* \"#utility.yul\":10681:10682   */\n      0x00\n        /* \"#utility.yul\":10674:10689   */\n      revert\n        /* \"#utility.yul\":10701:10881   */\n    tag_58:\n        /* \"#utility.yul\":10749:10826   */\n      0x4e487b7100000000000000000000000000000000000000000000000000000000\n        /* \"#utility.yul\":10746:10747   */\n      0x00\n        /* \"#utility.yul\":10739:10827   */\n      mstore\n        /* \"#utility.yul\":10846:10850   */\n      0x32\n        /* \"#utility.yul\":10843:10844   */\n      0x04\n        /* \"#utility.yul\":10836:10851   */\n      mstore\n        /* \"#utility.yul\":10870:10874   */\n      0x24\n        /* \"#utility.yul\":10867:10868   */\n      0x00\n        /* \"#utility.yul\":10860:10875   */\n      revert\n        /* \"#utility.yul\":10887:11067   */\n    tag_238:\n        /* \"#utility.yul\":10935:11012   */\n      0x4e487b7100000000000000000000000000000000000000000000000000000000\n        /* \"#utility.yul\":10932:10933   */\n      0x00\n        /* \"#utility.yul\":10925:11013   */\n      mstore\n        /* \"#utility.yul\":11032:11036   */\n      0x41\n        /* \"#utility.yul\":11029:11030   */\n      0x04\n        /* \"#utility.yul\":11022:11037   */\n      mstore\n        /* \"#utility.yul\":11056:11060   */\n      0x24\n        /* \"#utility.yul\":11053:11054   */\n      0x00\n        /* \"#utility.yul\":11046:11061   */\n      revert\n        /* \"#utility.yul\":11073:11190   */\n    tag_148:\n        /* \"#utility.yul\":11182:11183   */\n      0x00\n        /* \"#utility.yul\":11179:11180   */\n      dup1\n        /* \"#utility.yul\":11172:11184   */\n      revert\n        /* \"#utility.yul\":11196:11313   */\n    tag_141:\n        /* \"#utility.yul\":11305:11306   */\n      0x00\n        /* \"#utility.yul\":11302:11303   */\n      dup1\n        /* \"#utility.yul\":11295:11307   */\n      revert\n        /* \"#utility.yul\":11319:11436   */\n    tag_160:\n        /* \"#utility.yul\":11428:11429   */\n      0x00\n        /* \"#utility.yul\":11425:11426   */\n      dup1\n        /* \"#utility.yul\":11418:11430   */\n      revert\n        /* \"#utility.yul\":11442:11559   */\n    tag_157:\n        /* \"#utility.yul\":11551:11552   */\n      0x00\n        /* \"#utility.yul\":11548:11549   */\n      dup1\n        /* \"#utility.yul\":11541:11553   */\n      revert\n        /* \"#utility.yul\":11565:11667   */\n    tag_182:\n        /* \"#utility.yul\":11606:11612   */\n      0x00\n        /* \"#utility.yul\":11657:11659   */\n      0x1f\n        /* \"#utility.yul\":11653:11660   */\n      not\n        /* \"#utility.yul\":11648:11650   */\n      0x1f\n        /* \"#utility.yul\":11641:11646   */\n      dup4\n        /* \"#utility.yul\":11637:11651   */\n      add\n        /* \"#utility.yul\":11633:11661   */\n      and\n        /* \"#utility.yul\":11623:11661   */\n      swap1\n      pop\n        /* \"#utility.yul\":11565:11667   */\n      swap2\n      swap1\n      pop\n      jump\t// out\n        /* \"#utility.yul\":11673:11895   */\n    tag_193:\n        /* \"#utility.yul\":11813:11847   */\n      0x4461792073686f756c642062652067726561746572207468616e207374617274\n        /* \"#utility.yul\":11809:11810   */\n      0x00\n        /* \"#utility.yul\":11801:11807   */\n      dup3\n        /* \"#utility.yul\":11797:11811   */\n      add\n        /* \"#utility.yul\":11790:11848   */\n      mstore\n        /* \"#utility.yul\":11882:11887   */\n      0x4461790000000000000000000000000000000000000000000000000000000000\n        /* \"#utility.yul\":11877:11879   */\n      0x20\n        /* \"#utility.yul\":11869:11875   */\n      dup3\n        /* \"#utility.yul\":11865:11880   */\n      add\n        /* \"#utility.yul\":11858:11888   */\n      mstore\n        /* \"#utility.yul\":11673:11895   */\n      pop\n      jump\t// out\n        /* \"#utility.yul\":11901:12080   */\n    tag_198:\n        /* \"#utility.yul\":12041:12072   */\n      0x44617461206e6f742070726573656e7420666f72206c6f636174696f6e000000\n        /* \"#utility.yul\":12037:12038   */\n      0x00\n        /* \"#utility.yul\":12029:12035   */\n      dup3\n        /* \"#utility.yul\":12025:12039   */\n      add\n        /* \"#utility.yul\":12018:12073   */\n      mstore\n        /* \"#utility.yul\":11901:12080   */\n      pop\n      jump\t// out\n        /* \"#utility.yul\":12086:12259   */\n    tag_203:\n        /* \"#utility.yul\":12226:12251   */\n      0x4f6e6c792061646d696e2063616e207365742064617461000000000000000000\n        /* \"#utility.yul\":12222:12223   */\n      0x00\n        /* \"#utility.yul\":12214:12220   */\n      dup3\n        /* \"#utility.yul\":12210:12224   */\n      add\n        /* \"#utility.yul\":12203:12252   */\n      mstore\n        /* \"#utility.yul\":12086:12259   */\n      pop\n      jump\t// out\n        /* \"#utility.yul\":12265:12485   */\n    tag_208:\n        /* \"#utility.yul\":12405:12439   */\n      0x53657665726974792065786365656473206d61782076616c7565206f66203130\n        /* \"#utility.yul\":12401:12402   */\n      0x00\n        /* \"#utility.yul\":12393:12399   */\n      dup3\n        /* \"#utility.yul\":12389:12403   */\n      add\n        /* \"#utility.yul\":12382:12440   */\n      mstore\n        /* \"#utility.yul\":12474:12477   */\n      0x3000000000000000000000000000000000000000000000000000000000000000\n        /* \"#utility.yul\":12469:12471   */\n      0x20\n        /* \"#utility.yul\":12461:12467   */\n      dup3\n        /* \"#utility.yul\":12457:12472   */\n      add\n        /* \"#utility.yul\":12450:12478   */\n      mstore\n        /* \"#utility.yul\":12265:12485   */\n      pop\n      jump\t// out\n        /* \"#utility.yul\":12491:12613   */\n    tag_153:\n        /* \"#utility.yul\":12564:12588   */\n      tag_293\n        /* \"#utility.yul\":12582:12587   */\n      dup2\n        /* \"#utility.yul\":12564:12588   */\n      tag_212\n      jump\t// in\n    tag_293:\n        /* \"#utility.yul\":12557:12562   */\n      dup2\n        /* \"#utility.yul\":12554:12589   */\n      eq\n        /* \"#utility.yul\":12544:12607   */\n      tag_294\n      jumpi\n        /* \"#utility.yul\":12603:12604   */\n      0x00\n        /* \"#utility.yul\":12600:12601   */\n      dup1\n        /* \"#utility.yul\":12593:12605   */\n      revert\n        /* \"#utility.yul\":12544:12607   */\n    tag_294:\n        /* \"#utility.yul\":12491:12613   */\n      pop\n      jump\t// out\n    stop\n    data_5919e3cd15dc26af631ef3349b06b63c5323aa12a598d003ad7324d9ad86117a 41686d65646e616761722c20416b6f6c612c20416d7261766174692c20417572616e67616261642c20426565642c204268616e646172612c2042756c6468616e612c204368616e6472617075722c204468756c652c20476164636869726f6c692c20476f6e6469612c2048696e676f6c692c204a616c67616f6e2c204a616c6e612c204b6f6c68617075722c204c617475722c204d756d62616920436974792c204d756d62616920537562757262616e2c204e61677075722c204e616e6465642c204e616e6475726261722c204e617368696b2c204f736d616e616261642c2050616c676861722c205061726268616e692c2050756e652c205261696761642c205261746e61676972692c2053616e676c692c205361746172612c2053696e646875647572672c20536f6c617075722c205468616e652c205761726468612c2057617368696d2c2059617661746d616c\n\n    auxdata: 0xa2646970667358221220540fc8a7605e0aac9b54189bc41c86909a3b3a2cfd5808f718cd01e48bcc314264736f6c63430008070033\n}\n",
				"bytecode": {
					"linkReferences": {},
					"object": "608060405234801561001057600080fd5b50336000806101000a81548173ffffffffffffffffffffffffffffffffffffffff021916908373ffffffffffffffffffffffffffffffffffffffff16021790555061012c4261005f919061006a565b6001819055506100d4565b60006100758261009b565b91506100808361009b565b9250826100905761008f6100a5565b5b828204905092915050565b6000819050919050565b7f4e487b7100000000000000000000000000000000000000000000000000000000600052601260045260246000fd5b6111b6806100e36000396000f3fe608060405234801561001057600080fd5b506004361061007d5760003560e01c8063a92563ed1161005b578063a92563ed146100ec578063a9f5dec61461010a578063ad6781d41461013a578063f851a4401461016a5761007d565b80630539272a146100825780633a79af38146100a0578063830f15b4146100d0575b600080fd5b61008a610188565b6040516100979190610bfd565b60405180910390f35b6100ba60048036038101906100b59190610970565b61018e565b6040516100c79190610bfd565b60405180910390f35b6100ea60048036038101906100e591906109b9565b6101c2565b005b6100f46104be565b6040516101019190610b5b565b60405180910390f35b610124600480360381019061011f91906109b9565b6104e1565b6040516101319190610bfd565b60405180910390f35b610154600480360381019061014f9190610970565b61067e565b6040516101619190610bfd565b60405180910390f35b610172610843565b60405161017f9190610b40565b60405180910390f35b60015481565b6002818051602081018201805184825260208301602085012081835280955050505050506000915090508060000154905081565b60008054906101000a900473ffffffffffffffffffffffffffffffffffffffff1673ffffffffffffffffffffffffffffffffffffffff163373ffffffffffffffffffffffffffffffffffffffff1614610250576040517f08c379a000000000000000000000000000000000000000000000000000000000815260040161024790610bbd565b60405180910390fd5b6064811115610294576040517f08c379a000000000000000000000000000000000000000000000000000000000815260040161028b90610bdd565b60405180910390fd5b600061012c426102a49190610ceb565b90506000806002856040516102b99190610b29565b90815260200160405180910390206000015414610345576002846040516102e09190610b29565b908152602001604051809103902060010160016002866040516103039190610b29565b9081526020016040518091039020600101805490506103229190610d1c565b8154811061033357610332610ea6565b5b906000526020600020015490506103b3565b61034d610867565b6001805461035b9190610d1c565b816000018181525050806002866040516103759190610b29565b90815260200160405180910390206000820151816000015560208201518160010190805190602001906103a9929190610881565b5090505060009150505b600060016002866040516103c79190610b29565b9081526020016040518091039020600001546103e39190610c95565b90505b82811015610449576002856040516103fe9190610b29565b9081526020016040518091039020600101829080600181540180825580915050600190039060005260206000200160009091909190915055808061044190610dff565b9150506103e6565b5060028460405161045a9190610b29565b9081526020016040518091039020600101839080600181540180825580915050600190039060005260206000200160009091909190915055816002856040516104a39190610b29565b90815260200160405180910390206000018190555050505050565b606060405180610180016040528061015081526020016110316101509139905090565b6000806002846040516104f49190610b29565b9081526020016040518091039020600001541415610547576040517f08c379a000000000000000000000000000000000000000000000000000000000815260040161053e90610b9d565b60405180910390fd5b81600154111561058c576040517f08c379a000000000000000000000000000000000000000000000000000000000815260040161058390610b7d565b60405180910390fd5b8160028460405161059d9190610b29565b9081526020016040518091039020600001541115610607576002836040516105c59190610b29565b9081526020016040518091039020600101600154836105e49190610d1c565b815481106105f5576105f4610ea6565b5b90600052602060002001549050610678565b6002836040516106179190610b29565b9081526020016040518091039020600101600160028560405161063a9190610b29565b9081526020016040518091039020600101805490506106599190610d1c565b8154811061066a57610669610ea6565b5b906000526020600020015490505b92915050565b6000806002836040516106919190610b29565b90815260200160405180910390206000015414156106e4576040517f08c379a00000000000000000000000000000000000000000000000000000000081526004016106db90610b9d565b60405180910390fd5b60006002836040516106f69190610b29565b908152602001604051809103902060010180549050141561071a576000905061083e565b600080600a60028560405161072f9190610b29565b9081526020016040518091039020600101805490501061075057600a610776565b6002846040516107609190610b29565b9081526020016040518091039020600101805490505b905060008160028660405161078b9190610b29565b9081526020016040518091039020600101805490506107aa9190610d1c565b90505b6002856040516107bd9190610b29565b908152602001604051809103902060010180549050811015610837576002856040516107e99190610b29565b9081526020016040518091039020600101818154811061080c5761080b610ea6565b5b9060005260206000200154836108229190610c95565b9250808061082f90610dff565b9150506107ad565b5081925050505b919050565b60008054906101000a900473ffffffffffffffffffffffffffffffffffffffff1681565b604051806040016040528060008152602001606081525090565b8280548282559060005260206000209081019282156108bd579160200282015b828111156108bc5782518255916020019190600101906108a1565b5b5090506108ca91906108ce565b5090565b5b808211156108e75760008160009055506001016108cf565b5090565b60006108fe6108f984610c3d565b610c18565b90508281526020810184848401111561091a57610919610f09565b5b610925848285610d8c565b509392505050565b600082601f83011261094257610941610f04565b5b81356109528482602086016108eb565b91505092915050565b60008135905061096a81611019565b92915050565b60006020828403121561098657610985610f13565b5b600082013567ffffffffffffffff8111156109a4576109a3610f0e565b5b6109b08482850161092d565b91505092915050565b600080604083850312156109d0576109cf610f13565b5b600083013567ffffffffffffffff8111156109ee576109ed610f0e565b5b6109fa8582860161092d565b9250506020610a0b8582860161095b565b9150509250929050565b610a1e81610d50565b82525050565b6000610a2f82610c6e565b610a398185610c79565b9350610a49818560208601610d9b565b610a5281610f18565b840191505092915050565b6000610a6882610c6e565b610a728185610c8a565b9350610a82818560208601610d9b565b80840191505092915050565b6000610a9b602383610c79565b9150610aa682610f29565b604082019050919050565b6000610abe601d83610c79565b9150610ac982610f78565b602082019050919050565b6000610ae1601783610c79565b9150610aec82610fa1565b602082019050919050565b6000610b04602183610c79565b9150610b0f82610fca565b604082019050919050565b610b2381610d82565b82525050565b6000610b358284610a5d565b915081905092915050565b6000602082019050610b556000830184610a15565b92915050565b60006020820190508181036000830152610b758184610a24565b905092915050565b60006020820190508181036000830152610b9681610a8e565b9050919050565b60006020820190508181036000830152610bb681610ab1565b9050919050565b60006020820190508181036000830152610bd681610ad4565b9050919050565b60006020820190508181036000830152610bf681610af7565b9050919050565b6000602082019050610c126000830184610b1a565b92915050565b6000610c22610c33565b9050610c2e8282610dce565b919050565b6000604051905090565b600067ffffffffffffffff821115610c5857610c57610ed5565b5b610c6182610f18565b9050602081019050919050565b600081519050919050565b600082825260208201905092915050565b600081905092915050565b6000610ca082610d82565b9150610cab83610d82565b9250827fffffffffffffffffffffffffffffffffffffffffffffffffffffffffffffffff03821115610ce057610cdf610e48565b5b828201905092915050565b6000610cf682610d82565b9150610d0183610d82565b925082610d1157610d10610e77565b5b828204905092915050565b6000610d2782610d82565b9150610d3283610d82565b925082821015610d4557610d44610e48565b5b828203905092915050565b6000610d5b82610d62565b9050919050565b600073ffffffffffffffffffffffffffffffffffffffff82169050919050565b6000819050919050565b82818337600083830152505050565b60005b83811015610db9578082015181840152602081019050610d9e565b83811115610dc8576000848401525b50505050565b610dd782610f18565b810181811067ffffffffffffffff82111715610df657610df5610ed5565b5b80604052505050565b6000610e0a82610d82565b91507fffffffffffffffffffffffffffffffffffffffffffffffffffffffffffffffff821415610e3d57610e3c610e48565b5b600182019050919050565b7f4e487b7100000000000000000000000000000000000000000000000000000000600052601160045260246000fd5b7f4e487b7100000000000000000000000000000000000000000000000000000000600052601260045260246000fd5b7f4e487b7100000000000000000000000000000000000000000000000000000000600052603260045260246000fd5b7f4e487b7100000000000000000000000000000000000000000000000000000000600052604160045260246000fd5b600080fd5b600080fd5b600080fd5b600080fd5b6000601f19601f8301169050919050565b7f4461792073686f756c642062652067726561746572207468616e20737461727460008201527f4461790000000000000000000000000000000000000000000000000000000000602082015250565b7f44617461206e6f742070726573656e7420666f72206c6f636174696f6e000000600082015250565b7f4f6e6c792061646d696e2063616e207365742064617461000000000000000000600082015250565b7f53657665726974792065786365656473206d61782076616c7565206f6620313060008201527f3000000000000000000000000000000000000000000000000000000000000000602082015250565b61102281610d82565b811461102d57600080fd5b5056fe41686d65646e616761722c20416b6f6c612c20416d7261766174692c20417572616e67616261642c20426565642c204268616e646172612c2042756c6468616e612c204368616e6472617075722c204468756c652c20476164636869726f6c692c20476f6e6469612c2048696e676f6c692c204a616c67616f6e2c204a616c6e612c204b6f6c68617075722c204c617475722c204d756d62616920436974792c204d756d62616920537562757262616e2c204e61677075722c204e616e6465642c204e616e6475726261722c204e617368696b2c204f736d616e616261642c2050616c676861722c205061726268616e692c2050756e652c205261696761642c205261746e61676972692c2053616e676c692c205361746172612c2053696e646875647572672c20536f6c617075722c205468616e652c205761726468612c2057617368696d2c2059617661746d616ca2646970667358221220540fc8a7605e0aac9b54189bc41c86909a3b3a2cfd5808f718cd01e48bcc314264736f6c63430008070033",
					"opcodes": "PUSH1 0x80 PUSH1 0x40 MSTORE CALLVALUE DUP1 ISZERO PUSH2 0x10 JUMPI PUSH1 0x0 DUP1 REVERT JUMPDEST POP CALLER PUSH1 0x0 DUP1 PUSH2 0x100 EXP DUP2 SLOAD DUP2 PUSH20 0xFFFFFFFFFFFFFFFFFFFFFFFFFFFFFFFFFFFFFFFF MUL NOT AND SWAP1 DUP4 PUSH20 0xFFFFFFFFFFFFFFFFFFFFFFFFFFFFFFFFFFFFFFFF AND MUL OR SWAP1 SSTORE POP PUSH2 0x12C TIMESTAMP PUSH2 0x5F SWAP2 SWAP1 PUSH2 0x6A JUMP JUMPDEST PUSH1 0x1 DUP2 SWAP1 SSTORE POP PUSH2 0xD4 JUMP JUMPDEST PUSH1 0x0 PUSH2 0x75 DUP3 PUSH2 0x9B JUMP JUMPDEST SWAP2 POP PUSH2 0x80 DUP4 PUSH2 0x9B JUMP JUMPDEST SWAP3 POP DUP3 PUSH2 0x90 JUMPI PUSH2 0x8F PUSH2 0xA5 JUMP JUMPDEST JUMPDEST DUP3 DUP3 DIV SWAP1 POP SWAP3 SWAP2 POP POP JUMP JUMPDEST PUSH1 0x0 DUP2 SWAP1 POP SWAP2 SWAP1 POP JUMP JUMPDEST PUSH32 0x4E487B7100000000000000000000000000000000000000000000000000000000 PUSH1 0x0 MSTORE PUSH1 0x12 PUSH1 0x4 MSTORE PUSH1 0x24 PUSH1 0x0 REVERT JUMPDEST PUSH2 0x11B6 DUP1 PUSH2 0xE3 PUSH1 0x0 CODECOPY PUSH1 0x0 RETURN INVALID PUSH1 0x80 PUSH1 0x40 MSTORE CALLVALUE DUP1 ISZERO PUSH2 0x10 JUMPI PUSH1 0x0 DUP1 REVERT JUMPDEST POP PUSH1 0x4 CALLDATASIZE LT PUSH2 0x7D JUMPI PUSH1 0x0 CALLDATALOAD PUSH1 0xE0 SHR DUP1 PUSH4 0xA92563ED GT PUSH2 0x5B JUMPI DUP1 PUSH4 0xA92563ED EQ PUSH2 0xEC JUMPI DUP1 PUSH4 0xA9F5DEC6 EQ PUSH2 0x10A JUMPI DUP1 PUSH4 0xAD6781D4 EQ PUSH2 0x13A JUMPI DUP1 PUSH4 0xF851A440 EQ PUSH2 0x16A JUMPI PUSH2 0x7D JUMP JUMPDEST DUP1 PUSH4 0x539272A EQ PUSH2 0x82 JUMPI DUP1 PUSH4 0x3A79AF38 EQ PUSH2 0xA0 JUMPI DUP1 PUSH4 0x830F15B4 EQ PUSH2 0xD0 JUMPI JUMPDEST PUSH1 0x0 DUP1 REVERT JUMPDEST PUSH2 0x8A PUSH2 0x188 JUMP JUMPDEST PUSH1 0x40 MLOAD PUSH2 0x97 SWAP2 SWAP1 PUSH2 0xBFD JUMP JUMPDEST PUSH1 0x40 MLOAD DUP1 SWAP2 SUB SWAP1 RETURN JUMPDEST PUSH2 0xBA PUSH1 0x4 DUP1 CALLDATASIZE SUB DUP2 ADD SWAP1 PUSH2 0xB5 SWAP2 SWAP1 PUSH2 0x970 JUMP JUMPDEST PUSH2 0x18E JUMP JUMPDEST PUSH1 0x40 MLOAD PUSH2 0xC7 SWAP2 SWAP1 PUSH2 0xBFD JUMP JUMPDEST PUSH1 0x40 MLOAD DUP1 SWAP2 SUB SWAP1 RETURN JUMPDEST PUSH2 0xEA PUSH1 0x4 DUP1 CALLDATASIZE SUB DUP2 ADD SWAP1 PUSH2 0xE5 SWAP2 SWAP1 PUSH2 0x9B9 JUMP JUMPDEST PUSH2 0x1C2 JUMP JUMPDEST STOP JUMPDEST PUSH2 0xF4 PUSH2 0x4BE JUMP JUMPDEST PUSH1 0x40 MLOAD PUSH2 0x101 SWAP2 SWAP1 PUSH2 0xB5B JUMP JUMPDEST PUSH1 0x40 MLOAD DUP1 SWAP2 SUB SWAP1 RETURN JUMPDEST PUSH2 0x124 PUSH1 0x4 DUP1 CALLDATASIZE SUB DUP2 ADD SWAP1 PUSH2 0x11F SWAP2 SWAP1 PUSH2 0x9B9 JUMP JUMPDEST PUSH2 0x4E1 JUMP JUMPDEST PUSH1 0x40 MLOAD PUSH2 0x131 SWAP2 SWAP1 PUSH2 0xBFD JUMP JUMPDEST PUSH1 0x40 MLOAD DUP1 SWAP2 SUB SWAP1 RETURN JUMPDEST PUSH2 0x154 PUSH1 0x4 DUP1 CALLDATASIZE SUB DUP2 ADD SWAP1 PUSH2 0x14F SWAP2 SWAP1 PUSH2 0x970 JUMP JUMPDEST PUSH2 0x67E JUMP JUMPDEST PUSH1 0x40 MLOAD PUSH2 0x161 SWAP2 SWAP1 PUSH2 0xBFD JUMP JUMPDEST PUSH1 0x40 MLOAD DUP1 SWAP2 SUB SWAP1 RETURN JUMPDEST PUSH2 0x172 PUSH2 0x843 JUMP JUMPDEST PUSH1 0x40 MLOAD PUSH2 0x17F SWAP2 SWAP1 PUSH2 0xB40 JUMP JUMPDEST PUSH1 0x40 MLOAD DUP1 SWAP2 SUB SWAP1 RETURN JUMPDEST PUSH1 0x1 SLOAD DUP2 JUMP JUMPDEST PUSH1 0x2 DUP2 DUP1 MLOAD PUSH1 0x20 DUP2 ADD DUP3 ADD DUP1 MLOAD DUP5 DUP3 MSTORE PUSH1 0x20 DUP4 ADD PUSH1 0x20 DUP6 ADD KECCAK256 DUP2 DUP4 MSTORE DUP1 SWAP6 POP POP POP POP POP POP PUSH1 0x0 SWAP2 POP SWAP1 POP DUP1 PUSH1 0x0 ADD SLOAD SWAP1 POP DUP2 JUMP JUMPDEST PUSH1 0x0 DUP1 SLOAD SWAP1 PUSH2 0x100 EXP SWAP1 DIV PUSH20 0xFFFFFFFFFFFFFFFFFFFFFFFFFFFFFFFFFFFFFFFF AND PUSH20 0xFFFFFFFFFFFFFFFFFFFFFFFFFFFFFFFFFFFFFFFF AND CALLER PUSH20 0xFFFFFFFFFFFFFFFFFFFFFFFFFFFFFFFFFFFFFFFF AND EQ PUSH2 0x250 JUMPI PUSH1 0x40 MLOAD PUSH32 0x8C379A000000000000000000000000000000000000000000000000000000000 DUP2 MSTORE PUSH1 0x4 ADD PUSH2 0x247 SWAP1 PUSH2 0xBBD JUMP JUMPDEST PUSH1 0x40 MLOAD DUP1 SWAP2 SUB SWAP1 REVERT JUMPDEST PUSH1 0x64 DUP2 GT ISZERO PUSH2 0x294 JUMPI PUSH1 0x40 MLOAD PUSH32 0x8C379A000000000000000000000000000000000000000000000000000000000 DUP2 MSTORE PUSH1 0x4 ADD PUSH2 0x28B SWAP1 PUSH2 0xBDD JUMP JUMPDEST PUSH1 0x40 MLOAD DUP1 SWAP2 SUB SWAP1 REVERT JUMPDEST PUSH1 0x0 PUSH2 0x12C TIMESTAMP PUSH2 0x2A4 SWAP2 SWAP1 PUSH2 0xCEB JUMP JUMPDEST SWAP1 POP PUSH1 0x0 DUP1 PUSH1 0x2 DUP6 PUSH1 0x40 MLOAD PUSH2 0x2B9 SWAP2 SWAP1 PUSH2 0xB29 JUMP JUMPDEST SWAP1 DUP2 MSTORE PUSH1 0x20 ADD PUSH1 0x40 MLOAD DUP1 SWAP2 SUB SWAP1 KECCAK256 PUSH1 0x0 ADD SLOAD EQ PUSH2 0x345 JUMPI PUSH1 0x2 DUP5 PUSH1 0x40 MLOAD PUSH2 0x2E0 SWAP2 SWAP1 PUSH2 0xB29 JUMP JUMPDEST SWAP1 DUP2 MSTORE PUSH1 0x20 ADD PUSH1 0x40 MLOAD DUP1 SWAP2 SUB SWAP1 KECCAK256 PUSH1 0x1 ADD PUSH1 0x1 PUSH1 0x2 DUP7 PUSH1 0x40 MLOAD PUSH2 0x303 SWAP2 SWAP1 PUSH2 0xB29 JUMP JUMPDEST SWAP1 DUP2 MSTORE PUSH1 0x20 ADD PUSH1 0x40 MLOAD DUP1 SWAP2 SUB SWAP1 KECCAK256 PUSH1 0x1 ADD DUP1 SLOAD SWAP1 POP PUSH2 0x322 SWAP2 SWAP1 PUSH2 0xD1C JUMP JUMPDEST DUP2 SLOAD DUP2 LT PUSH2 0x333 JUMPI PUSH2 0x332 PUSH2 0xEA6 JUMP JUMPDEST JUMPDEST SWAP1 PUSH1 0x0 MSTORE PUSH1 0x20 PUSH1 0x0 KECCAK256 ADD SLOAD SWAP1 POP PUSH2 0x3B3 JUMP JUMPDEST PUSH2 0x34D PUSH2 0x867 JUMP JUMPDEST PUSH1 0x1 DUP1 SLOAD PUSH2 0x35B SWAP2 SWAP1 PUSH2 0xD1C JUMP JUMPDEST DUP2 PUSH1 0x0 ADD DUP2 DUP2 MSTORE POP POP DUP1 PUSH1 0x2 DUP7 PUSH1 0x40 MLOAD PUSH2 0x375 SWAP2 SWAP1 PUSH2 0xB29 JUMP JUMPDEST SWAP1 DUP2 MSTORE PUSH1 0x20 ADD PUSH1 0x40 MLOAD DUP1 SWAP2 SUB SWAP1 KECCAK256 PUSH1 0x0 DUP3 ADD MLOAD DUP2 PUSH1 0x0 ADD SSTORE PUSH1 0x20 DUP3 ADD MLOAD DUP2 PUSH1 0x1 ADD SWAP1 DUP1 MLOAD SWAP1 PUSH1 0x20 ADD SWAP1 PUSH2 0x3A9 SWAP3 SWAP2 SWAP1 PUSH2 0x881 JUMP JUMPDEST POP SWAP1 POP POP PUSH1 0x0 SWAP2 POP POP JUMPDEST PUSH1 0x0 PUSH1 0x1 PUSH1 0x2 DUP7 PUSH1 0x40 MLOAD PUSH2 0x3C7 SWAP2 SWAP1 PUSH2 0xB29 JUMP JUMPDEST SWAP1 DUP2 MSTORE PUSH1 0x20 ADD PUSH1 0x40 MLOAD DUP1 SWAP2 SUB SWAP1 KECCAK256 PUSH1 0x0 ADD SLOAD PUSH2 0x3E3 SWAP2 SWAP1 PUSH2 0xC95 JUMP JUMPDEST SWAP1 POP JUMPDEST DUP3 DUP2 LT ISZERO PUSH2 0x449 JUMPI PUSH1 0x2 DUP6 PUSH1 0x40 MLOAD PUSH2 0x3FE SWAP2 SWAP1 PUSH2 0xB29 JUMP JUMPDEST SWAP1 DUP2 MSTORE PUSH1 0x20 ADD PUSH1 0x40 MLOAD DUP1 SWAP2 SUB SWAP1 KECCAK256 PUSH1 0x1 ADD DUP3 SWAP1 DUP1 PUSH1 0x1 DUP2 SLOAD ADD DUP1 DUP3 SSTORE DUP1 SWAP2 POP POP PUSH1 0x1 SWAP1 SUB SWAP1 PUSH1 0x0 MSTORE PUSH1 0x20 PUSH1 0x0 KECCAK256 ADD PUSH1 0x0 SWAP1 SWAP2 SWAP1 SWAP2 SWAP1 SWAP2 POP SSTORE DUP1 DUP1 PUSH2 0x441 SWAP1 PUSH2 0xDFF JUMP JUMPDEST SWAP2 POP POP PUSH2 0x3E6 JUMP JUMPDEST POP PUSH1 0x2 DUP5 PUSH1 0x40 MLOAD PUSH2 0x45A SWAP2 SWAP1 PUSH2 0xB29 JUMP JUMPDEST SWAP1 DUP2 MSTORE PUSH1 0x20 ADD PUSH1 0x40 MLOAD DUP1 SWAP2 SUB SWAP1 KECCAK256 PUSH1 0x1 ADD DUP4 SWAP1 DUP1 PUSH1 0x1 DUP2 SLOAD ADD DUP1 DUP3 SSTORE DUP1 SWAP2 POP POP PUSH1 0x1 SWAP1 SUB SWAP1 PUSH1 0x0 MSTORE PUSH1 0x20 PUSH1 0x0 KECCAK256 ADD PUSH1 0x0 SWAP1 SWAP2 SWAP1 SWAP2 SWAP1 SWAP2 POP SSTORE DUP2 PUSH1 0x2 DUP6 PUSH1 0x40 MLOAD PUSH2 0x4A3 SWAP2 SWAP1 PUSH2 0xB29 JUMP JUMPDEST SWAP1 DUP2 MSTORE PUSH1 0x20 ADD PUSH1 0x40 MLOAD DUP1 SWAP2 SUB SWAP1 KECCAK256 PUSH1 0x0 ADD DUP2 SWAP1 SSTORE POP POP POP POP POP JUMP JUMPDEST PUSH1 0x60 PUSH1 0x40 MLOAD DUP1 PUSH2 0x180 ADD PUSH1 0x40 MSTORE DUP1 PUSH2 0x150 DUP2 MSTORE PUSH1 0x20 ADD PUSH2 0x1031 PUSH2 0x150 SWAP2 CODECOPY SWAP1 POP SWAP1 JUMP JUMPDEST PUSH1 0x0 DUP1 PUSH1 0x2 DUP5 PUSH1 0x40 MLOAD PUSH2 0x4F4 SWAP2 SWAP1 PUSH2 0xB29 JUMP JUMPDEST SWAP1 DUP2 MSTORE PUSH1 0x20 ADD PUSH1 0x40 MLOAD DUP1 SWAP2 SUB SWAP1 KECCAK256 PUSH1 0x0 ADD SLOAD EQ ISZERO PUSH2 0x547 JUMPI PUSH1 0x40 MLOAD PUSH32 0x8C379A000000000000000000000000000000000000000000000000000000000 DUP2 MSTORE PUSH1 0x4 ADD PUSH2 0x53E SWAP1 PUSH2 0xB9D JUMP JUMPDEST PUSH1 0x40 MLOAD DUP1 SWAP2 SUB SWAP1 REVERT JUMPDEST DUP2 PUSH1 0x1 SLOAD GT ISZERO PUSH2 0x58C JUMPI PUSH1 0x40 MLOAD PUSH32 0x8C379A000000000000000000000000000000000000000000000000000000000 DUP2 MSTORE PUSH1 0x4 ADD PUSH2 0x583 SWAP1 PUSH2 0xB7D JUMP JUMPDEST PUSH1 0x40 MLOAD DUP1 SWAP2 SUB SWAP1 REVERT JUMPDEST DUP2 PUSH1 0x2 DUP5 PUSH1 0x40 MLOAD PUSH2 0x59D SWAP2 SWAP1 PUSH2 0xB29 JUMP JUMPDEST SWAP1 DUP2 MSTORE PUSH1 0x20 ADD PUSH1 0x40 MLOAD DUP1 SWAP2 SUB SWAP1 KECCAK256 PUSH1 0x0 ADD SLOAD GT ISZERO PUSH2 0x607 JUMPI PUSH1 0x2 DUP4 PUSH1 0x40 MLOAD PUSH2 0x5C5 SWAP2 SWAP1 PUSH2 0xB29 JUMP JUMPDEST SWAP1 DUP2 MSTORE PUSH1 0x20 ADD PUSH1 0x40 MLOAD DUP1 SWAP2 SUB SWAP1 KECCAK256 PUSH1 0x1 ADD PUSH1 0x1 SLOAD DUP4 PUSH2 0x5E4 SWAP2 SWAP1 PUSH2 0xD1C JUMP JUMPDEST DUP2 SLOAD DUP2 LT PUSH2 0x5F5 JUMPI PUSH2 0x5F4 PUSH2 0xEA6 JUMP JUMPDEST JUMPDEST SWAP1 PUSH1 0x0 MSTORE PUSH1 0x20 PUSH1 0x0 KECCAK256 ADD SLOAD SWAP1 POP PUSH2 0x678 JUMP JUMPDEST PUSH1 0x2 DUP4 PUSH1 0x40 MLOAD PUSH2 0x617 SWAP2 SWAP1 PUSH2 0xB29 JUMP JUMPDEST SWAP1 DUP2 MSTORE PUSH1 0x20 ADD PUSH1 0x40 MLOAD DUP1 SWAP2 SUB SWAP1 KECCAK256 PUSH1 0x1 ADD PUSH1 0x1 PUSH1 0x2 DUP6 PUSH1 0x40 MLOAD PUSH2 0x63A SWAP2 SWAP1 PUSH2 0xB29 JUMP JUMPDEST SWAP1 DUP2 MSTORE PUSH1 0x20 ADD PUSH1 0x40 MLOAD DUP1 SWAP2 SUB SWAP1 KECCAK256 PUSH1 0x1 ADD DUP1 SLOAD SWAP1 POP PUSH2 0x659 SWAP2 SWAP1 PUSH2 0xD1C JUMP JUMPDEST DUP2 SLOAD DUP2 LT PUSH2 0x66A JUMPI PUSH2 0x669 PUSH2 0xEA6 JUMP JUMPDEST JUMPDEST SWAP1 PUSH1 0x0 MSTORE PUSH1 0x20 PUSH1 0x0 KECCAK256 ADD SLOAD SWAP1 POP JUMPDEST SWAP3 SWAP2 POP POP JUMP JUMPDEST PUSH1 0x0 DUP1 PUSH1 0x2 DUP4 PUSH1 0x40 MLOAD PUSH2 0x691 SWAP2 SWAP1 PUSH2 0xB29 JUMP JUMPDEST SWAP1 DUP2 MSTORE PUSH1 0x20 ADD PUSH1 0x40 MLOAD DUP1 SWAP2 SUB SWAP1 KECCAK256 PUSH1 0x0 ADD SLOAD EQ ISZERO PUSH2 0x6E4 JUMPI PUSH1 0x40 MLOAD PUSH32 0x8C379A000000000000000000000000000000000000000000000000000000000 DUP2 MSTORE PUSH1 0x4 ADD PUSH2 0x6DB SWAP1 PUSH2 0xB9D JUMP JUMPDEST PUSH1 0x40 MLOAD DUP1 SWAP2 SUB SWAP1 REVERT JUMPDEST PUSH1 0x0 PUSH1 0x2 DUP4 PUSH1 0x40 MLOAD PUSH2 0x6F6 SWAP2 SWAP1 PUSH2 0xB29 JUMP JUMPDEST SWAP1 DUP2 MSTORE PUSH1 0x20 ADD PUSH1 0x40 MLOAD DUP1 SWAP2 SUB SWAP1 KECCAK256 PUSH1 0x1 ADD DUP1 SLOAD SWAP1 POP EQ ISZERO PUSH2 0x71A JUMPI PUSH1 0x0 SWAP1 POP PUSH2 0x83E JUMP JUMPDEST PUSH1 0x0 DUP1 PUSH1 0xA PUSH1 0x2 DUP6 PUSH1 0x40 MLOAD PUSH2 0x72F SWAP2 SWAP1 PUSH2 0xB29 JUMP JUMPDEST SWAP1 DUP2 MSTORE PUSH1 0x20 ADD PUSH1 0x40 MLOAD DUP1 SWAP2 SUB SWAP1 KECCAK256 PUSH1 0x1 ADD DUP1 SLOAD SWAP1 POP LT PUSH2 0x750 JUMPI PUSH1 0xA PUSH2 0x776 JUMP JUMPDEST PUSH1 0x2 DUP5 PUSH1 0x40 MLOAD PUSH2 0x760 SWAP2 SWAP1 PUSH2 0xB29 JUMP JUMPDEST SWAP1 DUP2 MSTORE PUSH1 0x20 ADD PUSH1 0x40 MLOAD DUP1 SWAP2 SUB SWAP1 KECCAK256 PUSH1 0x1 ADD DUP1 SLOAD SWAP1 POP JUMPDEST SWAP1 POP PUSH1 0x0 DUP2 PUSH1 0x2 DUP7 PUSH1 0x40 MLOAD PUSH2 0x78B SWAP2 SWAP1 PUSH2 0xB29 JUMP JUMPDEST SWAP1 DUP2 MSTORE PUSH1 0x20 ADD PUSH1 0x40 MLOAD DUP1 SWAP2 SUB SWAP1 KECCAK256 PUSH1 0x1 ADD DUP1 SLOAD SWAP1 POP PUSH2 0x7AA SWAP2 SWAP1 PUSH2 0xD1C JUMP JUMPDEST SWAP1 POP JUMPDEST PUSH1 0x2 DUP6 PUSH1 0x40 MLOAD PUSH2 0x7BD SWAP2 SWAP1 PUSH2 0xB29 JUMP JUMPDEST SWAP1 DUP2 MSTORE PUSH1 0x20 ADD PUSH1 0x40 MLOAD DUP1 SWAP2 SUB SWAP1 KECCAK256 PUSH1 0x1 ADD DUP1 SLOAD SWAP1 POP DUP2 LT ISZERO PUSH2 0x837 JUMPI PUSH1 0x2 DUP6 PUSH1 0x40 MLOAD PUSH2 0x7E9 SWAP2 SWAP1 PUSH2 0xB29 JUMP JUMPDEST SWAP1 DUP2 MSTORE PUSH1 0x20 ADD PUSH1 0x40 MLOAD DUP1 SWAP2 SUB SWAP1 KECCAK256 PUSH1 0x1 ADD DUP2 DUP2 SLOAD DUP2 LT PUSH2 0x80C JUMPI PUSH2 0x80B PUSH2 0xEA6 JUMP JUMPDEST JUMPDEST SWAP1 PUSH1 0x0 MSTORE PUSH1 0x20 PUSH1 0x0 KECCAK256 ADD SLOAD DUP4 PUSH2 0x822 SWAP2 SWAP1 PUSH2 0xC95 JUMP JUMPDEST SWAP3 POP DUP1 DUP1 PUSH2 0x82F SWAP1 PUSH2 0xDFF JUMP JUMPDEST SWAP2 POP POP PUSH2 0x7AD JUMP JUMPDEST POP DUP2 SWAP3 POP POP POP JUMPDEST SWAP2 SWAP1 POP JUMP JUMPDEST PUSH1 0x0 DUP1 SLOAD SWAP1 PUSH2 0x100 EXP SWAP1 DIV PUSH20 0xFFFFFFFFFFFFFFFFFFFFFFFFFFFFFFFFFFFFFFFF AND DUP2 JUMP JUMPDEST PUSH1 0x40 MLOAD DUP1 PUSH1 0x40 ADD PUSH1 0x40 MSTORE DUP1 PUSH1 0x0 DUP2 MSTORE PUSH1 0x20 ADD PUSH1 0x60 DUP2 MSTORE POP SWAP1 JUMP JUMPDEST DUP3 DUP1 SLOAD DUP3 DUP3 SSTORE SWAP1 PUSH1 0x0 MSTORE PUSH1 0x20 PUSH1 0x0 KECCAK256 SWAP1 DUP2 ADD SWAP3 DUP3 ISZERO PUSH2 0x8BD JUMPI SWAP2 PUSH1 0x20 MUL DUP3 ADD JUMPDEST DUP3 DUP2 GT ISZERO PUSH2 0x8BC JUMPI DUP3 MLOAD DUP3 SSTORE SWAP2 PUSH1 0x20 ADD SWAP2 SWAP1 PUSH1 0x1 ADD SWAP1 PUSH2 0x8A1 JUMP JUMPDEST JUMPDEST POP SWAP1 POP PUSH2 0x8CA SWAP2 SWAP1 PUSH2 0x8CE JUMP JUMPDEST POP SWAP1 JUMP JUMPDEST JUMPDEST DUP1 DUP3 GT ISZERO PUSH2 0x8E7 JUMPI PUSH1 0x0 DUP2 PUSH1 0x0 SWAP1 SSTORE POP PUSH1 0x1 ADD PUSH2 0x8CF JUMP JUMPDEST POP SWAP1 JUMP JUMPDEST PUSH1 0x0 PUSH2 0x8FE PUSH2 0x8F9 DUP5 PUSH2 0xC3D JUMP JUMPDEST PUSH2 0xC18 JUMP JUMPDEST SWAP1 POP DUP3 DUP2 MSTORE PUSH1 0x20 DUP2 ADD DUP5 DUP5 DUP5 ADD GT ISZERO PUSH2 0x91A JUMPI PUSH2 0x919 PUSH2 0xF09 JUMP JUMPDEST JUMPDEST PUSH2 0x925 DUP5 DUP3 DUP6 PUSH2 0xD8C JUMP JUMPDEST POP SWAP4 SWAP3 POP POP POP JUMP JUMPDEST PUSH1 0x0 DUP3 PUSH1 0x1F DUP4 ADD SLT PUSH2 0x942 JUMPI PUSH2 0x941 PUSH2 0xF04 JUMP JUMPDEST JUMPDEST DUP2 CALLDATALOAD PUSH2 0x952 DUP5 DUP3 PUSH1 0x20 DUP7 ADD PUSH2 0x8EB JUMP JUMPDEST SWAP2 POP POP SWAP3 SWAP2 POP POP JUMP JUMPDEST PUSH1 0x0 DUP2 CALLDATALOAD SWAP1 POP PUSH2 0x96A DUP2 PUSH2 0x1019 JUMP JUMPDEST SWAP3 SWAP2 POP POP JUMP JUMPDEST PUSH1 0x0 PUSH1 0x20 DUP3 DUP5 SUB SLT ISZERO PUSH2 0x986 JUMPI PUSH2 0x985 PUSH2 0xF13 JUMP JUMPDEST JUMPDEST PUSH1 0x0 DUP3 ADD CALLDATALOAD PUSH8 0xFFFFFFFFFFFFFFFF DUP2 GT ISZERO PUSH2 0x9A4 JUMPI PUSH2 0x9A3 PUSH2 0xF0E JUMP JUMPDEST JUMPDEST PUSH2 0x9B0 DUP5 DUP3 DUP6 ADD PUSH2 0x92D JUMP JUMPDEST SWAP2 POP POP SWAP3 SWAP2 POP POP JUMP JUMPDEST PUSH1 0x0 DUP1 PUSH1 0x40 DUP4 DUP6 SUB SLT ISZERO PUSH2 0x9D0 JUMPI PUSH2 0x9CF PUSH2 0xF13 JUMP JUMPDEST JUMPDEST PUSH1 0x0 DUP4 ADD CALLDATALOAD PUSH8 0xFFFFFFFFFFFFFFFF DUP2 GT ISZERO PUSH2 0x9EE JUMPI PUSH2 0x9ED PUSH2 0xF0E JUMP JUMPDEST JUMPDEST PUSH2 0x9FA DUP6 DUP3 DUP7 ADD PUSH2 0x92D JUMP JUMPDEST SWAP3 POP POP PUSH1 0x20 PUSH2 0xA0B DUP6 DUP3 DUP7 ADD PUSH2 0x95B JUMP JUMPDEST SWAP2 POP POP SWAP3 POP SWAP3 SWAP1 POP JUMP JUMPDEST PUSH2 0xA1E DUP2 PUSH2 0xD50 JUMP JUMPDEST DUP3 MSTORE POP POP JUMP JUMPDEST PUSH1 0x0 PUSH2 0xA2F DUP3 PUSH2 0xC6E JUMP JUMPDEST PUSH2 0xA39 DUP2 DUP6 PUSH2 0xC79 JUMP JUMPDEST SWAP4 POP PUSH2 0xA49 DUP2 DUP6 PUSH1 0x20 DUP7 ADD PUSH2 0xD9B JUMP JUMPDEST PUSH2 0xA52 DUP2 PUSH2 0xF18 JUMP JUMPDEST DUP5 ADD SWAP2 POP POP SWAP3 SWAP2 POP POP JUMP JUMPDEST PUSH1 0x0 PUSH2 0xA68 DUP3 PUSH2 0xC6E JUMP JUMPDEST PUSH2 0xA72 DUP2 DUP6 PUSH2 0xC8A JUMP JUMPDEST SWAP4 POP PUSH2 0xA82 DUP2 DUP6 PUSH1 0x20 DUP7 ADD PUSH2 0xD9B JUMP JUMPDEST DUP1 DUP5 ADD SWAP2 POP POP SWAP3 SWAP2 POP POP JUMP JUMPDEST PUSH1 0x0 PUSH2 0xA9B PUSH1 0x23 DUP4 PUSH2 0xC79 JUMP JUMPDEST SWAP2 POP PUSH2 0xAA6 DUP3 PUSH2 0xF29 JUMP JUMPDEST PUSH1 0x40 DUP3 ADD SWAP1 POP SWAP2 SWAP1 POP JUMP JUMPDEST PUSH1 0x0 PUSH2 0xABE PUSH1 0x1D DUP4 PUSH2 0xC79 JUMP JUMPDEST SWAP2 POP PUSH2 0xAC9 DUP3 PUSH2 0xF78 JUMP JUMPDEST PUSH1 0x20 DUP3 ADD SWAP1 POP SWAP2 SWAP1 POP JUMP JUMPDEST PUSH1 0x0 PUSH2 0xAE1 PUSH1 0x17 DUP4 PUSH2 0xC79 JUMP JUMPDEST SWAP2 POP PUSH2 0xAEC DUP3 PUSH2 0xFA1 JUMP JUMPDEST PUSH1 0x20 DUP3 ADD SWAP1 POP SWAP2 SWAP1 POP JUMP JUMPDEST PUSH1 0x0 PUSH2 0xB04 PUSH1 0x21 DUP4 PUSH2 0xC79 JUMP JUMPDEST SWAP2 POP PUSH2 0xB0F DUP3 PUSH2 0xFCA JUMP JUMPDEST PUSH1 0x40 DUP3 ADD SWAP1 POP SWAP2 SWAP1 POP JUMP JUMPDEST PUSH2 0xB23 DUP2 PUSH2 0xD82 JUMP JUMPDEST DUP3 MSTORE POP POP JUMP JUMPDEST PUSH1 0x0 PUSH2 0xB35 DUP3 DUP5 PUSH2 0xA5D JUMP JUMPDEST SWAP2 POP DUP2 SWAP1 POP SWAP3 SWAP2 POP POP JUMP JUMPDEST PUSH1 0x0 PUSH1 0x20 DUP3 ADD SWAP1 POP PUSH2 0xB55 PUSH1 0x0 DUP4 ADD DUP5 PUSH2 0xA15 JUMP JUMPDEST SWAP3 SWAP2 POP POP JUMP JUMPDEST PUSH1 0x0 PUSH1 0x20 DUP3 ADD SWAP1 POP DUP2 DUP2 SUB PUSH1 0x0 DUP4 ADD MSTORE PUSH2 0xB75 DUP2 DUP5 PUSH2 0xA24 JUMP JUMPDEST SWAP1 POP SWAP3 SWAP2 POP POP JUMP JUMPDEST PUSH1 0x0 PUSH1 0x20 DUP3 ADD SWAP1 POP DUP2 DUP2 SUB PUSH1 0x0 DUP4 ADD MSTORE PUSH2 0xB96 DUP2 PUSH2 0xA8E JUMP JUMPDEST SWAP1 POP SWAP2 SWAP1 POP JUMP JUMPDEST PUSH1 0x0 PUSH1 0x20 DUP3 ADD SWAP1 POP DUP2 DUP2 SUB PUSH1 0x0 DUP4 ADD MSTORE PUSH2 0xBB6 DUP2 PUSH2 0xAB1 JUMP JUMPDEST SWAP1 POP SWAP2 SWAP1 POP JUMP JUMPDEST PUSH1 0x0 PUSH1 0x20 DUP3 ADD SWAP1 POP DUP2 DUP2 SUB PUSH1 0x0 DUP4 ADD MSTORE PUSH2 0xBD6 DUP2 PUSH2 0xAD4 JUMP JUMPDEST SWAP1 POP SWAP2 SWAP1 POP JUMP JUMPDEST PUSH1 0x0 PUSH1 0x20 DUP3 ADD SWAP1 POP DUP2 DUP2 SUB PUSH1 0x0 DUP4 ADD MSTORE PUSH2 0xBF6 DUP2 PUSH2 0xAF7 JUMP JUMPDEST SWAP1 POP SWAP2 SWAP1 POP JUMP JUMPDEST PUSH1 0x0 PUSH1 0x20 DUP3 ADD SWAP1 POP PUSH2 0xC12 PUSH1 0x0 DUP4 ADD DUP5 PUSH2 0xB1A JUMP JUMPDEST SWAP3 SWAP2 POP POP JUMP JUMPDEST PUSH1 0x0 PUSH2 0xC22 PUSH2 0xC33 JUMP JUMPDEST SWAP1 POP PUSH2 0xC2E DUP3 DUP3 PUSH2 0xDCE JUMP JUMPDEST SWAP2 SWAP1 POP JUMP JUMPDEST PUSH1 0x0 PUSH1 0x40 MLOAD SWAP1 POP SWAP1 JUMP JUMPDEST PUSH1 0x0 PUSH8 0xFFFFFFFFFFFFFFFF DUP3 GT ISZERO PUSH2 0xC58 JUMPI PUSH2 0xC57 PUSH2 0xED5 JUMP JUMPDEST JUMPDEST PUSH2 0xC61 DUP3 PUSH2 0xF18 JUMP JUMPDEST SWAP1 POP PUSH1 0x20 DUP2 ADD SWAP1 POP SWAP2 SWAP1 POP JUMP JUMPDEST PUSH1 0x0 DUP2 MLOAD SWAP1 POP SWAP2 SWAP1 POP JUMP JUMPDEST PUSH1 0x0 DUP3 DUP3 MSTORE PUSH1 0x20 DUP3 ADD SWAP1 POP SWAP3 SWAP2 POP POP JUMP JUMPDEST PUSH1 0x0 DUP2 SWAP1 POP SWAP3 SWAP2 POP POP JUMP JUMPDEST PUSH1 0x0 PUSH2 0xCA0 DUP3 PUSH2 0xD82 JUMP JUMPDEST SWAP2 POP PUSH2 0xCAB DUP4 PUSH2 0xD82 JUMP JUMPDEST SWAP3 POP DUP3 PUSH32 0xFFFFFFFFFFFFFFFFFFFFFFFFFFFFFFFFFFFFFFFFFFFFFFFFFFFFFFFFFFFFFFFF SUB DUP3 GT ISZERO PUSH2 0xCE0 JUMPI PUSH2 0xCDF PUSH2 0xE48 JUMP JUMPDEST JUMPDEST DUP3 DUP3 ADD SWAP1 POP SWAP3 SWAP2 POP POP JUMP JUMPDEST PUSH1 0x0 PUSH2 0xCF6 DUP3 PUSH2 0xD82 JUMP JUMPDEST SWAP2 POP PUSH2 0xD01 DUP4 PUSH2 0xD82 JUMP JUMPDEST SWAP3 POP DUP3 PUSH2 0xD11 JUMPI PUSH2 0xD10 PUSH2 0xE77 JUMP JUMPDEST JUMPDEST DUP3 DUP3 DIV SWAP1 POP SWAP3 SWAP2 POP POP JUMP JUMPDEST PUSH1 0x0 PUSH2 0xD27 DUP3 PUSH2 0xD82 JUMP JUMPDEST SWAP2 POP PUSH2 0xD32 DUP4 PUSH2 0xD82 JUMP JUMPDEST SWAP3 POP DUP3 DUP3 LT ISZERO PUSH2 0xD45 JUMPI PUSH2 0xD44 PUSH2 0xE48 JUMP JUMPDEST JUMPDEST DUP3 DUP3 SUB SWAP1 POP SWAP3 SWAP2 POP POP JUMP JUMPDEST PUSH1 0x0 PUSH2 0xD5B DUP3 PUSH2 0xD62 JUMP JUMPDEST SWAP1 POP SWAP2 SWAP1 POP JUMP JUMPDEST PUSH1 0x0 PUSH20 0xFFFFFFFFFFFFFFFFFFFFFFFFFFFFFFFFFFFFFFFF DUP3 AND SWAP1 POP SWAP2 SWAP1 POP JUMP JUMPDEST PUSH1 0x0 DUP2 SWAP1 POP SWAP2 SWAP1 POP JUMP JUMPDEST DUP3 DUP2 DUP4 CALLDATACOPY PUSH1 0x0 DUP4 DUP4 ADD MSTORE POP POP POP JUMP JUMPDEST PUSH1 0x0 JUMPDEST DUP4 DUP2 LT ISZERO PUSH2 0xDB9 JUMPI DUP1 DUP3 ADD MLOAD DUP2 DUP5 ADD MSTORE PUSH1 0x20 DUP2 ADD SWAP1 POP PUSH2 0xD9E JUMP JUMPDEST DUP4 DUP2 GT ISZERO PUSH2 0xDC8 JUMPI PUSH1 0x0 DUP5 DUP5 ADD MSTORE JUMPDEST POP POP POP POP JUMP JUMPDEST PUSH2 0xDD7 DUP3 PUSH2 0xF18 JUMP JUMPDEST DUP2 ADD DUP2 DUP2 LT PUSH8 0xFFFFFFFFFFFFFFFF DUP3 GT OR ISZERO PUSH2 0xDF6 JUMPI PUSH2 0xDF5 PUSH2 0xED5 JUMP JUMPDEST JUMPDEST DUP1 PUSH1 0x40 MSTORE POP POP POP JUMP JUMPDEST PUSH1 0x0 PUSH2 0xE0A DUP3 PUSH2 0xD82 JUMP JUMPDEST SWAP2 POP PUSH32 0xFFFFFFFFFFFFFFFFFFFFFFFFFFFFFFFFFFFFFFFFFFFFFFFFFFFFFFFFFFFFFFFF DUP3 EQ ISZERO PUSH2 0xE3D JUMPI PUSH2 0xE3C PUSH2 0xE48 JUMP JUMPDEST JUMPDEST PUSH1 0x1 DUP3 ADD SWAP1 POP SWAP2 SWAP1 POP JUMP JUMPDEST PUSH32 0x4E487B7100000000000000000000000000000000000000000000000000000000 PUSH1 0x0 MSTORE PUSH1 0x11 PUSH1 0x4 MSTORE PUSH1 0x24 PUSH1 0x0 REVERT JUMPDEST PUSH32 0x4E487B7100000000000000000000000000000000000000000000000000000000 PUSH1 0x0 MSTORE PUSH1 0x12 PUSH1 0x4 MSTORE PUSH1 0x24 PUSH1 0x0 REVERT JUMPDEST PUSH32 0x4E487B7100000000000000000000000000000000000000000000000000000000 PUSH1 0x0 MSTORE PUSH1 0x32 PUSH1 0x4 MSTORE PUSH1 0x24 PUSH1 0x0 REVERT JUMPDEST PUSH32 0x4E487B7100000000000000000000000000000000000000000000000000000000 PUSH1 0x0 MSTORE PUSH1 0x41 PUSH1 0x4 MSTORE PUSH1 0x24 PUSH1 0x0 REVERT JUMPDEST PUSH1 0x0 DUP1 REVERT JUMPDEST PUSH1 0x0 DUP1 REVERT JUMPDEST PUSH1 0x0 DUP1 REVERT JUMPDEST PUSH1 0x0 DUP1 REVERT JUMPDEST PUSH1 0x0 PUSH1 0x1F NOT PUSH1 0x1F DUP4 ADD AND SWAP1 POP SWAP2 SWAP1 POP JUMP JUMPDEST PUSH32 0x4461792073686F756C642062652067726561746572207468616E207374617274 PUSH1 0x0 DUP3 ADD MSTORE PUSH32 0x4461790000000000000000000000000000000000000000000000000000000000 PUSH1 0x20 DUP3 ADD MSTORE POP JUMP JUMPDEST PUSH32 0x44617461206E6F742070726573656E7420666F72206C6F636174696F6E000000 PUSH1 0x0 DUP3 ADD MSTORE POP JUMP JUMPDEST PUSH32 0x4F6E6C792061646D696E2063616E207365742064617461000000000000000000 PUSH1 0x0 DUP3 ADD MSTORE POP JUMP JUMPDEST PUSH32 0x53657665726974792065786365656473206D61782076616C7565206F66203130 PUSH1 0x0 DUP3 ADD MSTORE PUSH32 0x3000000000000000000000000000000000000000000000000000000000000000 PUSH1 0x20 DUP3 ADD MSTORE POP JUMP JUMPDEST PUSH2 0x1022 DUP2 PUSH2 0xD82 JUMP JUMPDEST DUP2 EQ PUSH2 0x102D JUMPI PUSH1 0x0 DUP1 REVERT JUMPDEST POP JUMP INVALID COINBASE PUSH9 0x6D65646E616761722C KECCAK256 COINBASE PUSH12 0x6F6C612C20416D7261766174 PUSH10 0x2C20417572616E676162 PUSH2 0x642C KECCAK256 TIMESTAMP PUSH6 0x65642C204268 PUSH2 0x6E64 PUSH2 0x7261 0x2C KECCAK256 TIMESTAMP PUSH22 0x6C6468616E612C204368616E6472617075722C204468 PUSH22 0x6C652C20476164636869726F6C692C20476F6E646961 0x2C KECCAK256 BASEFEE PUSH10 0x6E676F6C692C204A616C PUSH8 0x616F6E2C204A616C PUSH15 0x612C204B6F6C68617075722C204C61 PUSH21 0x75722C204D756D62616920436974792C204D756D62 PUSH2 0x6920 MSTORE8 PUSH22 0x62757262616E2C204E61677075722C204E616E646564 0x2C KECCAK256 0x4E PUSH2 0x6E64 PUSH22 0x726261722C204E617368696B2C204F736D616E616261 PUSH5 0x2C2050616C PUSH8 0x6861722C20506172 PUSH3 0x68616E PUSH10 0x2C2050756E652C205261 PUSH10 0x6761642C205261746E61 PUSH8 0x6972692C2053616E PUSH8 0x6C692C2053617461 PUSH19 0x612C2053696E646875647572672C20536F6C61 PUSH17 0x75722C205468616E652C20576172646861 0x2C KECCAK256 JUMPI PUSH2 0x7368 PUSH10 0x6D2C2059617661746D61 PUSH13 0xA2646970667358221220540FC8 0xA7 PUSH1 0x5E EXP 0xAC SWAP12 SLOAD XOR SWAP12 0xC4 SHR DUP7 SWAP1 SWAP11 EXTCODESIZE GASPRICE 0x2C REVERT PC ADDMOD 0xF7 XOR 0xCD ADD 0xE4 DUP12 0xCC BALANCE TIMESTAMP PUSH5 0x736F6C6343 STOP ADDMOD SMOD STOP CALLER "
				},
				"gasEstimates": {
					"creation": {
						"codeDepositCost": "906800",
						"executionCost": "infinite",
						"totalCost": "infinite"
					},
					"external": {
						"admin()": "2577",
						"getAccumulatedSeverity(string)": "infinite",
						"getDistricts()": "infinite",
						"getSeverityData(string,uint256)": "infinite",
						"setSeverity(string,uint256)": "infinite",
						"severity(string)": "infinite",
						"startDay()": "2430"
					}
				},
				"methodIdentifiers": {
					"admin()": "f851a440",
					"getAccumulatedSeverity(string)": "ad6781d4",
					"getDistricts()": "a92563ed",
					"getSeverityData(string,uint256)": "a9f5dec6",
					"setSeverity(string,uint256)": "830f15b4",
					"severity(string)": "3a79af38",
					"startDay()": "0539272a"
				}
			},
			"storageLayout": {
				"storage": [
					{
						"astId": 3,
						"contract": "contracts/SeverityData.sol:DisasterData",
						"label": "admin",
						"offset": 0,
						"slot": "0",
						"type": "t_address"
					},
					{
						"astId": 5,
						"contract": "contracts/SeverityData.sol:DisasterData",
						"label": "startDay",
						"offset": 0,
						"slot": "1",
						"type": "t_uint256"
					},
					{
						"astId": 16,
						"contract": "contracts/SeverityData.sol:DisasterData",
						"label": "severity",
						"offset": 0,
						"slot": "2",
						"type": "t_mapping(t_string_memory_ptr,t_struct(SeverityData)11_storage)"
					}
				],
				"types": {
					"t_address": {
						"encoding": "inplace",
						"label": "address",
						"numberOfBytes": "20"
					},
					"t_array(t_uint256)dyn_storage": {
						"base": "t_uint256",
						"encoding": "dynamic_array",
						"label": "uint256[]",
						"numberOfBytes": "32"
					},
					"t_mapping(t_string_memory_ptr,t_struct(SeverityData)11_storage)": {
						"encoding": "mapping",
						"key": "t_string_memory_ptr",
						"label": "mapping(string => struct DisasterData.SeverityData)",
						"numberOfBytes": "32",
						"value": "t_struct(SeverityData)11_storage"
					},
					"t_string_memory_ptr": {
						"encoding": "bytes",
						"label": "string",
						"numberOfBytes": "32"
					},
					"t_struct(SeverityData)11_storage": {
						"encoding": "inplace",
						"label": "struct DisasterData.SeverityData",
						"members": [
							{
								"astId": 7,
								"contract": "contracts/SeverityData.sol:DisasterData",
								"label": "lastUpdatedDay",
								"offset": 0,
								"slot": "0",
								"type": "t_uint256"
							},
							{
								"astId": 10,
								"contract": "contracts/SeverityData.sol:DisasterData",
								"label": "values",
								"offset": 0,
								"slot": "1",
								"type": "t_array(t_uint256)dyn_storage"
							}
						],
						"numberOfBytes": "64"
					},
					"t_uint256": {
						"encoding": "inplace",
						"label": "uint256",
						"numberOfBytes": "32"
					}
				}
			},
			"userdoc": {
				"kind": "user",
				"methods": {},
				"version": 1
			}
		}
	}
}