{
	"contracts/College.sol": {
		"College": {
			"abi": [
				{
					"inputs": [
						{
							"internalType": "string",
							"name": "name_",
							"type": "string"
						},
						{
							"internalType": "uint256",
							"name": "class_",
							"type": "uint256"
						}
					],
					"name": "enroll",
					"outputs": [],
					"stateMutability": "nonpayable",
					"type": "function"
				},
				{
					"inputs": [
						{
							"internalType": "uint256",
							"name": "rollNumber_",
							"type": "uint256"
						}
					],
					"name": "getStudentDetails",
					"outputs": [
						{
							"components": [
								{
									"internalType": "string",
									"name": "name",
									"type": "string"
								},
								{
									"internalType": "uint256",
									"name": "class",
									"type": "uint256"
								},
								{
									"internalType": "uint256",
									"name": "feesPaid",
									"type": "uint256"
								}
							],
							"internalType": "struct College.StudentDetails",
							"name": "",
							"type": "tuple"
						}
					],
					"stateMutability": "view",
					"type": "function"
				},
				{
					"inputs": [
						{
							"internalType": "uint256",
							"name": "rollNumber_",
							"type": "uint256"
						}
					],
					"name": "payFees",
					"outputs": [],
					"stateMutability": "payable",
					"type": "function"
				},
				{
					"inputs": [],
					"name": "totlaStudents",
					"outputs": [
						{
							"internalType": "uint256",
							"name": "",
							"type": "uint256"
						}
					],
					"stateMutability": "view",
					"type": "function"
				}
			],
			"devdoc": {
				"kind": "dev",
				"methods": {},
				"version": 1
			},
			"evm": {
				"assembly": "    /* \"contracts/College.sol\":64:982  contract College {\r... */\n  mstore(0x40, 0x80)\n  callvalue\n  dup1\n  iszero\n  tag_1\n  jumpi\n  0x00\n  dup1\n  revert\ntag_1:\n  pop\n  dataSize(sub_0)\n  dup1\n  dataOffset(sub_0)\n  0x00\n  codecopy\n  0x00\n  return\nstop\n\nsub_0: assembly {\n        /* \"contracts/College.sol\":64:982  contract College {\r... */\n      mstore(0x40, 0x80)\n      jumpi(tag_1, lt(calldatasize, 0x04))\n      shr(0xe0, calldataload(0x00))\n      dup1\n      0x3084d735\n      eq\n      tag_2\n      jumpi\n      dup1\n      0x522ba38e\n      eq\n      tag_3\n      jumpi\n      dup1\n      0x86a9b364\n      eq\n      tag_4\n      jumpi\n      dup1\n      0xe50e2c63\n      eq\n      tag_5\n      jumpi\n    tag_1:\n      0x00\n      dup1\n      revert\n        /* \"contracts/College.sol\":783:898  function payFees(uint rollNumber_) external payable{\r... */\n    tag_2:\n      tag_6\n      0x04\n      dup1\n      calldatasize\n      sub\n      dup2\n      add\n      swap1\n      tag_7\n      swap2\n      swap1\n      tag_8\n      jump\t// in\n    tag_7:\n      tag_9\n      jump\t// in\n    tag_6:\n      stop\n        /* \"contracts/College.sol\":250:275  uint public totlaStudents */\n    tag_3:\n      callvalue\n      dup1\n      iszero\n      tag_10\n      jumpi\n      0x00\n      dup1\n      revert\n    tag_10:\n      pop\n      tag_11\n      tag_12\n      jump\t// in\n    tag_11:\n      mload(0x40)\n      tag_13\n      swap2\n      swap1\n      tag_14\n      jump\t// in\n    tag_13:\n      mload(0x40)\n      dup1\n      swap2\n      sub\n      swap1\n      return\n        /* \"contracts/College.sol\":634:775  function getStudentDetails(uint rollNumber_) external view returns(StudentDetails memory){\r... */\n    tag_4:\n      callvalue\n      dup1\n      iszero\n      tag_15\n      jumpi\n      0x00\n      dup1\n      revert\n    tag_15:\n      pop\n      tag_16\n      0x04\n      dup1\n      calldatasize\n      sub\n      dup2\n      add\n      swap1\n      tag_17\n      swap2\n      swap1\n      tag_8\n      jump\t// in\n    tag_17:\n      tag_18\n      jump\t// in\n    tag_16:\n      mload(0x40)\n      tag_19\n      swap2\n      swap1\n      tag_20\n      jump\t// in\n    tag_19:\n      mload(0x40)\n      dup1\n      swap2\n      sub\n      swap1\n      return\n        /* \"contracts/College.sol\":284:624  function enroll(string memory name_,uint class_) external{    //string will last only till execution of this function and not stored  in blockchain\r... */\n    tag_5:\n      callvalue\n      dup1\n      iszero\n      tag_21\n      jumpi\n      0x00\n      dup1\n      revert\n    tag_21:\n      pop\n      tag_22\n      0x04\n      dup1\n      calldatasize\n      sub\n      dup2\n      add\n      swap1\n      tag_23\n      swap2\n      swap1\n      tag_24\n      jump\t// in\n    tag_23:\n      tag_25\n      jump\t// in\n    tag_22:\n      stop\n        /* \"contracts/College.sol\":783:898  function payFees(uint rollNumber_) external payable{\r... */\n    tag_9:\n        /* \"contracts/College.sol\":881:890  msg.value */\n      callvalue\n        /* \"contracts/College.sol\":845:854  _students */\n      0x00\n        /* \"contracts/College.sol\":845:867  _students[rollNumber_] */\n      dup1\n        /* \"contracts/College.sol\":855:866  rollNumber_ */\n      dup4\n        /* \"contracts/College.sol\":845:867  _students[rollNumber_] */\n      dup2\n      mstore\n      0x20\n      add\n      swap1\n      dup2\n      mstore\n      0x20\n      add\n      0x00\n      keccak256\n        /* \"contracts/College.sol\":845:876  _students[rollNumber_].feesPaid */\n      0x02\n      add\n      0x00\n        /* \"contracts/College.sol\":845:890  _students[rollNumber_].feesPaid +=  msg.value */\n      dup3\n      dup3\n      sload\n      tag_27\n      swap2\n      swap1\n      tag_28\n      jump\t// in\n    tag_27:\n      swap3\n      pop\n      pop\n      dup2\n      swap1\n      sstore\n      pop\n        /* \"contracts/College.sol\":783:898  function payFees(uint rollNumber_) external payable{\r... */\n      pop\n      jump\t// out\n        /* \"contracts/College.sol\":250:275  uint public totlaStudents */\n    tag_12:\n      sload(0x01)\n      dup2\n      jump\t// out\n        /* \"contracts/College.sol\":634:775  function getStudentDetails(uint rollNumber_) external view returns(StudentDetails memory){\r... */\n    tag_18:\n        /* \"contracts/College.sol\":701:722  StudentDetails memory */\n      tag_29\n      tag_30\n      jump\t// in\n    tag_29:\n        /* \"contracts/College.sol\":745:754  _students */\n      0x00\n        /* \"contracts/College.sol\":745:767  _students[rollNumber_] */\n      dup1\n        /* \"contracts/College.sol\":755:766  rollNumber_ */\n      dup4\n        /* \"contracts/College.sol\":745:767  _students[rollNumber_] */\n      dup2\n      mstore\n      0x20\n      add\n      swap1\n      dup2\n      mstore\n      0x20\n      add\n      0x00\n      keccak256\n        /* \"contracts/College.sol\":738:767  return _students[rollNumber_] */\n      mload(0x40)\n      dup1\n      0x60\n      add\n      0x40\n      mstore\n      swap1\n      dup2\n      0x00\n      dup3\n      add\n      dup1\n      sload\n      tag_32\n      swap1\n      tag_33\n      jump\t// in\n    tag_32:\n      dup1\n      0x1f\n      add\n      0x20\n      dup1\n      swap2\n      div\n      mul\n      0x20\n      add\n      mload(0x40)\n      swap1\n      dup2\n      add\n      0x40\n      mstore\n      dup1\n      swap3\n      swap2\n      swap1\n      dup2\n      dup2\n      mstore\n      0x20\n      add\n      dup3\n      dup1\n      sload\n      tag_34\n      swap1\n      tag_33\n      jump\t// in\n    tag_34:\n      dup1\n      iszero\n      tag_35\n      jumpi\n      dup1\n      0x1f\n      lt\n      tag_36\n      jumpi\n      0x0100\n      dup1\n      dup4\n      sload\n      div\n      mul\n      dup4\n      mstore\n      swap2\n      0x20\n      add\n      swap2\n      jump(tag_35)\n    tag_36:\n      dup3\n      add\n      swap2\n      swap1\n      0x00\n      mstore\n      keccak256(0x00, 0x20)\n      swap1\n    tag_37:\n      dup2\n      sload\n      dup2\n      mstore\n      swap1\n      0x01\n      add\n      swap1\n      0x20\n      add\n      dup1\n      dup4\n      gt\n      tag_37\n      jumpi\n      dup3\n      swap1\n      sub\n      0x1f\n      and\n      dup3\n      add\n      swap2\n    tag_35:\n      pop\n      pop\n      pop\n      pop\n      pop\n      dup2\n      mstore\n      0x20\n      add\n      0x01\n      dup3\n      add\n      sload\n      dup2\n      mstore\n      0x20\n      add\n      0x02\n      dup3\n      add\n      sload\n      dup2\n      mstore\n      pop\n      pop\n      swap1\n      pop\n        /* \"contracts/College.sol\":634:775  function getStudentDetails(uint rollNumber_) external view returns(StudentDetails memory){\r... */\n      swap2\n      swap1\n      pop\n      jump\t// out\n        /* \"contracts/College.sol\":284:624  function enroll(string memory name_,uint class_) external{    //string will last only till execution of this function and not stored  in blockchain\r... */\n    tag_25:\n        /* \"contracts/College.sol\":475:480  name_ */\n      dup2\n        /* \"contracts/College.sol\":445:454  _students */\n      0x00\n        /* \"contracts/College.sol\":445:469  _students[totlaStudents] */\n      dup1\n        /* \"contracts/College.sol\":455:468  totlaStudents */\n      sload(0x01)\n        /* \"contracts/College.sol\":445:469  _students[totlaStudents] */\n      dup2\n      mstore\n      0x20\n      add\n      swap1\n      dup2\n      mstore\n      0x20\n      add\n      0x00\n      keccak256\n        /* \"contracts/College.sol\":445:474  _students[totlaStudents].name */\n      0x00\n      add\n        /* \"contracts/College.sol\":445:480  _students[totlaStudents].name=name_ */\n      swap1\n      dup1\n      mload\n      swap1\n      0x20\n      add\n      swap1\n      tag_39\n      swap3\n      swap2\n      swap1\n      tag_40\n      jump\t// in\n    tag_39:\n      pop\n        /* \"contracts/College.sol\":526:532  class_ */\n      dup1\n        /* \"contracts/College.sol\":495:504  _students */\n      0x00\n        /* \"contracts/College.sol\":495:519  _students[totlaStudents] */\n      dup1\n        /* \"contracts/College.sol\":505:518  totlaStudents */\n      sload(0x01)\n        /* \"contracts/College.sol\":495:519  _students[totlaStudents] */\n      dup2\n      mstore\n      0x20\n      add\n      swap1\n      dup2\n      mstore\n      0x20\n      add\n      0x00\n      keccak256\n        /* \"contracts/College.sol\":495:525  _students[totlaStudents].class */\n      0x01\n      add\n        /* \"contracts/College.sol\":495:532  _students[totlaStudents].class=class_ */\n      dup2\n      swap1\n      sstore\n      pop\n        /* \"contracts/College.sol\":582:583  0 */\n      0x00\n        /* \"contracts/College.sol\":548:557  _students */\n      dup1\n        /* \"contracts/College.sol\":548:572  _students[totlaStudents] */\n      0x00\n        /* \"contracts/College.sol\":558:571  totlaStudents */\n      sload(0x01)\n        /* \"contracts/College.sol\":548:572  _students[totlaStudents] */\n      dup2\n      mstore\n      0x20\n      add\n      swap1\n      dup2\n      mstore\n      0x20\n      add\n      0x00\n      keccak256\n        /* \"contracts/College.sol\":548:581  _students[totlaStudents].feesPaid */\n      0x02\n      add\n        /* \"contracts/College.sol\":548:583  _students[totlaStudents].feesPaid=0 */\n      dup2\n      swap1\n      sstore\n      pop\n        /* \"contracts/College.sol\":615:616  1 */\n      0x01\n        /* \"contracts/College.sol\":598:611  totlaStudents */\n      dup1\n      0x00\n        /* \"contracts/College.sol\":598:616  totlaStudents += 1 */\n      dup3\n      dup3\n      sload\n      tag_41\n      swap2\n      swap1\n      tag_28\n      jump\t// in\n    tag_41:\n      swap3\n      pop\n      pop\n      dup2\n      swap1\n      sstore\n      pop\n        /* \"contracts/College.sol\":284:624  function enroll(string memory name_,uint class_) external{    //string will last only till execution of this function and not stored  in blockchain\r... */\n      pop\n      pop\n      jump\t// out\n    tag_30:\n      mload(0x40)\n      dup1\n      0x60\n      add\n      0x40\n      mstore\n      dup1\n      0x60\n      dup2\n      mstore\n      0x20\n      add\n      0x00\n      dup2\n      mstore\n      0x20\n      add\n      0x00\n      dup2\n      mstore\n      pop\n      swap1\n      jump\t// out\n    tag_40:\n      dup3\n      dup1\n      sload\n      tag_42\n      swap1\n      tag_33\n      jump\t// in\n    tag_42:\n      swap1\n      0x00\n      mstore\n      keccak256(0x00, 0x20)\n      swap1\n      0x1f\n      add\n      0x20\n      swap1\n      div\n      dup2\n      add\n      swap3\n      dup3\n      tag_44\n      jumpi\n      0x00\n      dup6\n      sstore\n      jump(tag_43)\n    tag_44:\n      dup3\n      0x1f\n      lt\n      tag_45\n      jumpi\n      dup1\n      mload\n      not(0xff)\n      and\n      dup4\n      dup1\n      add\n      or\n      dup6\n      sstore\n      jump(tag_43)\n    tag_45:\n      dup3\n      dup1\n      add\n      0x01\n      add\n      dup6\n      sstore\n      dup3\n      iszero\n      tag_43\n      jumpi\n      swap2\n      dup3\n      add\n    tag_46:\n      dup3\n      dup2\n      gt\n      iszero\n      tag_47\n      jumpi\n      dup3\n      mload\n      dup3\n      sstore\n      swap2\n      0x20\n      add\n      swap2\n      swap1\n      0x01\n      add\n      swap1\n      jump(tag_46)\n    tag_47:\n    tag_43:\n      pop\n      swap1\n      pop\n      tag_48\n      swap2\n      swap1\n      tag_49\n      jump\t// in\n    tag_48:\n      pop\n      swap1\n      jump\t// out\n    tag_49:\n    tag_50:\n      dup1\n      dup3\n      gt\n      iszero\n      tag_51\n      jumpi\n      0x00\n      dup2\n      0x00\n      swap1\n      sstore\n      pop\n      0x01\n      add\n      jump(tag_50)\n    tag_51:\n      pop\n      swap1\n      jump\t// out\n        /* \"#utility.yul\":7:419   */\n    tag_53:\n        /* \"#utility.yul\":85:90   */\n      0x00\n        /* \"#utility.yul\":110:176   */\n      tag_55\n        /* \"#utility.yul\":126:175   */\n      tag_56\n        /* \"#utility.yul\":168:174   */\n      dup5\n        /* \"#utility.yul\":126:175   */\n      tag_57\n      jump\t// in\n    tag_56:\n        /* \"#utility.yul\":110:176   */\n      tag_58\n      jump\t// in\n    tag_55:\n        /* \"#utility.yul\":101:176   */\n      swap1\n      pop\n        /* \"#utility.yul\":199:205   */\n      dup3\n        /* \"#utility.yul\":192:197   */\n      dup2\n        /* \"#utility.yul\":185:206   */\n      mstore\n        /* \"#utility.yul\":237:241   */\n      0x20\n        /* \"#utility.yul\":230:235   */\n      dup2\n        /* \"#utility.yul\":226:242   */\n      add\n        /* \"#utility.yul\":275:278   */\n      dup5\n        /* \"#utility.yul\":266:272   */\n      dup5\n        /* \"#utility.yul\":261:264   */\n      dup5\n        /* \"#utility.yul\":257:273   */\n      add\n        /* \"#utility.yul\":254:279   */\n      gt\n        /* \"#utility.yul\":251:363   */\n      iszero\n      tag_59\n      jumpi\n        /* \"#utility.yul\":282:361   */\n      tag_60\n      tag_61\n      jump\t// in\n    tag_60:\n        /* \"#utility.yul\":251:363   */\n    tag_59:\n        /* \"#utility.yul\":372:413   */\n      tag_62\n        /* \"#utility.yul\":406:412   */\n      dup5\n        /* \"#utility.yul\":401:404   */\n      dup3\n        /* \"#utility.yul\":396:399   */\n      dup6\n        /* \"#utility.yul\":372:413   */\n      tag_63\n      jump\t// in\n    tag_62:\n        /* \"#utility.yul\":91:419   */\n      pop\n        /* \"#utility.yul\":7:419   */\n      swap4\n      swap3\n      pop\n      pop\n      pop\n      jump\t// out\n        /* \"#utility.yul\":439:779   */\n    tag_64:\n        /* \"#utility.yul\":495:500   */\n      0x00\n        /* \"#utility.yul\":544:547   */\n      dup3\n        /* \"#utility.yul\":537:541   */\n      0x1f\n        /* \"#utility.yul\":529:535   */\n      dup4\n        /* \"#utility.yul\":525:542   */\n      add\n        /* \"#utility.yul\":521:548   */\n      slt\n        /* \"#utility.yul\":511:633   */\n      tag_66\n      jumpi\n        /* \"#utility.yul\":552:631   */\n      tag_67\n      tag_68\n      jump\t// in\n    tag_67:\n        /* \"#utility.yul\":511:633   */\n    tag_66:\n        /* \"#utility.yul\":669:675   */\n      dup2\n        /* \"#utility.yul\":656:676   */\n      calldataload\n        /* \"#utility.yul\":694:773   */\n      tag_69\n        /* \"#utility.yul\":769:772   */\n      dup5\n        /* \"#utility.yul\":761:767   */\n      dup3\n        /* \"#utility.yul\":754:758   */\n      0x20\n        /* \"#utility.yul\":746:752   */\n      dup7\n        /* \"#utility.yul\":742:759   */\n      add\n        /* \"#utility.yul\":694:773   */\n      tag_53\n      jump\t// in\n    tag_69:\n        /* \"#utility.yul\":685:773   */\n      swap2\n      pop\n        /* \"#utility.yul\":501:779   */\n      pop\n        /* \"#utility.yul\":439:779   */\n      swap3\n      swap2\n      pop\n      pop\n      jump\t// out\n        /* \"#utility.yul\":785:924   */\n    tag_70:\n        /* \"#utility.yul\":831:836   */\n      0x00\n        /* \"#utility.yul\":869:875   */\n      dup2\n        /* \"#utility.yul\":856:876   */\n      calldataload\n        /* \"#utility.yul\":847:876   */\n      swap1\n      pop\n        /* \"#utility.yul\":885:918   */\n      tag_72\n        /* \"#utility.yul\":912:917   */\n      dup2\n        /* \"#utility.yul\":885:918   */\n      tag_73\n      jump\t// in\n    tag_72:\n        /* \"#utility.yul\":785:924   */\n      swap3\n      swap2\n      pop\n      pop\n      jump\t// out\n        /* \"#utility.yul\":930:1584   */\n    tag_24:\n        /* \"#utility.yul\":1008:1014   */\n      0x00\n        /* \"#utility.yul\":1016:1022   */\n      dup1\n        /* \"#utility.yul\":1065:1067   */\n      0x40\n        /* \"#utility.yul\":1053:1062   */\n      dup4\n        /* \"#utility.yul\":1044:1051   */\n      dup6\n        /* \"#utility.yul\":1040:1063   */\n      sub\n        /* \"#utility.yul\":1036:1068   */\n      slt\n        /* \"#utility.yul\":1033:1152   */\n      iszero\n      tag_75\n      jumpi\n        /* \"#utility.yul\":1071:1150   */\n      tag_76\n      tag_77\n      jump\t// in\n    tag_76:\n        /* \"#utility.yul\":1033:1152   */\n    tag_75:\n        /* \"#utility.yul\":1219:1220   */\n      0x00\n        /* \"#utility.yul\":1208:1217   */\n      dup4\n        /* \"#utility.yul\":1204:1221   */\n      add\n        /* \"#utility.yul\":1191:1222   */\n      calldataload\n        /* \"#utility.yul\":1249:1267   */\n      0xffffffffffffffff\n        /* \"#utility.yul\":1241:1247   */\n      dup2\n        /* \"#utility.yul\":1238:1268   */\n      gt\n        /* \"#utility.yul\":1235:1352   */\n      iszero\n      tag_78\n      jumpi\n        /* \"#utility.yul\":1271:1350   */\n      tag_79\n      tag_80\n      jump\t// in\n    tag_79:\n        /* \"#utility.yul\":1235:1352   */\n    tag_78:\n        /* \"#utility.yul\":1376:1439   */\n      tag_81\n        /* \"#utility.yul\":1431:1438   */\n      dup6\n        /* \"#utility.yul\":1422:1428   */\n      dup3\n        /* \"#utility.yul\":1411:1420   */\n      dup7\n        /* \"#utility.yul\":1407:1429   */\n      add\n        /* \"#utility.yul\":1376:1439   */\n      tag_64\n      jump\t// in\n    tag_81:\n        /* \"#utility.yul\":1366:1439   */\n      swap3\n      pop\n        /* \"#utility.yul\":1162:1449   */\n      pop\n        /* \"#utility.yul\":1488:1490   */\n      0x20\n        /* \"#utility.yul\":1514:1567   */\n      tag_82\n        /* \"#utility.yul\":1559:1566   */\n      dup6\n        /* \"#utility.yul\":1550:1556   */\n      dup3\n        /* \"#utility.yul\":1539:1548   */\n      dup7\n        /* \"#utility.yul\":1535:1557   */\n      add\n        /* \"#utility.yul\":1514:1567   */\n      tag_70\n      jump\t// in\n    tag_82:\n        /* \"#utility.yul\":1504:1567   */\n      swap2\n      pop\n        /* \"#utility.yul\":1459:1577   */\n      pop\n        /* \"#utility.yul\":930:1584   */\n      swap3\n      pop\n      swap3\n      swap1\n      pop\n      jump\t// out\n        /* \"#utility.yul\":1590:1919   */\n    tag_8:\n        /* \"#utility.yul\":1649:1655   */\n      0x00\n        /* \"#utility.yul\":1698:1700   */\n      0x20\n        /* \"#utility.yul\":1686:1695   */\n      dup3\n        /* \"#utility.yul\":1677:1684   */\n      dup5\n        /* \"#utility.yul\":1673:1696   */\n      sub\n        /* \"#utility.yul\":1669:1701   */\n      slt\n        /* \"#utility.yul\":1666:1785   */\n      iszero\n      tag_84\n      jumpi\n        /* \"#utility.yul\":1704:1783   */\n      tag_85\n      tag_77\n      jump\t// in\n    tag_85:\n        /* \"#utility.yul\":1666:1785   */\n    tag_84:\n        /* \"#utility.yul\":1824:1825   */\n      0x00\n        /* \"#utility.yul\":1849:1902   */\n      tag_86\n        /* \"#utility.yul\":1894:1901   */\n      dup5\n        /* \"#utility.yul\":1885:1891   */\n      dup3\n        /* \"#utility.yul\":1874:1883   */\n      dup6\n        /* \"#utility.yul\":1870:1892   */\n      add\n        /* \"#utility.yul\":1849:1902   */\n      tag_70\n      jump\t// in\n    tag_86:\n        /* \"#utility.yul\":1839:1902   */\n      swap2\n      pop\n        /* \"#utility.yul\":1795:1912   */\n      pop\n        /* \"#utility.yul\":1590:1919   */\n      swap3\n      swap2\n      pop\n      pop\n      jump\t// out\n        /* \"#utility.yul\":1925:2269   */\n    tag_87:\n        /* \"#utility.yul\":2003:2006   */\n      0x00\n        /* \"#utility.yul\":2031:2070   */\n      tag_89\n        /* \"#utility.yul\":2064:2069   */\n      dup3\n        /* \"#utility.yul\":2031:2070   */\n      tag_90\n      jump\t// in\n    tag_89:\n        /* \"#utility.yul\":2086:2147   */\n      tag_91\n        /* \"#utility.yul\":2140:2146   */\n      dup2\n        /* \"#utility.yul\":2135:2138   */\n      dup6\n        /* \"#utility.yul\":2086:2147   */\n      tag_92\n      jump\t// in\n    tag_91:\n        /* \"#utility.yul\":2079:2147   */\n      swap4\n      pop\n        /* \"#utility.yul\":2156:2208   */\n      tag_93\n        /* \"#utility.yul\":2201:2207   */\n      dup2\n        /* \"#utility.yul\":2196:2199   */\n      dup6\n        /* \"#utility.yul\":2189:2193   */\n      0x20\n        /* \"#utility.yul\":2182:2187   */\n      dup7\n        /* \"#utility.yul\":2178:2194   */\n      add\n        /* \"#utility.yul\":2156:2208   */\n      tag_94\n      jump\t// in\n    tag_93:\n        /* \"#utility.yul\":2233:2262   */\n      tag_95\n        /* \"#utility.yul\":2255:2261   */\n      dup2\n        /* \"#utility.yul\":2233:2262   */\n      tag_96\n      jump\t// in\n    tag_95:\n        /* \"#utility.yul\":2228:2231   */\n      dup5\n        /* \"#utility.yul\":2224:2263   */\n      add\n        /* \"#utility.yul\":2217:2263   */\n      swap2\n      pop\n        /* \"#utility.yul\":2007:2269   */\n      pop\n        /* \"#utility.yul\":1925:2269   */\n      swap3\n      swap2\n      pop\n      pop\n      jump\t// out\n        /* \"#utility.yul\":2345:3138   */\n    tag_97:\n        /* \"#utility.yul\":2472:2475   */\n      0x00\n        /* \"#utility.yul\":2508:2512   */\n      0x60\n        /* \"#utility.yul\":2503:2506   */\n      dup4\n        /* \"#utility.yul\":2499:2513   */\n      add\n        /* \"#utility.yul\":2595:2599   */\n      0x00\n        /* \"#utility.yul\":2588:2593   */\n      dup4\n        /* \"#utility.yul\":2584:2600   */\n      add\n        /* \"#utility.yul\":2578:2601   */\n      mload\n        /* \"#utility.yul\":2648:2651   */\n      dup5\n        /* \"#utility.yul\":2642:2646   */\n      dup3\n        /* \"#utility.yul\":2638:2652   */\n      sub\n        /* \"#utility.yul\":2631:2635   */\n      0x00\n        /* \"#utility.yul\":2626:2629   */\n      dup7\n        /* \"#utility.yul\":2622:2636   */\n      add\n        /* \"#utility.yul\":2615:2653   */\n      mstore\n        /* \"#utility.yul\":2674:2747   */\n      tag_99\n        /* \"#utility.yul\":2742:2746   */\n      dup3\n        /* \"#utility.yul\":2728:2740   */\n      dup3\n        /* \"#utility.yul\":2674:2747   */\n      tag_87\n      jump\t// in\n    tag_99:\n        /* \"#utility.yul\":2666:2747   */\n      swap2\n      pop\n        /* \"#utility.yul\":2523:2758   */\n      pop\n        /* \"#utility.yul\":2841:2845   */\n      0x20\n        /* \"#utility.yul\":2834:2839   */\n      dup4\n        /* \"#utility.yul\":2830:2846   */\n      add\n        /* \"#utility.yul\":2824:2847   */\n      mload\n        /* \"#utility.yul\":2860:2923   */\n      tag_100\n        /* \"#utility.yul\":2917:2921   */\n      0x20\n        /* \"#utility.yul\":2912:2915   */\n      dup7\n        /* \"#utility.yul\":2908:2922   */\n      add\n        /* \"#utility.yul\":2894:2906   */\n      dup3\n        /* \"#utility.yul\":2860:2923   */\n      tag_101\n      jump\t// in\n    tag_100:\n        /* \"#utility.yul\":2768:2933   */\n      pop\n        /* \"#utility.yul\":3019:3023   */\n      0x40\n        /* \"#utility.yul\":3012:3017   */\n      dup4\n        /* \"#utility.yul\":3008:3024   */\n      add\n        /* \"#utility.yul\":3002:3025   */\n      mload\n        /* \"#utility.yul\":3038:3101   */\n      tag_102\n        /* \"#utility.yul\":3095:3099   */\n      0x40\n        /* \"#utility.yul\":3090:3093   */\n      dup7\n        /* \"#utility.yul\":3086:3100   */\n      add\n        /* \"#utility.yul\":3072:3084   */\n      dup3\n        /* \"#utility.yul\":3038:3101   */\n      tag_101\n      jump\t// in\n    tag_102:\n        /* \"#utility.yul\":2943:3111   */\n      pop\n        /* \"#utility.yul\":3128:3132   */\n      dup1\n        /* \"#utility.yul\":3121:3132   */\n      swap2\n      pop\n        /* \"#utility.yul\":2477:3138   */\n      pop\n        /* \"#utility.yul\":2345:3138   */\n      swap3\n      swap2\n      pop\n      pop\n      jump\t// out\n        /* \"#utility.yul\":3144:3252   */\n    tag_101:\n        /* \"#utility.yul\":3221:3245   */\n      tag_104\n        /* \"#utility.yul\":3239:3244   */\n      dup2\n        /* \"#utility.yul\":3221:3245   */\n      tag_105\n      jump\t// in\n    tag_104:\n        /* \"#utility.yul\":3216:3219   */\n      dup3\n        /* \"#utility.yul\":3209:3246   */\n      mstore\n        /* \"#utility.yul\":3144:3252   */\n      pop\n      pop\n      jump\t// out\n        /* \"#utility.yul\":3258:3376   */\n    tag_106:\n        /* \"#utility.yul\":3345:3369   */\n      tag_108\n        /* \"#utility.yul\":3363:3368   */\n      dup2\n        /* \"#utility.yul\":3345:3369   */\n      tag_105\n      jump\t// in\n    tag_108:\n        /* \"#utility.yul\":3340:3343   */\n      dup3\n        /* \"#utility.yul\":3333:3370   */\n      mstore\n        /* \"#utility.yul\":3258:3376   */\n      pop\n      pop\n      jump\t// out\n        /* \"#utility.yul\":3382:3771   */\n    tag_20:\n        /* \"#utility.yul\":3533:3537   */\n      0x00\n        /* \"#utility.yul\":3571:3573   */\n      0x20\n        /* \"#utility.yul\":3560:3569   */\n      dup3\n        /* \"#utility.yul\":3556:3574   */\n      add\n        /* \"#utility.yul\":3548:3574   */\n      swap1\n      pop\n        /* \"#utility.yul\":3620:3629   */\n      dup2\n        /* \"#utility.yul\":3614:3618   */\n      dup2\n        /* \"#utility.yul\":3610:3630   */\n      sub\n        /* \"#utility.yul\":3606:3607   */\n      0x00\n        /* \"#utility.yul\":3595:3604   */\n      dup4\n        /* \"#utility.yul\":3591:3608   */\n      add\n        /* \"#utility.yul\":3584:3631   */\n      mstore\n        /* \"#utility.yul\":3648:3764   */\n      tag_110\n        /* \"#utility.yul\":3759:3763   */\n      dup2\n        /* \"#utility.yul\":3750:3756   */\n      dup5\n        /* \"#utility.yul\":3648:3764   */\n      tag_97\n      jump\t// in\n    tag_110:\n        /* \"#utility.yul\":3640:3764   */\n      swap1\n      pop\n        /* \"#utility.yul\":3382:3771   */\n      swap3\n      swap2\n      pop\n      pop\n      jump\t// out\n        /* \"#utility.yul\":3777:3999   */\n    tag_14:\n        /* \"#utility.yul\":3870:3874   */\n      0x00\n        /* \"#utility.yul\":3908:3910   */\n      0x20\n        /* \"#utility.yul\":3897:3906   */\n      dup3\n        /* \"#utility.yul\":3893:3911   */\n      add\n        /* \"#utility.yul\":3885:3911   */\n      swap1\n      pop\n        /* \"#utility.yul\":3921:3992   */\n      tag_112\n        /* \"#utility.yul\":3989:3990   */\n      0x00\n        /* \"#utility.yul\":3978:3987   */\n      dup4\n        /* \"#utility.yul\":3974:3991   */\n      add\n        /* \"#utility.yul\":3965:3971   */\n      dup5\n        /* \"#utility.yul\":3921:3992   */\n      tag_106\n      jump\t// in\n    tag_112:\n        /* \"#utility.yul\":3777:3999   */\n      swap3\n      swap2\n      pop\n      pop\n      jump\t// out\n        /* \"#utility.yul\":4005:4134   */\n    tag_58:\n        /* \"#utility.yul\":4039:4045   */\n      0x00\n        /* \"#utility.yul\":4066:4086   */\n      tag_114\n      tag_115\n      jump\t// in\n    tag_114:\n        /* \"#utility.yul\":4056:4086   */\n      swap1\n      pop\n        /* \"#utility.yul\":4095:4128   */\n      tag_116\n        /* \"#utility.yul\":4123:4127   */\n      dup3\n        /* \"#utility.yul\":4115:4121   */\n      dup3\n        /* \"#utility.yul\":4095:4128   */\n      tag_117\n      jump\t// in\n    tag_116:\n        /* \"#utility.yul\":4005:4134   */\n      swap2\n      swap1\n      pop\n      jump\t// out\n        /* \"#utility.yul\":4140:4215   */\n    tag_115:\n        /* \"#utility.yul\":4173:4179   */\n      0x00\n        /* \"#utility.yul\":4206:4208   */\n      0x40\n        /* \"#utility.yul\":4200:4209   */\n      mload\n        /* \"#utility.yul\":4190:4209   */\n      swap1\n      pop\n        /* \"#utility.yul\":4140:4215   */\n      swap1\n      jump\t// out\n        /* \"#utility.yul\":4221:4529   */\n    tag_57:\n        /* \"#utility.yul\":4283:4287   */\n      0x00\n        /* \"#utility.yul\":4373:4391   */\n      0xffffffffffffffff\n        /* \"#utility.yul\":4365:4371   */\n      dup3\n        /* \"#utility.yul\":4362:4392   */\n      gt\n        /* \"#utility.yul\":4359:4415   */\n      iszero\n      tag_120\n      jumpi\n        /* \"#utility.yul\":4395:4413   */\n      tag_121\n      tag_122\n      jump\t// in\n    tag_121:\n        /* \"#utility.yul\":4359:4415   */\n    tag_120:\n        /* \"#utility.yul\":4433:4462   */\n      tag_123\n        /* \"#utility.yul\":4455:4461   */\n      dup3\n        /* \"#utility.yul\":4433:4462   */\n      tag_96\n      jump\t// in\n    tag_123:\n        /* \"#utility.yul\":4425:4462   */\n      swap1\n      pop\n        /* \"#utility.yul\":4517:4521   */\n      0x20\n        /* \"#utility.yul\":4511:4515   */\n      dup2\n        /* \"#utility.yul\":4507:4522   */\n      add\n        /* \"#utility.yul\":4499:4522   */\n      swap1\n      pop\n        /* \"#utility.yul\":4221:4529   */\n      swap2\n      swap1\n      pop\n      jump\t// out\n        /* \"#utility.yul\":4535:4634   */\n    tag_90:\n        /* \"#utility.yul\":4587:4593   */\n      0x00\n        /* \"#utility.yul\":4621:4626   */\n      dup2\n        /* \"#utility.yul\":4615:4627   */\n      mload\n        /* \"#utility.yul\":4605:4627   */\n      swap1\n      pop\n        /* \"#utility.yul\":4535:4634   */\n      swap2\n      swap1\n      pop\n      jump\t// out\n        /* \"#utility.yul\":4640:4799   */\n    tag_92:\n        /* \"#utility.yul\":4714:4725   */\n      0x00\n        /* \"#utility.yul\":4748:4754   */\n      dup3\n        /* \"#utility.yul\":4743:4746   */\n      dup3\n        /* \"#utility.yul\":4736:4755   */\n      mstore\n        /* \"#utility.yul\":4788:4792   */\n      0x20\n        /* \"#utility.yul\":4783:4786   */\n      dup3\n        /* \"#utility.yul\":4779:4793   */\n      add\n        /* \"#utility.yul\":4764:4793   */\n      swap1\n      pop\n        /* \"#utility.yul\":4640:4799   */\n      swap3\n      swap2\n      pop\n      pop\n      jump\t// out\n        /* \"#utility.yul\":4805:5110   */\n    tag_28:\n        /* \"#utility.yul\":4845:4848   */\n      0x00\n        /* \"#utility.yul\":4864:4884   */\n      tag_127\n        /* \"#utility.yul\":4882:4883   */\n      dup3\n        /* \"#utility.yul\":4864:4884   */\n      tag_105\n      jump\t// in\n    tag_127:\n        /* \"#utility.yul\":4859:4884   */\n      swap2\n      pop\n        /* \"#utility.yul\":4898:4918   */\n      tag_128\n        /* \"#utility.yul\":4916:4917   */\n      dup4\n        /* \"#utility.yul\":4898:4918   */\n      tag_105\n      jump\t// in\n    tag_128:\n        /* \"#utility.yul\":4893:4918   */\n      swap3\n      pop\n        /* \"#utility.yul\":5052:5053   */\n      dup3\n        /* \"#utility.yul\":4984:5050   */\n      0xffffffffffffffffffffffffffffffffffffffffffffffffffffffffffffffff\n        /* \"#utility.yul\":4980:5054   */\n      sub\n        /* \"#utility.yul\":4977:4978   */\n      dup3\n        /* \"#utility.yul\":4974:5055   */\n      gt\n        /* \"#utility.yul\":4971:5078   */\n      iszero\n      tag_129\n      jumpi\n        /* \"#utility.yul\":5058:5076   */\n      tag_130\n      tag_131\n      jump\t// in\n    tag_130:\n        /* \"#utility.yul\":4971:5078   */\n    tag_129:\n        /* \"#utility.yul\":5102:5103   */\n      dup3\n        /* \"#utility.yul\":5099:5100   */\n      dup3\n        /* \"#utility.yul\":5095:5104   */\n      add\n        /* \"#utility.yul\":5088:5104   */\n      swap1\n      pop\n        /* \"#utility.yul\":4805:5110   */\n      swap3\n      swap2\n      pop\n      pop\n      jump\t// out\n        /* \"#utility.yul\":5116:5193   */\n    tag_105:\n        /* \"#utility.yul\":5153:5160   */\n      0x00\n        /* \"#utility.yul\":5182:5187   */\n      dup2\n        /* \"#utility.yul\":5171:5187   */\n      swap1\n      pop\n        /* \"#utility.yul\":5116:5193   */\n      swap2\n      swap1\n      pop\n      jump\t// out\n        /* \"#utility.yul\":5199:5353   */\n    tag_63:\n        /* \"#utility.yul\":5283:5289   */\n      dup3\n        /* \"#utility.yul\":5278:5281   */\n      dup2\n        /* \"#utility.yul\":5273:5276   */\n      dup4\n        /* \"#utility.yul\":5260:5290   */\n      calldatacopy\n        /* \"#utility.yul\":5345:5346   */\n      0x00\n        /* \"#utility.yul\":5336:5342   */\n      dup4\n        /* \"#utility.yul\":5331:5334   */\n      dup4\n        /* \"#utility.yul\":5327:5343   */\n      add\n        /* \"#utility.yul\":5320:5347   */\n      mstore\n        /* \"#utility.yul\":5199:5353   */\n      pop\n      pop\n      pop\n      jump\t// out\n        /* \"#utility.yul\":5359:5666   */\n    tag_94:\n        /* \"#utility.yul\":5427:5428   */\n      0x00\n        /* \"#utility.yul\":5437:5550   */\n    tag_135:\n        /* \"#utility.yul\":5451:5457   */\n      dup4\n        /* \"#utility.yul\":5448:5449   */\n      dup2\n        /* \"#utility.yul\":5445:5458   */\n      lt\n        /* \"#utility.yul\":5437:5550   */\n      iszero\n      tag_137\n      jumpi\n        /* \"#utility.yul\":5536:5537   */\n      dup1\n        /* \"#utility.yul\":5531:5534   */\n      dup3\n        /* \"#utility.yul\":5527:5538   */\n      add\n        /* \"#utility.yul\":5521:5539   */\n      mload\n        /* \"#utility.yul\":5517:5518   */\n      dup2\n        /* \"#utility.yul\":5512:5515   */\n      dup5\n        /* \"#utility.yul\":5508:5519   */\n      add\n        /* \"#utility.yul\":5501:5540   */\n      mstore\n        /* \"#utility.yul\":5473:5475   */\n      0x20\n        /* \"#utility.yul\":5470:5471   */\n      dup2\n        /* \"#utility.yul\":5466:5476   */\n      add\n        /* \"#utility.yul\":5461:5476   */\n      swap1\n      pop\n        /* \"#utility.yul\":5437:5550   */\n      jump(tag_135)\n    tag_137:\n        /* \"#utility.yul\":5568:5574   */\n      dup4\n        /* \"#utility.yul\":5565:5566   */\n      dup2\n        /* \"#utility.yul\":5562:5575   */\n      gt\n        /* \"#utility.yul\":5559:5660   */\n      iszero\n      tag_138\n      jumpi\n        /* \"#utility.yul\":5648:5649   */\n      0x00\n        /* \"#utility.yul\":5639:5645   */\n      dup5\n        /* \"#utility.yul\":5634:5637   */\n      dup5\n        /* \"#utility.yul\":5630:5646   */\n      add\n        /* \"#utility.yul\":5623:5650   */\n      mstore\n        /* \"#utility.yul\":5559:5660   */\n    tag_138:\n        /* \"#utility.yul\":5408:5666   */\n      pop\n        /* \"#utility.yul\":5359:5666   */\n      pop\n      pop\n      pop\n      jump\t// out\n        /* \"#utility.yul\":5672:5992   */\n    tag_33:\n        /* \"#utility.yul\":5716:5722   */\n      0x00\n        /* \"#utility.yul\":5753:5754   */\n      0x02\n        /* \"#utility.yul\":5747:5751   */\n      dup3\n        /* \"#utility.yul\":5743:5755   */\n      div\n        /* \"#utility.yul\":5733:5755   */\n      swap1\n      pop\n        /* \"#utility.yul\":5800:5801   */\n      0x01\n        /* \"#utility.yul\":5794:5798   */\n      dup3\n        /* \"#utility.yul\":5790:5802   */\n      and\n        /* \"#utility.yul\":5821:5839   */\n      dup1\n        /* \"#utility.yul\":5811:5892   */\n      tag_140\n      jumpi\n        /* \"#utility.yul\":5877:5881   */\n      0x7f\n        /* \"#utility.yul\":5869:5875   */\n      dup3\n        /* \"#utility.yul\":5865:5882   */\n      and\n        /* \"#utility.yul\":5855:5882   */\n      swap2\n      pop\n        /* \"#utility.yul\":5811:5892   */\n    tag_140:\n        /* \"#utility.yul\":5939:5941   */\n      0x20\n        /* \"#utility.yul\":5931:5937   */\n      dup3\n        /* \"#utility.yul\":5928:5942   */\n      lt\n        /* \"#utility.yul\":5908:5926   */\n      dup2\n        /* \"#utility.yul\":5905:5943   */\n      eq\n        /* \"#utility.yul\":5902:5986   */\n      iszero\n      tag_141\n      jumpi\n        /* \"#utility.yul\":5958:5976   */\n      tag_142\n      tag_143\n      jump\t// in\n    tag_142:\n        /* \"#utility.yul\":5902:5986   */\n    tag_141:\n        /* \"#utility.yul\":5723:5992   */\n      pop\n        /* \"#utility.yul\":5672:5992   */\n      swap2\n      swap1\n      pop\n      jump\t// out\n        /* \"#utility.yul\":5998:6279   */\n    tag_117:\n        /* \"#utility.yul\":6081:6108   */\n      tag_145\n        /* \"#utility.yul\":6103:6107   */\n      dup3\n        /* \"#utility.yul\":6081:6108   */\n      tag_96\n      jump\t// in\n    tag_145:\n        /* \"#utility.yul\":6073:6079   */\n      dup2\n        /* \"#utility.yul\":6069:6109   */\n      add\n        /* \"#utility.yul\":6211:6217   */\n      dup2\n        /* \"#utility.yul\":6199:6209   */\n      dup2\n        /* \"#utility.yul\":6196:6218   */\n      lt\n        /* \"#utility.yul\":6175:6193   */\n      0xffffffffffffffff\n        /* \"#utility.yul\":6163:6173   */\n      dup3\n        /* \"#utility.yul\":6160:6194   */\n      gt\n        /* \"#utility.yul\":6157:6219   */\n      or\n        /* \"#utility.yul\":6154:6242   */\n      iszero\n      tag_146\n      jumpi\n        /* \"#utility.yul\":6222:6240   */\n      tag_147\n      tag_122\n      jump\t// in\n    tag_147:\n        /* \"#utility.yul\":6154:6242   */\n    tag_146:\n        /* \"#utility.yul\":6262:6272   */\n      dup1\n        /* \"#utility.yul\":6258:6260   */\n      0x40\n        /* \"#utility.yul\":6251:6273   */\n      mstore\n        /* \"#utility.yul\":6041:6279   */\n      pop\n        /* \"#utility.yul\":5998:6279   */\n      pop\n      pop\n      jump\t// out\n        /* \"#utility.yul\":6285:6465   */\n    tag_131:\n        /* \"#utility.yul\":6333:6410   */\n      0x4e487b7100000000000000000000000000000000000000000000000000000000\n        /* \"#utility.yul\":6330:6331   */\n      0x00\n        /* \"#utility.yul\":6323:6411   */\n      mstore\n        /* \"#utility.yul\":6430:6434   */\n      0x11\n        /* \"#utility.yul\":6427:6428   */\n      0x04\n        /* \"#utility.yul\":6420:6435   */\n      mstore\n        /* \"#utility.yul\":6454:6458   */\n      0x24\n        /* \"#utility.yul\":6451:6452   */\n      0x00\n        /* \"#utility.yul\":6444:6459   */\n      revert\n        /* \"#utility.yul\":6471:6651   */\n    tag_143:\n        /* \"#utility.yul\":6519:6596   */\n      0x4e487b7100000000000000000000000000000000000000000000000000000000\n        /* \"#utility.yul\":6516:6517   */\n      0x00\n        /* \"#utility.yul\":6509:6597   */\n      mstore\n        /* \"#utility.yul\":6616:6620   */\n      0x22\n        /* \"#utility.yul\":6613:6614   */\n      0x04\n        /* \"#utility.yul\":6606:6621   */\n      mstore\n        /* \"#utility.yul\":6640:6644   */\n      0x24\n        /* \"#utility.yul\":6637:6638   */\n      0x00\n        /* \"#utility.yul\":6630:6645   */\n      revert\n        /* \"#utility.yul\":6657:6837   */\n    tag_122:\n        /* \"#utility.yul\":6705:6782   */\n      0x4e487b7100000000000000000000000000000000000000000000000000000000\n        /* \"#utility.yul\":6702:6703   */\n      0x00\n        /* \"#utility.yul\":6695:6783   */\n      mstore\n        /* \"#utility.yul\":6802:6806   */\n      0x41\n        /* \"#utility.yul\":6799:6800   */\n      0x04\n        /* \"#utility.yul\":6792:6807   */\n      mstore\n        /* \"#utility.yul\":6826:6830   */\n      0x24\n        /* \"#utility.yul\":6823:6824   */\n      0x00\n        /* \"#utility.yul\":6816:6831   */\n      revert\n        /* \"#utility.yul\":6843:6960   */\n    tag_68:\n        /* \"#utility.yul\":6952:6953   */\n      0x00\n        /* \"#utility.yul\":6949:6950   */\n      dup1\n        /* \"#utility.yul\":6942:6954   */\n      revert\n        /* \"#utility.yul\":6966:7083   */\n    tag_61:\n        /* \"#utility.yul\":7075:7076   */\n      0x00\n        /* \"#utility.yul\":7072:7073   */\n      dup1\n        /* \"#utility.yul\":7065:7077   */\n      revert\n        /* \"#utility.yul\":7089:7206   */\n    tag_80:\n        /* \"#utility.yul\":7198:7199   */\n      0x00\n        /* \"#utility.yul\":7195:7196   */\n      dup1\n        /* \"#utility.yul\":7188:7200   */\n      revert\n        /* \"#utility.yul\":7212:7329   */\n    tag_77:\n        /* \"#utility.yul\":7321:7322   */\n      0x00\n        /* \"#utility.yul\":7318:7319   */\n      dup1\n        /* \"#utility.yul\":7311:7323   */\n      revert\n        /* \"#utility.yul\":7335:7437   */\n    tag_96:\n        /* \"#utility.yul\":7376:7382   */\n      0x00\n        /* \"#utility.yul\":7427:7429   */\n      0x1f\n        /* \"#utility.yul\":7423:7430   */\n      not\n        /* \"#utility.yul\":7418:7420   */\n      0x1f\n        /* \"#utility.yul\":7411:7416   */\n      dup4\n        /* \"#utility.yul\":7407:7421   */\n      add\n        /* \"#utility.yul\":7403:7431   */\n      and\n        /* \"#utility.yul\":7393:7431   */\n      swap1\n      pop\n        /* \"#utility.yul\":7335:7437   */\n      swap2\n      swap1\n      pop\n      jump\t// out\n        /* \"#utility.yul\":7443:7565   */\n    tag_73:\n        /* \"#utility.yul\":7516:7540   */\n      tag_157\n        /* \"#utility.yul\":7534:7539   */\n      dup2\n        /* \"#utility.yul\":7516:7540   */\n      tag_105\n      jump\t// in\n    tag_157:\n        /* \"#utility.yul\":7509:7514   */\n      dup2\n        /* \"#utility.yul\":7506:7541   */\n      eq\n        /* \"#utility.yul\":7496:7559   */\n      tag_158\n      jumpi\n        /* \"#utility.yul\":7555:7556   */\n      0x00\n        /* \"#utility.yul\":7552:7553   */\n      dup1\n        /* \"#utility.yul\":7545:7557   */\n      revert\n        /* \"#utility.yul\":7496:7559   */\n    tag_158:\n        /* \"#utility.yul\":7443:7565   */\n      pop\n      jump\t// out\n\n    auxdata: 0xa26469706673582212206b7a1b3c0f64b0ee98221489d4f53abd62fe90705cbfa5261d068563c1ef37ae64736f6c63430008070033\n}\n",
				"bytecode": {
					"linkReferences": {},
					"object": "608060405234801561001057600080fd5b506107a6806100206000396000f3fe60806040526004361061003f5760003560e01c80633084d73514610044578063522ba38e1461006057806386a9b3641461008b578063e50e2c63146100c8575b600080fd5b61005e6004803603810190610059919061041f565b6100f1565b005b34801561006c57600080fd5b50610075610120565b6040516100829190610515565b60405180910390f35b34801561009757600080fd5b506100b260048036038101906100ad919061041f565b610126565b6040516100bf91906104f3565b60405180910390f35b3480156100d457600080fd5b506100ef60048036038101906100ea91906103c3565b6101f8565b005b34600080838152602001908152602001600020600201600082825461011691906105a2565b9250508190555050565b60015481565b61012e61027a565b60008083815260200190815260200160002060405180606001604052908160008201805461015b90610644565b80601f016020809104026020016040519081016040528092919081815260200182805461018790610644565b80156101d45780601f106101a9576101008083540402835291602001916101d4565b820191906000526020600020905b8154815290600101906020018083116101b757829003601f168201915b50505050508152602001600182015481526020016002820154815250509050919050565b816000806001548152602001908152602001600020600001908051906020019061022392919061029b565b50806000806001548152602001908152602001600020600101819055506000806000600154815260200190815260200160002060020181905550600180600082825461026f91906105a2565b925050819055505050565b60405180606001604052806060815260200160008152602001600081525090565b8280546102a790610644565b90600052602060002090601f0160209004810192826102c95760008555610310565b82601f106102e257805160ff1916838001178555610310565b82800160010185558215610310579182015b8281111561030f5782518255916020019190600101906102f4565b5b50905061031d9190610321565b5090565b5b8082111561033a576000816000905550600101610322565b5090565b600061035161034c84610555565b610530565b90508281526020810184848401111561036d5761036c610739565b5b610378848285610602565b509392505050565b600082601f83011261039557610394610734565b5b81356103a584826020860161033e565b91505092915050565b6000813590506103bd81610759565b92915050565b600080604083850312156103da576103d9610743565b5b600083013567ffffffffffffffff8111156103f8576103f761073e565b5b61040485828601610380565b9250506020610415858286016103ae565b9150509250929050565b60006020828403121561043557610434610743565b5b6000610443848285016103ae565b91505092915050565b600061045782610586565b6104618185610591565b9350610471818560208601610611565b61047a81610748565b840191505092915050565b600060608301600083015184820360008601526104a2828261044c565b91505060208301516104b760208601826104d5565b5060408301516104ca60408601826104d5565b508091505092915050565b6104de816105f8565b82525050565b6104ed816105f8565b82525050565b6000602082019050818103600083015261050d8184610485565b905092915050565b600060208201905061052a60008301846104e4565b92915050565b600061053a61054b565b90506105468282610676565b919050565b6000604051905090565b600067ffffffffffffffff8211156105705761056f610705565b5b61057982610748565b9050602081019050919050565b600081519050919050565b600082825260208201905092915050565b60006105ad826105f8565b91506105b8836105f8565b9250827fffffffffffffffffffffffffffffffffffffffffffffffffffffffffffffffff038211156105ed576105ec6106a7565b5b828201905092915050565b6000819050919050565b82818337600083830152505050565b60005b8381101561062f578082015181840152602081019050610614565b8381111561063e576000848401525b50505050565b6000600282049050600182168061065c57607f821691505b602082108114156106705761066f6106d6565b5b50919050565b61067f82610748565b810181811067ffffffffffffffff8211171561069e5761069d610705565b5b80604052505050565b7f4e487b7100000000000000000000000000000000000000000000000000000000600052601160045260246000fd5b7f4e487b7100000000000000000000000000000000000000000000000000000000600052602260045260246000fd5b7f4e487b7100000000000000000000000000000000000000000000000000000000600052604160045260246000fd5b600080fd5b600080fd5b600080fd5b600080fd5b6000601f19601f8301169050919050565b610762816105f8565b811461076d57600080fd5b5056fea26469706673582212206b7a1b3c0f64b0ee98221489d4f53abd62fe90705cbfa5261d068563c1ef37ae64736f6c63430008070033",
					"opcodes": "PUSH1 0x80 PUSH1 0x40 MSTORE CALLVALUE DUP1 ISZERO PUSH2 0x10 JUMPI PUSH1 0x0 DUP1 REVERT JUMPDEST POP PUSH2 0x7A6 DUP1 PUSH2 0x20 PUSH1 0x0 CODECOPY PUSH1 0x0 RETURN INVALID PUSH1 0x80 PUSH1 0x40 MSTORE PUSH1 0x4 CALLDATASIZE LT PUSH2 0x3F JUMPI PUSH1 0x0 CALLDATALOAD PUSH1 0xE0 SHR DUP1 PUSH4 0x3084D735 EQ PUSH2 0x44 JUMPI DUP1 PUSH4 0x522BA38E EQ PUSH2 0x60 JUMPI DUP1 PUSH4 0x86A9B364 EQ PUSH2 0x8B JUMPI DUP1 PUSH4 0xE50E2C63 EQ PUSH2 0xC8 JUMPI JUMPDEST PUSH1 0x0 DUP1 REVERT JUMPDEST PUSH2 0x5E PUSH1 0x4 DUP1 CALLDATASIZE SUB DUP2 ADD SWAP1 PUSH2 0x59 SWAP2 SWAP1 PUSH2 0x41F JUMP JUMPDEST PUSH2 0xF1 JUMP JUMPDEST STOP JUMPDEST CALLVALUE DUP1 ISZERO PUSH2 0x6C JUMPI PUSH1 0x0 DUP1 REVERT JUMPDEST POP PUSH2 0x75 PUSH2 0x120 JUMP JUMPDEST PUSH1 0x40 MLOAD PUSH2 0x82 SWAP2 SWAP1 PUSH2 0x515 JUMP JUMPDEST PUSH1 0x40 MLOAD DUP1 SWAP2 SUB SWAP1 RETURN JUMPDEST CALLVALUE DUP1 ISZERO PUSH2 0x97 JUMPI PUSH1 0x0 DUP1 REVERT JUMPDEST POP PUSH2 0xB2 PUSH1 0x4 DUP1 CALLDATASIZE SUB DUP2 ADD SWAP1 PUSH2 0xAD SWAP2 SWAP1 PUSH2 0x41F JUMP JUMPDEST PUSH2 0x126 JUMP JUMPDEST PUSH1 0x40 MLOAD PUSH2 0xBF SWAP2 SWAP1 PUSH2 0x4F3 JUMP JUMPDEST PUSH1 0x40 MLOAD DUP1 SWAP2 SUB SWAP1 RETURN JUMPDEST CALLVALUE DUP1 ISZERO PUSH2 0xD4 JUMPI PUSH1 0x0 DUP1 REVERT JUMPDEST POP PUSH2 0xEF PUSH1 0x4 DUP1 CALLDATASIZE SUB DUP2 ADD SWAP1 PUSH2 0xEA SWAP2 SWAP1 PUSH2 0x3C3 JUMP JUMPDEST PUSH2 0x1F8 JUMP JUMPDEST STOP JUMPDEST CALLVALUE PUSH1 0x0 DUP1 DUP4 DUP2 MSTORE PUSH1 0x20 ADD SWAP1 DUP2 MSTORE PUSH1 0x20 ADD PUSH1 0x0 KECCAK256 PUSH1 0x2 ADD PUSH1 0x0 DUP3 DUP3 SLOAD PUSH2 0x116 SWAP2 SWAP1 PUSH2 0x5A2 JUMP JUMPDEST SWAP3 POP POP DUP2 SWAP1 SSTORE POP POP JUMP JUMPDEST PUSH1 0x1 SLOAD DUP2 JUMP JUMPDEST PUSH2 0x12E PUSH2 0x27A JUMP JUMPDEST PUSH1 0x0 DUP1 DUP4 DUP2 MSTORE PUSH1 0x20 ADD SWAP1 DUP2 MSTORE PUSH1 0x20 ADD PUSH1 0x0 KECCAK256 PUSH1 0x40 MLOAD DUP1 PUSH1 0x60 ADD PUSH1 0x40 MSTORE SWAP1 DUP2 PUSH1 0x0 DUP3 ADD DUP1 SLOAD PUSH2 0x15B SWAP1 PUSH2 0x644 JUMP JUMPDEST DUP1 PUSH1 0x1F ADD PUSH1 0x20 DUP1 SWAP2 DIV MUL PUSH1 0x20 ADD PUSH1 0x40 MLOAD SWAP1 DUP2 ADD PUSH1 0x40 MSTORE DUP1 SWAP3 SWAP2 SWAP1 DUP2 DUP2 MSTORE PUSH1 0x20 ADD DUP3 DUP1 SLOAD PUSH2 0x187 SWAP1 PUSH2 0x644 JUMP JUMPDEST DUP1 ISZERO PUSH2 0x1D4 JUMPI DUP1 PUSH1 0x1F LT PUSH2 0x1A9 JUMPI PUSH2 0x100 DUP1 DUP4 SLOAD DIV MUL DUP4 MSTORE SWAP2 PUSH1 0x20 ADD SWAP2 PUSH2 0x1D4 JUMP JUMPDEST DUP3 ADD SWAP2 SWAP1 PUSH1 0x0 MSTORE PUSH1 0x20 PUSH1 0x0 KECCAK256 SWAP1 JUMPDEST DUP2 SLOAD DUP2 MSTORE SWAP1 PUSH1 0x1 ADD SWAP1 PUSH1 0x20 ADD DUP1 DUP4 GT PUSH2 0x1B7 JUMPI DUP3 SWAP1 SUB PUSH1 0x1F AND DUP3 ADD SWAP2 JUMPDEST POP POP POP POP POP DUP2 MSTORE PUSH1 0x20 ADD PUSH1 0x1 DUP3 ADD SLOAD DUP2 MSTORE PUSH1 0x20 ADD PUSH1 0x2 DUP3 ADD SLOAD DUP2 MSTORE POP POP SWAP1 POP SWAP2 SWAP1 POP JUMP JUMPDEST DUP2 PUSH1 0x0 DUP1 PUSH1 0x1 SLOAD DUP2 MSTORE PUSH1 0x20 ADD SWAP1 DUP2 MSTORE PUSH1 0x20 ADD PUSH1 0x0 KECCAK256 PUSH1 0x0 ADD SWAP1 DUP1 MLOAD SWAP1 PUSH1 0x20 ADD SWAP1 PUSH2 0x223 SWAP3 SWAP2 SWAP1 PUSH2 0x29B JUMP JUMPDEST POP DUP1 PUSH1 0x0 DUP1 PUSH1 0x1 SLOAD DUP2 MSTORE PUSH1 0x20 ADD SWAP1 DUP2 MSTORE PUSH1 0x20 ADD PUSH1 0x0 KECCAK256 PUSH1 0x1 ADD DUP2 SWAP1 SSTORE POP PUSH1 0x0 DUP1 PUSH1 0x0 PUSH1 0x1 SLOAD DUP2 MSTORE PUSH1 0x20 ADD SWAP1 DUP2 MSTORE PUSH1 0x20 ADD PUSH1 0x0 KECCAK256 PUSH1 0x2 ADD DUP2 SWAP1 SSTORE POP PUSH1 0x1 DUP1 PUSH1 0x0 DUP3 DUP3 SLOAD PUSH2 0x26F SWAP2 SWAP1 PUSH2 0x5A2 JUMP JUMPDEST SWAP3 POP POP DUP2 SWAP1 SSTORE POP POP POP JUMP JUMPDEST PUSH1 0x40 MLOAD DUP1 PUSH1 0x60 ADD PUSH1 0x40 MSTORE DUP1 PUSH1 0x60 DUP2 MSTORE PUSH1 0x20 ADD PUSH1 0x0 DUP2 MSTORE PUSH1 0x20 ADD PUSH1 0x0 DUP2 MSTORE POP SWAP1 JUMP JUMPDEST DUP3 DUP1 SLOAD PUSH2 0x2A7 SWAP1 PUSH2 0x644 JUMP JUMPDEST SWAP1 PUSH1 0x0 MSTORE PUSH1 0x20 PUSH1 0x0 KECCAK256 SWAP1 PUSH1 0x1F ADD PUSH1 0x20 SWAP1 DIV DUP2 ADD SWAP3 DUP3 PUSH2 0x2C9 JUMPI PUSH1 0x0 DUP6 SSTORE PUSH2 0x310 JUMP JUMPDEST DUP3 PUSH1 0x1F LT PUSH2 0x2E2 JUMPI DUP1 MLOAD PUSH1 0xFF NOT AND DUP4 DUP1 ADD OR DUP6 SSTORE PUSH2 0x310 JUMP JUMPDEST DUP3 DUP1 ADD PUSH1 0x1 ADD DUP6 SSTORE DUP3 ISZERO PUSH2 0x310 JUMPI SWAP2 DUP3 ADD JUMPDEST DUP3 DUP2 GT ISZERO PUSH2 0x30F JUMPI DUP3 MLOAD DUP3 SSTORE SWAP2 PUSH1 0x20 ADD SWAP2 SWAP1 PUSH1 0x1 ADD SWAP1 PUSH2 0x2F4 JUMP JUMPDEST JUMPDEST POP SWAP1 POP PUSH2 0x31D SWAP2 SWAP1 PUSH2 0x321 JUMP JUMPDEST POP SWAP1 JUMP JUMPDEST JUMPDEST DUP1 DUP3 GT ISZERO PUSH2 0x33A JUMPI PUSH1 0x0 DUP2 PUSH1 0x0 SWAP1 SSTORE POP PUSH1 0x1 ADD PUSH2 0x322 JUMP JUMPDEST POP SWAP1 JUMP JUMPDEST PUSH1 0x0 PUSH2 0x351 PUSH2 0x34C DUP5 PUSH2 0x555 JUMP JUMPDEST PUSH2 0x530 JUMP JUMPDEST SWAP1 POP DUP3 DUP2 MSTORE PUSH1 0x20 DUP2 ADD DUP5 DUP5 DUP5 ADD GT ISZERO PUSH2 0x36D JUMPI PUSH2 0x36C PUSH2 0x739 JUMP JUMPDEST JUMPDEST PUSH2 0x378 DUP5 DUP3 DUP6 PUSH2 0x602 JUMP JUMPDEST POP SWAP4 SWAP3 POP POP POP JUMP JUMPDEST PUSH1 0x0 DUP3 PUSH1 0x1F DUP4 ADD SLT PUSH2 0x395 JUMPI PUSH2 0x394 PUSH2 0x734 JUMP JUMPDEST JUMPDEST DUP2 CALLDATALOAD PUSH2 0x3A5 DUP5 DUP3 PUSH1 0x20 DUP7 ADD PUSH2 0x33E JUMP JUMPDEST SWAP2 POP POP SWAP3 SWAP2 POP POP JUMP JUMPDEST PUSH1 0x0 DUP2 CALLDATALOAD SWAP1 POP PUSH2 0x3BD DUP2 PUSH2 0x759 JUMP JUMPDEST SWAP3 SWAP2 POP POP JUMP JUMPDEST PUSH1 0x0 DUP1 PUSH1 0x40 DUP4 DUP6 SUB SLT ISZERO PUSH2 0x3DA JUMPI PUSH2 0x3D9 PUSH2 0x743 JUMP JUMPDEST JUMPDEST PUSH1 0x0 DUP4 ADD CALLDATALOAD PUSH8 0xFFFFFFFFFFFFFFFF DUP2 GT ISZERO PUSH2 0x3F8 JUMPI PUSH2 0x3F7 PUSH2 0x73E JUMP JUMPDEST JUMPDEST PUSH2 0x404 DUP6 DUP3 DUP7 ADD PUSH2 0x380 JUMP JUMPDEST SWAP3 POP POP PUSH1 0x20 PUSH2 0x415 DUP6 DUP3 DUP7 ADD PUSH2 0x3AE JUMP JUMPDEST SWAP2 POP POP SWAP3 POP SWAP3 SWAP1 POP JUMP JUMPDEST PUSH1 0x0 PUSH1 0x20 DUP3 DUP5 SUB SLT ISZERO PUSH2 0x435 JUMPI PUSH2 0x434 PUSH2 0x743 JUMP JUMPDEST JUMPDEST PUSH1 0x0 PUSH2 0x443 DUP5 DUP3 DUP6 ADD PUSH2 0x3AE JUMP JUMPDEST SWAP2 POP POP SWAP3 SWAP2 POP POP JUMP JUMPDEST PUSH1 0x0 PUSH2 0x457 DUP3 PUSH2 0x586 JUMP JUMPDEST PUSH2 0x461 DUP2 DUP6 PUSH2 0x591 JUMP JUMPDEST SWAP4 POP PUSH2 0x471 DUP2 DUP6 PUSH1 0x20 DUP7 ADD PUSH2 0x611 JUMP JUMPDEST PUSH2 0x47A DUP2 PUSH2 0x748 JUMP JUMPDEST DUP5 ADD SWAP2 POP POP SWAP3 SWAP2 POP POP JUMP JUMPDEST PUSH1 0x0 PUSH1 0x60 DUP4 ADD PUSH1 0x0 DUP4 ADD MLOAD DUP5 DUP3 SUB PUSH1 0x0 DUP7 ADD MSTORE PUSH2 0x4A2 DUP3 DUP3 PUSH2 0x44C JUMP JUMPDEST SWAP2 POP POP PUSH1 0x20 DUP4 ADD MLOAD PUSH2 0x4B7 PUSH1 0x20 DUP7 ADD DUP3 PUSH2 0x4D5 JUMP JUMPDEST POP PUSH1 0x40 DUP4 ADD MLOAD PUSH2 0x4CA PUSH1 0x40 DUP7 ADD DUP3 PUSH2 0x4D5 JUMP JUMPDEST POP DUP1 SWAP2 POP POP SWAP3 SWAP2 POP POP JUMP JUMPDEST PUSH2 0x4DE DUP2 PUSH2 0x5F8 JUMP JUMPDEST DUP3 MSTORE POP POP JUMP JUMPDEST PUSH2 0x4ED DUP2 PUSH2 0x5F8 JUMP JUMPDEST DUP3 MSTORE POP POP JUMP JUMPDEST PUSH1 0x0 PUSH1 0x20 DUP3 ADD SWAP1 POP DUP2 DUP2 SUB PUSH1 0x0 DUP4 ADD MSTORE PUSH2 0x50D DUP2 DUP5 PUSH2 0x485 JUMP JUMPDEST SWAP1 POP SWAP3 SWAP2 POP POP JUMP JUMPDEST PUSH1 0x0 PUSH1 0x20 DUP3 ADD SWAP1 POP PUSH2 0x52A PUSH1 0x0 DUP4 ADD DUP5 PUSH2 0x4E4 JUMP JUMPDEST SWAP3 SWAP2 POP POP JUMP JUMPDEST PUSH1 0x0 PUSH2 0x53A PUSH2 0x54B JUMP JUMPDEST SWAP1 POP PUSH2 0x546 DUP3 DUP3 PUSH2 0x676 JUMP JUMPDEST SWAP2 SWAP1 POP JUMP JUMPDEST PUSH1 0x0 PUSH1 0x40 MLOAD SWAP1 POP SWAP1 JUMP JUMPDEST PUSH1 0x0 PUSH8 0xFFFFFFFFFFFFFFFF DUP3 GT ISZERO PUSH2 0x570 JUMPI PUSH2 0x56F PUSH2 0x705 JUMP JUMPDEST JUMPDEST PUSH2 0x579 DUP3 PUSH2 0x748 JUMP JUMPDEST SWAP1 POP PUSH1 0x20 DUP2 ADD SWAP1 POP SWAP2 SWAP1 POP JUMP JUMPDEST PUSH1 0x0 DUP2 MLOAD SWAP1 POP SWAP2 SWAP1 POP JUMP JUMPDEST PUSH1 0x0 DUP3 DUP3 MSTORE PUSH1 0x20 DUP3 ADD SWAP1 POP SWAP3 SWAP2 POP POP JUMP JUMPDEST PUSH1 0x0 PUSH2 0x5AD DUP3 PUSH2 0x5F8 JUMP JUMPDEST SWAP2 POP PUSH2 0x5B8 DUP4 PUSH2 0x5F8 JUMP JUMPDEST SWAP3 POP DUP3 PUSH32 0xFFFFFFFFFFFFFFFFFFFFFFFFFFFFFFFFFFFFFFFFFFFFFFFFFFFFFFFFFFFFFFFF SUB DUP3 GT ISZERO PUSH2 0x5ED JUMPI PUSH2 0x5EC PUSH2 0x6A7 JUMP JUMPDEST JUMPDEST DUP3 DUP3 ADD SWAP1 POP SWAP3 SWAP2 POP POP JUMP JUMPDEST PUSH1 0x0 DUP2 SWAP1 POP SWAP2 SWAP1 POP JUMP JUMPDEST DUP3 DUP2 DUP4 CALLDATACOPY PUSH1 0x0 DUP4 DUP4 ADD MSTORE POP POP POP JUMP JUMPDEST PUSH1 0x0 JUMPDEST DUP4 DUP2 LT ISZERO PUSH2 0x62F JUMPI DUP1 DUP3 ADD MLOAD DUP2 DUP5 ADD MSTORE PUSH1 0x20 DUP2 ADD SWAP1 POP PUSH2 0x614 JUMP JUMPDEST DUP4 DUP2 GT ISZERO PUSH2 0x63E JUMPI PUSH1 0x0 DUP5 DUP5 ADD MSTORE JUMPDEST POP POP POP POP JUMP JUMPDEST PUSH1 0x0 PUSH1 0x2 DUP3 DIV SWAP1 POP PUSH1 0x1 DUP3 AND DUP1 PUSH2 0x65C JUMPI PUSH1 0x7F DUP3 AND SWAP2 POP JUMPDEST PUSH1 0x20 DUP3 LT DUP2 EQ ISZERO PUSH2 0x670 JUMPI PUSH2 0x66F PUSH2 0x6D6 JUMP JUMPDEST JUMPDEST POP SWAP2 SWAP1 POP JUMP JUMPDEST PUSH2 0x67F DUP3 PUSH2 0x748 JUMP JUMPDEST DUP2 ADD DUP2 DUP2 LT PUSH8 0xFFFFFFFFFFFFFFFF DUP3 GT OR ISZERO PUSH2 0x69E JUMPI PUSH2 0x69D PUSH2 0x705 JUMP JUMPDEST JUMPDEST DUP1 PUSH1 0x40 MSTORE POP POP POP JUMP JUMPDEST PUSH32 0x4E487B7100000000000000000000000000000000000000000000000000000000 PUSH1 0x0 MSTORE PUSH1 0x11 PUSH1 0x4 MSTORE PUSH1 0x24 PUSH1 0x0 REVERT JUMPDEST PUSH32 0x4E487B7100000000000000000000000000000000000000000000000000000000 PUSH1 0x0 MSTORE PUSH1 0x22 PUSH1 0x4 MSTORE PUSH1 0x24 PUSH1 0x0 REVERT JUMPDEST PUSH32 0x4E487B7100000000000000000000000000000000000000000000000000000000 PUSH1 0x0 MSTORE PUSH1 0x41 PUSH1 0x4 MSTORE PUSH1 0x24 PUSH1 0x0 REVERT JUMPDEST PUSH1 0x0 DUP1 REVERT JUMPDEST PUSH1 0x0 DUP1 REVERT JUMPDEST PUSH1 0x0 DUP1 REVERT JUMPDEST PUSH1 0x0 DUP1 REVERT JUMPDEST PUSH1 0x0 PUSH1 0x1F NOT PUSH1 0x1F DUP4 ADD AND SWAP1 POP SWAP2 SWAP1 POP JUMP JUMPDEST PUSH2 0x762 DUP2 PUSH2 0x5F8 JUMP JUMPDEST DUP2 EQ PUSH2 0x76D JUMPI PUSH1 0x0 DUP1 REVERT JUMPDEST POP JUMP INVALID LOG2 PUSH5 0x6970667358 0x22 SLT KECCAK256 PUSH12 0x7A1B3C0F64B0EE98221489D4 CREATE2 GASPRICE 0xBD PUSH3 0xFE9070 0x5C 0xBF 0xA5 0x26 SAR MOD DUP6 PUSH4 0xC1EF37AE PUSH5 0x736F6C6343 STOP ADDMOD SMOD STOP CALLER "
				},
				"gasEstimates": {
					"creation": {
						"codeDepositCost": "391600",
						"executionCost": "430",
						"totalCost": "392030"
					},
					"external": {
						"enroll(string,uint256)": "infinite",
						"getStudentDetails(uint256)": "infinite",
						"payFees(uint256)": "infinite",
						"totlaStudents()": "2429"
					}
				},
				"methodIdentifiers": {
					"enroll(string,uint256)": "e50e2c63",
					"getStudentDetails(uint256)": "86a9b364",
					"payFees(uint256)": "3084d735",
					"totlaStudents()": "522ba38e"
				}
			},
			"storageLayout": {
				"storage": [
					{
						"astId": 13,
						"contract": "contracts/College.sol:College",
						"label": "_students",
						"offset": 0,
						"slot": "0",
						"type": "t_mapping(t_uint256,t_struct(StudentDetails)8_storage)"
					},
					{
						"astId": 15,
						"contract": "contracts/College.sol:College",
						"label": "totlaStudents",
						"offset": 0,
						"slot": "1",
						"type": "t_uint256"
					}
				],
				"types": {
					"t_mapping(t_uint256,t_struct(StudentDetails)8_storage)": {
						"encoding": "mapping",
						"key": "t_uint256",
						"label": "mapping(uint256 => struct College.StudentDetails)",
						"numberOfBytes": "32",
						"value": "t_struct(StudentDetails)8_storage"
					},
					"t_string_storage": {
						"encoding": "bytes",
						"label": "string",
						"numberOfBytes": "32"
					},
					"t_struct(StudentDetails)8_storage": {
						"encoding": "inplace",
						"label": "struct College.StudentDetails",
						"members": [
							{
								"astId": 3,
								"contract": "contracts/College.sol:College",
								"label": "name",
								"offset": 0,
								"slot": "0",
								"type": "t_string_storage"
							},
							{
								"astId": 5,
								"contract": "contracts/College.sol:College",
								"label": "class",
								"offset": 0,
								"slot": "1",
								"type": "t_uint256"
							},
							{
								"astId": 7,
								"contract": "contracts/College.sol:College",
								"label": "feesPaid",
								"offset": 0,
								"slot": "2",
								"type": "t_uint256"
							}
						],
						"numberOfBytes": "96"
					},
					"t_uint256": {
						"encoding": "inplace",
						"label": "uint256",
						"numberOfBytes": "32"
					}
				}
			},
			"userdoc": {
				"kind": "user",
				"methods": {},
				"version": 1
			}
		}
	}
}