{
	"contracts/Farmers.sol": {
		"Farmers": {
			"abi": [
				{
					"inputs": [
						{
							"internalType": "string",
							"name": "farmerLocation_",
							"type": "string"
						},
						{
							"internalType": "uint256",
							"name": "premium_",
							"type": "uint256"
						}
					],
					"name": "enroll",
					"outputs": [],
					"stateMutability": "nonpayable",
					"type": "function"
				},
				{
					"inputs": [
						{
							"internalType": "uint256",
							"name": "farmerid_",
							"type": "uint256"
						}
					],
					"name": "getFarmerDetails",
					"outputs": [
						{
							"components": [
								{
									"internalType": "string",
									"name": "farmerLocation",
									"type": "string"
								},
								{
									"internalType": "uint256",
									"name": "farmerid",
									"type": "uint256"
								},
								{
									"internalType": "uint256",
									"name": "premium",
									"type": "uint256"
								},
								{
									"internalType": "uint256",
									"name": "payout",
									"type": "uint256"
								}
							],
							"internalType": "struct Farmers.FarmersData",
							"name": "",
							"type": "tuple"
						}
					],
					"stateMutability": "view",
					"type": "function"
				},
				{
					"inputs": [
						{
							"internalType": "uint256",
							"name": "farmerid_",
							"type": "uint256"
						}
					],
					"name": "payPremium",
					"outputs": [],
					"stateMutability": "payable",
					"type": "function"
				},
				{
					"inputs": [],
					"name": "totalFarmers",
					"outputs": [
						{
							"internalType": "uint256",
							"name": "",
							"type": "uint256"
						}
					],
					"stateMutability": "view",
					"type": "function"
				}
			],
			"devdoc": {
				"kind": "dev",
				"methods": {},
				"version": 1
			},
			"evm": {
				"assembly": "    /* \"contracts/Farmers.sol\":64:944  contract Farmers {\r... */\n  mstore(0x40, 0x80)\n  callvalue\n  dup1\n  iszero\n  tag_1\n  jumpi\n  0x00\n  dup1\n  revert\ntag_1:\n  pop\n  dataSize(sub_0)\n  dup1\n  dataOffset(sub_0)\n  0x00\n  codecopy\n  0x00\n  return\nstop\n\nsub_0: assembly {\n        /* \"contracts/Farmers.sol\":64:944  contract Farmers {\r... */\n      mstore(0x40, 0x80)\n      jumpi(tag_1, lt(calldatasize, 0x04))\n      shr(0xe0, calldataload(0x00))\n      dup1\n      0x4364b26e\n      eq\n      tag_2\n      jumpi\n      dup1\n      0x6017509b\n      eq\n      tag_3\n      jumpi\n      dup1\n      0xcbdd9980\n      eq\n      tag_4\n      jumpi\n      dup1\n      0xe50e2c63\n      eq\n      tag_5\n      jumpi\n    tag_1:\n      0x00\n      dup1\n      revert\n        /* \"contracts/Farmers.sol\":829:941  function payPremium(uint farmerid_) external payable{\r... */\n    tag_2:\n      tag_6\n      0x04\n      dup1\n      calldatasize\n      sub\n      dup2\n      add\n      swap1\n      tag_7\n      swap2\n      swap1\n      tag_8\n      jump\t// in\n    tag_7:\n      tag_9\n      jump\t// in\n    tag_6:\n      stop\n        /* \"contracts/Farmers.sol\":275:299  uint public totalFarmers */\n    tag_3:\n      callvalue\n      dup1\n      iszero\n      tag_10\n      jumpi\n      0x00\n      dup1\n      revert\n    tag_10:\n      pop\n      tag_11\n      tag_12\n      jump\t// in\n    tag_11:\n      mload(0x40)\n      tag_13\n      swap2\n      swap1\n      tag_14\n      jump\t// in\n    tag_13:\n      mload(0x40)\n      dup1\n      swap2\n      sub\n      swap1\n      return\n        /* \"contracts/Farmers.sol\":689:821  function getFarmerDetails(uint farmerid_) external view returns(FarmersData memory){\r... */\n    tag_4:\n      callvalue\n      dup1\n      iszero\n      tag_15\n      jumpi\n      0x00\n      dup1\n      revert\n    tag_15:\n      pop\n      tag_16\n      0x04\n      dup1\n      calldatasize\n      sub\n      dup2\n      add\n      swap1\n      tag_17\n      swap2\n      swap1\n      tag_8\n      jump\t// in\n    tag_17:\n      tag_18\n      jump\t// in\n    tag_16:\n      mload(0x40)\n      tag_19\n      swap2\n      swap1\n      tag_20\n      jump\t// in\n    tag_19:\n      mload(0x40)\n      dup1\n      swap2\n      sub\n      swap1\n      return\n        /* \"contracts/Farmers.sol\":308:681  function enroll(string memory farmerLocation_,uint premium_) external{    //string will last only till execution of this function and not stored  in blockchain\r... */\n    tag_5:\n      callvalue\n      dup1\n      iszero\n      tag_21\n      jumpi\n      0x00\n      dup1\n      revert\n    tag_21:\n      pop\n      tag_22\n      0x04\n      dup1\n      calldatasize\n      sub\n      dup2\n      add\n      swap1\n      tag_23\n      swap2\n      swap1\n      tag_24\n      jump\t// in\n    tag_23:\n      tag_25\n      jump\t// in\n    tag_22:\n      stop\n        /* \"contracts/Farmers.sol\":829:941  function payPremium(uint farmerid_) external payable{\r... */\n    tag_9:\n        /* \"contracts/Farmers.sol\":924:933  msg.value */\n      callvalue\n        /* \"contracts/Farmers.sol\":892:900  _farmers */\n      0x00\n        /* \"contracts/Farmers.sol\":892:911  _farmers[farmerid_] */\n      dup1\n        /* \"contracts/Farmers.sol\":901:910  farmerid_ */\n      dup4\n        /* \"contracts/Farmers.sol\":892:911  _farmers[farmerid_] */\n      dup2\n      mstore\n      0x20\n      add\n      swap1\n      dup2\n      mstore\n      0x20\n      add\n      0x00\n      keccak256\n        /* \"contracts/Farmers.sol\":892:919  _farmers[farmerid_].premium */\n      0x02\n      add\n      0x00\n        /* \"contracts/Farmers.sol\":892:933  _farmers[farmerid_].premium +=  msg.value */\n      dup3\n      dup3\n      sload\n      tag_27\n      swap2\n      swap1\n      tag_28\n      jump\t// in\n    tag_27:\n      swap3\n      pop\n      pop\n      dup2\n      swap1\n      sstore\n      pop\n        /* \"contracts/Farmers.sol\":829:941  function payPremium(uint farmerid_) external payable{\r... */\n      pop\n      jump\t// out\n        /* \"contracts/Farmers.sol\":275:299  uint public totalFarmers */\n    tag_12:\n      sload(0x01)\n      dup2\n      jump\t// out\n        /* \"contracts/Farmers.sol\":689:821  function getFarmerDetails(uint farmerid_) external view returns(FarmersData memory){\r... */\n    tag_18:\n        /* \"contracts/Farmers.sol\":753:771  FarmersData memory */\n      tag_29\n      tag_30\n      jump\t// in\n    tag_29:\n        /* \"contracts/Farmers.sol\":794:802  _farmers */\n      0x00\n        /* \"contracts/Farmers.sol\":794:813  _farmers[farmerid_] */\n      dup1\n        /* \"contracts/Farmers.sol\":803:812  farmerid_ */\n      dup4\n        /* \"contracts/Farmers.sol\":794:813  _farmers[farmerid_] */\n      dup2\n      mstore\n      0x20\n      add\n      swap1\n      dup2\n      mstore\n      0x20\n      add\n      0x00\n      keccak256\n        /* \"contracts/Farmers.sol\":787:813  return _farmers[farmerid_] */\n      mload(0x40)\n      dup1\n      0x80\n      add\n      0x40\n      mstore\n      swap1\n      dup2\n      0x00\n      dup3\n      add\n      dup1\n      sload\n      tag_32\n      swap1\n      tag_33\n      jump\t// in\n    tag_32:\n      dup1\n      0x1f\n      add\n      0x20\n      dup1\n      swap2\n      div\n      mul\n      0x20\n      add\n      mload(0x40)\n      swap1\n      dup2\n      add\n      0x40\n      mstore\n      dup1\n      swap3\n      swap2\n      swap1\n      dup2\n      dup2\n      mstore\n      0x20\n      add\n      dup3\n      dup1\n      sload\n      tag_34\n      swap1\n      tag_33\n      jump\t// in\n    tag_34:\n      dup1\n      iszero\n      tag_35\n      jumpi\n      dup1\n      0x1f\n      lt\n      tag_36\n      jumpi\n      0x0100\n      dup1\n      dup4\n      sload\n      div\n      mul\n      dup4\n      mstore\n      swap2\n      0x20\n      add\n      swap2\n      jump(tag_35)\n    tag_36:\n      dup3\n      add\n      swap2\n      swap1\n      0x00\n      mstore\n      keccak256(0x00, 0x20)\n      swap1\n    tag_37:\n      dup2\n      sload\n      dup2\n      mstore\n      swap1\n      0x01\n      add\n      swap1\n      0x20\n      add\n      dup1\n      dup4\n      gt\n      tag_37\n      jumpi\n      dup3\n      swap1\n      sub\n      0x1f\n      and\n      dup3\n      add\n      swap2\n    tag_35:\n      pop\n      pop\n      pop\n      pop\n      pop\n      dup2\n      mstore\n      0x20\n      add\n      0x01\n      dup3\n      add\n      sload\n      dup2\n      mstore\n      0x20\n      add\n      0x02\n      dup3\n      add\n      sload\n      dup2\n      mstore\n      0x20\n      add\n      0x03\n      dup3\n      add\n      sload\n      dup2\n      mstore\n      pop\n      pop\n      swap1\n      pop\n        /* \"contracts/Farmers.sol\":689:821  function getFarmerDetails(uint farmerid_) external view returns(FarmersData memory){\r... */\n      swap2\n      swap1\n      pop\n      jump\t// out\n        /* \"contracts/Farmers.sol\":308:681  function enroll(string memory farmerLocation_,uint premium_) external{    //string will last only till execution of this function and not stored  in blockchain\r... */\n    tag_25:\n        /* \"contracts/Farmers.sol\":519:534  farmerLocation_ */\n      dup2\n        /* \"contracts/Farmers.sol\":481:489  _farmers */\n      0x00\n        /* \"contracts/Farmers.sol\":481:503  _farmers[totalFarmers] */\n      dup1\n        /* \"contracts/Farmers.sol\":490:502  totalFarmers */\n      sload(0x01)\n        /* \"contracts/Farmers.sol\":481:503  _farmers[totalFarmers] */\n      dup2\n      mstore\n      0x20\n      add\n      swap1\n      dup2\n      mstore\n      0x20\n      add\n      0x00\n      keccak256\n        /* \"contracts/Farmers.sol\":481:518  _farmers[totalFarmers].farmerLocation */\n      0x00\n      add\n        /* \"contracts/Farmers.sol\":481:534  _farmers[totalFarmers].farmerLocation=farmerLocation_ */\n      swap1\n      dup1\n      mload\n      swap1\n      0x20\n      add\n      swap1\n      tag_39\n      swap3\n      swap2\n      swap1\n      tag_40\n      jump\t// in\n    tag_39:\n      pop\n        /* \"contracts/Farmers.sol\":580:588  premium_ */\n      dup1\n        /* \"contracts/Farmers.sol\":549:557  _farmers */\n      0x00\n        /* \"contracts/Farmers.sol\":549:571  _farmers[totalFarmers] */\n      dup1\n        /* \"contracts/Farmers.sol\":558:570  totalFarmers */\n      sload(0x01)\n        /* \"contracts/Farmers.sol\":549:571  _farmers[totalFarmers] */\n      dup2\n      mstore\n      0x20\n      add\n      swap1\n      dup2\n      mstore\n      0x20\n      add\n      0x00\n      keccak256\n        /* \"contracts/Farmers.sol\":549:579  _farmers[totalFarmers].premium */\n      0x02\n      add\n        /* \"contracts/Farmers.sol\":549:588  _farmers[totalFarmers].premium=premium_ */\n      dup2\n      swap1\n      sstore\n      pop\n        /* \"contracts/Farmers.sol\":672:673  1 */\n      0x01\n        /* \"contracts/Farmers.sol\":656:668  totalFarmers */\n      dup1\n      0x00\n        /* \"contracts/Farmers.sol\":656:673  totalFarmers += 1 */\n      dup3\n      dup3\n      sload\n      tag_41\n      swap2\n      swap1\n      tag_28\n      jump\t// in\n    tag_41:\n      swap3\n      pop\n      pop\n      dup2\n      swap1\n      sstore\n      pop\n        /* \"contracts/Farmers.sol\":308:681  function enroll(string memory farmerLocation_,uint premium_) external{    //string will last only till execution of this function and not stored  in blockchain\r... */\n      pop\n      pop\n      jump\t// out\n    tag_30:\n      mload(0x40)\n      dup1\n      0x80\n      add\n      0x40\n      mstore\n      dup1\n      0x60\n      dup2\n      mstore\n      0x20\n      add\n      0x00\n      dup2\n      mstore\n      0x20\n      add\n      0x00\n      dup2\n      mstore\n      0x20\n      add\n      0x00\n      dup2\n      mstore\n      pop\n      swap1\n      jump\t// out\n    tag_40:\n      dup3\n      dup1\n      sload\n      tag_42\n      swap1\n      tag_33\n      jump\t// in\n    tag_42:\n      swap1\n      0x00\n      mstore\n      keccak256(0x00, 0x20)\n      swap1\n      0x1f\n      add\n      0x20\n      swap1\n      div\n      dup2\n      add\n      swap3\n      dup3\n      tag_44\n      jumpi\n      0x00\n      dup6\n      sstore\n      jump(tag_43)\n    tag_44:\n      dup3\n      0x1f\n      lt\n      tag_45\n      jumpi\n      dup1\n      mload\n      not(0xff)\n      and\n      dup4\n      dup1\n      add\n      or\n      dup6\n      sstore\n      jump(tag_43)\n    tag_45:\n      dup3\n      dup1\n      add\n      0x01\n      add\n      dup6\n      sstore\n      dup3\n      iszero\n      tag_43\n      jumpi\n      swap2\n      dup3\n      add\n    tag_46:\n      dup3\n      dup2\n      gt\n      iszero\n      tag_47\n      jumpi\n      dup3\n      mload\n      dup3\n      sstore\n      swap2\n      0x20\n      add\n      swap2\n      swap1\n      0x01\n      add\n      swap1\n      jump(tag_46)\n    tag_47:\n    tag_43:\n      pop\n      swap1\n      pop\n      tag_48\n      swap2\n      swap1\n      tag_49\n      jump\t// in\n    tag_48:\n      pop\n      swap1\n      jump\t// out\n    tag_49:\n    tag_50:\n      dup1\n      dup3\n      gt\n      iszero\n      tag_51\n      jumpi\n      0x00\n      dup2\n      0x00\n      swap1\n      sstore\n      pop\n      0x01\n      add\n      jump(tag_50)\n    tag_51:\n      pop\n      swap1\n      jump\t// out\n        /* \"#utility.yul\":7:419   */\n    tag_53:\n        /* \"#utility.yul\":85:90   */\n      0x00\n        /* \"#utility.yul\":110:176   */\n      tag_55\n        /* \"#utility.yul\":126:175   */\n      tag_56\n        /* \"#utility.yul\":168:174   */\n      dup5\n        /* \"#utility.yul\":126:175   */\n      tag_57\n      jump\t// in\n    tag_56:\n        /* \"#utility.yul\":110:176   */\n      tag_58\n      jump\t// in\n    tag_55:\n        /* \"#utility.yul\":101:176   */\n      swap1\n      pop\n        /* \"#utility.yul\":199:205   */\n      dup3\n        /* \"#utility.yul\":192:197   */\n      dup2\n        /* \"#utility.yul\":185:206   */\n      mstore\n        /* \"#utility.yul\":237:241   */\n      0x20\n        /* \"#utility.yul\":230:235   */\n      dup2\n        /* \"#utility.yul\":226:242   */\n      add\n        /* \"#utility.yul\":275:278   */\n      dup5\n        /* \"#utility.yul\":266:272   */\n      dup5\n        /* \"#utility.yul\":261:264   */\n      dup5\n        /* \"#utility.yul\":257:273   */\n      add\n        /* \"#utility.yul\":254:279   */\n      gt\n        /* \"#utility.yul\":251:363   */\n      iszero\n      tag_59\n      jumpi\n        /* \"#utility.yul\":282:361   */\n      tag_60\n      tag_61\n      jump\t// in\n    tag_60:\n        /* \"#utility.yul\":251:363   */\n    tag_59:\n        /* \"#utility.yul\":372:413   */\n      tag_62\n        /* \"#utility.yul\":406:412   */\n      dup5\n        /* \"#utility.yul\":401:404   */\n      dup3\n        /* \"#utility.yul\":396:399   */\n      dup6\n        /* \"#utility.yul\":372:413   */\n      tag_63\n      jump\t// in\n    tag_62:\n        /* \"#utility.yul\":91:419   */\n      pop\n        /* \"#utility.yul\":7:419   */\n      swap4\n      swap3\n      pop\n      pop\n      pop\n      jump\t// out\n        /* \"#utility.yul\":439:779   */\n    tag_64:\n        /* \"#utility.yul\":495:500   */\n      0x00\n        /* \"#utility.yul\":544:547   */\n      dup3\n        /* \"#utility.yul\":537:541   */\n      0x1f\n        /* \"#utility.yul\":529:535   */\n      dup4\n        /* \"#utility.yul\":525:542   */\n      add\n        /* \"#utility.yul\":521:548   */\n      slt\n        /* \"#utility.yul\":511:633   */\n      tag_66\n      jumpi\n        /* \"#utility.yul\":552:631   */\n      tag_67\n      tag_68\n      jump\t// in\n    tag_67:\n        /* \"#utility.yul\":511:633   */\n    tag_66:\n        /* \"#utility.yul\":669:675   */\n      dup2\n        /* \"#utility.yul\":656:676   */\n      calldataload\n        /* \"#utility.yul\":694:773   */\n      tag_69\n        /* \"#utility.yul\":769:772   */\n      dup5\n        /* \"#utility.yul\":761:767   */\n      dup3\n        /* \"#utility.yul\":754:758   */\n      0x20\n        /* \"#utility.yul\":746:752   */\n      dup7\n        /* \"#utility.yul\":742:759   */\n      add\n        /* \"#utility.yul\":694:773   */\n      tag_53\n      jump\t// in\n    tag_69:\n        /* \"#utility.yul\":685:773   */\n      swap2\n      pop\n        /* \"#utility.yul\":501:779   */\n      pop\n        /* \"#utility.yul\":439:779   */\n      swap3\n      swap2\n      pop\n      pop\n      jump\t// out\n        /* \"#utility.yul\":785:924   */\n    tag_70:\n        /* \"#utility.yul\":831:836   */\n      0x00\n        /* \"#utility.yul\":869:875   */\n      dup2\n        /* \"#utility.yul\":856:876   */\n      calldataload\n        /* \"#utility.yul\":847:876   */\n      swap1\n      pop\n        /* \"#utility.yul\":885:918   */\n      tag_72\n        /* \"#utility.yul\":912:917   */\n      dup2\n        /* \"#utility.yul\":885:918   */\n      tag_73\n      jump\t// in\n    tag_72:\n        /* \"#utility.yul\":785:924   */\n      swap3\n      swap2\n      pop\n      pop\n      jump\t// out\n        /* \"#utility.yul\":930:1584   */\n    tag_24:\n        /* \"#utility.yul\":1008:1014   */\n      0x00\n        /* \"#utility.yul\":1016:1022   */\n      dup1\n        /* \"#utility.yul\":1065:1067   */\n      0x40\n        /* \"#utility.yul\":1053:1062   */\n      dup4\n        /* \"#utility.yul\":1044:1051   */\n      dup6\n        /* \"#utility.yul\":1040:1063   */\n      sub\n        /* \"#utility.yul\":1036:1068   */\n      slt\n        /* \"#utility.yul\":1033:1152   */\n      iszero\n      tag_75\n      jumpi\n        /* \"#utility.yul\":1071:1150   */\n      tag_76\n      tag_77\n      jump\t// in\n    tag_76:\n        /* \"#utility.yul\":1033:1152   */\n    tag_75:\n        /* \"#utility.yul\":1219:1220   */\n      0x00\n        /* \"#utility.yul\":1208:1217   */\n      dup4\n        /* \"#utility.yul\":1204:1221   */\n      add\n        /* \"#utility.yul\":1191:1222   */\n      calldataload\n        /* \"#utility.yul\":1249:1267   */\n      0xffffffffffffffff\n        /* \"#utility.yul\":1241:1247   */\n      dup2\n        /* \"#utility.yul\":1238:1268   */\n      gt\n        /* \"#utility.yul\":1235:1352   */\n      iszero\n      tag_78\n      jumpi\n        /* \"#utility.yul\":1271:1350   */\n      tag_79\n      tag_80\n      jump\t// in\n    tag_79:\n        /* \"#utility.yul\":1235:1352   */\n    tag_78:\n        /* \"#utility.yul\":1376:1439   */\n      tag_81\n        /* \"#utility.yul\":1431:1438   */\n      dup6\n        /* \"#utility.yul\":1422:1428   */\n      dup3\n        /* \"#utility.yul\":1411:1420   */\n      dup7\n        /* \"#utility.yul\":1407:1429   */\n      add\n        /* \"#utility.yul\":1376:1439   */\n      tag_64\n      jump\t// in\n    tag_81:\n        /* \"#utility.yul\":1366:1439   */\n      swap3\n      pop\n        /* \"#utility.yul\":1162:1449   */\n      pop\n        /* \"#utility.yul\":1488:1490   */\n      0x20\n        /* \"#utility.yul\":1514:1567   */\n      tag_82\n        /* \"#utility.yul\":1559:1566   */\n      dup6\n        /* \"#utility.yul\":1550:1556   */\n      dup3\n        /* \"#utility.yul\":1539:1548   */\n      dup7\n        /* \"#utility.yul\":1535:1557   */\n      add\n        /* \"#utility.yul\":1514:1567   */\n      tag_70\n      jump\t// in\n    tag_82:\n        /* \"#utility.yul\":1504:1567   */\n      swap2\n      pop\n        /* \"#utility.yul\":1459:1577   */\n      pop\n        /* \"#utility.yul\":930:1584   */\n      swap3\n      pop\n      swap3\n      swap1\n      pop\n      jump\t// out\n        /* \"#utility.yul\":1590:1919   */\n    tag_8:\n        /* \"#utility.yul\":1649:1655   */\n      0x00\n        /* \"#utility.yul\":1698:1700   */\n      0x20\n        /* \"#utility.yul\":1686:1695   */\n      dup3\n        /* \"#utility.yul\":1677:1684   */\n      dup5\n        /* \"#utility.yul\":1673:1696   */\n      sub\n        /* \"#utility.yul\":1669:1701   */\n      slt\n        /* \"#utility.yul\":1666:1785   */\n      iszero\n      tag_84\n      jumpi\n        /* \"#utility.yul\":1704:1783   */\n      tag_85\n      tag_77\n      jump\t// in\n    tag_85:\n        /* \"#utility.yul\":1666:1785   */\n    tag_84:\n        /* \"#utility.yul\":1824:1825   */\n      0x00\n        /* \"#utility.yul\":1849:1902   */\n      tag_86\n        /* \"#utility.yul\":1894:1901   */\n      dup5\n        /* \"#utility.yul\":1885:1891   */\n      dup3\n        /* \"#utility.yul\":1874:1883   */\n      dup6\n        /* \"#utility.yul\":1870:1892   */\n      add\n        /* \"#utility.yul\":1849:1902   */\n      tag_70\n      jump\t// in\n    tag_86:\n        /* \"#utility.yul\":1839:1902   */\n      swap2\n      pop\n        /* \"#utility.yul\":1795:1912   */\n      pop\n        /* \"#utility.yul\":1590:1919   */\n      swap3\n      swap2\n      pop\n      pop\n      jump\t// out\n        /* \"#utility.yul\":1925:2269   */\n    tag_87:\n        /* \"#utility.yul\":2003:2006   */\n      0x00\n        /* \"#utility.yul\":2031:2070   */\n      tag_89\n        /* \"#utility.yul\":2064:2069   */\n      dup3\n        /* \"#utility.yul\":2031:2070   */\n      tag_90\n      jump\t// in\n    tag_89:\n        /* \"#utility.yul\":2086:2147   */\n      tag_91\n        /* \"#utility.yul\":2140:2146   */\n      dup2\n        /* \"#utility.yul\":2135:2138   */\n      dup6\n        /* \"#utility.yul\":2086:2147   */\n      tag_92\n      jump\t// in\n    tag_91:\n        /* \"#utility.yul\":2079:2147   */\n      swap4\n      pop\n        /* \"#utility.yul\":2156:2208   */\n      tag_93\n        /* \"#utility.yul\":2201:2207   */\n      dup2\n        /* \"#utility.yul\":2196:2199   */\n      dup6\n        /* \"#utility.yul\":2189:2193   */\n      0x20\n        /* \"#utility.yul\":2182:2187   */\n      dup7\n        /* \"#utility.yul\":2178:2194   */\n      add\n        /* \"#utility.yul\":2156:2208   */\n      tag_94\n      jump\t// in\n    tag_93:\n        /* \"#utility.yul\":2233:2262   */\n      tag_95\n        /* \"#utility.yul\":2255:2261   */\n      dup2\n        /* \"#utility.yul\":2233:2262   */\n      tag_96\n      jump\t// in\n    tag_95:\n        /* \"#utility.yul\":2228:2231   */\n      dup5\n        /* \"#utility.yul\":2224:2263   */\n      add\n        /* \"#utility.yul\":2217:2263   */\n      swap2\n      pop\n        /* \"#utility.yul\":2007:2269   */\n      pop\n        /* \"#utility.yul\":1925:2269   */\n      swap3\n      swap2\n      pop\n      pop\n      jump\t// out\n        /* \"#utility.yul\":2339:3316   */\n    tag_97:\n        /* \"#utility.yul\":2462:2465   */\n      0x00\n        /* \"#utility.yul\":2498:2502   */\n      0x80\n        /* \"#utility.yul\":2493:2496   */\n      dup4\n        /* \"#utility.yul\":2489:2503   */\n      add\n        /* \"#utility.yul\":2595:2599   */\n      0x00\n        /* \"#utility.yul\":2588:2593   */\n      dup4\n        /* \"#utility.yul\":2584:2600   */\n      add\n        /* \"#utility.yul\":2578:2601   */\n      mload\n        /* \"#utility.yul\":2648:2651   */\n      dup5\n        /* \"#utility.yul\":2642:2646   */\n      dup3\n        /* \"#utility.yul\":2638:2652   */\n      sub\n        /* \"#utility.yul\":2631:2635   */\n      0x00\n        /* \"#utility.yul\":2626:2629   */\n      dup7\n        /* \"#utility.yul\":2622:2636   */\n      add\n        /* \"#utility.yul\":2615:2653   */\n      mstore\n        /* \"#utility.yul\":2674:2747   */\n      tag_99\n        /* \"#utility.yul\":2742:2746   */\n      dup3\n        /* \"#utility.yul\":2728:2740   */\n      dup3\n        /* \"#utility.yul\":2674:2747   */\n      tag_87\n      jump\t// in\n    tag_99:\n        /* \"#utility.yul\":2666:2747   */\n      swap2\n      pop\n        /* \"#utility.yul\":2513:2758   */\n      pop\n        /* \"#utility.yul\":2844:2848   */\n      0x20\n        /* \"#utility.yul\":2837:2842   */\n      dup4\n        /* \"#utility.yul\":2833:2849   */\n      add\n        /* \"#utility.yul\":2827:2850   */\n      mload\n        /* \"#utility.yul\":2863:2926   */\n      tag_100\n        /* \"#utility.yul\":2920:2924   */\n      0x20\n        /* \"#utility.yul\":2915:2918   */\n      dup7\n        /* \"#utility.yul\":2911:2925   */\n      add\n        /* \"#utility.yul\":2897:2909   */\n      dup3\n        /* \"#utility.yul\":2863:2926   */\n      tag_101\n      jump\t// in\n    tag_100:\n        /* \"#utility.yul\":2768:2936   */\n      pop\n        /* \"#utility.yul\":3021:3025   */\n      0x40\n        /* \"#utility.yul\":3014:3019   */\n      dup4\n        /* \"#utility.yul\":3010:3026   */\n      add\n        /* \"#utility.yul\":3004:3027   */\n      mload\n        /* \"#utility.yul\":3040:3103   */\n      tag_102\n        /* \"#utility.yul\":3097:3101   */\n      0x40\n        /* \"#utility.yul\":3092:3095   */\n      dup7\n        /* \"#utility.yul\":3088:3102   */\n      add\n        /* \"#utility.yul\":3074:3086   */\n      dup3\n        /* \"#utility.yul\":3040:3103   */\n      tag_101\n      jump\t// in\n    tag_102:\n        /* \"#utility.yul\":2946:3113   */\n      pop\n        /* \"#utility.yul\":3197:3201   */\n      0x60\n        /* \"#utility.yul\":3190:3195   */\n      dup4\n        /* \"#utility.yul\":3186:3202   */\n      add\n        /* \"#utility.yul\":3180:3203   */\n      mload\n        /* \"#utility.yul\":3216:3279   */\n      tag_103\n        /* \"#utility.yul\":3273:3277   */\n      0x60\n        /* \"#utility.yul\":3268:3271   */\n      dup7\n        /* \"#utility.yul\":3264:3278   */\n      add\n        /* \"#utility.yul\":3250:3262   */\n      dup3\n        /* \"#utility.yul\":3216:3279   */\n      tag_101\n      jump\t// in\n    tag_103:\n        /* \"#utility.yul\":3123:3289   */\n      pop\n        /* \"#utility.yul\":3306:3310   */\n      dup1\n        /* \"#utility.yul\":3299:3310   */\n      swap2\n      pop\n        /* \"#utility.yul\":2467:3316   */\n      pop\n        /* \"#utility.yul\":2339:3316   */\n      swap3\n      swap2\n      pop\n      pop\n      jump\t// out\n        /* \"#utility.yul\":3322:3430   */\n    tag_101:\n        /* \"#utility.yul\":3399:3423   */\n      tag_105\n        /* \"#utility.yul\":3417:3422   */\n      dup2\n        /* \"#utility.yul\":3399:3423   */\n      tag_106\n      jump\t// in\n    tag_105:\n        /* \"#utility.yul\":3394:3397   */\n      dup3\n        /* \"#utility.yul\":3387:3424   */\n      mstore\n        /* \"#utility.yul\":3322:3430   */\n      pop\n      pop\n      jump\t// out\n        /* \"#utility.yul\":3436:3554   */\n    tag_107:\n        /* \"#utility.yul\":3523:3547   */\n      tag_109\n        /* \"#utility.yul\":3541:3546   */\n      dup2\n        /* \"#utility.yul\":3523:3547   */\n      tag_106\n      jump\t// in\n    tag_109:\n        /* \"#utility.yul\":3518:3521   */\n      dup3\n        /* \"#utility.yul\":3511:3548   */\n      mstore\n        /* \"#utility.yul\":3436:3554   */\n      pop\n      pop\n      jump\t// out\n        /* \"#utility.yul\":3560:3941   */\n    tag_20:\n        /* \"#utility.yul\":3707:3711   */\n      0x00\n        /* \"#utility.yul\":3745:3747   */\n      0x20\n        /* \"#utility.yul\":3734:3743   */\n      dup3\n        /* \"#utility.yul\":3730:3748   */\n      add\n        /* \"#utility.yul\":3722:3748   */\n      swap1\n      pop\n        /* \"#utility.yul\":3794:3803   */\n      dup2\n        /* \"#utility.yul\":3788:3792   */\n      dup2\n        /* \"#utility.yul\":3784:3804   */\n      sub\n        /* \"#utility.yul\":3780:3781   */\n      0x00\n        /* \"#utility.yul\":3769:3778   */\n      dup4\n        /* \"#utility.yul\":3765:3782   */\n      add\n        /* \"#utility.yul\":3758:3805   */\n      mstore\n        /* \"#utility.yul\":3822:3934   */\n      tag_111\n        /* \"#utility.yul\":3929:3933   */\n      dup2\n        /* \"#utility.yul\":3920:3926   */\n      dup5\n        /* \"#utility.yul\":3822:3934   */\n      tag_97\n      jump\t// in\n    tag_111:\n        /* \"#utility.yul\":3814:3934   */\n      swap1\n      pop\n        /* \"#utility.yul\":3560:3941   */\n      swap3\n      swap2\n      pop\n      pop\n      jump\t// out\n        /* \"#utility.yul\":3947:4169   */\n    tag_14:\n        /* \"#utility.yul\":4040:4044   */\n      0x00\n        /* \"#utility.yul\":4078:4080   */\n      0x20\n        /* \"#utility.yul\":4067:4076   */\n      dup3\n        /* \"#utility.yul\":4063:4081   */\n      add\n        /* \"#utility.yul\":4055:4081   */\n      swap1\n      pop\n        /* \"#utility.yul\":4091:4162   */\n      tag_113\n        /* \"#utility.yul\":4159:4160   */\n      0x00\n        /* \"#utility.yul\":4148:4157   */\n      dup4\n        /* \"#utility.yul\":4144:4161   */\n      add\n        /* \"#utility.yul\":4135:4141   */\n      dup5\n        /* \"#utility.yul\":4091:4162   */\n      tag_107\n      jump\t// in\n    tag_113:\n        /* \"#utility.yul\":3947:4169   */\n      swap3\n      swap2\n      pop\n      pop\n      jump\t// out\n        /* \"#utility.yul\":4175:4304   */\n    tag_58:\n        /* \"#utility.yul\":4209:4215   */\n      0x00\n        /* \"#utility.yul\":4236:4256   */\n      tag_115\n      tag_116\n      jump\t// in\n    tag_115:\n        /* \"#utility.yul\":4226:4256   */\n      swap1\n      pop\n        /* \"#utility.yul\":4265:4298   */\n      tag_117\n        /* \"#utility.yul\":4293:4297   */\n      dup3\n        /* \"#utility.yul\":4285:4291   */\n      dup3\n        /* \"#utility.yul\":4265:4298   */\n      tag_118\n      jump\t// in\n    tag_117:\n        /* \"#utility.yul\":4175:4304   */\n      swap2\n      swap1\n      pop\n      jump\t// out\n        /* \"#utility.yul\":4310:4385   */\n    tag_116:\n        /* \"#utility.yul\":4343:4349   */\n      0x00\n        /* \"#utility.yul\":4376:4378   */\n      0x40\n        /* \"#utility.yul\":4370:4379   */\n      mload\n        /* \"#utility.yul\":4360:4379   */\n      swap1\n      pop\n        /* \"#utility.yul\":4310:4385   */\n      swap1\n      jump\t// out\n        /* \"#utility.yul\":4391:4699   */\n    tag_57:\n        /* \"#utility.yul\":4453:4457   */\n      0x00\n        /* \"#utility.yul\":4543:4561   */\n      0xffffffffffffffff\n        /* \"#utility.yul\":4535:4541   */\n      dup3\n        /* \"#utility.yul\":4532:4562   */\n      gt\n        /* \"#utility.yul\":4529:4585   */\n      iszero\n      tag_121\n      jumpi\n        /* \"#utility.yul\":4565:4583   */\n      tag_122\n      tag_123\n      jump\t// in\n    tag_122:\n        /* \"#utility.yul\":4529:4585   */\n    tag_121:\n        /* \"#utility.yul\":4603:4632   */\n      tag_124\n        /* \"#utility.yul\":4625:4631   */\n      dup3\n        /* \"#utility.yul\":4603:4632   */\n      tag_96\n      jump\t// in\n    tag_124:\n        /* \"#utility.yul\":4595:4632   */\n      swap1\n      pop\n        /* \"#utility.yul\":4687:4691   */\n      0x20\n        /* \"#utility.yul\":4681:4685   */\n      dup2\n        /* \"#utility.yul\":4677:4692   */\n      add\n        /* \"#utility.yul\":4669:4692   */\n      swap1\n      pop\n        /* \"#utility.yul\":4391:4699   */\n      swap2\n      swap1\n      pop\n      jump\t// out\n        /* \"#utility.yul\":4705:4804   */\n    tag_90:\n        /* \"#utility.yul\":4757:4763   */\n      0x00\n        /* \"#utility.yul\":4791:4796   */\n      dup2\n        /* \"#utility.yul\":4785:4797   */\n      mload\n        /* \"#utility.yul\":4775:4797   */\n      swap1\n      pop\n        /* \"#utility.yul\":4705:4804   */\n      swap2\n      swap1\n      pop\n      jump\t// out\n        /* \"#utility.yul\":4810:4969   */\n    tag_92:\n        /* \"#utility.yul\":4884:4895   */\n      0x00\n        /* \"#utility.yul\":4918:4924   */\n      dup3\n        /* \"#utility.yul\":4913:4916   */\n      dup3\n        /* \"#utility.yul\":4906:4925   */\n      mstore\n        /* \"#utility.yul\":4958:4962   */\n      0x20\n        /* \"#utility.yul\":4953:4956   */\n      dup3\n        /* \"#utility.yul\":4949:4963   */\n      add\n        /* \"#utility.yul\":4934:4963   */\n      swap1\n      pop\n        /* \"#utility.yul\":4810:4969   */\n      swap3\n      swap2\n      pop\n      pop\n      jump\t// out\n        /* \"#utility.yul\":4975:5280   */\n    tag_28:\n        /* \"#utility.yul\":5015:5018   */\n      0x00\n        /* \"#utility.yul\":5034:5054   */\n      tag_128\n        /* \"#utility.yul\":5052:5053   */\n      dup3\n        /* \"#utility.yul\":5034:5054   */\n      tag_106\n      jump\t// in\n    tag_128:\n        /* \"#utility.yul\":5029:5054   */\n      swap2\n      pop\n        /* \"#utility.yul\":5068:5088   */\n      tag_129\n        /* \"#utility.yul\":5086:5087   */\n      dup4\n        /* \"#utility.yul\":5068:5088   */\n      tag_106\n      jump\t// in\n    tag_129:\n        /* \"#utility.yul\":5063:5088   */\n      swap3\n      pop\n        /* \"#utility.yul\":5222:5223   */\n      dup3\n        /* \"#utility.yul\":5154:5220   */\n      0xffffffffffffffffffffffffffffffffffffffffffffffffffffffffffffffff\n        /* \"#utility.yul\":5150:5224   */\n      sub\n        /* \"#utility.yul\":5147:5148   */\n      dup3\n        /* \"#utility.yul\":5144:5225   */\n      gt\n        /* \"#utility.yul\":5141:5248   */\n      iszero\n      tag_130\n      jumpi\n        /* \"#utility.yul\":5228:5246   */\n      tag_131\n      tag_132\n      jump\t// in\n    tag_131:\n        /* \"#utility.yul\":5141:5248   */\n    tag_130:\n        /* \"#utility.yul\":5272:5273   */\n      dup3\n        /* \"#utility.yul\":5269:5270   */\n      dup3\n        /* \"#utility.yul\":5265:5274   */\n      add\n        /* \"#utility.yul\":5258:5274   */\n      swap1\n      pop\n        /* \"#utility.yul\":4975:5280   */\n      swap3\n      swap2\n      pop\n      pop\n      jump\t// out\n        /* \"#utility.yul\":5286:5363   */\n    tag_106:\n        /* \"#utility.yul\":5323:5330   */\n      0x00\n        /* \"#utility.yul\":5352:5357   */\n      dup2\n        /* \"#utility.yul\":5341:5357   */\n      swap1\n      pop\n        /* \"#utility.yul\":5286:5363   */\n      swap2\n      swap1\n      pop\n      jump\t// out\n        /* \"#utility.yul\":5369:5523   */\n    tag_63:\n        /* \"#utility.yul\":5453:5459   */\n      dup3\n        /* \"#utility.yul\":5448:5451   */\n      dup2\n        /* \"#utility.yul\":5443:5446   */\n      dup4\n        /* \"#utility.yul\":5430:5460   */\n      calldatacopy\n        /* \"#utility.yul\":5515:5516   */\n      0x00\n        /* \"#utility.yul\":5506:5512   */\n      dup4\n        /* \"#utility.yul\":5501:5504   */\n      dup4\n        /* \"#utility.yul\":5497:5513   */\n      add\n        /* \"#utility.yul\":5490:5517   */\n      mstore\n        /* \"#utility.yul\":5369:5523   */\n      pop\n      pop\n      pop\n      jump\t// out\n        /* \"#utility.yul\":5529:5836   */\n    tag_94:\n        /* \"#utility.yul\":5597:5598   */\n      0x00\n        /* \"#utility.yul\":5607:5720   */\n    tag_136:\n        /* \"#utility.yul\":5621:5627   */\n      dup4\n        /* \"#utility.yul\":5618:5619   */\n      dup2\n        /* \"#utility.yul\":5615:5628   */\n      lt\n        /* \"#utility.yul\":5607:5720   */\n      iszero\n      tag_138\n      jumpi\n        /* \"#utility.yul\":5706:5707   */\n      dup1\n        /* \"#utility.yul\":5701:5704   */\n      dup3\n        /* \"#utility.yul\":5697:5708   */\n      add\n        /* \"#utility.yul\":5691:5709   */\n      mload\n        /* \"#utility.yul\":5687:5688   */\n      dup2\n        /* \"#utility.yul\":5682:5685   */\n      dup5\n        /* \"#utility.yul\":5678:5689   */\n      add\n        /* \"#utility.yul\":5671:5710   */\n      mstore\n        /* \"#utility.yul\":5643:5645   */\n      0x20\n        /* \"#utility.yul\":5640:5641   */\n      dup2\n        /* \"#utility.yul\":5636:5646   */\n      add\n        /* \"#utility.yul\":5631:5646   */\n      swap1\n      pop\n        /* \"#utility.yul\":5607:5720   */\n      jump(tag_136)\n    tag_138:\n        /* \"#utility.yul\":5738:5744   */\n      dup4\n        /* \"#utility.yul\":5735:5736   */\n      dup2\n        /* \"#utility.yul\":5732:5745   */\n      gt\n        /* \"#utility.yul\":5729:5830   */\n      iszero\n      tag_139\n      jumpi\n        /* \"#utility.yul\":5818:5819   */\n      0x00\n        /* \"#utility.yul\":5809:5815   */\n      dup5\n        /* \"#utility.yul\":5804:5807   */\n      dup5\n        /* \"#utility.yul\":5800:5816   */\n      add\n        /* \"#utility.yul\":5793:5820   */\n      mstore\n        /* \"#utility.yul\":5729:5830   */\n    tag_139:\n        /* \"#utility.yul\":5578:5836   */\n      pop\n        /* \"#utility.yul\":5529:5836   */\n      pop\n      pop\n      pop\n      jump\t// out\n        /* \"#utility.yul\":5842:6162   */\n    tag_33:\n        /* \"#utility.yul\":5886:5892   */\n      0x00\n        /* \"#utility.yul\":5923:5924   */\n      0x02\n        /* \"#utility.yul\":5917:5921   */\n      dup3\n        /* \"#utility.yul\":5913:5925   */\n      div\n        /* \"#utility.yul\":5903:5925   */\n      swap1\n      pop\n        /* \"#utility.yul\":5970:5971   */\n      0x01\n        /* \"#utility.yul\":5964:5968   */\n      dup3\n        /* \"#utility.yul\":5960:5972   */\n      and\n        /* \"#utility.yul\":5991:6009   */\n      dup1\n        /* \"#utility.yul\":5981:6062   */\n      tag_141\n      jumpi\n        /* \"#utility.yul\":6047:6051   */\n      0x7f\n        /* \"#utility.yul\":6039:6045   */\n      dup3\n        /* \"#utility.yul\":6035:6052   */\n      and\n        /* \"#utility.yul\":6025:6052   */\n      swap2\n      pop\n        /* \"#utility.yul\":5981:6062   */\n    tag_141:\n        /* \"#utility.yul\":6109:6111   */\n      0x20\n        /* \"#utility.yul\":6101:6107   */\n      dup3\n        /* \"#utility.yul\":6098:6112   */\n      lt\n        /* \"#utility.yul\":6078:6096   */\n      dup2\n        /* \"#utility.yul\":6075:6113   */\n      eq\n        /* \"#utility.yul\":6072:6156   */\n      iszero\n      tag_142\n      jumpi\n        /* \"#utility.yul\":6128:6146   */\n      tag_143\n      tag_144\n      jump\t// in\n    tag_143:\n        /* \"#utility.yul\":6072:6156   */\n    tag_142:\n        /* \"#utility.yul\":5893:6162   */\n      pop\n        /* \"#utility.yul\":5842:6162   */\n      swap2\n      swap1\n      pop\n      jump\t// out\n        /* \"#utility.yul\":6168:6449   */\n    tag_118:\n        /* \"#utility.yul\":6251:6278   */\n      tag_146\n        /* \"#utility.yul\":6273:6277   */\n      dup3\n        /* \"#utility.yul\":6251:6278   */\n      tag_96\n      jump\t// in\n    tag_146:\n        /* \"#utility.yul\":6243:6249   */\n      dup2\n        /* \"#utility.yul\":6239:6279   */\n      add\n        /* \"#utility.yul\":6381:6387   */\n      dup2\n        /* \"#utility.yul\":6369:6379   */\n      dup2\n        /* \"#utility.yul\":6366:6388   */\n      lt\n        /* \"#utility.yul\":6345:6363   */\n      0xffffffffffffffff\n        /* \"#utility.yul\":6333:6343   */\n      dup3\n        /* \"#utility.yul\":6330:6364   */\n      gt\n        /* \"#utility.yul\":6327:6389   */\n      or\n        /* \"#utility.yul\":6324:6412   */\n      iszero\n      tag_147\n      jumpi\n        /* \"#utility.yul\":6392:6410   */\n      tag_148\n      tag_123\n      jump\t// in\n    tag_148:\n        /* \"#utility.yul\":6324:6412   */\n    tag_147:\n        /* \"#utility.yul\":6432:6442   */\n      dup1\n        /* \"#utility.yul\":6428:6430   */\n      0x40\n        /* \"#utility.yul\":6421:6443   */\n      mstore\n        /* \"#utility.yul\":6211:6449   */\n      pop\n        /* \"#utility.yul\":6168:6449   */\n      pop\n      pop\n      jump\t// out\n        /* \"#utility.yul\":6455:6635   */\n    tag_132:\n        /* \"#utility.yul\":6503:6580   */\n      0x4e487b7100000000000000000000000000000000000000000000000000000000\n        /* \"#utility.yul\":6500:6501   */\n      0x00\n        /* \"#utility.yul\":6493:6581   */\n      mstore\n        /* \"#utility.yul\":6600:6604   */\n      0x11\n        /* \"#utility.yul\":6597:6598   */\n      0x04\n        /* \"#utility.yul\":6590:6605   */\n      mstore\n        /* \"#utility.yul\":6624:6628   */\n      0x24\n        /* \"#utility.yul\":6621:6622   */\n      0x00\n        /* \"#utility.yul\":6614:6629   */\n      revert\n        /* \"#utility.yul\":6641:6821   */\n    tag_144:\n        /* \"#utility.yul\":6689:6766   */\n      0x4e487b7100000000000000000000000000000000000000000000000000000000\n        /* \"#utility.yul\":6686:6687   */\n      0x00\n        /* \"#utility.yul\":6679:6767   */\n      mstore\n        /* \"#utility.yul\":6786:6790   */\n      0x22\n        /* \"#utility.yul\":6783:6784   */\n      0x04\n        /* \"#utility.yul\":6776:6791   */\n      mstore\n        /* \"#utility.yul\":6810:6814   */\n      0x24\n        /* \"#utility.yul\":6807:6808   */\n      0x00\n        /* \"#utility.yul\":6800:6815   */\n      revert\n        /* \"#utility.yul\":6827:7007   */\n    tag_123:\n        /* \"#utility.yul\":6875:6952   */\n      0x4e487b7100000000000000000000000000000000000000000000000000000000\n        /* \"#utility.yul\":6872:6873   */\n      0x00\n        /* \"#utility.yul\":6865:6953   */\n      mstore\n        /* \"#utility.yul\":6972:6976   */\n      0x41\n        /* \"#utility.yul\":6969:6970   */\n      0x04\n        /* \"#utility.yul\":6962:6977   */\n      mstore\n        /* \"#utility.yul\":6996:7000   */\n      0x24\n        /* \"#utility.yul\":6993:6994   */\n      0x00\n        /* \"#utility.yul\":6986:7001   */\n      revert\n        /* \"#utility.yul\":7013:7130   */\n    tag_68:\n        /* \"#utility.yul\":7122:7123   */\n      0x00\n        /* \"#utility.yul\":7119:7120   */\n      dup1\n        /* \"#utility.yul\":7112:7124   */\n      revert\n        /* \"#utility.yul\":7136:7253   */\n    tag_61:\n        /* \"#utility.yul\":7245:7246   */\n      0x00\n        /* \"#utility.yul\":7242:7243   */\n      dup1\n        /* \"#utility.yul\":7235:7247   */\n      revert\n        /* \"#utility.yul\":7259:7376   */\n    tag_80:\n        /* \"#utility.yul\":7368:7369   */\n      0x00\n        /* \"#utility.yul\":7365:7366   */\n      dup1\n        /* \"#utility.yul\":7358:7370   */\n      revert\n        /* \"#utility.yul\":7382:7499   */\n    tag_77:\n        /* \"#utility.yul\":7491:7492   */\n      0x00\n        /* \"#utility.yul\":7488:7489   */\n      dup1\n        /* \"#utility.yul\":7481:7493   */\n      revert\n        /* \"#utility.yul\":7505:7607   */\n    tag_96:\n        /* \"#utility.yul\":7546:7552   */\n      0x00\n        /* \"#utility.yul\":7597:7599   */\n      0x1f\n        /* \"#utility.yul\":7593:7600   */\n      not\n        /* \"#utility.yul\":7588:7590   */\n      0x1f\n        /* \"#utility.yul\":7581:7586   */\n      dup4\n        /* \"#utility.yul\":7577:7591   */\n      add\n        /* \"#utility.yul\":7573:7601   */\n      and\n        /* \"#utility.yul\":7563:7601   */\n      swap1\n      pop\n        /* \"#utility.yul\":7505:7607   */\n      swap2\n      swap1\n      pop\n      jump\t// out\n        /* \"#utility.yul\":7613:7735   */\n    tag_73:\n        /* \"#utility.yul\":7686:7710   */\n      tag_158\n        /* \"#utility.yul\":7704:7709   */\n      dup2\n        /* \"#utility.yul\":7686:7710   */\n      tag_106\n      jump\t// in\n    tag_158:\n        /* \"#utility.yul\":7679:7684   */\n      dup2\n        /* \"#utility.yul\":7676:7711   */\n      eq\n        /* \"#utility.yul\":7666:7729   */\n      tag_159\n      jumpi\n        /* \"#utility.yul\":7725:7726   */\n      0x00\n        /* \"#utility.yul\":7722:7723   */\n      dup1\n        /* \"#utility.yul\":7715:7727   */\n      revert\n        /* \"#utility.yul\":7666:7729   */\n    tag_159:\n        /* \"#utility.yul\":7613:7735   */\n      pop\n      jump\t// out\n\n    auxdata: 0xa26469706673582212208d867d2730c8016b318e1cd31e5434bf58d6dc5870fba8aaef8f840506b7c6bd64736f6c63430008070033\n}\n",
				"bytecode": {
					"linkReferences": {},
					"object": "608060405234801561001057600080fd5b506107ad806100206000396000f3fe60806040526004361061003f5760003560e01c80634364b26e146100445780636017509b14610060578063cbdd99801461008b578063e50e2c63146100c8575b600080fd5b61005e60048036038101906100599190610413565b6100f1565b005b34801561006c57600080fd5b50610075610120565b604051610082919061051c565b60405180910390f35b34801561009757600080fd5b506100b260048036038101906100ad9190610413565b610126565b6040516100bf91906104fa565b60405180910390f35b3480156100d457600080fd5b506100ef60048036038101906100ea91906103b7565b610202565b005b34600080838152602001908152602001600020600201600082825461011691906105a9565b9250508190555050565b60015481565b61012e610267565b60008083815260200190815260200160002060405180608001604052908160008201805461015b9061064b565b80601f01602080910402602001604051908101604052809291908181526020018280546101879061064b565b80156101d45780601f106101a9576101008083540402835291602001916101d4565b820191906000526020600020905b8154815290600101906020018083116101b757829003601f168201915b5050505050815260200160018201548152602001600282015481526020016003820154815250509050919050565b816000806001548152602001908152602001600020600001908051906020019061022d92919061028f565b5080600080600154815260200190815260200160002060020181905550600180600082825461025c91906105a9565b925050819055505050565b6040518060800160405280606081526020016000815260200160008152602001600081525090565b82805461029b9061064b565b90600052602060002090601f0160209004810192826102bd5760008555610304565b82601f106102d657805160ff1916838001178555610304565b82800160010185558215610304579182015b828111156103035782518255916020019190600101906102e8565b5b5090506103119190610315565b5090565b5b8082111561032e576000816000905550600101610316565b5090565b60006103456103408461055c565b610537565b90508281526020810184848401111561036157610360610740565b5b61036c848285610609565b509392505050565b600082601f8301126103895761038861073b565b5b8135610399848260208601610332565b91505092915050565b6000813590506103b181610760565b92915050565b600080604083850312156103ce576103cd61074a565b5b600083013567ffffffffffffffff8111156103ec576103eb610745565b5b6103f885828601610374565b9250506020610409858286016103a2565b9150509250929050565b6000602082840312156104295761042861074a565b5b6000610437848285016103a2565b91505092915050565b600061044b8261058d565b6104558185610598565b9350610465818560208601610618565b61046e8161074f565b840191505092915050565b600060808301600083015184820360008601526104968282610440565b91505060208301516104ab60208601826104dc565b5060408301516104be60408601826104dc565b5060608301516104d160608601826104dc565b508091505092915050565b6104e5816105ff565b82525050565b6104f4816105ff565b82525050565b600060208201905081810360008301526105148184610479565b905092915050565b600060208201905061053160008301846104eb565b92915050565b6000610541610552565b905061054d828261067d565b919050565b6000604051905090565b600067ffffffffffffffff8211156105775761057661070c565b5b6105808261074f565b9050602081019050919050565b600081519050919050565b600082825260208201905092915050565b60006105b4826105ff565b91506105bf836105ff565b9250827fffffffffffffffffffffffffffffffffffffffffffffffffffffffffffffffff038211156105f4576105f36106ae565b5b828201905092915050565b6000819050919050565b82818337600083830152505050565b60005b8381101561063657808201518184015260208101905061061b565b83811115610645576000848401525b50505050565b6000600282049050600182168061066357607f821691505b60208210811415610677576106766106dd565b5b50919050565b6106868261074f565b810181811067ffffffffffffffff821117156106a5576106a461070c565b5b80604052505050565b7f4e487b7100000000000000000000000000000000000000000000000000000000600052601160045260246000fd5b7f4e487b7100000000000000000000000000000000000000000000000000000000600052602260045260246000fd5b7f4e487b7100000000000000000000000000000000000000000000000000000000600052604160045260246000fd5b600080fd5b600080fd5b600080fd5b600080fd5b6000601f19601f8301169050919050565b610769816105ff565b811461077457600080fd5b5056fea26469706673582212208d867d2730c8016b318e1cd31e5434bf58d6dc5870fba8aaef8f840506b7c6bd64736f6c63430008070033",
					"opcodes": "PUSH1 0x80 PUSH1 0x40 MSTORE CALLVALUE DUP1 ISZERO PUSH2 0x10 JUMPI PUSH1 0x0 DUP1 REVERT JUMPDEST POP PUSH2 0x7AD DUP1 PUSH2 0x20 PUSH1 0x0 CODECOPY PUSH1 0x0 RETURN INVALID PUSH1 0x80 PUSH1 0x40 MSTORE PUSH1 0x4 CALLDATASIZE LT PUSH2 0x3F JUMPI PUSH1 0x0 CALLDATALOAD PUSH1 0xE0 SHR DUP1 PUSH4 0x4364B26E EQ PUSH2 0x44 JUMPI DUP1 PUSH4 0x6017509B EQ PUSH2 0x60 JUMPI DUP1 PUSH4 0xCBDD9980 EQ PUSH2 0x8B JUMPI DUP1 PUSH4 0xE50E2C63 EQ PUSH2 0xC8 JUMPI JUMPDEST PUSH1 0x0 DUP1 REVERT JUMPDEST PUSH2 0x5E PUSH1 0x4 DUP1 CALLDATASIZE SUB DUP2 ADD SWAP1 PUSH2 0x59 SWAP2 SWAP1 PUSH2 0x413 JUMP JUMPDEST PUSH2 0xF1 JUMP JUMPDEST STOP JUMPDEST CALLVALUE DUP1 ISZERO PUSH2 0x6C JUMPI PUSH1 0x0 DUP1 REVERT JUMPDEST POP PUSH2 0x75 PUSH2 0x120 JUMP JUMPDEST PUSH1 0x40 MLOAD PUSH2 0x82 SWAP2 SWAP1 PUSH2 0x51C JUMP JUMPDEST PUSH1 0x40 MLOAD DUP1 SWAP2 SUB SWAP1 RETURN JUMPDEST CALLVALUE DUP1 ISZERO PUSH2 0x97 JUMPI PUSH1 0x0 DUP1 REVERT JUMPDEST POP PUSH2 0xB2 PUSH1 0x4 DUP1 CALLDATASIZE SUB DUP2 ADD SWAP1 PUSH2 0xAD SWAP2 SWAP1 PUSH2 0x413 JUMP JUMPDEST PUSH2 0x126 JUMP JUMPDEST PUSH1 0x40 MLOAD PUSH2 0xBF SWAP2 SWAP1 PUSH2 0x4FA JUMP JUMPDEST PUSH1 0x40 MLOAD DUP1 SWAP2 SUB SWAP1 RETURN JUMPDEST CALLVALUE DUP1 ISZERO PUSH2 0xD4 JUMPI PUSH1 0x0 DUP1 REVERT JUMPDEST POP PUSH2 0xEF PUSH1 0x4 DUP1 CALLDATASIZE SUB DUP2 ADD SWAP1 PUSH2 0xEA SWAP2 SWAP1 PUSH2 0x3B7 JUMP JUMPDEST PUSH2 0x202 JUMP JUMPDEST STOP JUMPDEST CALLVALUE PUSH1 0x0 DUP1 DUP4 DUP2 MSTORE PUSH1 0x20 ADD SWAP1 DUP2 MSTORE PUSH1 0x20 ADD PUSH1 0x0 KECCAK256 PUSH1 0x2 ADD PUSH1 0x0 DUP3 DUP3 SLOAD PUSH2 0x116 SWAP2 SWAP1 PUSH2 0x5A9 JUMP JUMPDEST SWAP3 POP POP DUP2 SWAP1 SSTORE POP POP JUMP JUMPDEST PUSH1 0x1 SLOAD DUP2 JUMP JUMPDEST PUSH2 0x12E PUSH2 0x267 JUMP JUMPDEST PUSH1 0x0 DUP1 DUP4 DUP2 MSTORE PUSH1 0x20 ADD SWAP1 DUP2 MSTORE PUSH1 0x20 ADD PUSH1 0x0 KECCAK256 PUSH1 0x40 MLOAD DUP1 PUSH1 0x80 ADD PUSH1 0x40 MSTORE SWAP1 DUP2 PUSH1 0x0 DUP3 ADD DUP1 SLOAD PUSH2 0x15B SWAP1 PUSH2 0x64B JUMP JUMPDEST DUP1 PUSH1 0x1F ADD PUSH1 0x20 DUP1 SWAP2 DIV MUL PUSH1 0x20 ADD PUSH1 0x40 MLOAD SWAP1 DUP2 ADD PUSH1 0x40 MSTORE DUP1 SWAP3 SWAP2 SWAP1 DUP2 DUP2 MSTORE PUSH1 0x20 ADD DUP3 DUP1 SLOAD PUSH2 0x187 SWAP1 PUSH2 0x64B JUMP JUMPDEST DUP1 ISZERO PUSH2 0x1D4 JUMPI DUP1 PUSH1 0x1F LT PUSH2 0x1A9 JUMPI PUSH2 0x100 DUP1 DUP4 SLOAD DIV MUL DUP4 MSTORE SWAP2 PUSH1 0x20 ADD SWAP2 PUSH2 0x1D4 JUMP JUMPDEST DUP3 ADD SWAP2 SWAP1 PUSH1 0x0 MSTORE PUSH1 0x20 PUSH1 0x0 KECCAK256 SWAP1 JUMPDEST DUP2 SLOAD DUP2 MSTORE SWAP1 PUSH1 0x1 ADD SWAP1 PUSH1 0x20 ADD DUP1 DUP4 GT PUSH2 0x1B7 JUMPI DUP3 SWAP1 SUB PUSH1 0x1F AND DUP3 ADD SWAP2 JUMPDEST POP POP POP POP POP DUP2 MSTORE PUSH1 0x20 ADD PUSH1 0x1 DUP3 ADD SLOAD DUP2 MSTORE PUSH1 0x20 ADD PUSH1 0x2 DUP3 ADD SLOAD DUP2 MSTORE PUSH1 0x20 ADD PUSH1 0x3 DUP3 ADD SLOAD DUP2 MSTORE POP POP SWAP1 POP SWAP2 SWAP1 POP JUMP JUMPDEST DUP2 PUSH1 0x0 DUP1 PUSH1 0x1 SLOAD DUP2 MSTORE PUSH1 0x20 ADD SWAP1 DUP2 MSTORE PUSH1 0x20 ADD PUSH1 0x0 KECCAK256 PUSH1 0x0 ADD SWAP1 DUP1 MLOAD SWAP1 PUSH1 0x20 ADD SWAP1 PUSH2 0x22D SWAP3 SWAP2 SWAP1 PUSH2 0x28F JUMP JUMPDEST POP DUP1 PUSH1 0x0 DUP1 PUSH1 0x1 SLOAD DUP2 MSTORE PUSH1 0x20 ADD SWAP1 DUP2 MSTORE PUSH1 0x20 ADD PUSH1 0x0 KECCAK256 PUSH1 0x2 ADD DUP2 SWAP1 SSTORE POP PUSH1 0x1 DUP1 PUSH1 0x0 DUP3 DUP3 SLOAD PUSH2 0x25C SWAP2 SWAP1 PUSH2 0x5A9 JUMP JUMPDEST SWAP3 POP POP DUP2 SWAP1 SSTORE POP POP POP JUMP JUMPDEST PUSH1 0x40 MLOAD DUP1 PUSH1 0x80 ADD PUSH1 0x40 MSTORE DUP1 PUSH1 0x60 DUP2 MSTORE PUSH1 0x20 ADD PUSH1 0x0 DUP2 MSTORE PUSH1 0x20 ADD PUSH1 0x0 DUP2 MSTORE PUSH1 0x20 ADD PUSH1 0x0 DUP2 MSTORE POP SWAP1 JUMP JUMPDEST DUP3 DUP1 SLOAD PUSH2 0x29B SWAP1 PUSH2 0x64B JUMP JUMPDEST SWAP1 PUSH1 0x0 MSTORE PUSH1 0x20 PUSH1 0x0 KECCAK256 SWAP1 PUSH1 0x1F ADD PUSH1 0x20 SWAP1 DIV DUP2 ADD SWAP3 DUP3 PUSH2 0x2BD JUMPI PUSH1 0x0 DUP6 SSTORE PUSH2 0x304 JUMP JUMPDEST DUP3 PUSH1 0x1F LT PUSH2 0x2D6 JUMPI DUP1 MLOAD PUSH1 0xFF NOT AND DUP4 DUP1 ADD OR DUP6 SSTORE PUSH2 0x304 JUMP JUMPDEST DUP3 DUP1 ADD PUSH1 0x1 ADD DUP6 SSTORE DUP3 ISZERO PUSH2 0x304 JUMPI SWAP2 DUP3 ADD JUMPDEST DUP3 DUP2 GT ISZERO PUSH2 0x303 JUMPI DUP3 MLOAD DUP3 SSTORE SWAP2 PUSH1 0x20 ADD SWAP2 SWAP1 PUSH1 0x1 ADD SWAP1 PUSH2 0x2E8 JUMP JUMPDEST JUMPDEST POP SWAP1 POP PUSH2 0x311 SWAP2 SWAP1 PUSH2 0x315 JUMP JUMPDEST POP SWAP1 JUMP JUMPDEST JUMPDEST DUP1 DUP3 GT ISZERO PUSH2 0x32E JUMPI PUSH1 0x0 DUP2 PUSH1 0x0 SWAP1 SSTORE POP PUSH1 0x1 ADD PUSH2 0x316 JUMP JUMPDEST POP SWAP1 JUMP JUMPDEST PUSH1 0x0 PUSH2 0x345 PUSH2 0x340 DUP5 PUSH2 0x55C JUMP JUMPDEST PUSH2 0x537 JUMP JUMPDEST SWAP1 POP DUP3 DUP2 MSTORE PUSH1 0x20 DUP2 ADD DUP5 DUP5 DUP5 ADD GT ISZERO PUSH2 0x361 JUMPI PUSH2 0x360 PUSH2 0x740 JUMP JUMPDEST JUMPDEST PUSH2 0x36C DUP5 DUP3 DUP6 PUSH2 0x609 JUMP JUMPDEST POP SWAP4 SWAP3 POP POP POP JUMP JUMPDEST PUSH1 0x0 DUP3 PUSH1 0x1F DUP4 ADD SLT PUSH2 0x389 JUMPI PUSH2 0x388 PUSH2 0x73B JUMP JUMPDEST JUMPDEST DUP2 CALLDATALOAD PUSH2 0x399 DUP5 DUP3 PUSH1 0x20 DUP7 ADD PUSH2 0x332 JUMP JUMPDEST SWAP2 POP POP SWAP3 SWAP2 POP POP JUMP JUMPDEST PUSH1 0x0 DUP2 CALLDATALOAD SWAP1 POP PUSH2 0x3B1 DUP2 PUSH2 0x760 JUMP JUMPDEST SWAP3 SWAP2 POP POP JUMP JUMPDEST PUSH1 0x0 DUP1 PUSH1 0x40 DUP4 DUP6 SUB SLT ISZERO PUSH2 0x3CE JUMPI PUSH2 0x3CD PUSH2 0x74A JUMP JUMPDEST JUMPDEST PUSH1 0x0 DUP4 ADD CALLDATALOAD PUSH8 0xFFFFFFFFFFFFFFFF DUP2 GT ISZERO PUSH2 0x3EC JUMPI PUSH2 0x3EB PUSH2 0x745 JUMP JUMPDEST JUMPDEST PUSH2 0x3F8 DUP6 DUP3 DUP7 ADD PUSH2 0x374 JUMP JUMPDEST SWAP3 POP POP PUSH1 0x20 PUSH2 0x409 DUP6 DUP3 DUP7 ADD PUSH2 0x3A2 JUMP JUMPDEST SWAP2 POP POP SWAP3 POP SWAP3 SWAP1 POP JUMP JUMPDEST PUSH1 0x0 PUSH1 0x20 DUP3 DUP5 SUB SLT ISZERO PUSH2 0x429 JUMPI PUSH2 0x428 PUSH2 0x74A JUMP JUMPDEST JUMPDEST PUSH1 0x0 PUSH2 0x437 DUP5 DUP3 DUP6 ADD PUSH2 0x3A2 JUMP JUMPDEST SWAP2 POP POP SWAP3 SWAP2 POP POP JUMP JUMPDEST PUSH1 0x0 PUSH2 0x44B DUP3 PUSH2 0x58D JUMP JUMPDEST PUSH2 0x455 DUP2 DUP6 PUSH2 0x598 JUMP JUMPDEST SWAP4 POP PUSH2 0x465 DUP2 DUP6 PUSH1 0x20 DUP7 ADD PUSH2 0x618 JUMP JUMPDEST PUSH2 0x46E DUP2 PUSH2 0x74F JUMP JUMPDEST DUP5 ADD SWAP2 POP POP SWAP3 SWAP2 POP POP JUMP JUMPDEST PUSH1 0x0 PUSH1 0x80 DUP4 ADD PUSH1 0x0 DUP4 ADD MLOAD DUP5 DUP3 SUB PUSH1 0x0 DUP7 ADD MSTORE PUSH2 0x496 DUP3 DUP3 PUSH2 0x440 JUMP JUMPDEST SWAP2 POP POP PUSH1 0x20 DUP4 ADD MLOAD PUSH2 0x4AB PUSH1 0x20 DUP7 ADD DUP3 PUSH2 0x4DC JUMP JUMPDEST POP PUSH1 0x40 DUP4 ADD MLOAD PUSH2 0x4BE PUSH1 0x40 DUP7 ADD DUP3 PUSH2 0x4DC JUMP JUMPDEST POP PUSH1 0x60 DUP4 ADD MLOAD PUSH2 0x4D1 PUSH1 0x60 DUP7 ADD DUP3 PUSH2 0x4DC JUMP JUMPDEST POP DUP1 SWAP2 POP POP SWAP3 SWAP2 POP POP JUMP JUMPDEST PUSH2 0x4E5 DUP2 PUSH2 0x5FF JUMP JUMPDEST DUP3 MSTORE POP POP JUMP JUMPDEST PUSH2 0x4F4 DUP2 PUSH2 0x5FF JUMP JUMPDEST DUP3 MSTORE POP POP JUMP JUMPDEST PUSH1 0x0 PUSH1 0x20 DUP3 ADD SWAP1 POP DUP2 DUP2 SUB PUSH1 0x0 DUP4 ADD MSTORE PUSH2 0x514 DUP2 DUP5 PUSH2 0x479 JUMP JUMPDEST SWAP1 POP SWAP3 SWAP2 POP POP JUMP JUMPDEST PUSH1 0x0 PUSH1 0x20 DUP3 ADD SWAP1 POP PUSH2 0x531 PUSH1 0x0 DUP4 ADD DUP5 PUSH2 0x4EB JUMP JUMPDEST SWAP3 SWAP2 POP POP JUMP JUMPDEST PUSH1 0x0 PUSH2 0x541 PUSH2 0x552 JUMP JUMPDEST SWAP1 POP PUSH2 0x54D DUP3 DUP3 PUSH2 0x67D JUMP JUMPDEST SWAP2 SWAP1 POP JUMP JUMPDEST PUSH1 0x0 PUSH1 0x40 MLOAD SWAP1 POP SWAP1 JUMP JUMPDEST PUSH1 0x0 PUSH8 0xFFFFFFFFFFFFFFFF DUP3 GT ISZERO PUSH2 0x577 JUMPI PUSH2 0x576 PUSH2 0x70C JUMP JUMPDEST JUMPDEST PUSH2 0x580 DUP3 PUSH2 0x74F JUMP JUMPDEST SWAP1 POP PUSH1 0x20 DUP2 ADD SWAP1 POP SWAP2 SWAP1 POP JUMP JUMPDEST PUSH1 0x0 DUP2 MLOAD SWAP1 POP SWAP2 SWAP1 POP JUMP JUMPDEST PUSH1 0x0 DUP3 DUP3 MSTORE PUSH1 0x20 DUP3 ADD SWAP1 POP SWAP3 SWAP2 POP POP JUMP JUMPDEST PUSH1 0x0 PUSH2 0x5B4 DUP3 PUSH2 0x5FF JUMP JUMPDEST SWAP2 POP PUSH2 0x5BF DUP4 PUSH2 0x5FF JUMP JUMPDEST SWAP3 POP DUP3 PUSH32 0xFFFFFFFFFFFFFFFFFFFFFFFFFFFFFFFFFFFFFFFFFFFFFFFFFFFFFFFFFFFFFFFF SUB DUP3 GT ISZERO PUSH2 0x5F4 JUMPI PUSH2 0x5F3 PUSH2 0x6AE JUMP JUMPDEST JUMPDEST DUP3 DUP3 ADD SWAP1 POP SWAP3 SWAP2 POP POP JUMP JUMPDEST PUSH1 0x0 DUP2 SWAP1 POP SWAP2 SWAP1 POP JUMP JUMPDEST DUP3 DUP2 DUP4 CALLDATACOPY PUSH1 0x0 DUP4 DUP4 ADD MSTORE POP POP POP JUMP JUMPDEST PUSH1 0x0 JUMPDEST DUP4 DUP2 LT ISZERO PUSH2 0x636 JUMPI DUP1 DUP3 ADD MLOAD DUP2 DUP5 ADD MSTORE PUSH1 0x20 DUP2 ADD SWAP1 POP PUSH2 0x61B JUMP JUMPDEST DUP4 DUP2 GT ISZERO PUSH2 0x645 JUMPI PUSH1 0x0 DUP5 DUP5 ADD MSTORE JUMPDEST POP POP POP POP JUMP JUMPDEST PUSH1 0x0 PUSH1 0x2 DUP3 DIV SWAP1 POP PUSH1 0x1 DUP3 AND DUP1 PUSH2 0x663 JUMPI PUSH1 0x7F DUP3 AND SWAP2 POP JUMPDEST PUSH1 0x20 DUP3 LT DUP2 EQ ISZERO PUSH2 0x677 JUMPI PUSH2 0x676 PUSH2 0x6DD JUMP JUMPDEST JUMPDEST POP SWAP2 SWAP1 POP JUMP JUMPDEST PUSH2 0x686 DUP3 PUSH2 0x74F JUMP JUMPDEST DUP2 ADD DUP2 DUP2 LT PUSH8 0xFFFFFFFFFFFFFFFF DUP3 GT OR ISZERO PUSH2 0x6A5 JUMPI PUSH2 0x6A4 PUSH2 0x70C JUMP JUMPDEST JUMPDEST DUP1 PUSH1 0x40 MSTORE POP POP POP JUMP JUMPDEST PUSH32 0x4E487B7100000000000000000000000000000000000000000000000000000000 PUSH1 0x0 MSTORE PUSH1 0x11 PUSH1 0x4 MSTORE PUSH1 0x24 PUSH1 0x0 REVERT JUMPDEST PUSH32 0x4E487B7100000000000000000000000000000000000000000000000000000000 PUSH1 0x0 MSTORE PUSH1 0x22 PUSH1 0x4 MSTORE PUSH1 0x24 PUSH1 0x0 REVERT JUMPDEST PUSH32 0x4E487B7100000000000000000000000000000000000000000000000000000000 PUSH1 0x0 MSTORE PUSH1 0x41 PUSH1 0x4 MSTORE PUSH1 0x24 PUSH1 0x0 REVERT JUMPDEST PUSH1 0x0 DUP1 REVERT JUMPDEST PUSH1 0x0 DUP1 REVERT JUMPDEST PUSH1 0x0 DUP1 REVERT JUMPDEST PUSH1 0x0 DUP1 REVERT JUMPDEST PUSH1 0x0 PUSH1 0x1F NOT PUSH1 0x1F DUP4 ADD AND SWAP1 POP SWAP2 SWAP1 POP JUMP JUMPDEST PUSH2 0x769 DUP2 PUSH2 0x5FF JUMP JUMPDEST DUP2 EQ PUSH2 0x774 JUMPI PUSH1 0x0 DUP1 REVERT JUMPDEST POP JUMP INVALID LOG2 PUSH5 0x6970667358 0x22 SLT KECCAK256 DUP14 DUP7 PUSH30 0x2730C8016B318E1CD31E5434BF58D6DC5870FBA8AAEF8F840506B7C6BD64 PUSH20 0x6F6C634300080700330000000000000000000000 "
				},
				"gasEstimates": {
					"creation": {
						"codeDepositCost": "393000",
						"executionCost": "430",
						"totalCost": "393430"
					},
					"external": {
						"enroll(string,uint256)": "infinite",
						"getFarmerDetails(uint256)": "infinite",
						"payPremium(uint256)": "infinite",
						"totalFarmers()": "2429"
					}
				},
				"methodIdentifiers": {
					"enroll(string,uint256)": "e50e2c63",
					"getFarmerDetails(uint256)": "cbdd9980",
					"payPremium(uint256)": "4364b26e",
					"totalFarmers()": "6017509b"
				}
			},
			"storageLayout": {
				"storage": [
					{
						"astId": 15,
						"contract": "contracts/Farmers.sol:Farmers",
						"label": "_farmers",
						"offset": 0,
						"slot": "0",
						"type": "t_mapping(t_uint256,t_struct(FarmersData)10_storage)"
					},
					{
						"astId": 17,
						"contract": "contracts/Farmers.sol:Farmers",
						"label": "totalFarmers",
						"offset": 0,
						"slot": "1",
						"type": "t_uint256"
					}
				],
				"types": {
					"t_mapping(t_uint256,t_struct(FarmersData)10_storage)": {
						"encoding": "mapping",
						"key": "t_uint256",
						"label": "mapping(uint256 => struct Farmers.FarmersData)",
						"numberOfBytes": "32",
						"value": "t_struct(FarmersData)10_storage"
					},
					"t_string_storage": {
						"encoding": "bytes",
						"label": "string",
						"numberOfBytes": "32"
					},
					"t_struct(FarmersData)10_storage": {
						"encoding": "inplace",
						"label": "struct Farmers.FarmersData",
						"members": [
							{
								"astId": 3,
								"contract": "contracts/Farmers.sol:Farmers",
								"label": "farmerLocation",
								"offset": 0,
								"slot": "0",
								"type": "t_string_storage"
							},
							{
								"astId": 5,
								"contract": "contracts/Farmers.sol:Farmers",
								"label": "farmerid",
								"offset": 0,
								"slot": "1",
								"type": "t_uint256"
							},
							{
								"astId": 7,
								"contract": "contracts/Farmers.sol:Farmers",
								"label": "premium",
								"offset": 0,
								"slot": "2",
								"type": "t_uint256"
							},
							{
								"astId": 9,
								"contract": "contracts/Farmers.sol:Farmers",
								"label": "payout",
								"offset": 0,
								"slot": "3",
								"type": "t_uint256"
							}
						],
						"numberOfBytes": "128"
					},
					"t_uint256": {
						"encoding": "inplace",
						"label": "uint256",
						"numberOfBytes": "32"
					}
				}
			},
			"userdoc": {
				"kind": "user",
				"methods": {},
				"version": 1
			}
		}
	}
}