{
	"data": {
		"bytecode": {
			"linkReferences": {},
			"object": "608060405234801561001057600080fd5b50610655806100206000396000f3fe6080604052600436106100555760003560e01c8063379607f51461005a5780634364b26e146100765780636017509b146100925780637fec8d38146100bd578063919840ad146100e8578063e50e2c6314610113575b600080fd5b610074600480360381019061006f91906103a1565b61013c565b005b610090600480360381019061008b91906103a1565b61013f565b005b34801561009e57600080fd5b506100a761016f565b6040516100b49190610407565b60405180910390f35b3480156100c957600080fd5b506100d2610175565b6040516100df91906103ec565b60405180910390f35b3480156100f457600080fd5b506100fd6101a4565b60405161010a91906103ec565b60405180910390f35b34801561011f57600080fd5b5061013a60048036038101906101359190610345565b6101b5565b005b50565b346001600083815260200190815260200160002060020160008282546101659190610478565b9250508190555050565b60025481565b600060016000806101000a81548160ff02191690831515021790555060008054906101000a900460ff16905090565b60008054906101000a900460ff1681565b8160016000600254815260200190815260200160002060000190805190602001906101e192919061021d565b5080600160006002548152602001908152602001600020600201819055506001600260008282546102129190610478565b925050819055505050565b828054610229906104f3565b90600052602060002090601f01602090048101928261024b5760008555610292565b82601f1061026457805160ff1916838001178555610292565b82800160010185558215610292579182015b82811115610291578251825591602001919060010190610276565b5b50905061029f91906102a3565b5090565b5b808211156102bc5760008160009055506001016102a4565b5090565b60006102d36102ce84610447565b610422565b9050828152602081018484840111156102ef576102ee6105e8565b5b6102fa8482856104e4565b509392505050565b600082601f830112610317576103166105e3565b5b81356103278482602086016102c0565b91505092915050565b60008135905061033f81610608565b92915050565b6000806040838503121561035c5761035b6105f2565b5b600083013567ffffffffffffffff81111561037a576103796105ed565b5b61038685828601610302565b925050602061039785828601610330565b9150509250929050565b6000602082840312156103b7576103b66105f2565b5b60006103c584828501610330565b91505092915050565b6103d7816104ce565b82525050565b6103e6816104da565b82525050565b600060208201905061040160008301846103ce565b92915050565b600060208201905061041c60008301846103dd565b92915050565b600061042c61043d565b90506104388282610525565b919050565b6000604051905090565b600067ffffffffffffffff821115610462576104616105b4565b5b61046b826105f7565b9050602081019050919050565b6000610483826104da565b915061048e836104da565b9250827fffffffffffffffffffffffffffffffffffffffffffffffffffffffffffffffff038211156104c3576104c2610556565b5b828201905092915050565b60008115159050919050565b6000819050919050565b82818337600083830152505050565b6000600282049050600182168061050b57607f821691505b6020821081141561051f5761051e610585565b5b50919050565b61052e826105f7565b810181811067ffffffffffffffff8211171561054d5761054c6105b4565b5b80604052505050565b7f4e487b7100000000000000000000000000000000000000000000000000000000600052601160045260246000fd5b7f4e487b7100000000000000000000000000000000000000000000000000000000600052602260045260246000fd5b7f4e487b7100000000000000000000000000000000000000000000000000000000600052604160045260246000fd5b600080fd5b600080fd5b600080fd5b600080fd5b6000601f19601f8301169050919050565b610611816104da565b811461061c57600080fd5b5056fea264697066735822122002befaca4c76222b95fcd0d5c0552f194e122ee110c644a978d2966990c2c1ad64736f6c63430008070033",
			"opcodes": "PUSH1 0x80 PUSH1 0x40 MSTORE CALLVALUE DUP1 ISZERO PUSH2 0x10 JUMPI PUSH1 0x0 DUP1 REVERT JUMPDEST POP PUSH2 0x655 DUP1 PUSH2 0x20 PUSH1 0x0 CODECOPY PUSH1 0x0 RETURN INVALID PUSH1 0x80 PUSH1 0x40 MSTORE PUSH1 0x4 CALLDATASIZE LT PUSH2 0x55 JUMPI PUSH1 0x0 CALLDATALOAD PUSH1 0xE0 SHR DUP1 PUSH4 0x379607F5 EQ PUSH2 0x5A JUMPI DUP1 PUSH4 0x4364B26E EQ PUSH2 0x76 JUMPI DUP1 PUSH4 0x6017509B EQ PUSH2 0x92 JUMPI DUP1 PUSH4 0x7FEC8D38 EQ PUSH2 0xBD JUMPI DUP1 PUSH4 0x919840AD EQ PUSH2 0xE8 JUMPI DUP1 PUSH4 0xE50E2C63 EQ PUSH2 0x113 JUMPI JUMPDEST PUSH1 0x0 DUP1 REVERT JUMPDEST PUSH2 0x74 PUSH1 0x4 DUP1 CALLDATASIZE SUB DUP2 ADD SWAP1 PUSH2 0x6F SWAP2 SWAP1 PUSH2 0x3A1 JUMP JUMPDEST PUSH2 0x13C JUMP JUMPDEST STOP JUMPDEST PUSH2 0x90 PUSH1 0x4 DUP1 CALLDATASIZE SUB DUP2 ADD SWAP1 PUSH2 0x8B SWAP2 SWAP1 PUSH2 0x3A1 JUMP JUMPDEST PUSH2 0x13F JUMP JUMPDEST STOP JUMPDEST CALLVALUE DUP1 ISZERO PUSH2 0x9E JUMPI PUSH1 0x0 DUP1 REVERT JUMPDEST POP PUSH2 0xA7 PUSH2 0x16F JUMP JUMPDEST PUSH1 0x40 MLOAD PUSH2 0xB4 SWAP2 SWAP1 PUSH2 0x407 JUMP JUMPDEST PUSH1 0x40 MLOAD DUP1 SWAP2 SUB SWAP1 RETURN JUMPDEST CALLVALUE DUP1 ISZERO PUSH2 0xC9 JUMPI PUSH1 0x0 DUP1 REVERT JUMPDEST POP PUSH2 0xD2 PUSH2 0x175 JUMP JUMPDEST PUSH1 0x40 MLOAD PUSH2 0xDF SWAP2 SWAP1 PUSH2 0x3EC JUMP JUMPDEST PUSH1 0x40 MLOAD DUP1 SWAP2 SUB SWAP1 RETURN JUMPDEST CALLVALUE DUP1 ISZERO PUSH2 0xF4 JUMPI PUSH1 0x0 DUP1 REVERT JUMPDEST POP PUSH2 0xFD PUSH2 0x1A4 JUMP JUMPDEST PUSH1 0x40 MLOAD PUSH2 0x10A SWAP2 SWAP1 PUSH2 0x3EC JUMP JUMPDEST PUSH1 0x40 MLOAD DUP1 SWAP2 SUB SWAP1 RETURN JUMPDEST CALLVALUE DUP1 ISZERO PUSH2 0x11F JUMPI PUSH1 0x0 DUP1 REVERT JUMPDEST POP PUSH2 0x13A PUSH1 0x4 DUP1 CALLDATASIZE SUB DUP2 ADD SWAP1 PUSH2 0x135 SWAP2 SWAP1 PUSH2 0x345 JUMP JUMPDEST PUSH2 0x1B5 JUMP JUMPDEST STOP JUMPDEST POP JUMP JUMPDEST CALLVALUE PUSH1 0x1 PUSH1 0x0 DUP4 DUP2 MSTORE PUSH1 0x20 ADD SWAP1 DUP2 MSTORE PUSH1 0x20 ADD PUSH1 0x0 KECCAK256 PUSH1 0x2 ADD PUSH1 0x0 DUP3 DUP3 SLOAD PUSH2 0x165 SWAP2 SWAP1 PUSH2 0x478 JUMP JUMPDEST SWAP3 POP POP DUP2 SWAP1 SSTORE POP POP JUMP JUMPDEST PUSH1 0x2 SLOAD DUP2 JUMP JUMPDEST PUSH1 0x0 PUSH1 0x1 PUSH1 0x0 DUP1 PUSH2 0x100 EXP DUP2 SLOAD DUP2 PUSH1 0xFF MUL NOT AND SWAP1 DUP4 ISZERO ISZERO MUL OR SWAP1 SSTORE POP PUSH1 0x0 DUP1 SLOAD SWAP1 PUSH2 0x100 EXP SWAP1 DIV PUSH1 0xFF AND SWAP1 POP SWAP1 JUMP JUMPDEST PUSH1 0x0 DUP1 SLOAD SWAP1 PUSH2 0x100 EXP SWAP1 DIV PUSH1 0xFF AND DUP2 JUMP JUMPDEST DUP2 PUSH1 0x1 PUSH1 0x0 PUSH1 0x2 SLOAD DUP2 MSTORE PUSH1 0x20 ADD SWAP1 DUP2 MSTORE PUSH1 0x20 ADD PUSH1 0x0 KECCAK256 PUSH1 0x0 ADD SWAP1 DUP1 MLOAD SWAP1 PUSH1 0x20 ADD SWAP1 PUSH2 0x1E1 SWAP3 SWAP2 SWAP1 PUSH2 0x21D JUMP JUMPDEST POP DUP1 PUSH1 0x1 PUSH1 0x0 PUSH1 0x2 SLOAD DUP2 MSTORE PUSH1 0x20 ADD SWAP1 DUP2 MSTORE PUSH1 0x20 ADD PUSH1 0x0 KECCAK256 PUSH1 0x2 ADD DUP2 SWAP1 SSTORE POP PUSH1 0x1 PUSH1 0x2 PUSH1 0x0 DUP3 DUP3 SLOAD PUSH2 0x212 SWAP2 SWAP1 PUSH2 0x478 JUMP JUMPDEST SWAP3 POP POP DUP2 SWAP1 SSTORE POP POP POP JUMP JUMPDEST DUP3 DUP1 SLOAD PUSH2 0x229 SWAP1 PUSH2 0x4F3 JUMP JUMPDEST SWAP1 PUSH1 0x0 MSTORE PUSH1 0x20 PUSH1 0x0 KECCAK256 SWAP1 PUSH1 0x1F ADD PUSH1 0x20 SWAP1 DIV DUP2 ADD SWAP3 DUP3 PUSH2 0x24B JUMPI PUSH1 0x0 DUP6 SSTORE PUSH2 0x292 JUMP JUMPDEST DUP3 PUSH1 0x1F LT PUSH2 0x264 JUMPI DUP1 MLOAD PUSH1 0xFF NOT AND DUP4 DUP1 ADD OR DUP6 SSTORE PUSH2 0x292 JUMP JUMPDEST DUP3 DUP1 ADD PUSH1 0x1 ADD DUP6 SSTORE DUP3 ISZERO PUSH2 0x292 JUMPI SWAP2 DUP3 ADD JUMPDEST DUP3 DUP2 GT ISZERO PUSH2 0x291 JUMPI DUP3 MLOAD DUP3 SSTORE SWAP2 PUSH1 0x20 ADD SWAP2 SWAP1 PUSH1 0x1 ADD SWAP1 PUSH2 0x276 JUMP JUMPDEST JUMPDEST POP SWAP1 POP PUSH2 0x29F SWAP2 SWAP1 PUSH2 0x2A3 JUMP JUMPDEST POP SWAP1 JUMP JUMPDEST JUMPDEST DUP1 DUP3 GT ISZERO PUSH2 0x2BC JUMPI PUSH1 0x0 DUP2 PUSH1 0x0 SWAP1 SSTORE POP PUSH1 0x1 ADD PUSH2 0x2A4 JUMP JUMPDEST POP SWAP1 JUMP JUMPDEST PUSH1 0x0 PUSH2 0x2D3 PUSH2 0x2CE DUP5 PUSH2 0x447 JUMP JUMPDEST PUSH2 0x422 JUMP JUMPDEST SWAP1 POP DUP3 DUP2 MSTORE PUSH1 0x20 DUP2 ADD DUP5 DUP5 DUP5 ADD GT ISZERO PUSH2 0x2EF JUMPI PUSH2 0x2EE PUSH2 0x5E8 JUMP JUMPDEST JUMPDEST PUSH2 0x2FA DUP5 DUP3 DUP6 PUSH2 0x4E4 JUMP JUMPDEST POP SWAP4 SWAP3 POP POP POP JUMP JUMPDEST PUSH1 0x0 DUP3 PUSH1 0x1F DUP4 ADD SLT PUSH2 0x317 JUMPI PUSH2 0x316 PUSH2 0x5E3 JUMP JUMPDEST JUMPDEST DUP2 CALLDATALOAD PUSH2 0x327 DUP5 DUP3 PUSH1 0x20 DUP7 ADD PUSH2 0x2C0 JUMP JUMPDEST SWAP2 POP POP SWAP3 SWAP2 POP POP JUMP JUMPDEST PUSH1 0x0 DUP2 CALLDATALOAD SWAP1 POP PUSH2 0x33F DUP2 PUSH2 0x608 JUMP JUMPDEST SWAP3 SWAP2 POP POP JUMP JUMPDEST PUSH1 0x0 DUP1 PUSH1 0x40 DUP4 DUP6 SUB SLT ISZERO PUSH2 0x35C JUMPI PUSH2 0x35B PUSH2 0x5F2 JUMP JUMPDEST JUMPDEST PUSH1 0x0 DUP4 ADD CALLDATALOAD PUSH8 0xFFFFFFFFFFFFFFFF DUP2 GT ISZERO PUSH2 0x37A JUMPI PUSH2 0x379 PUSH2 0x5ED JUMP JUMPDEST JUMPDEST PUSH2 0x386 DUP6 DUP3 DUP7 ADD PUSH2 0x302 JUMP JUMPDEST SWAP3 POP POP PUSH1 0x20 PUSH2 0x397 DUP6 DUP3 DUP7 ADD PUSH2 0x330 JUMP JUMPDEST SWAP2 POP POP SWAP3 POP SWAP3 SWAP1 POP JUMP JUMPDEST PUSH1 0x0 PUSH1 0x20 DUP3 DUP5 SUB SLT ISZERO PUSH2 0x3B7 JUMPI PUSH2 0x3B6 PUSH2 0x5F2 JUMP JUMPDEST JUMPDEST PUSH1 0x0 PUSH2 0x3C5 DUP5 DUP3 DUP6 ADD PUSH2 0x330 JUMP JUMPDEST SWAP2 POP POP SWAP3 SWAP2 POP POP JUMP JUMPDEST PUSH2 0x3D7 DUP2 PUSH2 0x4CE JUMP JUMPDEST DUP3 MSTORE POP POP JUMP JUMPDEST PUSH2 0x3E6 DUP2 PUSH2 0x4DA JUMP JUMPDEST DUP3 MSTORE POP POP JUMP JUMPDEST PUSH1 0x0 PUSH1 0x20 DUP3 ADD SWAP1 POP PUSH2 0x401 PUSH1 0x0 DUP4 ADD DUP5 PUSH2 0x3CE JUMP JUMPDEST SWAP3 SWAP2 POP POP JUMP JUMPDEST PUSH1 0x0 PUSH1 0x20 DUP3 ADD SWAP1 POP PUSH2 0x41C PUSH1 0x0 DUP4 ADD DUP5 PUSH2 0x3DD JUMP JUMPDEST SWAP3 SWAP2 POP POP JUMP JUMPDEST PUSH1 0x0 PUSH2 0x42C PUSH2 0x43D JUMP JUMPDEST SWAP1 POP PUSH2 0x438 DUP3 DUP3 PUSH2 0x525 JUMP JUMPDEST SWAP2 SWAP1 POP JUMP JUMPDEST PUSH1 0x0 PUSH1 0x40 MLOAD SWAP1 POP SWAP1 JUMP JUMPDEST PUSH1 0x0 PUSH8 0xFFFFFFFFFFFFFFFF DUP3 GT ISZERO PUSH2 0x462 JUMPI PUSH2 0x461 PUSH2 0x5B4 JUMP JUMPDEST JUMPDEST PUSH2 0x46B DUP3 PUSH2 0x5F7 JUMP JUMPDEST SWAP1 POP PUSH1 0x20 DUP2 ADD SWAP1 POP SWAP2 SWAP1 POP JUMP JUMPDEST PUSH1 0x0 PUSH2 0x483 DUP3 PUSH2 0x4DA JUMP JUMPDEST SWAP2 POP PUSH2 0x48E DUP4 PUSH2 0x4DA JUMP JUMPDEST SWAP3 POP DUP3 PUSH32 0xFFFFFFFFFFFFFFFFFFFFFFFFFFFFFFFFFFFFFFFFFFFFFFFFFFFFFFFFFFFFFFFF SUB DUP3 GT ISZERO PUSH2 0x4C3 JUMPI PUSH2 0x4C2 PUSH2 0x556 JUMP JUMPDEST JUMPDEST DUP3 DUP3 ADD SWAP1 POP SWAP3 SWAP2 POP POP JUMP JUMPDEST PUSH1 0x0 DUP2 ISZERO ISZERO SWAP1 POP SWAP2 SWAP1 POP JUMP JUMPDEST PUSH1 0x0 DUP2 SWAP1 POP SWAP2 SWAP1 POP JUMP JUMPDEST DUP3 DUP2 DUP4 CALLDATACOPY PUSH1 0x0 DUP4 DUP4 ADD MSTORE POP POP POP JUMP JUMPDEST PUSH1 0x0 PUSH1 0x2 DUP3 DIV SWAP1 POP PUSH1 0x1 DUP3 AND DUP1 PUSH2 0x50B JUMPI PUSH1 0x7F DUP3 AND SWAP2 POP JUMPDEST PUSH1 0x20 DUP3 LT DUP2 EQ ISZERO PUSH2 0x51F JUMPI PUSH2 0x51E PUSH2 0x585 JUMP JUMPDEST JUMPDEST POP SWAP2 SWAP1 POP JUMP JUMPDEST PUSH2 0x52E DUP3 PUSH2 0x5F7 JUMP JUMPDEST DUP2 ADD DUP2 DUP2 LT PUSH8 0xFFFFFFFFFFFFFFFF DUP3 GT OR ISZERO PUSH2 0x54D JUMPI PUSH2 0x54C PUSH2 0x5B4 JUMP JUMPDEST JUMPDEST DUP1 PUSH1 0x40 MSTORE POP POP POP JUMP JUMPDEST PUSH32 0x4E487B7100000000000000000000000000000000000000000000000000000000 PUSH1 0x0 MSTORE PUSH1 0x11 PUSH1 0x4 MSTORE PUSH1 0x24 PUSH1 0x0 REVERT JUMPDEST PUSH32 0x4E487B7100000000000000000000000000000000000000000000000000000000 PUSH1 0x0 MSTORE PUSH1 0x22 PUSH1 0x4 MSTORE PUSH1 0x24 PUSH1 0x0 REVERT JUMPDEST PUSH32 0x4E487B7100000000000000000000000000000000000000000000000000000000 PUSH1 0x0 MSTORE PUSH1 0x41 PUSH1 0x4 MSTORE PUSH1 0x24 PUSH1 0x0 REVERT JUMPDEST PUSH1 0x0 DUP1 REVERT JUMPDEST PUSH1 0x0 DUP1 REVERT JUMPDEST PUSH1 0x0 DUP1 REVERT JUMPDEST PUSH1 0x0 DUP1 REVERT JUMPDEST PUSH1 0x0 PUSH1 0x1F NOT PUSH1 0x1F DUP4 ADD AND SWAP1 POP SWAP2 SWAP1 POP JUMP JUMPDEST PUSH2 0x611 DUP2 PUSH2 0x4DA JUMP JUMPDEST DUP2 EQ PUSH2 0x61C JUMPI PUSH1 0x0 DUP1 REVERT JUMPDEST POP JUMP INVALID LOG2 PUSH5 0x6970667358 0x22 SLT KECCAK256 MUL 0xBE STATICCALL 0xCA 0x4C PUSH23 0x222B95FCD0D5C0552F194E122EE110C644A978D2966990 0xC2 0xC1 0xAD PUSH5 0x736F6C6343 STOP ADDMOD SMOD STOP CALLER "
		},
		"gasEstimates": {
			"creation": {
				"codeDepositCost": "324200",
				"executionCost": "362",
				"totalCost": "324562"
			},
			"external": {
				"check()": "2534",
				"claim(uint256)": "360",
				"enroll(string,uint256)": "infinite",
				"payPremium(uint256)": "infinite",
				"totalFarmers()": "2451",
				"trigger()": "26787"
			}
		},
		"methodIdentifiers": {
			"check()": "919840ad",
			"claim(uint256)": "379607f5",
			"enroll(string,uint256)": "e50e2c63",
			"payPremium(uint256)": "4364b26e",
			"totalFarmers()": "6017509b",
			"trigger()": "7fec8d38"
		}
	},
	"abi": [
		{
			"inputs": [],
			"name": "check",
			"outputs": [
				{
					"internalType": "bool",
					"name": "",
					"type": "bool"
				}
			],
			"stateMutability": "view",
			"type": "function"
		},
		{
			"inputs": [
				{
					"internalType": "uint256",
					"name": "farmerLocation_",
					"type": "uint256"
				}
			],
			"name": "claim",
			"outputs": [],
			"stateMutability": "payable",
			"type": "function"
		},
		{
			"inputs": [
				{
					"internalType": "string",
					"name": "farmerLocation_",
					"type": "string"
				},
				{
					"internalType": "uint256",
					"name": "premium_",
					"type": "uint256"
				}
			],
			"name": "enroll",
			"outputs": [],
			"stateMutability": "nonpayable",
			"type": "function"
		},
		{
			"inputs": [
				{
					"internalType": "uint256",
					"name": "farmerid_",
					"type": "uint256"
				}
			],
			"name": "payPremium",
			"outputs": [],
			"stateMutability": "payable",
			"type": "function"
		},
		{
			"inputs": [],
			"name": "totalFarmers",
			"outputs": [
				{
					"internalType": "uint256",
					"name": "",
					"type": "uint256"
				}
			],
			"stateMutability": "view",
			"type": "function"
		},
		{
			"inputs": [],
			"name": "trigger",
			"outputs": [
				{
					"internalType": "bool",
					"name": "",
					"type": "bool"
				}
			],
			"stateMutability": "nonpayable",
			"type": "function"
		}
	]
}