{
	"data": {
		"bytecode": {
			"linkReferences": {},
			"object": "608060405234801561001057600080fd5b50610364806100206000396000f3fe608060405234801561001057600080fd5b50600436106100575760003560e01c8063164ab7e61461005c57806326d023f31461007a5780637fdcf01f14610098578063ba1ba420146100b6578063c2d6fdea146100d4575b600080fd5b6100646100de565b604051610071919061023b565b60405180910390f35b6100826100f1565b60405161008f9190610220565b60405180910390f35b6100a0610102565b6040516100ad9190610256565b60405180910390f35b6100be61011b565b6040516100cb9190610205565b60405180910390f35b6100dc610148565b005b600060059054906101000a900460c81b81565b60008054906101000a900460d81b81565b60008060009054906101000a905050600560ff16905090565b60008060009054906101000a900460d81b60026005811061013f5761013e6102ff565b5b1a60f81b905090565b7f61626364650000000000000000000000000000000000000000000000000000006000806101000a81548164ffffffffff021916908360d81c02179055507f3132616263646500000000000000000000000000000000000000000000000000600060056101000a81548166ffffffffffffff021916908360c81c0217905550565b6101d281610271565b82525050565b6101e18161029d565b82525050565b6101f0816102c9565b82525050565b6101ff816102f5565b82525050565b600060208201905061021a60008301846101c9565b92915050565b600060208201905061023560008301846101d8565b92915050565b600060208201905061025060008301846101e7565b92915050565b600060208201905061026b60008301846101f6565b92915050565b60007fff0000000000000000000000000000000000000000000000000000000000000082169050919050565b60007fffffffffff00000000000000000000000000000000000000000000000000000082169050919050565b60007fffffffffffffff0000000000000000000000000000000000000000000000000082169050919050565b6000819050919050565b7f4e487b7100000000000000000000000000000000000000000000000000000000600052603260045260246000fdfea26469706673582212202e12a0d1de76924097886bc855467fcc902b77aa679364f8ee448061488b0aba64736f6c63430008070033",
			"opcodes": "PUSH1 0x80 PUSH1 0x40 MSTORE CALLVALUE DUP1 ISZERO PUSH2 0x10 JUMPI PUSH1 0x0 DUP1 REVERT JUMPDEST POP PUSH2 0x364 DUP1 PUSH2 0x20 PUSH1 0x0 CODECOPY PUSH1 0x0 RETURN INVALID PUSH1 0x80 PUSH1 0x40 MSTORE CALLVALUE DUP1 ISZERO PUSH2 0x10 JUMPI PUSH1 0x0 DUP1 REVERT JUMPDEST POP PUSH1 0x4 CALLDATASIZE LT PUSH2 0x57 JUMPI PUSH1 0x0 CALLDATALOAD PUSH1 0xE0 SHR DUP1 PUSH4 0x164AB7E6 EQ PUSH2 0x5C JUMPI DUP1 PUSH4 0x26D023F3 EQ PUSH2 0x7A JUMPI DUP1 PUSH4 0x7FDCF01F EQ PUSH2 0x98 JUMPI DUP1 PUSH4 0xBA1BA420 EQ PUSH2 0xB6 JUMPI DUP1 PUSH4 0xC2D6FDEA EQ PUSH2 0xD4 JUMPI JUMPDEST PUSH1 0x0 DUP1 REVERT JUMPDEST PUSH2 0x64 PUSH2 0xDE JUMP JUMPDEST PUSH1 0x40 MLOAD PUSH2 0x71 SWAP2 SWAP1 PUSH2 0x23B JUMP JUMPDEST PUSH1 0x40 MLOAD DUP1 SWAP2 SUB SWAP1 RETURN JUMPDEST PUSH2 0x82 PUSH2 0xF1 JUMP JUMPDEST PUSH1 0x40 MLOAD PUSH2 0x8F SWAP2 SWAP1 PUSH2 0x220 JUMP JUMPDEST PUSH1 0x40 MLOAD DUP1 SWAP2 SUB SWAP1 RETURN JUMPDEST PUSH2 0xA0 PUSH2 0x102 JUMP JUMPDEST PUSH1 0x40 MLOAD PUSH2 0xAD SWAP2 SWAP1 PUSH2 0x256 JUMP JUMPDEST PUSH1 0x40 MLOAD DUP1 SWAP2 SUB SWAP1 RETURN JUMPDEST PUSH2 0xBE PUSH2 0x11B JUMP JUMPDEST PUSH1 0x40 MLOAD PUSH2 0xCB SWAP2 SWAP1 PUSH2 0x205 JUMP JUMPDEST PUSH1 0x40 MLOAD DUP1 SWAP2 SUB SWAP1 RETURN JUMPDEST PUSH2 0xDC PUSH2 0x148 JUMP JUMPDEST STOP JUMPDEST PUSH1 0x0 PUSH1 0x5 SWAP1 SLOAD SWAP1 PUSH2 0x100 EXP SWAP1 DIV PUSH1 0xC8 SHL DUP2 JUMP JUMPDEST PUSH1 0x0 DUP1 SLOAD SWAP1 PUSH2 0x100 EXP SWAP1 DIV PUSH1 0xD8 SHL DUP2 JUMP JUMPDEST PUSH1 0x0 DUP1 PUSH1 0x0 SWAP1 SLOAD SWAP1 PUSH2 0x100 EXP SWAP1 POP POP PUSH1 0x5 PUSH1 0xFF AND SWAP1 POP SWAP1 JUMP JUMPDEST PUSH1 0x0 DUP1 PUSH1 0x0 SWAP1 SLOAD SWAP1 PUSH2 0x100 EXP SWAP1 DIV PUSH1 0xD8 SHL PUSH1 0x2 PUSH1 0x5 DUP2 LT PUSH2 0x13F JUMPI PUSH2 0x13E PUSH2 0x2FF JUMP JUMPDEST JUMPDEST BYTE PUSH1 0xF8 SHL SWAP1 POP SWAP1 JUMP JUMPDEST PUSH32 0x6162636465000000000000000000000000000000000000000000000000000000 PUSH1 0x0 DUP1 PUSH2 0x100 EXP DUP2 SLOAD DUP2 PUSH5 0xFFFFFFFFFF MUL NOT AND SWAP1 DUP4 PUSH1 0xD8 SHR MUL OR SWAP1 SSTORE POP PUSH32 0x3132616263646500000000000000000000000000000000000000000000000000 PUSH1 0x0 PUSH1 0x5 PUSH2 0x100 EXP DUP2 SLOAD DUP2 PUSH7 0xFFFFFFFFFFFFFF MUL NOT AND SWAP1 DUP4 PUSH1 0xC8 SHR MUL OR SWAP1 SSTORE POP JUMP JUMPDEST PUSH2 0x1D2 DUP2 PUSH2 0x271 JUMP JUMPDEST DUP3 MSTORE POP POP JUMP JUMPDEST PUSH2 0x1E1 DUP2 PUSH2 0x29D JUMP JUMPDEST DUP3 MSTORE POP POP JUMP JUMPDEST PUSH2 0x1F0 DUP2 PUSH2 0x2C9 JUMP JUMPDEST DUP3 MSTORE POP POP JUMP JUMPDEST PUSH2 0x1FF DUP2 PUSH2 0x2F5 JUMP JUMPDEST DUP3 MSTORE POP POP JUMP JUMPDEST PUSH1 0x0 PUSH1 0x20 DUP3 ADD SWAP1 POP PUSH2 0x21A PUSH1 0x0 DUP4 ADD DUP5 PUSH2 0x1C9 JUMP JUMPDEST SWAP3 SWAP2 POP POP JUMP JUMPDEST PUSH1 0x0 PUSH1 0x20 DUP3 ADD SWAP1 POP PUSH2 0x235 PUSH1 0x0 DUP4 ADD DUP5 PUSH2 0x1D8 JUMP JUMPDEST SWAP3 SWAP2 POP POP JUMP JUMPDEST PUSH1 0x0 PUSH1 0x20 DUP3 ADD SWAP1 POP PUSH2 0x250 PUSH1 0x0 DUP4 ADD DUP5 PUSH2 0x1E7 JUMP JUMPDEST SWAP3 SWAP2 POP POP JUMP JUMPDEST PUSH1 0x0 PUSH1 0x20 DUP3 ADD SWAP1 POP PUSH2 0x26B PUSH1 0x0 DUP4 ADD DUP5 PUSH2 0x1F6 JUMP JUMPDEST SWAP3 SWAP2 POP POP JUMP JUMPDEST PUSH1 0x0 PUSH32 0xFF00000000000000000000000000000000000000000000000000000000000000 DUP3 AND SWAP1 POP SWAP2 SWAP1 POP JUMP JUMPDEST PUSH1 0x0 PUSH32 0xFFFFFFFFFF000000000000000000000000000000000000000000000000000000 DUP3 AND SWAP1 POP SWAP2 SWAP1 POP JUMP JUMPDEST PUSH1 0x0 PUSH32 0xFFFFFFFFFFFFFF00000000000000000000000000000000000000000000000000 DUP3 AND SWAP1 POP SWAP2 SWAP1 POP JUMP JUMPDEST PUSH1 0x0 DUP2 SWAP1 POP SWAP2 SWAP1 POP JUMP JUMPDEST PUSH32 0x4E487B7100000000000000000000000000000000000000000000000000000000 PUSH1 0x0 MSTORE PUSH1 0x32 PUSH1 0x4 MSTORE PUSH1 0x24 PUSH1 0x0 REVERT INVALID LOG2 PUSH5 0x6970667358 0x22 SLT KECCAK256 0x2E SLT LOG0 0xD1 0xDE PUSH23 0x924097886BC855467FCC902B77AA679364F8EE44806148 DUP12 EXP 0xBA PUSH5 0x736F6C6343 STOP ADDMOD SMOD STOP CALLER "
		},
		"gasEstimates": {
			"creation": {
				"codeDepositCost": "173600",
				"executionCost": "220",
				"totalCost": "173820"
			},
			"external": {
				"getdigit()": "2558",
				"getlen()": "2497",
				"setval()": "48794",
				"temp1()": "2468",
				"temp2()": "2499"
			}
		},
		"methodIdentifiers": {
			"getdigit()": "ba1ba420",
			"getlen()": "7fdcf01f",
			"setval()": "c2d6fdea",
			"temp1()": "26d023f3",
			"temp2()": "164ab7e6"
		}
	},
	"abi": [
		{
			"inputs": [],
			"name": "getdigit",
			"outputs": [
				{
					"internalType": "bytes1",
					"name": "",
					"type": "bytes1"
				}
			],
			"stateMutability": "view",
			"type": "function"
		},
		{
			"inputs": [],
			"name": "getlen",
			"outputs": [
				{
					"internalType": "uint256",
					"name": "",
					"type": "uint256"
				}
			],
			"stateMutability": "view",
			"type": "function"
		},
		{
			"inputs": [],
			"name": "setval",
			"outputs": [],
			"stateMutability": "nonpayable",
			"type": "function"
		},
		{
			"inputs": [],
			"name": "temp1",
			"outputs": [
				{
					"internalType": "bytes5",
					"name": "",
					"type": "bytes5"
				}
			],
			"stateMutability": "view",
			"type": "function"
		},
		{
			"inputs": [],
			"name": "temp2",
			"outputs": [
				{
					"internalType": "bytes7",
					"name": "",
					"type": "bytes7"
				}
			],
			"stateMutability": "view",
			"type": "function"
		}
	]
}